{"contracts/TouchGrass.sol":{"TouchGrass":{"abi":[{"inputs":[{"internalType":"address","name":"_verifierAddress","type":"address"},{"internalType":"address","name":"_charityAddress","type":"address"},{"internalType":"address","name":"_treasuryAddress","type":"address"},{"internalType":"uint256","name":"_USDCFee","type":"uint256"},{"internalType":"uint256","name":"_USDCMinStake","type":"uint256"}],"stateMutability":"nonpayable","type":"constructor"},{"inputs":[],"name":"BurnPercentLessThan100","type":"error"},{"inputs":[],"name":"CannotRecoverLockedFunds","type":"error"},{"inputs":[],"name":"CannotRecoverStakedTokens","type":"error"},{"inputs":[],"name":"CannotSweepLock","type":"error"},{"inputs":[],"name":"CannotSweepPartialPenalty","type":"error"},{"inputs":[],"name":"ChallengeActive","type":"error"},{"inputs":[],"name":"ChallengeAlreadySuccess","type":"error"},{"inputs":[],"name":"ChallengeAlreadyWithdrawn","type":"error"},{"inputs":[],"name":"ChallengeNotExpired","type":"error"},{"inputs":[],"name":"ChallengeSuccessful","type":"error"},{"inputs":[],"name":"CountTooLarge","type":"error"},{"inputs":[],"name":"DuplicateAddresses","type":"error"},{"inputs":[],"name":"DurationCausesTimestampOverflow","type":"error"},{"inputs":[],"name":"DurationTooLarge","type":"error"},{"inputs":[],"name":"EnforcedPause","type":"error"},{"inputs":[],"name":"EthTransferFailed","type":"error"},{"inputs":[],"name":"ExpectedPause","type":"error"},{"inputs":[],"name":"FeeChangeTooLarge","type":"error"},{"inputs":[],"name":"FeeTransferFailed","type":"error"},{"inputs":[],"name":"FundsLocked","type":"error"},{"inputs":[],"name":"GracePeriodActive","type":"error"},{"inputs":[],"name":"GracePeriodCannotBeLessThanADay","type":"error"},{"inputs":[],"name":"GracePeriodCausesOverflow","type":"error"},{"inputs":[],"name":"GracePeriodTooLarge","type":"error"},{"inputs":[],"name":"GracePeriodTooLong","type":"error"},{"inputs":[],"name":"InsufficientEth","type":"error"},{"inputs":[],"name":"InsufficientFee","type":"error"},{"inputs":[],"name":"InsufficientPayment","type":"error"},{"inputs":[],"name":"InvalidAddress","type":"error"},{"inputs":[],"name":"InvalidCount","type":"error"},{"inputs":[],"name":"InvalidDuration","type":"error"},{"inputs":[],"name":"InvalidInput","type":"error"},{"inputs":[],"name":"InvalidPayment","type":"error"},{"inputs":[],"name":"InvalidPenaltyPercent","type":"error"},{"inputs":[],"name":"InvalidPriceData","type":"error"},{"inputs":[],"name":"InvalidStake","type":"error"},{"inputs":[],"name":"InvalidTokenConfig","type":"error"},{"inputs":[],"name":"InvalidVoluntaryDonationPercent","type":"error"},{"inputs":[],"name":"InvalidVoluntaryDonationTarget","type":"error"},{"inputs":[],"name":"LockMultiplierCausesOverflow","type":"error"},{"inputs":[],"name":"LockMultiplierTooHigh","type":"error"},{"inputs":[],"name":"LockMultiplierTooLow","type":"error"},{"inputs":[],"name":"MaxDurationAboveAbsolute","type":"error"},{"inputs":[],"name":"MaxDurationCausesOverflow","type":"error"},{"inputs":[],"name":"MinDurationAboveMax","type":"error"},{"inputs":[],"name":"MinDurationBelowAbsolute","type":"error"},{"inputs":[],"name":"MinPenaltyPercentageHigherThan50","type":"error"},{"inputs":[],"name":"MinPenaltyPercentageMustBeGreaterThan5","type":"error"},{"inputs":[],"name":"NoPendingUpdate","type":"error"},{"inputs":[],"name":"NoPendingWithdrawal","type":"error"},{"inputs":[],"name":"NoTokensToRecover","type":"error"},{"inputs":[],"name":"NoTransferPending","type":"error"},{"inputs":[],"name":"OnlyPendingOwner","type":"error"},{"inputs":[{"internalType":"address","name":"owner","type":"address"}],"name":"OwnableInvalidOwner","type":"error"},{"inputs":[{"internalType":"address","name":"account","type":"address"}],"name":"OwnableUnauthorizedAccount","type":"error"},{"inputs":[],"name":"OwnershipRenunciationInProgress","type":"error"},{"inputs":[],"name":"OwnershipRenunciationNotInitiated","type":"error"},{"inputs":[],"name":"PenaltyPercentLessThanMinimum","type":"error"},{"inputs":[],"name":"PriceOracleNotSet","type":"error"},{"inputs":[],"name":"RecoveryFailed","type":"error"},{"inputs":[],"name":"ReentrancyGuardReentrantCall","type":"error"},{"inputs":[],"name":"ReentrantTransfer","type":"error"},{"inputs":[],"name":"RenunciationDelayNotMet","type":"error"},{"inputs":[{"internalType":"address","name":"token","type":"address"}],"name":"SafeERC20FailedOperation","type":"error"},{"inputs":[],"name":"StakeBelowMinimum","type":"error"},{"inputs":[],"name":"StalePrice","type":"error"},{"inputs":[],"name":"TimeExpired","type":"error"},{"inputs":[],"name":"TimestampOverflow","type":"error"},{"inputs":[],"name":"TokenAlreadySupported","type":"error"},{"inputs":[],"name":"TokenNotFound","type":"error"},{"inputs":[],"name":"TokenNotSupported","type":"error"},{"inputs":[],"name":"TokenTransferFailed","type":"error"},{"inputs":[],"name":"TransferDelayNotMet","type":"error"},{"inputs":[],"name":"TransferToContract","type":"error"},{"inputs":[],"name":"TransferToCurrentOwner","type":"error"},{"inputs":[],"name":"TransferToZeroAddress","type":"error"},{"inputs":[],"name":"USDCFeeOverflow","type":"error"},{"inputs":[],"name":"USDCFeeTooLow","type":"error"},{"inputs":[],"name":"USDCFeeZero","type":"error"},{"inputs":[],"name":"Unauthorized","type":"error"},{"inputs":[],"name":"UpdateNotReady","type":"error"},{"inputs":[],"name":"VerifierCannotBeOwner","type":"error"},{"inputs":[],"name":"WithdrawalClaimFailed","type":"error"},{"anonymous":false,"inputs":[{"indexed":false,"internalType":"uint256","name":"oldMinStake","type":"uint256"},{"indexed":false,"internalType":"uint256","name":"newMinStake","type":"uint256"}],"name":"BaseUSDCMinStakeUpdated","type":"event"},{"anonymous":false,"inputs":[{"indexed":true,"internalType":"uint256","name":"id","type":"uint256"},{"indexed":true,"internalType":"address","name":"staker","type":"address"},{"indexed":false,"internalType":"uint256","name":"amount","type":"uint256"}],"name":"ChallengeCreated","type":"event"},{"anonymous":false,"inputs":[{"indexed":true,"internalType":"uint256","name":"id","type":"uint256"}],"name":"ChallengeSuccess","type":"event"},{"anonymous":false,"inputs":[{"indexed":true,"internalType":"address","name":"oldCharityWallet","type":"address"},{"indexed":true,"internalType":"address","name":"newCharityWallet","type":"address"}],"name":"CharityWalletUpdated","type":"event"},{"anonymous":false,"inputs":[{"indexed":true,"internalType":"address","name":"token","type":"address"},{"indexed":true,"internalType":"address","name":"recipient","type":"address"},{"indexed":false,"internalType":"uint256","name":"amount","type":"uint256"},{"indexed":false,"internalType":"string","name":"tokenSymbol","type":"string"}],"name":"ERC20Recovered","type":"event"},{"anonymous":false,"inputs":[{"indexed":true,"internalType":"address","name":"recipient","type":"address"},{"indexed":false,"internalType":"uint256","name":"amount","type":"uint256"}],"name":"ETHRecovered","type":"event"},{"anonymous":false,"inputs":[{"indexed":true,"internalType":"bytes32","name":"tokenId","type":"bytes32"}],"name":"FallbackPriceDisabled","type":"event"},{"anonymous":false,"inputs":[{"indexed":true,"internalType":"bytes32","name":"tokenId","type":"bytes32"},{"indexed":false,"internalType":"uint256","name":"price","type":"uint256"}],"name":"FallbackPriceEnabled","type":"event"},{"anonymous":false,"inputs":[{"indexed":true,"internalType":"uint256","name":"newGracePeriod","type":"uint256"}],"name":"GracePeriodUpdated","type":"event"},{"anonymous":false,"inputs":[{"indexed":true,"internalType":"uint256","name":"newLockMultiplier","type":"uint256"}],"name":"LockMultiplierUpdated","type":"event"},{"anonymous":false,"inputs":[{"indexed":true,"internalType":"uint256","name":"newMaxDuration","type":"uint256"}],"name":"MaxDurationUpdated","type":"event"},{"anonymous":false,"inputs":[{"indexed":true,"internalType":"uint256","name":"newMinDuration","type":"uint256"}],"name":"MinDurationUpdated","type":"event"},{"anonymous":false,"inputs":[{"indexed":true,"internalType":"uint8","name":"newMinPenaltyPercentage","type":"uint8"}],"name":"MinPenaltyPercentageUpdated","type":"event"},{"anonymous":false,"inputs":[{"indexed":true,"internalType":"address","name":"multiSig","type":"address"}],"name":"MultiSigRemovedFromWhitelist","type":"event"},{"anonymous":false,"inputs":[{"indexed":true,"internalType":"address","name":"multiSig","type":"address"}],"name":"MultiSigWhitelisted","type":"event"},{"anonymous":false,"inputs":[{"indexed":true,"internalType":"address","name":"previousOwner","type":"address"}],"name":"OwnershipRenounced","type":"event"},{"anonymous":false,"inputs":[{"indexed":true,"internalType":"address","name":"owner","type":"address"}],"name":"OwnershipRenunciationCancelled","type":"event"},{"anonymous":false,"inputs":[{"indexed":true,"internalType":"address","name":"owner","type":"address"},{"indexed":false,"internalType":"uint256","name":"effectiveTime","type":"uint256"}],"name":"OwnershipRenunciationScheduled","type":"event"},{"anonymous":false,"inputs":[{"indexed":true,"internalType":"address","name":"cancelledPendingOwner","type":"address"}],"name":"OwnershipTransferCancelled","type":"event"},{"anonymous":false,"inputs":[{"indexed":true,"internalType":"address","name":"currentOwner","type":"address"},{"indexed":true,"internalType":"address","name":"pendingOwner","type":"address"},{"indexed":false,"internalType":"uint256","name":"effectiveTime","type":"uint256"}],"name":"OwnershipTransferScheduled","type":"event"},{"anonymous":false,"inputs":[{"indexed":true,"internalType":"address","name":"previousOwner","type":"address"},{"indexed":true,"internalType":"address","name":"newOwner","type":"address"}],"name":"OwnershipTransferStarted","type":"event"},{"anonymous":false,"inputs":[{"indexed":true,"internalType":"address","name":"previousOwner","type":"address"},{"indexed":true,"internalType":"address","name":"newOwner","type":"address"}],"name":"OwnershipTransferred","type":"event"},{"anonymous":false,"inputs":[{"indexed":false,"internalType":"address","name":"account","type":"address"}],"name":"Paused","type":"event"},{"anonymous":false,"inputs":[{"indexed":true,"internalType":"uint256","name":"id","type":"uint256"},{"indexed":false,"internalType":"uint256","name":"penaltyAmount","type":"uint256"},{"indexed":false,"internalType":"address","name":"destination","type":"address"}],"name":"PenaltyExecuted","type":"event"},{"anonymous":false,"inputs":[{"indexed":true,"internalType":"address","name":"token","type":"address"},{"indexed":false,"internalType":"uint256","name":"contractBalance","type":"uint256"},{"indexed":false,"internalType":"uint256","name":"lockedAmount","type":"uint256"},{"indexed":false,"internalType":"uint256","name":"recoverable","type":"uint256"}],"name":"RecoveryAttempt","type":"event"},{"anonymous":false,"inputs":[{"indexed":true,"internalType":"bytes32","name":"tokenId","type":"bytes32"},{"indexed":false,"internalType":"string","name":"symbol","type":"string"},{"indexed":true,"internalType":"address","name":"tokenAddress","type":"address"},{"indexed":true,"internalType":"address","name":"priceFeed","type":"address"}],"name":"TokenAdded","type":"event"},{"anonymous":false,"inputs":[{"indexed":true,"internalType":"bytes32","name":"tokenId","type":"bytes32"},{"indexed":false,"internalType":"address","name":"oldFeed","type":"address"},{"indexed":false,"internalType":"address","name":"newFeed","type":"address"}],"name":"TokenPriceFeedUpdated","type":"event"},{"anonymous":false,"inputs":[{"indexed":true,"internalType":"bytes32","name":"tokenId","type":"bytes32"},{"indexed":false,"internalType":"string","name":"symbol","type":"string"}],"name":"TokenRemoved","type":"event"},{"anonymous":false,"inputs":[{"indexed":true,"internalType":"address","name":"user","type":"address"},{"indexed":true,"internalType":"bytes32","name":"tokenId","type":"bytes32"},{"indexed":false,"internalType":"uint256","name":"amount","type":"uint256"}],"name":"TransferFailed","type":"event"},{"anonymous":false,"inputs":[{"indexed":true,"internalType":"address","name":"oldTreasuryWallet","type":"address"},{"indexed":true,"internalType":"address","name":"newTreasuryWallet","type":"address"}],"name":"TreasuryWalletUpdated","type":"event"},{"anonymous":false,"inputs":[{"indexed":true,"internalType":"address","name":"recipient","type":"address"}],"name":"TrustedRecipientAdded","type":"event"},{"anonymous":false,"inputs":[{"indexed":true,"internalType":"address","name":"recipient","type":"address"}],"name":"TrustedRecipientRemoved","type":"event"},{"anonymous":false,"inputs":[],"name":"USDCFeeUpdateCancelled","type":"event"},{"anonymous":false,"inputs":[{"indexed":false,"internalType":"uint256","name":"newFee","type":"uint256"},{"indexed":false,"internalType":"uint256","name":"effectiveTime","type":"uint256"}],"name":"USDCFeeUpdateScheduled","type":"event"},{"anonymous":false,"inputs":[{"indexed":false,"internalType":"uint256","name":"oldFee","type":"uint256"},{"indexed":false,"internalType":"uint256","name":"newFee","type":"uint256"}],"name":"USDCFeeUpdated","type":"event"},{"anonymous":false,"inputs":[{"indexed":false,"internalType":"address","name":"account","type":"address"}],"name":"Unpaused","type":"event"},{"anonymous":false,"inputs":[{"indexed":true,"internalType":"address","name":"oldVerifier","type":"address"},{"indexed":true,"internalType":"address","name":"newVerifier","type":"address"}],"name":"VerifierUpdated","type":"event"},{"anonymous":false,"inputs":[{"indexed":true,"internalType":"uint256","name":"id","type":"uint256"},{"indexed":true,"internalType":"address","name":"donor","type":"address"},{"indexed":false,"internalType":"uint256","name":"amount","type":"uint256"},{"indexed":false,"internalType":"address","name":"target","type":"address"}],"name":"VoluntaryDonation","type":"event"},{"anonymous":false,"inputs":[{"indexed":true,"internalType":"address","name":"user","type":"address"},{"indexed":true,"internalType":"bytes32","name":"tokenId","type":"bytes32"},{"indexed":false,"internalType":"uint256","name":"amount","type":"uint256"}],"name":"WithdrawalClaimed","type":"event"},{"anonymous":false,"inputs":[{"indexed":true,"internalType":"uint256","name":"id","type":"uint256"},{"indexed":true,"internalType":"address","name":"staker","type":"address"},{"indexed":false,"internalType":"uint256","name":"amount","type":"uint256"}],"name":"Withdrawn","type":"event"},{"inputs":[],"name":"ABSOLUTE_MAX_DURATION","outputs":[{"internalType":"uint256","name":"","type":"uint256"}],"stateMutability":"view","type":"function"},{"inputs":[],"name":"ABSOLUTE_MAX_MIN_PENALTY","outputs":[{"internalType":"uint8","name":"","type":"uint8"}],"stateMutability":"view","type":"function"},{"inputs":[],"name":"ABSOLUTE_MIN_DURATION","outputs":[{"internalType":"uint256","name":"","type":"uint256"}],"stateMutability":"view","type":"function"},{"inputs":[],"name":"ABSOLUTE_MIN_PENALTY","outputs":[{"internalType":"uint8","name":"","type":"uint8"}],"stateMutability":"view","type":"function"},{"inputs":[],"name":"FEE_UPDATE_DELAY","outputs":[{"internalType":"uint256","name":"","type":"uint256"}],"stateMutability":"view","type":"function"},{"inputs":[],"name":"GRACE_PERIOD","outputs":[{"internalType":"uint256","name":"","type":"uint256"}],"stateMutability":"view","type":"function"},{"inputs":[],"name":"LOCK_MULTIPLIER","outputs":[{"internalType":"uint256","name":"","type":"uint256"}],"stateMutability":"view","type":"function"},{"inputs":[],"name":"MAX_DURATION","outputs":[{"internalType":"uint256","name":"","type":"uint256"}],"stateMutability":"view","type":"function"},{"inputs":[],"name":"MAX_FEE_CHANGE_PERCENT","outputs":[{"internalType":"uint256","name":"","type":"uint256"}],"stateMutability":"view","type":"function"},{"inputs":[],"name":"MAX_GRACE_PERIOD","outputs":[{"internalType":"uint256","name":"","type":"uint256"}],"stateMutability":"view","type":"function"},{"inputs":[],"name":"MAX_LOCK_MULTIPLIER","outputs":[{"internalType":"uint256","name":"","type":"uint256"}],"stateMutability":"view","type":"function"},{"inputs":[],"name":"MIN_DURATION","outputs":[{"internalType":"uint256","name":"","type":"uint256"}],"stateMutability":"view","type":"function"},{"inputs":[],"name":"MIN_LOCK_MULTIPLIER","outputs":[{"internalType":"uint256","name":"","type":"uint256"}],"stateMutability":"view","type":"function"},{"inputs":[],"name":"MIN_PENALTY_PERCENTAGE","outputs":[{"internalType":"uint8","name":"","type":"uint8"}],"stateMutability":"view","type":"function"},{"inputs":[],"name":"MIN_USDC_FEE","outputs":[{"internalType":"uint256","name":"","type":"uint256"}],"stateMutability":"view","type":"function"},{"inputs":[],"name":"OWNERSHIP_RENUNCIATION_DELAY","outputs":[{"internalType":"uint256","name":"","type":"uint256"}],"stateMutability":"view","type":"function"},{"inputs":[],"name":"OWNERSHIP_TRANSFER_DELAY","outputs":[{"internalType":"uint256","name":"","type":"uint256"}],"stateMutability":"view","type":"function"},{"inputs":[],"name":"acceptOwnership","outputs":[],"stateMutability":"nonpayable","type":"function"},{"inputs":[{"internalType":"string","name":"_symbol","type":"string"},{"internalType":"address","name":"_tokenAddress","type":"address"},{"internalType":"address","name":"_priceFeed","type":"address"},{"internalType":"uint8","name":"_decimals","type":"uint8"},{"internalType":"uint256","name":"_priceStalenessTolerance","type":"uint256"}],"name":"addToken","outputs":[],"stateMutability":"nonpayable","type":"function"},{"inputs":[{"internalType":"string[]","name":"_symbols","type":"string[]"},{"internalType":"address","name":"_to","type":"address"}],"name":"batchRecoverTokens","outputs":[{"components":[{"internalType":"string","name":"symbol","type":"string"},{"internalType":"bool","name":"success","type":"bool"},{"internalType":"uint256","name":"amount","type":"uint256"},{"internalType":"string","name":"errorReason","type":"string"}],"internalType":"struct TouchGrass.RecoveryResult[]","name":"","type":"tuple[]"}],"stateMutability":"nonpayable","type":"function"},{"inputs":[{"internalType":"string","name":"_symbol","type":"string"}],"name":"calculateMinStake","outputs":[{"internalType":"uint256","name":"minStake","type":"uint256"}],"stateMutability":"view","type":"function"},{"inputs":[{"internalType":"string","name":"_symbol","type":"string"},{"internalType":"uint256","name":"_stakeAmount","type":"uint256"}],"name":"calculateRequiredPayment","outputs":[{"internalType":"uint256","name":"totalRequired","type":"uint256"},{"internalType":"uint256","name":"fee","type":"uint256"},{"internalType":"uint256","name":"minStake","type":"uint256"}],"stateMutability":"view","type":"function"},{"inputs":[{"internalType":"string","name":"_symbol","type":"string"}],"name":"calculateTokenFee","outputs":[{"internalType":"uint256","name":"fee","type":"uint256"}],"stateMutability":"view","type":"function"},{"inputs":[],"name":"canAcceptOwnership","outputs":[{"internalType":"bool","name":"","type":"bool"}],"stateMutability":"view","type":"function"},{"inputs":[],"name":"canExecuteRenunciation","outputs":[{"internalType":"bool","name":"","type":"bool"}],"stateMutability":"view","type":"function"},{"inputs":[],"name":"canExecuteUSDCFeeUpdate","outputs":[{"internalType":"bool","name":"","type":"bool"}],"stateMutability":"view","type":"function"},{"inputs":[],"name":"cancelOwnershipRenunciation","outputs":[],"stateMutability":"nonpayable","type":"function"},{"inputs":[],"name":"cancelOwnershipTransfer","outputs":[],"stateMutability":"nonpayable","type":"function"},{"inputs":[],"name":"cancelUSDCFeeUpdate","outputs":[],"stateMutability":"nonpayable","type":"function"},{"inputs":[],"name":"challengeCount","outputs":[{"internalType":"uint256","name":"","type":"uint256"}],"stateMutability":"view","type":"function"},{"inputs":[{"internalType":"uint256","name":"","type":"uint256"}],"name":"challenges","outputs":[{"internalType":"address","name":"staker","type":"address"},{"internalType":"uint8","name":"penaltyPercent","type":"uint8"},{"internalType":"enum TouchGrass.PenaltyType","name":"penaltyType","type":"uint8"},{"internalType":"bool","name":"isSuccess","type":"bool"},{"internalType":"bool","name":"isWithdrawn","type":"bool"},{"internalType":"uint8","name":"lockMultiplierSnapshot","type":"uint8"},{"internalType":"uint32","name":"gracePeriodSnapshot","type":"uint32"},{"internalType":"bytes32","name":"tokenId","type":"bytes32"},{"internalType":"uint256","name":"stakeAmount","type":"uint256"},{"internalType":"uint256","name":"duration","type":"uint256"},{"internalType":"uint256","name":"startTime","type":"uint256"}],"stateMutability":"view","type":"function"},{"inputs":[],"name":"charityWallet","outputs":[{"internalType":"address","name":"","type":"address"}],"stateMutability":"view","type":"function"},{"inputs":[{"internalType":"string","name":"_symbol","type":"string"}],"name":"claimPendingWithdrawal","outputs":[],"stateMutability":"nonpayable","type":"function"},{"inputs":[{"internalType":"string","name":"_symbol","type":"string"},{"internalType":"uint256","name":"_stakeAmount","type":"uint256"},{"internalType":"uint256","name":"_durationSeconds","type":"uint256"},{"internalType":"enum TouchGrass.PenaltyType","name":"_penaltyType","type":"uint8"},{"internalType":"uint8","name":"_penaltyPercent","type":"uint8"}],"name":"createChallenge","outputs":[],"stateMutability":"payable","type":"function"},{"inputs":[{"internalType":"string","name":"_symbol","type":"string"}],"name":"disableFallbackPrice","outputs":[],"stateMutability":"nonpayable","type":"function"},{"inputs":[{"internalType":"string","name":"_symbol","type":"string"},{"internalType":"uint256","name":"_fallbackPrice","type":"uint256"}],"name":"enableFallbackPrice","outputs":[],"stateMutability":"nonpayable","type":"function"},{"inputs":[],"name":"executeOwnershipRenunciation","outputs":[],"stateMutability":"nonpayable","type":"function"},{"inputs":[],"name":"executeUSDCFeeUpdate","outputs":[],"stateMutability":"nonpayable","type":"function"},{"inputs":[{"internalType":"address","name":"_user","type":"address"},{"internalType":"uint256","name":"_startIndex","type":"uint256"},{"internalType":"uint256","name":"_count","type":"uint256"}],"name":"getAllPendingWithdrawals","outputs":[{"internalType":"string[]","name":"symbols","type":"string[]"},{"internalType":"uint256[]","name":"amounts","type":"uint256[]"},{"internalType":"uint256","name":"totalTokens","type":"uint256"}],"stateMutability":"view","type":"function"},{"inputs":[],"name":"getAllSupportedTokens","outputs":[{"internalType":"string[]","name":"","type":"string[]"}],"stateMutability":"view","type":"function"},{"inputs":[{"internalType":"uint256","name":"_startIndex","type":"uint256"},{"internalType":"uint256","name":"_count","type":"uint256"}],"name":"getAllTokenPricing","outputs":[{"internalType":"string[]","name":"tokens","type":"string[]"},{"internalType":"uint256[]","name":"prices","type":"uint256[]"},{"internalType":"uint256[]","name":"fees","type":"uint256[]"},{"internalType":"uint256[]","name":"minStakes","type":"uint256[]"},{"internalType":"uint256","name":"totalTokens","type":"uint256"}],"stateMutability":"view","type":"function"},{"inputs":[{"internalType":"uint256","name":"_challengeId","type":"uint256"}],"name":"getChallengeLockedInfo","outputs":[{"internalType":"address","name":"staker","type":"address"},{"internalType":"bytes32","name":"tokenId","type":"bytes32"},{"internalType":"string","name":"tokenSymbol","type":"string"},{"internalType":"uint256","name":"stakeAmount","type":"uint256"},{"internalType":"bool","name":"isWithdrawn","type":"bool"},{"internalType":"bool","name":"isSuccess","type":"bool"},{"internalType":"uint256","name":"unlockTime","type":"uint256"}],"stateMutability":"view","type":"function"},{"inputs":[{"internalType":"string","name":"_symbol","type":"string"},{"internalType":"address","name":"_user","type":"address"}],"name":"getPendingWithdrawal","outputs":[{"internalType":"uint256","name":"amount","type":"uint256"}],"stateMutability":"view","type":"function"},{"inputs":[],"name":"getRecoverableETH","outputs":[{"internalType":"uint256","name":"recoverableAmount","type":"uint256"}],"stateMutability":"view","type":"function"},{"inputs":[{"internalType":"address","name":"_tokenAddress","type":"address"}],"name":"getRecoverableTokensByAddress","outputs":[{"internalType":"uint256","name":"recoverableAmount","type":"uint256"},{"internalType":"bool","name":"isSupported","type":"bool"},{"internalType":"uint256","name":"lockedAmount","type":"uint256"},{"internalType":"uint256","name":"pendingAmount","type":"uint256"}],"stateMutability":"view","type":"function"},{"inputs":[{"internalType":"string","name":"_symbol","type":"string"}],"name":"getRecoverableTokensBySymbol","outputs":[{"internalType":"uint256","name":"recoverableAmount","type":"uint256"}],"stateMutability":"view","type":"function"},{"inputs":[{"internalType":"string","name":"_symbol","type":"string"}],"name":"getTokenPrice","outputs":[{"internalType":"uint256","name":"price","type":"uint256"}],"stateMutability":"view","type":"function"},{"inputs":[{"internalType":"string","name":"_symbol","type":"string"}],"name":"getTotalPendingWithdrawals","outputs":[{"internalType":"uint256","name":"total","type":"uint256"}],"stateMutability":"view","type":"function"},{"inputs":[],"name":"owner","outputs":[{"internalType":"address","name":"","type":"address"}],"stateMutability":"view","type":"function"},{"inputs":[],"name":"ownershipRenunciationInitiated","outputs":[{"internalType":"bool","name":"","type":"bool"}],"stateMutability":"view","type":"function"},{"inputs":[],"name":"ownershipRenunciationInitiatedAt","outputs":[{"internalType":"uint256","name":"","type":"uint256"}],"stateMutability":"view","type":"function"},{"inputs":[],"name":"ownershipTransferInitiatedAt","outputs":[{"internalType":"uint256","name":"","type":"uint256"}],"stateMutability":"view","type":"function"},{"inputs":[],"name":"pause","outputs":[],"stateMutability":"nonpayable","type":"function"},{"inputs":[],"name":"paused","outputs":[{"internalType":"bool","name":"","type":"bool"}],"stateMutability":"view","type":"function"},{"inputs":[],"name":"pendingOwner","outputs":[{"internalType":"address","name":"","type":"address"}],"stateMutability":"view","type":"function"},{"inputs":[],"name":"pendingUSDCFeeUpdate","outputs":[{"internalType":"uint256","name":"newFee","type":"uint256"},{"internalType":"uint256","name":"effectiveTime","type":"uint256"},{"internalType":"bool","name":"isPending","type":"bool"}],"stateMutability":"view","type":"function"},{"inputs":[{"internalType":"bytes32","name":"","type":"bytes32"},{"internalType":"address","name":"","type":"address"}],"name":"pendingWithdrawals","outputs":[{"internalType":"uint256","name":"","type":"uint256"}],"stateMutability":"view","type":"function"},{"inputs":[{"internalType":"address","name":"_tokenAddress","type":"address"},{"internalType":"address","name":"_to","type":"address"}],"name":"recoverERC20ByAddress","outputs":[],"stateMutability":"nonpayable","type":"function"},{"inputs":[{"internalType":"string","name":"_symbol","type":"string"},{"internalType":"address","name":"_to","type":"address"}],"name":"recoverERC20BySymbol","outputs":[],"stateMutability":"nonpayable","type":"function"},{"inputs":[{"internalType":"address payable","name":"_to","type":"address"}],"name":"recoverETH","outputs":[],"stateMutability":"nonpayable","type":"function"},{"inputs":[{"internalType":"address","name":"_multiSig","type":"address"}],"name":"removeMultiSigWhitelist","outputs":[],"stateMutability":"nonpayable","type":"function"},{"inputs":[{"internalType":"string","name":"_symbol","type":"string"}],"name":"removeToken","outputs":[],"stateMutability":"nonpayable","type":"function"},{"inputs":[],"name":"renounceOwnership","outputs":[],"stateMutability":"nonpayable","type":"function"},{"inputs":[],"name":"renunciationTimeRemaining","outputs":[{"internalType":"uint256","name":"","type":"uint256"}],"stateMutability":"view","type":"function"},{"inputs":[{"internalType":"uint256","name":"_newUSDCFee","type":"uint256"}],"name":"scheduleUSDCFeeUpdate","outputs":[],"stateMutability":"nonpayable","type":"function"},{"inputs":[{"internalType":"address","name":"_newCharity","type":"address"}],"name":"setCharityWallet","outputs":[],"stateMutability":"nonpayable","type":"function"},{"inputs":[{"internalType":"uint256","name":"_newGracePeriod","type":"uint256"}],"name":"setGracePeriod","outputs":[],"stateMutability":"nonpayable","type":"function"},{"inputs":[{"internalType":"uint256","name":"_newLockMultiplier","type":"uint256"}],"name":"setLockMultiplier","outputs":[],"stateMutability":"nonpayable","type":"function"},{"inputs":[{"internalType":"uint8","name":"_newMinPenaltyPercentage","type":"uint8"}],"name":"setMinPenaltyPercentage","outputs":[],"stateMutability":"nonpayable","type":"function"},{"inputs":[{"internalType":"address","name":"_newTreasury","type":"address"}],"name":"setTreasuryWallet","outputs":[],"stateMutability":"nonpayable","type":"function"},{"inputs":[{"internalType":"uint256","name":"_newMinStake","type":"uint256"}],"name":"setUSDCMinStake","outputs":[],"stateMutability":"nonpayable","type":"function"},{"inputs":[{"internalType":"address","name":"_newVerifier","type":"address"}],"name":"setVerifier","outputs":[],"stateMutability":"nonpayable","type":"function"},{"inputs":[{"internalType":"uint256","name":"","type":"uint256"}],"name":"supportedTokenIds","outputs":[{"internalType":"bytes32","name":"","type":"bytes32"}],"stateMutability":"view","type":"function"},{"inputs":[{"internalType":"uint256","name":"_id","type":"uint256"}],"name":"sweepPenalty","outputs":[],"stateMutability":"nonpayable","type":"function"},{"inputs":[{"internalType":"bytes32","name":"","type":"bytes32"}],"name":"tokenConfigs","outputs":[{"internalType":"bool","name":"isSupported","type":"bool"},{"internalType":"address","name":"tokenAddress","type":"address"},{"internalType":"address","name":"priceFeed","type":"address"},{"internalType":"uint8","name":"decimals","type":"uint8"},{"internalType":"uint256","name":"priceStalenessTolerance","type":"uint256"},{"internalType":"bool","name":"useFallbackPrice","type":"bool"},{"internalType":"uint256","name":"fallbackPrice","type":"uint256"}],"stateMutability":"view","type":"function"},{"inputs":[{"internalType":"bytes32","name":"","type":"bytes32"}],"name":"tokenSymbols","outputs":[{"internalType":"string","name":"","type":"string"}],"stateMutability":"view","type":"function"},{"inputs":[{"internalType":"bytes32","name":"","type":"bytes32"}],"name":"totalLockedByToken","outputs":[{"internalType":"uint256","name":"","type":"uint256"}],"stateMutability":"view","type":"function"},{"inputs":[{"internalType":"bytes32","name":"","type":"bytes32"}],"name":"totalPendingWithdrawals","outputs":[{"internalType":"uint256","name":"","type":"uint256"}],"stateMutability":"view","type":"function"},{"inputs":[{"internalType":"address","name":"newOwner","type":"address"}],"name":"transferOwnership","outputs":[],"stateMutability":"nonpayable","type":"function"},{"inputs":[],"name":"treasuryWallet","outputs":[{"internalType":"address","name":"","type":"address"}],"stateMutability":"view","type":"function"},{"inputs":[{"internalType":"address","name":"","type":"address"}],"name":"trustedMultiSigs","outputs":[{"internalType":"bool","name":"","type":"bool"}],"stateMutability":"view","type":"function"},{"inputs":[{"internalType":"address","name":"","type":"address"}],"name":"trustedRecipients","outputs":[{"internalType":"bool","name":"","type":"bool"}],"stateMutability":"view","type":"function"},{"inputs":[],"name":"unpause","outputs":[],"stateMutability":"nonpayable","type":"function"},{"inputs":[{"internalType":"uint256","name":"_newMinDuration","type":"uint256"},{"internalType":"uint256","name":"_newMaxDuration","type":"uint256"}],"name":"updateDurationBounds","outputs":[],"stateMutability":"nonpayable","type":"function"},{"inputs":[{"internalType":"string","name":"_symbol","type":"string"},{"internalType":"address","name":"_newPriceFeed","type":"address"}],"name":"updatePriceFeed","outputs":[],"stateMutability":"nonpayable","type":"function"},{"inputs":[],"name":"usdcFee","outputs":[{"internalType":"uint256","name":"","type":"uint256"}],"stateMutability":"view","type":"function"},{"inputs":[],"name":"usdcMinStake","outputs":[{"internalType":"uint256","name":"","type":"uint256"}],"stateMutability":"view","type":"function"},{"inputs":[],"name":"verifier","outputs":[{"internalType":"address","name":"","type":"address"}],"stateMutability":"view","type":"function"},{"inputs":[{"internalType":"string","name":"_symbol","type":"string"}],"name":"verifyFundAccounting","outputs":[{"internalType":"bool","name":"isBalanced","type":"bool"},{"internalType":"uint256","name":"discrepancy","type":"uint256"}],"stateMutability":"view","type":"function"},{"inputs":[{"internalType":"uint256","name":"_id","type":"uint256"}],"name":"verifySuccess","outputs":[],"stateMutability":"nonpayable","type":"function"},{"inputs":[{"internalType":"address","name":"_multiSig","type":"address"}],"name":"whitelistMultiSig","outputs":[],"stateMutability":"nonpayable","type":"function"},{"inputs":[{"internalType":"uint256","name":"_id","type":"uint256"},{"internalType":"uint256","name":"_donationPercent","type":"uint256"},{"internalType":"enum TouchGrass.PenaltyType","name":"_donationTarget","type":"uint8"}],"name":"withdraw","outputs":[],"stateMutability":"nonpayable","type":"function"}],"evm":{"bytecode":{"linkReferences":{},"object":"6080346200021357601f62005c5938819003918201601f1916830191906001600160401b0383118484101762000218578160a09285926040958652833981010312620002135762000050826200022e565b6200005e602084016200022e565b906200006c8385016200022e565b936080606082015191015191600090600182553315620001fb57600280546001600160a01b0319908116909155600180543381841681179092558851929992976001600160a01b03949092859283167f8be0079c531659141344cd1fd0a4f28419497f9722a3daafe3b4186f6b6457e08880a3169687158015620001f0575b8015620001e5575b620001d657508216958681148015620001ca575b8015620001be575b620001ad573381146200019c57918891889993601499959460095416176009558783600a541617600a55168091600b541617600b55815260086020528181209460ff1995600187825416179055815220600184825416179055600c55600d55603c6011556301e1338060125562093a8060135560058255601554161760155551615a159081620002448239f35b875163f914ac3360e01b8152600490fd5b875163898cf5bd60e01b8152600490fd5b5082821687146200010f565b50828216811462000107565b63e6c4247b60e01b8152600490fd5b5083831615620000f3565b5083821615620000eb565b8551631e4fbdf760e01b815260048101839052602490fd5b600080fd5b634e487b7160e01b600052604160045260246000fd5b51906001600160a01b0382168203620002135756fe60c0604052600436101561001257600080fd5b60003560e01c80630107e47214613be35780630932a21414613b435780630b1001b414613a1a57806312095891146139da578063134dfcd8146138ba578063136f5cdd1461389c57806314926f971461387b57806315c109cc1461385e57806316b926461461384057806317f0088d146135695780631ad6534a1461354b5780631eddfecb1461352c5780631f4559221461335a57806323452b9c1461328c57806329293774146132705780632b7ac3f3146132475780632d63109f14612d7557806330563bd714612c9a5780633080f54014612c3f578063356c669314612c0b57806336227c6914612bd05780633f4ba83a14612b5e5780634626402b14612b355780634661964914612b175780634c53969014612adc5780634d7e1c7514612abe5780634e5e0e8014612a8757806352581af514612a6b5780635350758f14612a305780635437988d14612992578063586213a81461297457806359682444146128e65780635c975abb146128c05780635dbf6637146128a457806363a9f22d1461285257806363b95fe6146127f857806366f78e761461278c5780636f8225c81461276e578063715018a6146126eb57806372e20d30146126a65780637433ae7a1461268857806379ba5097146125cc5780637b167493146125825780637b208769146125595780637ccf7c071461253e5780637fe3ca36146124d55780638456cb5914612473578063889952aa146124385780638ad16bbf146123ef5780638b3e2afb146123cc5780638da5cb5b146123a35780638f1d3776146122e4578063926946d11461223457806394b7c5921461214e5780639a2830f71461201a5780639c25447914611fe5578063a018e5a014611fa6578063a2f0572514611f88578063a49641e614611f49578063a8602fea14611e5c578063b0b9151714611e40578063b1724b4614611e22578063b2bbf64714611a7d578063b6a6d17714611a5f578063be44d38d14611a17578063c1a287e2146119f9578063c24b58a4146119cd578063c5b07ffa1461178a578063d09676a914611675578063d1ce999d14611632578063d4a06c8f14611614578063d9bd722a14611594578063dc62d61414611557578063df4b8b0614611534578063e30c397814611507578063e350115614611496578063e738b2b5146113f4578063eb6d420b14611341578063ec05386b14611246578063eea2d7dc14611194578063efbcd303146110c3578063f0a9ac19146110a5578063f2e5f3c114611047578063f2f6596014610f8e578063f2fde38b14610e6e578063f56bca4b14610c94578063f6a0edb114610c2e578063f9fca4cf14610c12578063fac97c1b14610bb1578063faf74ece14610b85578063fc12134b146105ce5763ffa1cc251461041057600080fd5b346105c95760203660031901126105c957600435600052601d602052604060002060405161043d81613e11565b81546001600160a01b03808216835260ff60a083901c811660208501529192604081019061047160a886901c851683614169565b60608101848660b01c16151581526080820191858760b81c161515835263ffffffff60a0820197878160c01c16895260c81c1660c08201526001880154978860e083015260028101549561010083019687526004600383015492610120850193845201549261014081019384525116978960005260186020526104f76040600020613e86565b96519785511515958551151597519560048710156105b3576002610571971491826105a9575b508161059f575b501561058a579161054261054c9261055195948351915116906141a1565b9251905190614054565b614054565b935b6040519788978852602088015260e0604088015260e0870190613c6a565b936060860152608085015260a084015260c08301520390f35b50506105999151905190614054565b93610553565b9050511538610524565b511591503861051d565b634e487b7160e01b600052602160045260246000fd5b600080fd5b60a03660031901126105c9576001600160401b036004358181116105c9576105fa903690600401613d06565b90600460643510156105c9576084359160ff831683036105c95761061c614010565b610624613fef565b8015610b73576040519360a0850190811185821017610b5d576040526000845260208401916000835260408501906000825260608601926000845260808701916000835260405160208101906020825261069481610686604082018787614033565b03601f198101835282613e63565b5190208089526000526016602052604060002090604051906106b582613ddb565b82549160ff8316159081158152602081019360018060a01b039060081c16845260c0600460018701549660018060a01b038816604085015260ff606085019860a01c1688526002810154608085015260ff600382015416151560a08501520154910152610b4b57838161072d60ff9661073494614a69565b8a52614b30565b8552516001600160a01b031685525116905260243515610b39575160243510610b275760036064351480610b1a575b610b0857601154604435108015610afb575b610ae957606460ff841611610ad75760ff6015541660ff841610610ac55780516001600160a01b0316610a5957506107b08151602435614054565b90813410610a47575180610a0a575b50803411610983575b508151600052601c60205260406000206107e56024358254614054565b90555b60135463ffffffff81116109715760ff60145416925160ff6040519361080d85613e11565b33855216602084015261082560643560408501614169565b6000606084015260808301906000825260a0840194855263ffffffff60c085019316835260e0840190815261010084019060243582526101208501926044358452610140860194428652601e54600052601d60205260406000209760018060a01b0388511660018060a01b03198a54161789556108a960ff60208a0151168a614175565b60408801519260048410156105b3576004988a5490606060ff60b01b910151151560b01b169160ff60b81b9051151560b81b169260ff60c01b905160c01b169363ffffffff60c81b905160c81b169460ff60a81b9060a81b1690600160a81b600160e81b0319161717171717865551600186015551600285015551600384015551910155610967601e546040516024358152817f4392aedf3bdc85e85ccf5c599cb7976a5b4f7b7189118379628127df3f40b10460203393a3614192565b601e556001600055005b60405163c516778760e01b8152600490fd5b61098d90346140ac565b600080808084335af161099e61407c565b506107c8578251600052601a60205260406000203360005260205260406000206109c9828254614054565b90558251600052601b60205260406000206109e5828254614054565b90558251906040519081526000805160206158a083398151915260203392a3826107c8565b600b546000918291829182916001600160a01b03165af1610a2961407c565b5015610a3557836107bf565b604051634033e4e360e01b8152600490fd5b60405163500d4efb60e11b8152600490fd5b9034610ab3579051600b549151610a90926001600160a01b0392831692610a8392911633846140b9565b60243590309033906140b9565b8151600052601c6020526040600020610aac6024358254614054565b90556107e8565b60405163078d696560e31b8152600490fd5b60405163895cc90360e01b8152600490fd5b604051630a1dcded60e31b8152600490fd5b604051637616640160e01b8152600490fd5b5060125460443511610775565b6040516307e07b3160e21b8152600490fd5b50606460ff841610610763565b60405163de588d7360e01b8152600490fd5b604051634eba4d4960e11b8152600490fd5b604051633dd1b30560e01b8152600490fd5b634e487b7160e01b600052604160045260246000fd5b60405163b4fa3fb360e01b8152600490fd5b346105c95760203660031901126105c957600435600052601b6020526020604060002054604051908152f35b346105c957610686610be3610bc536613d5f565b93916040939193519283916020830195602087526040840191614033565b519020600052601a60205260406000209060018060a01b03166000526020526020604060002054604051908152f35b346105c95760003660031901126105c957602060405160038152f35b346105c95760203660031901126105c957610c47613d49565b610c4f61470a565b6001600160a01b03166000818152600560205260408120805460ff191690557f88d7b4e47baac0d3da32ec23b674f5a638d583d1d651a4cecceb2fbaf123844f9080a2005b346105c9576020806003193601126105c9576004356001600160401b0381116105c957610686610ccb610cec923690600401613d06565b9290610cd5614010565b604051928391868301958787526040840191614033565b5190209081600052601a81526040600020336000528152604060002054908115610e5c5782600052601a815260406000203360005281526000604081205582600052601b81526040600020610d428382546140ac565b90558260005260168152816040600020604051610d5e81613ddb565b60c0600483549360ff85161515845260ff60018060a01b03809660081c169586898701526001830154908116604087015260a01c1660608501526002810154608085015260ff600382015416151560a085015201549101528015600014610e3b5750600080808093335af1610dd161407c565b5015610df857600080516020615940833981519152905b6040519283523392a36001600055005b601b9083610e2894600052601a825260406000203360005282528360406000205560005252604060002054614054565b50604051630ae6942360e01b8152600490fd5b6000805160206159408339815191529291610e579133906144ea565b610de8565b604051639121b84f60e01b8152600490fd5b346105c95760203660031901126105c957610e87613d49565b610e8f61470a565b60ff60065416610f7c576001600160a01b0381811691908215610f6a576001541690818314610f58573b151580610f3f575b610f2d57600480546001600160a01b031916831790554260038190556202a3008101908110610f175760207f2cf6fd9b9ab77c245c3a6f994fcdd0dcad5082c5c03c2121ba304c2741a16d1d91604051908152a3005b634e487b7160e01b600052601160045260246000fd5b604051630e927f5760e21b8152600490fd5b5081600052600560205260ff6040600020541615610ec1565b60405163622c96bd60e11b8152600490fd5b604051633a954ecd60e21b8152600490fd5b60405163347c4ee760e01b8152600490fd5b346105c95760203660031901126105c957600435610faa61470a565b6201518080820290828204811483151715610f175781106110355762278d0081116110235763ffffffff8111610971576303c2670081810110611011576013557f33d1191f5a3abfe19d468d51bb5ece97489f1277a912a5b5c65992fc279ad3d4600080a2005b60405163c139a61160e01b8152600490fd5b6040516370272fbb60e11b8152600490fd5b6040516363e53bfd60e01b8152600490fd5b346105c95760603660031901126105c95761108d61109b611076611069613d49565b60443590602435906145cb565b919290604051948594606086526060860190613caa565b908482036020860152613fbb565b9060408301520390f35b346105c95760003660031901126105c9576020604051620186a08152f35b346105c95760003660031901126105c9576110dc61470a565b60065460ff8116156111825760075462093a808101809111610f17574210611170576001805460ff1990921660065560006007819055600280546001600160a01b031990811690915583169091556001600160a01b0390911690816000805160206159608339815191528280a37ff8df31144d9c2f0f6b59d69b8b98abd5459d07f2742c4df920b25aae33c64820600080a2005b604051635d94febb60e11b8152600490fd5b60405163341c92ef60e11b8152600490fd5b346105c95760003660031901126105c9576040516111b181613df6565b600e548152600f546020820190815260ff601054161580156040840152611234575142106112225760407f3e08cba9222b31bb7aac09f5dacaa0671e5c98fafd018a103e62aa35cc58714d91600c54905180600c556000600e556000600f55600060105582519182526020820152a1005b60405163813b023960e01b8152600490fd5b6040516319b2c6ef60e31b8152600490fd5b346105c95760203660031901126105c957600435611262614010565b6009546001600160a01b031633036113305780600052601d6020526040600020805460ff8160b01c1661131e5760ff8160b81c1661130c576112ad6004830154600384015490614054565b6103848101809111610f175742116112fa5760ff60b01b1916600160b01b1790557f385ed28f1b8a63ba23626539ad487fed2882db462aa0abffca4fb5f39f6a4688600080a26001600055005b604051632ddeb06560e01b8152600490fd5b6040516374df98bf60e01b8152600490fd5b604051630e26cfd960e01b8152600490fd5b6040516282b42960e81b8152600490fd5b346105c95760203660031901126105c9576004356001600160401b0381116105c95761068661137761139a923690600401613d06565b929061138161470a565b6040519283916020830195602087526040840191614033565b51902080600052601660205260ff6040600020541615610b4b57806000526016602052600360406000200160ff1981541690557f166ba91f2568f3b5f401c2d9e34cb29e8422613701d6024bbe60e627fa780b5c600080a2005b346105c95761068661141561140836613f5d565b939161138193919361470a565b5190209081600052601660205260ff6040600020541615610b4b5780156114845760207f8df6f90013e411f77a3760042c965962ef41e51850de75bbbeb0129b5311b017918360005260168252806004604060002060038101600160ff198254161790550155604051908152a2005b60405163f45e167b60e01b8152600490fd5b346105c9576114d36114e16114ef6114fd6114b96114b336613fa5565b90614be7565b95926040979194975198899860a08a5260a08a0190613caa565b9088820360208a0152613fbb565b908682036040880152613fbb565b908482036060860152613fbb565b9060808301520390f35b346105c95760003660031901126105c957602061152261578f565b6040516001600160a01b039091168152f35b346105c95760003660031901126105c957602060ff600654166040519015158152f35b346105c95760203660031901126105c957608061157a611575613d49565b6151c9565b916040519384521515602084015260408301526060820152f35b346105c95760203660031901126105c957600435600052601660205260e06040600020805490600181015490600281015460ff60048160038501541693015493604051958281161515875260018060a01b03809160081c1660208801528116604087015260a01c1660608501526080840152151560a083015260c0820152f35b346105c95760003660031901126105c9576020604051620151808152f35b346105c95760003660031901126105c95760ff600654168061165c575b6020906040519015158152f35b5060075462093a808101809111610f175742101561164f565b346105c95760203660031901126105c95760043561169161470a565b801561177857620186a0811061176657600c5480158015611729575b5081111561171157620151804201804211610f1757600080516020615860833981519152916040915b60018380516116e481613df6565b848152836020820152015281600e5580600f55600160ff19601054161760105582519182526020820152a1005b604060008051602061586083398151915291426116d6565b6101f49081830291838304141715610f17576064611748910482614054565b821161175457826116ad565b60405163464f806b60e01b8152600490fd5b604051636bf9536360e01b8152600490fd5b604051631d015f9d60e11b8152600490fd5b346105c95760403660031901126105c9576117a3613d49565b6117ab613d33565b6117b361470a565b6117bb614010565b6001600160a01b0382811680156119bb578183169384156119bb576000916040516117e581613e48565b6000815293600090601754915b828110611901575b505083159050611816575061180f9450614ee6565b6001600055005b93925050506040516370a0823160e01b81523060048201526020908181602481875afa9081156118f5576000916118c8575b5080156118b6576040608092611891836000805160206158e083398151915296886000805160206159c0833981519152606087518581526000888201528589820152a2886144ea565b815192835282015260076040820152662aa725a727aba760c91b6060820152a361180f565b604051635e4f582160e11b8152600490fd5b90508181813d83116118ee575b6118df8183613e63565b810103126105c9575185611848565b503d6118d5565b6040513d6000823e3d90fd5b61190a81613f2c565b9054600391821b1c90816000528560209160168352604060002060c060046040519261193584613ddb565b8054948a60ff968781161515875260081c169586898701526001830154918c831660408801528160a093841c166060880152600284015460808801528301541615159085015201549101521461199557505061199090614192565b6117f2565b935095505050601891945083600052526119b26040600020613e86565b928680806117fa565b60405163e6c4247b60e01b8152600490fd5b346105c95760203660031901126105c957600435600052601c6020526020604060002054604051908152f35b346105c95760003660031901126105c9576020601354604051908152f35b346105c95760403660031901126105c957611a30613d33565b600435600052601a60205260406000209060018060a01b03166000526020526020604060002054604051908152f35b346105c95760003660031901126105c9576020601154604051908152f35b346105c95760a03660031901126105c9576004356001600160401b0381116105c957611aad903690600401613d06565b611ab5613d33565b604435929091906001600160a01b03841684036105c9576064359060ff821682036105c957611ae261470a565b604051602081019060208252611b0081610686604082018887614033565b5190209182600052601660205260ff60406000205416611e10576001600160a01b038616156119bb5760843515611dfe57611b3a8661477f565b600460405191611b4983613ddb565b60018352611c2d602084019160018060a01b03891683526040850160018060a01b038b16815260ff6060870192168252611c0f6080870191608435835260ff60a08901946000865260c08a0197600089528c6000526016602052611bc160406000209b5115158c9060ff801983541691151516179055565b518a54610100600160a81b03191660089190911b610100600160a81b0316178a55915160018a0180546001600160a01b0319166001600160a01b039290921691909117815591511690614175565b516002860155511515600385019060ff801983541691151516179055565b51910155601754600160401b811015610b5d57611c6b611c54826001869401601755613f2c565b819391549060031b91821b91600019901b19161790565b90556017546000199590868101908111610f175783600052601f602052604060002055602080526040600020600160ff198254161790556018602052604060002060018060401b038511610b5d57611cc38154613da1565b601f8111611db6575b50600096601f8611600114611d41578560008051602061590083398151915295969798600091611d36575b508760011b918860031b1c19161790555b60405160208082526001600160a01b03928316979092169590928392611d319290840191614033565b0390a4005b905084013589611cf7565b601f198616978260005260206000209160005b8a8110611d9e5750876000805160206159008339815191529798999a10611d86575b505050600186811b019055611d08565b60f88960031b161c1990850135169055878080611d76565b9192602060018192868a013581550194019201611d54565b816000526020600020601f870160051c81019160208810611df4575b601f0160051c01905b818110611de85750611ccc565b60008155600101611ddb565b9091508190611dd2565b6040516303ff3dd760e11b8152600490fd5b60405163c78e82ad60e01b8152600490fd5b346105c95760003660031901126105c9576020601254604051908152f35b346105c95760003660031901126105c9576020604051600f8152f35b346105c95760203660031901126105c957611e75613d49565b611e7d61470a565b6001600160a01b039081169081156119bb5780600a54168214611f375780600954168214611f375780600b5416806000805160206159a0833981519152600080a26000526008602052604060002060ff199081815416905582600080516020615880833981519152600080a282600052600160406000209182541617905581600b549182167fa982575859d7ad2f390dc12b23f7dab8bbda047f9d0140ac68344b27bf34bfb4600080a36001600160a01b03191617600b55005b60405163898cf5bd60e01b8152600490fd5b346105c95760203660031901126105c9576001600160a01b03611f6a613d49565b166000526005602052602060ff604060002054166040519015158152f35b346105c95760003660031901126105c9576020601e54604051908152f35b346105c95760203660031901126105c9576001600160a01b03611fc7613d49565b166000526008602052602060ff604060002054166040519015158152f35b346105c95760003660031901126105c95760ff601054168061200e576020906040519015158152f35b50600f5442101561164f565b346105c95761202836613fa5565b9061203161470a565b603c8102818104603c1482151715610f17576201518090818402918483041484151715610f1757603c811061213c576303c26700821161212a5781811015612118576213c6808402828104600f1483151715610f175782600f8204036121065761209c9042196140ac565b82116120f4576011556012557f049a6934bf12da797a1e19e9f70b578af0fdab9d72c2d4b8d82984a54c9e6400600080a27f5051341ab3f6d56c8295227b7476589d73ae29d5dfaff08dfc01f67f28a8a3e3600080a2005b60405163c869336b60e01b8152600490fd5b60405163e025822360e01b8152600490fd5b604051638b1d8b4b60e01b8152600490fd5b6040516301e61e0760e51b8152600490fd5b6040516336fa738b60e01b8152600490fd5b346105c95761215c36613d5f565b9061216561470a565b61216d614010565b6001600160a01b0392828416156119bb5760405160208101906020825261219c81610686604082018787614033565b51902090816000526016602052604060002090604051916121bc83613ddb565b80549260c0600460ff86161593841584528a602085019760081c16875260ff60018201548c8116604087015260a01c1660608501526002810154608085015260ff600382015416151560a08501520154910152610b4b5785825116156119bb5761180f9561222e925116933691614eaf565b91614ee6565b346105c95760203660031901126105c95760043561225061470a565b600381106122d257600f81116122c0576303c26700818102908061227484846141b4565b036122ae574291420101106122ae57806014557f91a5406c059a34c86623b7bf1eedf868a2c312dca12617c7cb6389a9b9970233600080a2005b604051635f27482360e11b8152600490fd5b6040516309261e9560e41b8152600490fd5b604051631035a3b560e21b8152600490fd5b346105c95760203660031901126105c957600435600052601d602052604060002080549060ff8260a81c1690600181015490600281015460046003830154920154926040519460018060a01b038716865260ff8760a01c16602087015260048110156105b3576101609663ffffffff91604088015260ff8160b01c161515606088015260ff8160b81c161515608088015260ff8160c01c1660a088015260c81c1660c086015260e0850152610100840152610120830152610140820152f35b346105c95760003660031901126105c9576001546040516001600160a01b039091168152602090f35b346105c95760003660031901126105c95760206123e76157b1565b604051908152f35b346105c95760203660031901126105c9576004356001600160401b0381116105c95761242a6124246040923690600401613d06565b9061561a565b825191151582526020820152f35b346105c95760203660031901126105c9576004356001600160401b0381116105c9576123e761246d6020923690600401613d06565b9061507b565b346105c95760003660031901126105c95761248c61470a565b612494613fef565b6002805460ff60a01b1916600160a01b1790556040513381527f62e78cea01bee320cd4e420270b5ea74000d11b0c9f74754ebdbfc544b05a25890602090a1005b346105c95760203660031901126105c9576124ee613d49565b6124f661470a565b6001600160a01b03166000818152600560205260408120805460ff191660011790557f28b124bc885018cb01dc65331df0a825c10382ea21eabc26502af36ed436d8f39080a2005b346105c95760003660031901126105c95760206123e7615028565b346105c95760003660031901126105c957600a546040516001600160a01b039091168152602090f35b346105c95760003660031901126105c9576004546001600160a01b03161515806125b3576020906040519015158152f35b506003546202a3008101809111610f175742101561164f565b346105c95760003660031901126105c9576001600160a01b0333816125ef61578f565b1614158061267a575b612668576003546202a3008101809111610f175742106126565760018060a01b0319908160025416600255600154903383831617600155339116600080516020615960833981519152600080a3600454166004556000600355600080f35b604051635999a10560e11b8152600490fd5b6040516303c25d1960e61b8152600490fd5b5033816004541614156125f8565b346105c95760003660031901126105c95760206040516202a3008152f35b346105c9576126da6126e76126ba36613f5d565b92916126d46126cc8383979497614a69565b958692614b30565b93614054565b9160405193849384613f8f565b0390f35b346105c95760003660031901126105c95761270461470a565b6004546001600160a01b03908116610f7c5760065460ff8116610f7c5760019060ff191617600655426007556001541662093a804201804211610f175760207fe25d30c0102dba87353d8ca0316de41b0a0e8dd7c3867da42d3b93929702ae1091604051908152a2005b346105c95760003660031901126105c9576020600754604051908152f35b346105c95760203660031901126105c9576004356001600160401b0381116105c9576106866127c26127dd923690600401613d06565b92906040519283916020830195602087526040840191614033565b519020600052601b6020526020604060002054604051908152f35b346105c95760003660031901126105c95761281161470a565b60ff6010541615611234576000600e556000600f5560006010557ff01a470041f696cf98054d8f318e3313eaa908f515b9c966d66bdd700ebeb9de600080a1005b346105c95760003660031901126105c95761286b61470a565b60065460ff8116156111825760018060a01b03600154169060ff191660065560006007556000805160206158c0833981519152600080a2005b346105c95760003660031901126105c9576020604051603c8152f35b346105c95760003660031901126105c957602060ff60025460a01c166040519015158152f35b346105c95760203660031901126105c95760043560ff81168091036105c95761290d61470a565b600581106129625760328111612950578060ff1960155416176015557fa0544df958eb64342ece2dbbaf5f7e3215c6b1cbad9ee36b2ad9375df23e0467600080a2005b60405163015599d760e51b8152600490fd5b60405163357b60db60e21b8152600490fd5b346105c95760003660031901126105c957602060405162093a808152f35b346105c95760203660031901126105c9576129ab613d49565b6129b361470a565b6001600160a01b039081169081156119bb57338214612a1e5780600a54168214611f375780600b54168214611f3757816009549182167f0243549a92b2412f7a3caf7a2e56d65b8821b91345363faa5f57195384065fcc600080a36001600160a01b03191617600955005b60405163f914ac3360e01b8152600490fd5b346105c95760203660031901126105c9576004356001600160401b0381116105c9576123e7612a656020923690600401613d06565b90614836565b346105c95760003660031901126105c957602060405160058152f35b346105c95760203660031901126105c9576004356017548110156105c957612ab0602091613f2c565b90546040519160031b1c8152f35b346105c95760003660031901126105c9576020600d54604051908152f35b346105c95760203660031901126105c9576004356001600160401b0381116105c9576123e7612b116020923690600401613d06565b90614a69565b346105c95760003660031901126105c957602060405162278d008152f35b346105c95760003660031901126105c957600b546040516001600160a01b039091168152602090f35b346105c95760003660031901126105c957612b7761470a565b60025460ff8160a01c1615612bbe5760ff60a01b19166002556040513381527f5db9ee0a495bf2e6ff9c91a7834c1ba4fdd244a5e8aa4e537bd38aeae4b073aa90602090a1005b604051638dfc202b60e01b8152600490fd5b346105c95760203660031901126105c9576004356001600160401b0381116105c9576123e7612c056020923690600401613d06565b90614b30565b346105c95760003660031901126105c9576060600e54600f5460ff6010541690604051928352602083015215156040820152f35b346105c95760203660031901126105c957600435612c5b61470a565b8015611dfe5760407f3fac1af836e5e5cb34b3c3efbec585ce813fe5c16ed53a4ec34a8bbe31f8680d91600d549080600d5582519182526020820152a1005b346105c95760203660031901126105c957612cb3613d49565b612cbb61470a565b6001600160a01b039081169081156119bb5780600b54168214611f375780600954168214611f375780600a5416806000805160206159a0833981519152600080a26000526008602052604060002060ff199081815416905582600080516020615880833981519152600080a282600052600160406000209182541617905581600a549182167fc20073d1c4443096c55d22a3812db7261aa6911634e1a0850f068d0c9923402d600080a36001600160a01b03191617600a55005b346105c95760403660031901126105c9576004356001600160401b038082116105c957366023830112156105c9578160040135116105c95760248101366024836004013560051b840101116105c957612dcc613d33565b612dd461470a565b612ddc614010565b6001600160a01b038116156119bb57612df88360040135614524565b92612e066040519485613e63565b6004810135808552601f19908190612e1d90614524565b0160005b81811061323057505060009360005b83600401358110612edd578686156118b657600180600055604051906020808301818452845180915260408401918060408360051b8701019601926000905b838210612e7c5786880387f35b90919293948380612ecc839a603f198b82030186528951612ea581516080808552840190613c6a565b91848201511515858201526040820151604082015260608092015191818403910152613c6a565b999701959493919091019101612e6f565b612eec8185600401358461537e565b604051612f1681612f0a602095868301958787526040840191614033565b03878101835282613e63565b519020806000526016825286604060002060ff60405191612f3683613ddb565b60048154918383161515855260018060a01b038360081c168886015283600182015460018060a01b0381166040880152606060805260a01c166060860152600281015460808601528360038060a05282015416151560a0860152015460c084015216156131d457808401516001600160a01b031680151590816131ca575b5061315e57808401516001600160a01b0316613128575050612fd4615348565b90604051612fe181613e2d565b60a05181526208aa8960eb1b8482015282524790600052601c8352613015604060002054601b855260406000205490614054565b808211156130f157613026916140ac565b6000808080848c5af161303761407c565b50156130ba576001828401526040808301829052519081526001600160a01b03881690600080516020615980833981519152908490a25b613078838a6145b7565b5261308382896145b7565b505b61308f82896145b7565b5101516130a5575b6130a090614192565b612e30565b946130b26130a091614192565b959050613097565b506040516130c781613e2d565b6013815272115512081d1c985b9cd9995c8819985a5b1959606a1b8382015260805182015261306e565b50506040516130ff81613e2d565b601281527109cde40e4cac6deeccae4c2c4d8ca408aa8960731b8382015260805182015261306e565b6131439261313b868a600401358961537e565b9290916153bf565b61314d838a6145b7565b5261315882896145b7565b50613085565b505050906130a09161318d6131788388600401358761537e565b9190613184858d6145b7565b51923691614eaf565b905260805161319c838b6145b7565b51016d139bdd08184818dbdb9d1c9858dd60921b604051926131bd84613e2d565b600e845283015252614192565b90503b158c612fb4565b505050906130a0916131ee6131788388600401358761537e565b90526080516131fd838b6145b7565b510172151bdad95b881b9bdd081cdd5c1c1bdc9d1959606a1b6040519261322384613e2d565b6013845283015252614192565b60209061323b615348565b82828a01015201612e21565b346105c95760003660031901126105c9576009546040516001600160a01b039091168152602090f35b346105c95760003660031901126105c957602060405160328152f35b346105c95760003660031901126105c9576132a561470a565b6004546001600160a01b0390818116908115808061334d575b61333b57156132fc575b505060065460ff81166132d757005b60ff19166006556000600755600154166000805160206158c0833981519152600080a2005b6001600160a01b031916600455600060038190557f48a87225523c5fd46bf3b7da3223e5525f77b8136a962695d701a24699bef8f39080a281806132c8565b604051634e35843360e11b8152600490fd5b5060ff60065416156132be565b346105c9576020806003193601126105c9576004356001600160401b0381116105c95761338b903690600401613d06565b61339361470a565b604051838101908482526133af81610686604082018688614033565b519020928360005280805260ff604060002054161561351a57836000526016815260ff6040600020541615610b4b5783600052601c81526040600020546135085783600052601b8152604060002054613508578360005260168152604060002060ff1990818154169055601f8252604060002054936017549460001995868101908111610f17578082036134d5575b50506017549182156134bf57857f40fc64b980e88b51add22183817cd5475b98f00e59877f0d959e5c8ce860f6f5966134ba94019061347c82613f2c565b909182549160031b1b1916905560175586600052601f8452600060408120558380526040600020908154169055604051938385948552840191614033565b0390a2005b634e487b7160e01b600052603160045260246000fd5b6134de90613f2c565b90549060031b1c806134f2611c5484613f2c565b9055600052601f8452604060002055868061343e565b6040516321bd81c960e11b8152600490fd5b604051630cbdb7b360e41b8152600490fd5b346105c95760003660031901126105c95760206040516303c267008152f35b346105c95760003660031901126105c9576020601454604051908152f35b346105c95760603660031901126105c9576004356024359060443560048110156105c957613595614010565b6000828152601d60205260409020805490936001600160a01b039182811633036113305760ff8160b81c1661130c5760048601908154906135dc6003890192835490614054565b60ff8260b01c1660001461374a5750505050600160b81b60ff60b81b1986541617855560028501600181549601958654600052601c60205261362460406000209182546140ac565b905554906000928161367b575b505061363d92506140ac565b918280613668575b505060405191825260008051602061592083398151915260203393a36001600055005b6136749133905461434a565b8282613645565b909250606483116137385760009260018514948515908161372a575b50613718576136a8606491846141a1565b04926105b35761363d931561370f57600b54165b826136c8575b80613631565b6136d48382885461434a565b847f587e785f004641121655a324f02af272b5e9c825bf554a6ff5b9c563015eea2160405180613706339588836141d4565b0390a3856136c2565b600a54166136bc565b604051632cc10fe960e11b8152600490fd5b945050600093151588613697565b604051638639da7d60e01b8152600490fd5b92955092509250949394421160001461382e5760a81c60ff1660048110156105b35760020361381d575482549160ff8360c01c16908261378d83820293846141b4565b0361380b57549182010190811061380b57421061350857600160b81b9060ff60b81b19161781556137ea6002820191600183549101908154600052601c6020526137dd60406000209182546140ac565b905554825490339061434a565b549060405191825260008051602061592083398151915260203393a361180f565b60405163549a019760e01b8152600490fd5b505090613829916141ed565b61180f565b60405163a237d35560e01b8152600490fd5b346105c95760003660031901126105c9576020600354604051908152f35b346105c95760003660031901126105c95760206040516101f48152f35b346105c95760003660031901126105c957602060ff60155416604051908152f35b346105c95760003660031901126105c9576020600c54604051908152f35b346105c95760203660031901126105c9576004356001600160a01b038116908190036105c9576138e861470a565b6138f0614010565b80156119bb5747604051602081019061390c8161068684614e91565b519020600052601c602052613931604060002054601b60205260406000205490614054565b80821180156139c05760006000805160206159c083398151915261396661395885876140ac565b604051918291878984613f8f565b0390a2156118b657613977916140ac565b600080808084865af161398861407c565b50156139ae57602060008051602061598083398151915291604051908152a26001600055005b60405163a4b6690960e01b8152600490fd5b60006000805160206159c083398151915261396682613958565b346105c95760203660031901126105c95760043560005260186020526126e7613a066040600020613e86565b604051918291602083526020830190613c6a565b346105c95760203660031901126105c957600435613a36614010565b80600052601d602052604060002090815460ff8160b81c1661130c5760ff8160b01c16613b31576004830154906003840154613a728184614054565b421115613b1f5760ff8260a81c1660048110156105b357600214613b0d576001600160a01b038281163314159390849081613afe575b506113305783613ad5575b505050613ac35761180f916141ed565b60405163478f84e760e01b8152600490fd5b613af4935063ffffffff91613ae991614054565b9160c81c1690614054565b4210838080613ab3565b90506001541633141587613aa8565b6040516375d3f2a760e11b8152600490fd5b604051630a8f83ff60e11b8152600490fd5b60405163067d2f5b60e01b8152600490fd5b346105c957610686613b5761140836613d5f565b5190209081600052601660205260ff6040600020541615610b4b576001600160a01b03818116919082156119bb577f970f8d5d7e6e516816144d4407b19d32456882e220b4f45b59e1e4ce50a0653a92613bb260409361477f565b6000858152601660209081529084902060010180546001600160a01b031981168417909155845193168352820152a2005b346105c95760003660031901126105c957601754613c008161453b565b9060005b818110613c2157604051602080825281906126e790820186613caa565b80613c2e613c6592613f2c565b90549060031b1c6000526018602052613c4a6040600020613e86565b613c5482866145b7565b52613c5f81856145b7565b50614192565b613c04565b919082519283825260005b848110613c96575050826000602080949584010152601f8019910116010190565b602081830181015184830182015201613c75565b908082519081815260208091019281808460051b8301019501936000915b848310613cd85750505050505090565b9091929394958480613cf6600193601f198682030187528a51613c6a565b9801930193019194939290613cc8565b9181601f840112156105c9578235916001600160401b0383116105c957602083818601950101116105c957565b602435906001600160a01b03821682036105c957565b600435906001600160a01b03821682036105c957565b60406003198201126105c957600435906001600160401b0382116105c957613d8991600401613d06565b90916024356001600160a01b03811681036105c95790565b90600182811c92168015613dd1575b6020831014613dbb57565b634e487b7160e01b600052602260045260246000fd5b91607f1691613db0565b60e081019081106001600160401b03821117610b5d57604052565b606081019081106001600160401b03821117610b5d57604052565b61016081019081106001600160401b03821117610b5d57604052565b604081019081106001600160401b03821117610b5d57604052565b602081019081106001600160401b03821117610b5d57604052565b601f909101601f19168101906001600160401b03821190821017610b5d57604052565b9060405191826000825492613e9a84613da1565b908184526001948581169081600014613f095750600114613ec6575b5050613ec492500383613e63565b565b9093915060005260209081600020936000915b818310613ef1575050613ec493508201013880613eb6565b85548884018501529485019487945091830191613ed9565b915050613ec494506020925060ff191682840152151560051b8201013880613eb6565b601754811015613f4757601760005260206000200190600090565b634e487b7160e01b600052603260045260246000fd5b60406003198201126105c957600435906001600160401b0382116105c957613f8791600401613d06565b909160243590565b6040919493926060820195825260208201520152565b60409060031901126105c9576004359060243590565b90815180825260208080930193019160005b828110613fdb575050505090565b835185529381019392810192600101613fcd565b60ff60025460a01c16613ffe57565b60405163d93c066560e01b8152600490fd5b600260005414614021576002600055565b604051633ee5aeb560e01b8152600490fd5b908060209392818452848401376000828201840152601f01601f1916010190565b91908201809211610f1757565b6001600160401b038111610b5d57601f01601f191660200190565b3d156140a7573d9061408d82614061565b9161409b6040519384613e63565b82523d6000602084013e565b606090565b91908203918211610f1757565b6040516323b872dd60e01b60208201526001600160a01b03928316602482015292909116604483015260648083019390935291815260a08101918183106001600160401b03841117610b5d57613ec4926040525b906000602091828151910182855af1156118f5576000513d61416057506001600160a01b0381163b155b61413e5750565b604051635274afe760e01b81526001600160a01b039091166004820152602490fd5b60011415614137565b60048210156105b35752565b805460ff60a01b191660a09290921b60ff60a01b16919091179055565b6000198114610f175760010190565b81810292918115918404141715610f1757565b81156141be570490565b634e487b7160e01b600052601260045260246000fd5b9081526001600160a01b03909116602082015260400190565b90600160b81b60ff60b81b19835416178255600282019182549260018201938454600052601c60205261422660406000209182546140ac565b9055549281549361424a606461424260ff8860a01c16846141a1565b0480926140ac565b9460a81c60ff16600060048210156143365750918460008051602061592083398151915294928460036020961460001461430d575061dead5b816142c5575b50505085806142a9575b5050546040519485526001600160a01b031693a3565b6142be915460018060a01b038454169061434a565b3885614293565b816142f37f025552a005e45b02912def900b2c31382a6d3ad3542ae5dcf1b1f701db19d07e9383875461434a565b614302604051928392836141d4565b0390a2843880614289565b60010361432557600b546001600160a01b0316614283565b600a546001600160a01b0316614283565b634e487b7160e01b81526021600452602490fd5b919060199283549260ff84166144bd57600160ff19809516178555600091808352602090601682526040948585209086519161438583613ddb565b80549260ff84161515815260c0600460018060a01b03809660081c1693848985015260ff60018201548d8982169087015260a01c1660608501526002810154608085015260ff600382015416151560a0850152015491015280156000146144a7575016918285526008815260ff868620541660001461442e57505082809281925af161440f61407c565b501561441e57505b8154169055565b51630db2c7f160e31b8152600490fd5b91939290948380808085896108fcf161444561407c565b501561445657505050505050614417565b8084876000805160206158a08339815191529652601a85528181208782528552818120614484858254614054565b9055878152601b855220614499838254614054565b905551908152a38154169055565b935093945050506144b893506144ea565b614417565b60405163b2a722f960e01b8152600490fd5b6001600160a01b039091168152602081019190915260400190565b61451f613ec4939261451160405194859263a9059cbb60e01b6020850152602484016144cf565b03601f198101845283613e63565b61410d565b6001600160401b038111610b5d5760051b60200190565b9061454582614524565b6145526040519182613e63565b8281528092614563601f1991614524565b019060005b82811061457457505050565b806060602080938501015201614568565b9061458f82614524565b61459c6040519182613e63565b82815280926145ad601f1991614524565b0190602036910137565b8051821015613f475760209160051b010190565b92909282156146f857606483116146e657601754928390848610156146b557614608916145f9879283614054565b908082116146ad575b506140ac565b6146118161453b565b9161461b82614585565b9560005b83811061462f5750505050929190565b806146456146406146a89385614054565b613f2c565b90549060031b1c8060005260206018815260409161466583600020613e86565b61466f858b6145b7565b5261467a848a6145b7565b506000908152601a82528281206001600160a01b038816825290915220546146a2828b6145b7565b52614192565b61461f565b905038614602565b5050509150604051916146c783613e48565b60008352604051926146d884613e48565b600084526000368137929190565b604051637022f26f60e01b8152600490fd5b604051631a49577b60e11b8152600490fd5b6001546001600160a01b0316330361471e57565b60405163118cdaa760e01b8152336004820152602490fd5b51906001600160501b03821682036105c957565b908160a09103126105c95761475e81614736565b9160208201519160408101519161477c608060608401519301614736565b90565b604051633fabe5a360e21b81529060a090829060049082906001600160a01b03165afa600091816147cc575b506147c25760405163f45e167b60e01b8152600490fd5b6000121561148457565b6147ee91925060a03d81116147fa575b6147e68183613e63565b81019061474a565b505050905090386147ab565b503d6147dc565b60ff6011199116019060ff8211610f1757565b60ff166012039060ff8211610f1757565b60ff16604d8111610f1757600a0a90565b6040918251614855816106866020958683019587875288840191614033565b51902060009081526016825282812083519261487084613ddb565b815460ff811615948515815260018060a01b03809260081c168382015260018401549060ff88820192848116845260a01c1660608201526002850154966080820197885260ff6003870154169060a08301911515825260c06004809801549301928352614a595751614a4d57505116855194633fabe5a360e21b865260a0868581855afa958615614a43578596869787928892614a19575b5087891315614a09578215614a09576001600160501b039081169116106149f95761493390426140ac565b9051106149e957819086519384809263313ce56760e01b82525afa9485156149e05750829461499b575b505050601260ff831610156149865761498061497b61477c93614814565b614825565b906141a1565b61499561497b61477c93614801565b906141b4565b908092939450813d83116149d9575b6149b48183613e63565b810103126149d557519060ff821682036149d257509038808061495d565b80fd5b5080fd5b503d6149aa565b513d84823e3d90fd5b8551630cd5fa0760e11b81528390fd5b8751630cd5fa0760e11b81528590fd5b895163f45e167b60e01b81528790fd5b92505050614a3691965060a03d81116147fa576147e68183613e63565b9298939092915038614908565b87513d87823e3d90fd5b96505050505050505190565b8851633dd1b30560e01b81528690fd5b906040918251602081019060208252614a89816106868782018787614033565b51902060005260166020528260002092805193614aa585613ddb565b80549460c0600460ff881615938415845260018060a01b03809960081c16602085015260018101549889168685015260ff606085019960a01c1689526002810154608085015260ff600382015416151560a08501520154910152614b20575061477c9291614b1291614836565b60ff600c54925116916157ea565b51633dd1b30560e01b8152600490fd5b906040918251602081019060208252614b50816106868782018787614033565b51902060005260166020528260002092805193614b6c85613ddb565b80549460c0600460ff881615938415845260018060a01b03809960081c16602085015260018101549889168685015260ff606085019960a01c1689526002810154608085015260ff600382015416151560a08501520154910152614b20575061477c9291614bd991614836565b60ff600d54925116916157ea565b81156146f857606482116146e65760175491829083831015614e4157614c12916145f9849283614054565b91614c1c8361453b565b93614c2684614585565b94614c3085614585565b94614c3a81614585565b9460005b828110614c4f575050509493929190565b614c5c6146408284614054565b90549060031b1c9081600052601891602092808452604090614c8082600020613e86565b614c8a858a6145b7565b52614c9584896145b7565b5060009283528452614ca8818320613e86565b90805192635350758f60e01b84526004938685820152602491878280614cd086820189613c6a565b0381305afa90918282614e0f575b5050614d18575050505050614d139150600080815b614cfd848c6145b7565b52614d08838c6145b7565b526146a2828c6145b7565b614c3e565b9382516304c5396960e41b81528782820152878180614d3986820189613c6a565b0381305afa908115614e0457908891600091614dd4575b5091614d74829396865195869485946336227c6960e01b8652850152830190613c6a565b0381305afa918215614dca5750600091614d94575b50614d139450614cf3565b9192939482813d8311614dc3575b614dac8183613e63565b810103126149d2575090614d139392915138614d89565b503d614da2565b513d6000823e3d90fd5b9182813d8311614dfd575b614de98183613e63565b810103126149d25750518790614d74614d50565b503d614ddf565b84513d6000823e3d90fd5b909192508882813d8311614e3a575b614e288183613e63565b810103126149d2575051903880614cde565b503d614e1e565b50505060405190614e5182613e48565b60009081835260405193614e6485613e48565b82855260405193614e7485613e48565b83855260405193614e8485613e48565b8085523681379493929190565b60609060208152600360208201526208aa8960eb1b60408201520190565b929192614ebb82614061565b91614ec96040519384613e63565b8294818452818301116105c9578281602093846000960137010152565b9260018060a01b038094169260409485516370a0823160e01b815230600482015260209485826024818a5afa91821561501d57600092614fee575b50600052601c8552614f408760002054601b8752886000205490614054565b908181118760008215614fd657506000805160206159c0833981519152614f77614f6a86866140ac565b8c51918291888884613f8f565b0390a215614fc55791614f9f6000805160206158e083398151915296959492614fc0946140ac565b93614fab85828a6144ea565b88805196879687528601521696830190613c6a565b0390a3565b8751635e4f582160e11b8152600490fd5b614f776000805160206159c083398151915291614f6a565b90918682813d8311615016575b6150058183613e63565b810103126149d25750519038614f21565b503d614ffb565b88513d6000823e3d90fd5b47604051602081019061503e8161068684614e91565b519020600052601c602052615063604060002054601b60205260406000205490614054565b808211156150745761477c916140ac565b5050600090565b604091825161509a816106866020958683019587875288840191614033565b5190209060009282845260168252808420928151936150b885613ddb565b80549460ff8616159060c0600483159485845260ff60018060a01b03809b60081c169a8b8b87015260018301549081168a87015260a01c1660608501526002810154608085015260ff600382015416151560a08501520154910152906151c1575b6151ba57826024948351958680926370a0823160e01b82523060048301525afa9384156151b057859461517b575b508452601c825280842054601b90925283205461516391614054565b90818111156151765761477c92506140ac565b505090565b9093508281813d83116151a9575b6151938183613e63565b810103126151a5575192615163615147565b8480fd5b503d615189565b82513d87823e3d90fd5b5050505090565b508315615119565b604080516370a0823160e01b815230600480830191909152909290916001600160a01b03918216916020918286602481875afa95861561533d5760009661530e575b506017549360005b85811061522d575050505050505090600090600090600090565b61523681613f2c565b9054600391821b1c90816000526016875283878660002060c08c89519261525c84613ddb565b8b81548160ff918281161515885260081c1680978701526001988d8a850154938416908801528160a093841c16606088015260028401546080880152830154161515908501520154910152146152bc5750506152b790614192565b615213565b95989750989550505090508195600052601c8552601b8160002054955260002054926152e88486614054565b91828211156153025750906152fc916140ac565b93929190565b95505050600093929190565b90958382813d8311615336575b6153258183613e63565b810103126149d2575051943861520b565b503d61531b565b50513d6000823e3d90fd5b60405190608082016001600160401b03811183821017610b5d576040526060808381815260006020820152600060408201520152565b9190811015613f475760051b81013590601e19813603018212156105c95701803591906001600160401b0383116105c95760200182360381136105c9579190565b92909391936153cc615348565b946153d8368483614eaf565b865260209182018051604080516370a0823160e01b815230600482015290976001600160a01b0396939493928690839060249082908b165afa91821561560f576000926155e0575b50600052601c855261543f8860002054601b8752896000205490614054565b90818111156155a35760008989828a6154848b6154636106869c9b9a9985996140ac565b9b8c938c5116965193849283019663a9059cbb60e01b8852602484016144cf565b51925af161549061407c565b901561556a5785815180156000146155015750600191508a015283888a01525b848901516154c4575b505050505050505090565b856000805160206158e0833981519152966154f19451169789805197889788528701521697840191614033565b0390a338808080808080806154b9565b8290810103126105c95785015180151581036105c9571561552c576001858a015283888a01526154b0565b50505050929050765472616e736665722072657475726e65642066616c736560481b9150519161555b83613e2d565b60178352820152606082015290565b505050505092905070151c985b9cd9995c881c995d995c9d1959607a1b9150519161559483613e2d565b60118352820152606082015290565b5050505050929050744e6f207265636f76657261626c6520746f6b656e7360581b915051916155d183613e2d565b60158352820152606082015290565b90918682813d8311615608575b6155f78183613e63565b810103126149d25750519038615420565b503d6155ed565b89513d6000823e3d90fd5b9190604090815161563b816106866020978883019589875287840191614033565b519020906000938285526016815281852082519061565882613ddb565b80549160ff831615908115815260c060048683019460018060a01b03809760081c16865260ff60018201548881168b87015260a01c1660608501526002810154608085015260ff600382015416151560a0850152015491015261577e575116918261570d576156dc925047935b8652601c8252601b81872054925285205490614054565b908082036156ec57505060019190565b81811115615704576156ff9293506140ac565b600191565b61477c916140ac565b816024938251948580926370a0823160e01b82523060048301525afa8015615774578690615741575b6156dc9350936156c5565b508183813d831161576d575b6157578183613e63565b81010312615769576156dc9251615736565b8580fd5b503d61574d565b81513d88823e3d90fd5b8351633dd1b30560e01b8152600490fd5b6002546001600160a01b039081169081156157a8575090565b90506004541690565b60ff60065416156157e55760075462093a808101809111610f1757804210156157df5761477c9042906140ac565b50600090565b600090565b91909164e8d4a5100090818102918183041481151715610f175768327cb2734119d3b7a9601e1b0290808204670de0b6b3a76400001490151715610f175761477c92615835916141b4565b601260ff831610156158505761499561497b61477c93614814565b61498061497b61477c9361480156fe9b554b4a09efa18e2f36c9ccb218761ed612341710703f6ff2edf03947238c72d868c725f20c65ee0e4e29658caef2a516c5ac422857d6a3cd96b99792db2af6b7fe9634fea2ac2458084452e1e7857638ebaffb91d5b22d34d74a134801e9330835edca54b08506b1f74526581e529d0bdc609b380843d5bfee9fdef1f2c91b733a14d80f1fcb0833e90f69a6f8716c5a12586560defba943c66af96373049e528e5975397d163506e3a8ee02d8585bd27a404861f4b6b4b142b22c085868cecf7d23a3cbe4e8b36ff82fd1b05b1b17373dc7804b4ebbd6e2356716ef20237284396add8db3ebf4773bd540256f3a4357001e69305efcb1a95d565284fbdae48be0079c531659141344cd1fd0a4f28419497f9722a3daafe3b4186f6b6457e005af21d7340bf49fde03a32c3bcc785015c94acd83531fc6dfbfb93a24c364ca2225519bb0d4452c8f10be7e343f6afbd9cba6ca41410b1d7abdb148c5f7b7c56c4916d52fd6fd994184fad1112697ee8292a679db49ca66f12ac15bff60980ea2646970667358221220e9f6dfeca606babca6cba55727fe6f7c753e8b8d1da125ed278b46436f3a1a7964736f6c63430008140033","opcodes":"PUSH1 0x80 CALLVALUE PUSH3 0x213 JUMPI PUSH1 0x1F PUSH3 0x5C59 CODESIZE DUP2 SWAP1 SUB SWAP2 DUP3 ADD PUSH1 0x1F NOT AND DUP4 ADD SWAP2 SWAP1 PUSH1 0x1 PUSH1 0x1 PUSH1 0x40 SHL SUB DUP4 GT DUP5 DUP5 LT OR PUSH3 0x218 JUMPI DUP2 PUSH1 0xA0 SWAP3 DUP6 SWAP3 PUSH1 0x40 SWAP6 DUP7 MSTORE DUP4 CODECOPY DUP2 ADD SUB SLT PUSH3 0x213 JUMPI PUSH3 0x50 DUP3 PUSH3 0x22E JUMP JUMPDEST PUSH3 0x5E PUSH1 0x20 DUP5 ADD PUSH3 0x22E JUMP JUMPDEST SWAP1 PUSH3 0x6C DUP4 DUP6 ADD PUSH3 0x22E JUMP JUMPDEST SWAP4 PUSH1 0x80 PUSH1 0x60 DUP3 ADD MLOAD SWAP2 ADD MLOAD SWAP2 PUSH1 0x0 SWAP1 PUSH1 0x1 DUP3 SSTORE CALLER ISZERO PUSH3 0x1FB JUMPI PUSH1 0x2 DUP1 SLOAD PUSH1 0x1 PUSH1 0x1 PUSH1 0xA0 SHL SUB NOT SWAP1 DUP2 AND SWAP1 SWAP2 SSTORE PUSH1 0x1 DUP1 SLOAD CALLER DUP2 DUP5 AND DUP2 OR SWAP1 SWAP3 SSTORE DUP9 MLOAD SWAP3 SWAP10 SWAP3 SWAP8 PUSH1 0x1 PUSH1 0x1 PUSH1 0xA0 SHL SUB SWAP5 SWAP1 SWAP3 DUP6 SWAP3 DUP4 AND PUSH32 0x8BE0079C531659141344CD1FD0A4F28419497F9722A3DAAFE3B4186F6B6457E0 DUP9 DUP1 LOG3 AND SWAP7 DUP8 ISZERO DUP1 ISZERO PUSH3 0x1F0 JUMPI JUMPDEST DUP1 ISZERO PUSH3 0x1E5 JUMPI JUMPDEST PUSH3 0x1D6 JUMPI POP DUP3 AND SWAP6 DUP7 DUP2 EQ DUP1 ISZERO PUSH3 0x1CA JUMPI JUMPDEST DUP1 ISZERO PUSH3 0x1BE JUMPI JUMPDEST PUSH3 0x1AD JUMPI CALLER DUP2 EQ PUSH3 0x19C JUMPI SWAP2 DUP9 SWAP2 DUP9 SWAP10 SWAP4 PUSH1 0x14 SWAP10 SWAP6 SWAP5 PUSH1 0x9 SLOAD AND OR PUSH1 0x9 SSTORE DUP8 DUP4 PUSH1 0xA SLOAD AND OR PUSH1 0xA SSTORE AND DUP1 SWAP2 PUSH1 0xB SLOAD AND OR PUSH1 0xB SSTORE DUP2 MSTORE PUSH1 0x8 PUSH1 0x20 MSTORE DUP2 DUP2 KECCAK256 SWAP5 PUSH1 0xFF NOT SWAP6 PUSH1 0x1 DUP8 DUP3 SLOAD AND OR SWAP1 SSTORE DUP2 MSTORE KECCAK256 PUSH1 0x1 DUP5 DUP3 SLOAD AND OR SWAP1 SSTORE PUSH1 0xC SSTORE PUSH1 0xD SSTORE PUSH1 0x3C PUSH1 0x11 SSTORE PUSH4 0x1E13380 PUSH1 0x12 SSTORE PUSH3 0x93A80 PUSH1 0x13 SSTORE PUSH1 0x5 DUP3 SSTORE PUSH1 0x15 SLOAD AND OR PUSH1 0x15 SSTORE MLOAD PUSH2 0x5A15 SWAP1 DUP2 PUSH3 0x244 DUP3 CODECOPY RETURN JUMPDEST DUP8 MLOAD PUSH4 0xF914AC33 PUSH1 0xE0 SHL DUP2 MSTORE PUSH1 0x4 SWAP1 REVERT JUMPDEST DUP8 MLOAD PUSH4 0x898CF5BD PUSH1 0xE0 SHL DUP2 MSTORE PUSH1 0x4 SWAP1 REVERT JUMPDEST POP DUP3 DUP3 AND DUP8 EQ PUSH3 0x10F JUMP JUMPDEST POP DUP3 DUP3 AND DUP2 EQ PUSH3 0x107 JUMP JUMPDEST PUSH4 0xE6C4247B PUSH1 0xE0 SHL DUP2 MSTORE PUSH1 0x4 SWAP1 REVERT JUMPDEST POP DUP4 DUP4 AND ISZERO PUSH3 0xF3 JUMP JUMPDEST POP DUP4 DUP3 AND ISZERO PUSH3 0xEB JUMP JUMPDEST DUP6 MLOAD PUSH4 0x1E4FBDF7 PUSH1 0xE0 SHL DUP2 MSTORE PUSH1 0x4 DUP2 ADD DUP4 SWAP1 MSTORE PUSH1 0x24 SWAP1 REVERT JUMPDEST PUSH1 0x0 DUP1 REVERT JUMPDEST PUSH4 0x4E487B71 PUSH1 0xE0 SHL PUSH1 0x0 MSTORE PUSH1 0x41 PUSH1 0x4 MSTORE PUSH1 0x24 PUSH1 0x0 REVERT JUMPDEST MLOAD SWAP1 PUSH1 0x1 PUSH1 0x1 PUSH1 0xA0 SHL SUB DUP3 AND DUP3 SUB PUSH3 0x213 JUMPI JUMP INVALID PUSH1 0xC0 PUSH1 0x40 MSTORE PUSH1 0x4 CALLDATASIZE LT ISZERO PUSH2 0x12 JUMPI PUSH1 0x0 DUP1 REVERT JUMPDEST PUSH1 0x0 CALLDATALOAD PUSH1 0xE0 SHR DUP1 PUSH4 0x107E472 EQ PUSH2 0x3BE3 JUMPI DUP1 PUSH4 0x932A214 EQ PUSH2 0x3B43 JUMPI DUP1 PUSH4 0xB1001B4 EQ PUSH2 0x3A1A JUMPI DUP1 PUSH4 0x12095891 EQ PUSH2 0x39DA JUMPI DUP1 PUSH4 0x134DFCD8 EQ PUSH2 0x38BA JUMPI DUP1 PUSH4 0x136F5CDD EQ PUSH2 0x389C JUMPI DUP1 PUSH4 0x14926F97 EQ PUSH2 0x387B JUMPI DUP1 PUSH4 0x15C109CC EQ PUSH2 0x385E JUMPI DUP1 PUSH4 0x16B92646 EQ PUSH2 0x3840 JUMPI DUP1 PUSH4 0x17F0088D EQ PUSH2 0x3569 JUMPI DUP1 PUSH4 0x1AD6534A EQ PUSH2 0x354B JUMPI DUP1 PUSH4 0x1EDDFECB EQ PUSH2 0x352C JUMPI DUP1 PUSH4 0x1F455922 EQ PUSH2 0x335A JUMPI DUP1 PUSH4 0x23452B9C EQ PUSH2 0x328C JUMPI DUP1 PUSH4 0x29293774 EQ PUSH2 0x3270 JUMPI DUP1 PUSH4 0x2B7AC3F3 EQ PUSH2 0x3247 JUMPI DUP1 PUSH4 0x2D63109F EQ PUSH2 0x2D75 JUMPI DUP1 PUSH4 0x30563BD7 EQ PUSH2 0x2C9A JUMPI DUP1 PUSH4 0x3080F540 EQ PUSH2 0x2C3F JUMPI DUP1 PUSH4 0x356C6693 EQ PUSH2 0x2C0B JUMPI DUP1 PUSH4 0x36227C69 EQ PUSH2 0x2BD0 JUMPI DUP1 PUSH4 0x3F4BA83A EQ PUSH2 0x2B5E JUMPI DUP1 PUSH4 0x4626402B EQ PUSH2 0x2B35 JUMPI DUP1 PUSH4 0x46619649 EQ PUSH2 0x2B17 JUMPI DUP1 PUSH4 0x4C539690 EQ PUSH2 0x2ADC JUMPI DUP1 PUSH4 0x4D7E1C75 EQ PUSH2 0x2ABE JUMPI DUP1 PUSH4 0x4E5E0E80 EQ PUSH2 0x2A87 JUMPI DUP1 PUSH4 0x52581AF5 EQ PUSH2 0x2A6B JUMPI DUP1 PUSH4 0x5350758F EQ PUSH2 0x2A30 JUMPI DUP1 PUSH4 0x5437988D EQ PUSH2 0x2992 JUMPI DUP1 PUSH4 0x586213A8 EQ PUSH2 0x2974 JUMPI DUP1 PUSH4 0x59682444 EQ PUSH2 0x28E6 JUMPI DUP1 PUSH4 0x5C975ABB EQ PUSH2 0x28C0 JUMPI DUP1 PUSH4 0x5DBF6637 EQ PUSH2 0x28A4 JUMPI DUP1 PUSH4 0x63A9F22D EQ PUSH2 0x2852 JUMPI DUP1 PUSH4 0x63B95FE6 EQ PUSH2 0x27F8 JUMPI DUP1 PUSH4 0x66F78E76 EQ PUSH2 0x278C JUMPI DUP1 PUSH4 0x6F8225C8 EQ PUSH2 0x276E JUMPI DUP1 PUSH4 0x715018A6 EQ PUSH2 0x26EB JUMPI DUP1 PUSH4 0x72E20D30 EQ PUSH2 0x26A6 JUMPI DUP1 PUSH4 0x7433AE7A EQ PUSH2 0x2688 JUMPI DUP1 PUSH4 0x79BA5097 EQ PUSH2 0x25CC JUMPI DUP1 PUSH4 0x7B167493 EQ PUSH2 0x2582 JUMPI DUP1 PUSH4 0x7B208769 EQ PUSH2 0x2559 JUMPI DUP1 PUSH4 0x7CCF7C07 EQ PUSH2 0x253E JUMPI DUP1 PUSH4 0x7FE3CA36 EQ PUSH2 0x24D5 JUMPI DUP1 PUSH4 0x8456CB59 EQ PUSH2 0x2473 JUMPI DUP1 PUSH4 0x889952AA EQ PUSH2 0x2438 JUMPI DUP1 PUSH4 0x8AD16BBF EQ PUSH2 0x23EF JUMPI DUP1 PUSH4 0x8B3E2AFB EQ PUSH2 0x23CC JUMPI DUP1 PUSH4 0x8DA5CB5B EQ PUSH2 0x23A3 JUMPI DUP1 PUSH4 0x8F1D3776 EQ PUSH2 0x22E4 JUMPI DUP1 PUSH4 0x926946D1 EQ PUSH2 0x2234 JUMPI DUP1 PUSH4 0x94B7C592 EQ PUSH2 0x214E JUMPI DUP1 PUSH4 0x9A2830F7 EQ PUSH2 0x201A JUMPI DUP1 PUSH4 0x9C254479 EQ PUSH2 0x1FE5 JUMPI DUP1 PUSH4 0xA018E5A0 EQ PUSH2 0x1FA6 JUMPI DUP1 PUSH4 0xA2F05725 EQ PUSH2 0x1F88 JUMPI DUP1 PUSH4 0xA49641E6 EQ PUSH2 0x1F49 JUMPI DUP1 PUSH4 0xA8602FEA EQ PUSH2 0x1E5C JUMPI DUP1 PUSH4 0xB0B91517 EQ PUSH2 0x1E40 JUMPI DUP1 PUSH4 0xB1724B46 EQ PUSH2 0x1E22 JUMPI DUP1 PUSH4 0xB2BBF647 EQ PUSH2 0x1A7D JUMPI DUP1 PUSH4 0xB6A6D177 EQ PUSH2 0x1A5F JUMPI DUP1 PUSH4 0xBE44D38D EQ PUSH2 0x1A17 JUMPI DUP1 PUSH4 0xC1A287E2 EQ PUSH2 0x19F9 JUMPI DUP1 PUSH4 0xC24B58A4 EQ PUSH2 0x19CD JUMPI DUP1 PUSH4 0xC5B07FFA EQ PUSH2 0x178A JUMPI DUP1 PUSH4 0xD09676A9 EQ PUSH2 0x1675 JUMPI DUP1 PUSH4 0xD1CE999D EQ PUSH2 0x1632 JUMPI DUP1 PUSH4 0xD4A06C8F EQ PUSH2 0x1614 JUMPI DUP1 PUSH4 0xD9BD722A EQ PUSH2 0x1594 JUMPI DUP1 PUSH4 0xDC62D614 EQ PUSH2 0x1557 JUMPI DUP1 PUSH4 0xDF4B8B06 EQ PUSH2 0x1534 JUMPI DUP1 PUSH4 0xE30C3978 EQ PUSH2 0x1507 JUMPI DUP1 PUSH4 0xE3501156 EQ PUSH2 0x1496 JUMPI DUP1 PUSH4 0xE738B2B5 EQ PUSH2 0x13F4 JUMPI DUP1 PUSH4 0xEB6D420B EQ PUSH2 0x1341 JUMPI DUP1 PUSH4 0xEC05386B EQ PUSH2 0x1246 JUMPI DUP1 PUSH4 0xEEA2D7DC EQ PUSH2 0x1194 JUMPI DUP1 PUSH4 0xEFBCD303 EQ PUSH2 0x10C3 JUMPI DUP1 PUSH4 0xF0A9AC19 EQ PUSH2 0x10A5 JUMPI DUP1 PUSH4 0xF2E5F3C1 EQ PUSH2 0x1047 JUMPI DUP1 PUSH4 0xF2F65960 EQ PUSH2 0xF8E JUMPI DUP1 PUSH4 0xF2FDE38B EQ PUSH2 0xE6E JUMPI DUP1 PUSH4 0xF56BCA4B EQ PUSH2 0xC94 JUMPI DUP1 PUSH4 0xF6A0EDB1 EQ PUSH2 0xC2E JUMPI DUP1 PUSH4 0xF9FCA4CF EQ PUSH2 0xC12 JUMPI DUP1 PUSH4 0xFAC97C1B EQ PUSH2 0xBB1 JUMPI DUP1 PUSH4 0xFAF74ECE EQ PUSH2 0xB85 JUMPI DUP1 PUSH4 0xFC12134B EQ PUSH2 0x5CE JUMPI PUSH4 0xFFA1CC25 EQ PUSH2 0x410 JUMPI PUSH1 0x0 DUP1 REVERT JUMPDEST CALLVALUE PUSH2 0x5C9 JUMPI PUSH1 0x20 CALLDATASIZE PUSH1 0x3 NOT ADD SLT PUSH2 0x5C9 JUMPI PUSH1 0x4 CALLDATALOAD PUSH1 0x0 MSTORE PUSH1 0x1D PUSH1 0x20 MSTORE PUSH1 0x40 PUSH1 0x0 KECCAK256 PUSH1 0x40 MLOAD PUSH2 0x43D DUP2 PUSH2 0x3E11 JUMP JUMPDEST DUP2 SLOAD PUSH1 0x1 PUSH1 0x1 PUSH1 0xA0 SHL SUB DUP1 DUP3 AND DUP4 MSTORE PUSH1 0xFF PUSH1 0xA0 DUP4 SWAP1 SHR DUP2 AND PUSH1 0x20 DUP6 ADD MSTORE SWAP2 SWAP3 PUSH1 0x40 DUP2 ADD SWAP1 PUSH2 0x471 PUSH1 0xA8 DUP7 SWAP1 SHR DUP6 AND DUP4 PUSH2 0x4169 JUMP JUMPDEST PUSH1 0x60 DUP2 ADD DUP5 DUP7 PUSH1 0xB0 SHR AND ISZERO ISZERO DUP2 MSTORE PUSH1 0x80 DUP3 ADD SWAP2 DUP6 DUP8 PUSH1 0xB8 SHR AND ISZERO ISZERO DUP4 MSTORE PUSH4 0xFFFFFFFF PUSH1 0xA0 DUP3 ADD SWAP8 DUP8 DUP2 PUSH1 0xC0 SHR AND DUP10 MSTORE PUSH1 0xC8 SHR AND PUSH1 0xC0 DUP3 ADD MSTORE PUSH1 0x1 DUP9 ADD SLOAD SWAP8 DUP9 PUSH1 0xE0 DUP4 ADD MSTORE PUSH1 0x2 DUP2 ADD SLOAD SWAP6 PUSH2 0x100 DUP4 ADD SWAP7 DUP8 MSTORE PUSH1 0x4 PUSH1 0x3 DUP4 ADD SLOAD SWAP3 PUSH2 0x120 DUP6 ADD SWAP4 DUP5 MSTORE ADD SLOAD SWAP3 PUSH2 0x140 DUP2 ADD SWAP4 DUP5 MSTORE MLOAD AND SWAP8 DUP10 PUSH1 0x0 MSTORE PUSH1 0x18 PUSH1 0x20 MSTORE PUSH2 0x4F7 PUSH1 0x40 PUSH1 0x0 KECCAK256 PUSH2 0x3E86 JUMP JUMPDEST SWAP7 MLOAD SWAP8 DUP6 MLOAD ISZERO ISZERO SWAP6 DUP6 MLOAD ISZERO ISZERO SWAP8 MLOAD SWAP6 PUSH1 0x4 DUP8 LT ISZERO PUSH2 0x5B3 JUMPI PUSH1 0x2 PUSH2 0x571 SWAP8 EQ SWAP2 DUP3 PUSH2 0x5A9 JUMPI JUMPDEST POP DUP2 PUSH2 0x59F JUMPI JUMPDEST POP ISZERO PUSH2 0x58A JUMPI SWAP2 PUSH2 0x542 PUSH2 0x54C SWAP3 PUSH2 0x551 SWAP6 SWAP5 DUP4 MLOAD SWAP2 MLOAD AND SWAP1 PUSH2 0x41A1 JUMP JUMPDEST SWAP3 MLOAD SWAP1 MLOAD SWAP1 PUSH2 0x4054 JUMP JUMPDEST PUSH2 0x4054 JUMP JUMPDEST SWAP4 JUMPDEST PUSH1 0x40 MLOAD SWAP8 DUP9 SWAP8 DUP9 MSTORE PUSH1 0x20 DUP9 ADD MSTORE PUSH1 0xE0 PUSH1 0x40 DUP9 ADD MSTORE PUSH1 0xE0 DUP8 ADD SWAP1 PUSH2 0x3C6A JUMP JUMPDEST SWAP4 PUSH1 0x60 DUP7 ADD MSTORE PUSH1 0x80 DUP6 ADD MSTORE PUSH1 0xA0 DUP5 ADD MSTORE PUSH1 0xC0 DUP4 ADD MSTORE SUB SWAP1 RETURN JUMPDEST POP POP PUSH2 0x599 SWAP2 MLOAD SWAP1 MLOAD SWAP1 PUSH2 0x4054 JUMP JUMPDEST SWAP4 PUSH2 0x553 JUMP JUMPDEST SWAP1 POP MLOAD ISZERO CODESIZE PUSH2 0x524 JUMP JUMPDEST MLOAD ISZERO SWAP2 POP CODESIZE PUSH2 0x51D JUMP JUMPDEST PUSH4 0x4E487B71 PUSH1 0xE0 SHL PUSH1 0x0 MSTORE PUSH1 0x21 PUSH1 0x4 MSTORE PUSH1 0x24 PUSH1 0x0 REVERT JUMPDEST PUSH1 0x0 DUP1 REVERT JUMPDEST PUSH1 0xA0 CALLDATASIZE PUSH1 0x3 NOT ADD SLT PUSH2 0x5C9 JUMPI PUSH1 0x1 PUSH1 0x1 PUSH1 0x40 SHL SUB PUSH1 0x4 CALLDATALOAD DUP2 DUP2 GT PUSH2 0x5C9 JUMPI PUSH2 0x5FA SWAP1 CALLDATASIZE SWAP1 PUSH1 0x4 ADD PUSH2 0x3D06 JUMP JUMPDEST SWAP1 PUSH1 0x4 PUSH1 0x64 CALLDATALOAD LT ISZERO PUSH2 0x5C9 JUMPI PUSH1 0x84 CALLDATALOAD SWAP2 PUSH1 0xFF DUP4 AND DUP4 SUB PUSH2 0x5C9 JUMPI PUSH2 0x61C PUSH2 0x4010 JUMP JUMPDEST PUSH2 0x624 PUSH2 0x3FEF JUMP JUMPDEST DUP1 ISZERO PUSH2 0xB73 JUMPI PUSH1 0x40 MLOAD SWAP4 PUSH1 0xA0 DUP6 ADD SWAP1 DUP2 GT DUP6 DUP3 LT OR PUSH2 0xB5D JUMPI PUSH1 0x40 MSTORE PUSH1 0x0 DUP5 MSTORE PUSH1 0x20 DUP5 ADD SWAP2 PUSH1 0x0 DUP4 MSTORE PUSH1 0x40 DUP6 ADD SWAP1 PUSH1 0x0 DUP3 MSTORE PUSH1 0x60 DUP7 ADD SWAP3 PUSH1 0x0 DUP5 MSTORE PUSH1 0x80 DUP8 ADD SWAP2 PUSH1 0x0 DUP4 MSTORE PUSH1 0x40 MLOAD PUSH1 0x20 DUP2 ADD SWAP1 PUSH1 0x20 DUP3 MSTORE PUSH2 0x694 DUP2 PUSH2 0x686 PUSH1 0x40 DUP3 ADD DUP8 DUP8 PUSH2 0x4033 JUMP JUMPDEST SUB PUSH1 0x1F NOT DUP2 ADD DUP4 MSTORE DUP3 PUSH2 0x3E63 JUMP JUMPDEST MLOAD SWAP1 KECCAK256 DUP1 DUP10 MSTORE PUSH1 0x0 MSTORE PUSH1 0x16 PUSH1 0x20 MSTORE PUSH1 0x40 PUSH1 0x0 KECCAK256 SWAP1 PUSH1 0x40 MLOAD SWAP1 PUSH2 0x6B5 DUP3 PUSH2 0x3DDB JUMP JUMPDEST DUP3 SLOAD SWAP2 PUSH1 0xFF DUP4 AND ISZERO SWAP1 DUP2 ISZERO DUP2 MSTORE PUSH1 0x20 DUP2 ADD SWAP4 PUSH1 0x1 DUP1 PUSH1 0xA0 SHL SUB SWAP1 PUSH1 0x8 SHR AND DUP5 MSTORE PUSH1 0xC0 PUSH1 0x4 PUSH1 0x1 DUP8 ADD SLOAD SWAP7 PUSH1 0x1 DUP1 PUSH1 0xA0 SHL SUB DUP9 AND PUSH1 0x40 DUP6 ADD MSTORE PUSH1 0xFF PUSH1 0x60 DUP6 ADD SWAP9 PUSH1 0xA0 SHR AND DUP9 MSTORE PUSH1 0x2 DUP2 ADD SLOAD PUSH1 0x80 DUP6 ADD MSTORE PUSH1 0xFF PUSH1 0x3 DUP3 ADD SLOAD AND ISZERO ISZERO PUSH1 0xA0 DUP6 ADD MSTORE ADD SLOAD SWAP2 ADD MSTORE PUSH2 0xB4B JUMPI DUP4 DUP2 PUSH2 0x72D PUSH1 0xFF SWAP7 PUSH2 0x734 SWAP5 PUSH2 0x4A69 JUMP JUMPDEST DUP11 MSTORE PUSH2 0x4B30 JUMP JUMPDEST DUP6 MSTORE MLOAD PUSH1 0x1 PUSH1 0x1 PUSH1 0xA0 SHL SUB AND DUP6 MSTORE MLOAD AND SWAP1 MSTORE PUSH1 0x24 CALLDATALOAD ISZERO PUSH2 0xB39 JUMPI MLOAD PUSH1 0x24 CALLDATALOAD LT PUSH2 0xB27 JUMPI PUSH1 0x3 PUSH1 0x64 CALLDATALOAD EQ DUP1 PUSH2 0xB1A JUMPI JUMPDEST PUSH2 0xB08 JUMPI PUSH1 0x11 SLOAD PUSH1 0x44 CALLDATALOAD LT DUP1 ISZERO PUSH2 0xAFB JUMPI JUMPDEST PUSH2 0xAE9 JUMPI PUSH1 0x64 PUSH1 0xFF DUP5 AND GT PUSH2 0xAD7 JUMPI PUSH1 0xFF PUSH1 0x15 SLOAD AND PUSH1 0xFF DUP5 AND LT PUSH2 0xAC5 JUMPI DUP1 MLOAD PUSH1 0x1 PUSH1 0x1 PUSH1 0xA0 SHL SUB AND PUSH2 0xA59 JUMPI POP PUSH2 0x7B0 DUP2 MLOAD PUSH1 0x24 CALLDATALOAD PUSH2 0x4054 JUMP JUMPDEST SWAP1 DUP2 CALLVALUE LT PUSH2 0xA47 JUMPI MLOAD DUP1 PUSH2 0xA0A JUMPI JUMPDEST POP DUP1 CALLVALUE GT PUSH2 0x983 JUMPI JUMPDEST POP DUP2 MLOAD PUSH1 0x0 MSTORE PUSH1 0x1C PUSH1 0x20 MSTORE PUSH1 0x40 PUSH1 0x0 KECCAK256 PUSH2 0x7E5 PUSH1 0x24 CALLDATALOAD DUP3 SLOAD PUSH2 0x4054 JUMP JUMPDEST SWAP1 SSTORE JUMPDEST PUSH1 0x13 SLOAD PUSH4 0xFFFFFFFF DUP2 GT PUSH2 0x971 JUMPI PUSH1 0xFF PUSH1 0x14 SLOAD AND SWAP3 MLOAD PUSH1 0xFF PUSH1 0x40 MLOAD SWAP4 PUSH2 0x80D DUP6 PUSH2 0x3E11 JUMP JUMPDEST CALLER DUP6 MSTORE AND PUSH1 0x20 DUP5 ADD MSTORE PUSH2 0x825 PUSH1 0x64 CALLDATALOAD PUSH1 0x40 DUP6 ADD PUSH2 0x4169 JUMP JUMPDEST PUSH1 0x0 PUSH1 0x60 DUP5 ADD MSTORE PUSH1 0x80 DUP4 ADD SWAP1 PUSH1 0x0 DUP3 MSTORE PUSH1 0xA0 DUP5 ADD SWAP5 DUP6 MSTORE PUSH4 0xFFFFFFFF PUSH1 0xC0 DUP6 ADD SWAP4 AND DUP4 MSTORE PUSH1 0xE0 DUP5 ADD SWAP1 DUP2 MSTORE PUSH2 0x100 DUP5 ADD SWAP1 PUSH1 0x24 CALLDATALOAD DUP3 MSTORE PUSH2 0x120 DUP6 ADD SWAP3 PUSH1 0x44 CALLDATALOAD DUP5 MSTORE PUSH2 0x140 DUP7 ADD SWAP5 TIMESTAMP DUP7 MSTORE PUSH1 0x1E SLOAD PUSH1 0x0 MSTORE PUSH1 0x1D PUSH1 0x20 MSTORE PUSH1 0x40 PUSH1 0x0 KECCAK256 SWAP8 PUSH1 0x1 DUP1 PUSH1 0xA0 SHL SUB DUP9 MLOAD AND PUSH1 0x1 DUP1 PUSH1 0xA0 SHL SUB NOT DUP11 SLOAD AND OR DUP10 SSTORE PUSH2 0x8A9 PUSH1 0xFF PUSH1 0x20 DUP11 ADD MLOAD AND DUP11 PUSH2 0x4175 JUMP JUMPDEST PUSH1 0x40 DUP9 ADD MLOAD SWAP3 PUSH1 0x4 DUP5 LT ISZERO PUSH2 0x5B3 JUMPI PUSH1 0x4 SWAP9 DUP11 SLOAD SWAP1 PUSH1 0x60 PUSH1 0xFF PUSH1 0xB0 SHL SWAP2 ADD MLOAD ISZERO ISZERO PUSH1 0xB0 SHL AND SWAP2 PUSH1 0xFF PUSH1 0xB8 SHL SWAP1 MLOAD ISZERO ISZERO PUSH1 0xB8 SHL AND SWAP3 PUSH1 0xFF PUSH1 0xC0 SHL SWAP1 MLOAD PUSH1 0xC0 SHL AND SWAP4 PUSH4 0xFFFFFFFF PUSH1 0xC8 SHL SWAP1 MLOAD PUSH1 0xC8 SHL AND SWAP5 PUSH1 0xFF PUSH1 0xA8 SHL SWAP1 PUSH1 0xA8 SHL AND SWAP1 PUSH1 0x1 PUSH1 0xA8 SHL PUSH1 0x1 PUSH1 0xE8 SHL SUB NOT AND OR OR OR OR OR DUP7 SSTORE MLOAD PUSH1 0x1 DUP7 ADD SSTORE MLOAD PUSH1 0x2 DUP6 ADD SSTORE MLOAD PUSH1 0x3 DUP5 ADD SSTORE MLOAD SWAP2 ADD SSTORE PUSH2 0x967 PUSH1 0x1E SLOAD PUSH1 0x40 MLOAD PUSH1 0x24 CALLDATALOAD DUP2 MSTORE DUP2 PUSH32 0x4392AEDF3BDC85E85CCF5C599CB7976A5B4F7B7189118379628127DF3F40B104 PUSH1 0x20 CALLER SWAP4 LOG3 PUSH2 0x4192 JUMP JUMPDEST PUSH1 0x1E SSTORE PUSH1 0x1 PUSH1 0x0 SSTORE STOP JUMPDEST PUSH1 0x40 MLOAD PUSH4 0xC5167787 PUSH1 0xE0 SHL DUP2 MSTORE PUSH1 0x4 SWAP1 REVERT JUMPDEST PUSH2 0x98D SWAP1 CALLVALUE PUSH2 0x40AC JUMP JUMPDEST PUSH1 0x0 DUP1 DUP1 DUP1 DUP5 CALLER GAS CALL PUSH2 0x99E PUSH2 0x407C JUMP JUMPDEST POP PUSH2 0x7C8 JUMPI DUP3 MLOAD PUSH1 0x0 MSTORE PUSH1 0x1A PUSH1 0x20 MSTORE PUSH1 0x40 PUSH1 0x0 KECCAK256 CALLER PUSH1 0x0 MSTORE PUSH1 0x20 MSTORE PUSH1 0x40 PUSH1 0x0 KECCAK256 PUSH2 0x9C9 DUP3 DUP3 SLOAD PUSH2 0x4054 JUMP JUMPDEST SWAP1 SSTORE DUP3 MLOAD PUSH1 0x0 MSTORE PUSH1 0x1B PUSH1 0x20 MSTORE PUSH1 0x40 PUSH1 0x0 KECCAK256 PUSH2 0x9E5 DUP3 DUP3 SLOAD PUSH2 0x4054 JUMP JUMPDEST SWAP1 SSTORE DUP3 MLOAD SWAP1 PUSH1 0x40 MLOAD SWAP1 DUP2 MSTORE PUSH1 0x0 DUP1 MLOAD PUSH1 0x20 PUSH2 0x58A0 DUP4 CODECOPY DUP2 MLOAD SWAP2 MSTORE PUSH1 0x20 CALLER SWAP3 LOG3 DUP3 PUSH2 0x7C8 JUMP JUMPDEST PUSH1 0xB SLOAD PUSH1 0x0 SWAP2 DUP3 SWAP2 DUP3 SWAP2 DUP3 SWAP2 PUSH1 0x1 PUSH1 0x1 PUSH1 0xA0 SHL SUB AND GAS CALL PUSH2 0xA29 PUSH2 0x407C JUMP JUMPDEST POP ISZERO PUSH2 0xA35 JUMPI DUP4 PUSH2 0x7BF JUMP JUMPDEST PUSH1 0x40 MLOAD PUSH4 0x4033E4E3 PUSH1 0xE0 SHL DUP2 MSTORE PUSH1 0x4 SWAP1 REVERT JUMPDEST PUSH1 0x40 MLOAD PUSH4 0x500D4EFB PUSH1 0xE1 SHL DUP2 MSTORE PUSH1 0x4 SWAP1 REVERT JUMPDEST SWAP1 CALLVALUE PUSH2 0xAB3 JUMPI SWAP1 MLOAD PUSH1 0xB SLOAD SWAP2 MLOAD PUSH2 0xA90 SWAP3 PUSH1 0x1 PUSH1 0x1 PUSH1 0xA0 SHL SUB SWAP3 DUP4 AND SWAP3 PUSH2 0xA83 SWAP3 SWAP2 AND CALLER DUP5 PUSH2 0x40B9 JUMP JUMPDEST PUSH1 0x24 CALLDATALOAD SWAP1 ADDRESS SWAP1 CALLER SWAP1 PUSH2 0x40B9 JUMP JUMPDEST DUP2 MLOAD PUSH1 0x0 MSTORE PUSH1 0x1C PUSH1 0x20 MSTORE PUSH1 0x40 PUSH1 0x0 KECCAK256 PUSH2 0xAAC PUSH1 0x24 CALLDATALOAD DUP3 SLOAD PUSH2 0x4054 JUMP JUMPDEST SWAP1 SSTORE PUSH2 0x7E8 JUMP JUMPDEST PUSH1 0x40 MLOAD PUSH4 0x78D6965 PUSH1 0xE3 SHL DUP2 MSTORE PUSH1 0x4 SWAP1 REVERT JUMPDEST PUSH1 0x40 MLOAD PUSH4 0x895CC903 PUSH1 0xE0 SHL DUP2 MSTORE PUSH1 0x4 SWAP1 REVERT JUMPDEST PUSH1 0x40 MLOAD PUSH4 0xA1DCDED PUSH1 0xE3 SHL DUP2 MSTORE PUSH1 0x4 SWAP1 REVERT JUMPDEST PUSH1 0x40 MLOAD PUSH4 0x76166401 PUSH1 0xE0 SHL DUP2 MSTORE PUSH1 0x4 SWAP1 REVERT JUMPDEST POP PUSH1 0x12 SLOAD PUSH1 0x44 CALLDATALOAD GT PUSH2 0x775 JUMP JUMPDEST PUSH1 0x40 MLOAD PUSH4 0x7E07B31 PUSH1 0xE2 SHL DUP2 MSTORE PUSH1 0x4 SWAP1 REVERT JUMPDEST POP PUSH1 0x64 PUSH1 0xFF DUP5 AND LT PUSH2 0x763 JUMP JUMPDEST PUSH1 0x40 MLOAD PUSH4 0xDE588D73 PUSH1 0xE0 SHL DUP2 MSTORE PUSH1 0x4 SWAP1 REVERT JUMPDEST PUSH1 0x40 MLOAD PUSH4 0x4EBA4D49 PUSH1 0xE1 SHL DUP2 MSTORE PUSH1 0x4 SWAP1 REVERT JUMPDEST PUSH1 0x40 MLOAD PUSH4 0x3DD1B305 PUSH1 0xE0 SHL DUP2 MSTORE PUSH1 0x4 SWAP1 REVERT JUMPDEST PUSH4 0x4E487B71 PUSH1 0xE0 SHL PUSH1 0x0 MSTORE PUSH1 0x41 PUSH1 0x4 MSTORE PUSH1 0x24 PUSH1 0x0 REVERT JUMPDEST PUSH1 0x40 MLOAD PUSH4 0xB4FA3FB3 PUSH1 0xE0 SHL DUP2 MSTORE PUSH1 0x4 SWAP1 REVERT JUMPDEST CALLVALUE PUSH2 0x5C9 JUMPI PUSH1 0x20 CALLDATASIZE PUSH1 0x3 NOT ADD SLT PUSH2 0x5C9 JUMPI PUSH1 0x4 CALLDATALOAD PUSH1 0x0 MSTORE PUSH1 0x1B PUSH1 0x20 MSTORE PUSH1 0x20 PUSH1 0x40 PUSH1 0x0 KECCAK256 SLOAD PUSH1 0x40 MLOAD SWAP1 DUP2 MSTORE RETURN JUMPDEST CALLVALUE PUSH2 0x5C9 JUMPI PUSH2 0x686 PUSH2 0xBE3 PUSH2 0xBC5 CALLDATASIZE PUSH2 0x3D5F JUMP JUMPDEST SWAP4 SWAP2 PUSH1 0x40 SWAP4 SWAP2 SWAP4 MLOAD SWAP3 DUP4 SWAP2 PUSH1 0x20 DUP4 ADD SWAP6 PUSH1 0x20 DUP8 MSTORE PUSH1 0x40 DUP5 ADD SWAP2 PUSH2 0x4033 JUMP JUMPDEST MLOAD SWAP1 KECCAK256 PUSH1 0x0 MSTORE PUSH1 0x1A PUSH1 0x20 MSTORE PUSH1 0x40 PUSH1 0x0 KECCAK256 SWAP1 PUSH1 0x1 DUP1 PUSH1 0xA0 SHL SUB AND PUSH1 0x0 MSTORE PUSH1 0x20 MSTORE PUSH1 0x20 PUSH1 0x40 PUSH1 0x0 KECCAK256 SLOAD PUSH1 0x40 MLOAD SWAP1 DUP2 MSTORE RETURN JUMPDEST CALLVALUE PUSH2 0x5C9 JUMPI PUSH1 0x0 CALLDATASIZE PUSH1 0x3 NOT ADD SLT PUSH2 0x5C9 JUMPI PUSH1 0x20 PUSH1 0x40 MLOAD PUSH1 0x3 DUP2 MSTORE RETURN JUMPDEST CALLVALUE PUSH2 0x5C9 JUMPI PUSH1 0x20 CALLDATASIZE PUSH1 0x3 NOT ADD SLT PUSH2 0x5C9 JUMPI PUSH2 0xC47 PUSH2 0x3D49 JUMP JUMPDEST PUSH2 0xC4F PUSH2 0x470A JUMP JUMPDEST PUSH1 0x1 PUSH1 0x1 PUSH1 0xA0 SHL SUB AND PUSH1 0x0 DUP2 DUP2 MSTORE PUSH1 0x5 PUSH1 0x20 MSTORE PUSH1 0x40 DUP2 KECCAK256 DUP1 SLOAD PUSH1 0xFF NOT AND SWAP1 SSTORE PUSH32 0x88D7B4E47BAAC0D3DA32EC23B674F5A638D583D1D651A4CECCEB2FBAF123844F SWAP1 DUP1 LOG2 STOP JUMPDEST CALLVALUE PUSH2 0x5C9 JUMPI PUSH1 0x20 DUP1 PUSH1 0x3 NOT CALLDATASIZE ADD SLT PUSH2 0x5C9 JUMPI PUSH1 0x4 CALLDATALOAD PUSH1 0x1 PUSH1 0x1 PUSH1 0x40 SHL SUB DUP2 GT PUSH2 0x5C9 JUMPI PUSH2 0x686 PUSH2 0xCCB PUSH2 0xCEC SWAP3 CALLDATASIZE SWAP1 PUSH1 0x4 ADD PUSH2 0x3D06 JUMP JUMPDEST SWAP3 SWAP1 PUSH2 0xCD5 PUSH2 0x4010 JUMP JUMPDEST PUSH1 0x40 MLOAD SWAP3 DUP4 SWAP2 DUP7 DUP4 ADD SWAP6 DUP8 DUP8 MSTORE PUSH1 0x40 DUP5 ADD SWAP2 PUSH2 0x4033 JUMP JUMPDEST MLOAD SWAP1 KECCAK256 SWAP1 DUP2 PUSH1 0x0 MSTORE PUSH1 0x1A DUP2 MSTORE PUSH1 0x40 PUSH1 0x0 KECCAK256 CALLER PUSH1 0x0 MSTORE DUP2 MSTORE PUSH1 0x40 PUSH1 0x0 KECCAK256 SLOAD SWAP1 DUP2 ISZERO PUSH2 0xE5C JUMPI DUP3 PUSH1 0x0 MSTORE PUSH1 0x1A DUP2 MSTORE PUSH1 0x40 PUSH1 0x0 KECCAK256 CALLER PUSH1 0x0 MSTORE DUP2 MSTORE PUSH1 0x0 PUSH1 0x40 DUP2 KECCAK256 SSTORE DUP3 PUSH1 0x0 MSTORE PUSH1 0x1B DUP2 MSTORE PUSH1 0x40 PUSH1 0x0 KECCAK256 PUSH2 0xD42 DUP4 DUP3 SLOAD PUSH2 0x40AC JUMP JUMPDEST SWAP1 SSTORE DUP3 PUSH1 0x0 MSTORE PUSH1 0x16 DUP2 MSTORE DUP2 PUSH1 0x40 PUSH1 0x0 KECCAK256 PUSH1 0x40 MLOAD PUSH2 0xD5E DUP2 PUSH2 0x3DDB JUMP JUMPDEST PUSH1 0xC0 PUSH1 0x4 DUP4 SLOAD SWAP4 PUSH1 0xFF DUP6 AND ISZERO ISZERO DUP5 MSTORE PUSH1 0xFF PUSH1 0x1 DUP1 PUSH1 0xA0 SHL SUB DUP1 SWAP7 PUSH1 0x8 SHR AND SWAP6 DUP7 DUP10 DUP8 ADD MSTORE PUSH1 0x1 DUP4 ADD SLOAD SWAP1 DUP2 AND PUSH1 0x40 DUP8 ADD MSTORE PUSH1 0xA0 SHR AND PUSH1 0x60 DUP6 ADD MSTORE PUSH1 0x2 DUP2 ADD SLOAD PUSH1 0x80 DUP6 ADD MSTORE PUSH1 0xFF PUSH1 0x3 DUP3 ADD SLOAD AND ISZERO ISZERO PUSH1 0xA0 DUP6 ADD MSTORE ADD SLOAD SWAP2 ADD MSTORE DUP1 ISZERO PUSH1 0x0 EQ PUSH2 0xE3B JUMPI POP PUSH1 0x0 DUP1 DUP1 DUP1 SWAP4 CALLER GAS CALL PUSH2 0xDD1 PUSH2 0x407C JUMP JUMPDEST POP ISZERO PUSH2 0xDF8 JUMPI PUSH1 0x0 DUP1 MLOAD PUSH1 0x20 PUSH2 0x5940 DUP4 CODECOPY DUP2 MLOAD SWAP2 MSTORE SWAP1 JUMPDEST PUSH1 0x40 MLOAD SWAP3 DUP4 MSTORE CALLER SWAP3 LOG3 PUSH1 0x1 PUSH1 0x0 SSTORE STOP JUMPDEST PUSH1 0x1B SWAP1 DUP4 PUSH2 0xE28 SWAP5 PUSH1 0x0 MSTORE PUSH1 0x1A DUP3 MSTORE PUSH1 0x40 PUSH1 0x0 KECCAK256 CALLER PUSH1 0x0 MSTORE DUP3 MSTORE DUP4 PUSH1 0x40 PUSH1 0x0 KECCAK256 SSTORE PUSH1 0x0 MSTORE MSTORE PUSH1 0x40 PUSH1 0x0 KECCAK256 SLOAD PUSH2 0x4054 JUMP JUMPDEST POP PUSH1 0x40 MLOAD PUSH4 0xAE69423 PUSH1 0xE0 SHL DUP2 MSTORE PUSH1 0x4 SWAP1 REVERT JUMPDEST PUSH1 0x0 DUP1 MLOAD PUSH1 0x20 PUSH2 0x5940 DUP4 CODECOPY DUP2 MLOAD SWAP2 MSTORE SWAP3 SWAP2 PUSH2 0xE57 SWAP2 CALLER SWAP1 PUSH2 0x44EA JUMP JUMPDEST PUSH2 0xDE8 JUMP JUMPDEST PUSH1 0x40 MLOAD PUSH4 0x9121B84F PUSH1 0xE0 SHL DUP2 MSTORE PUSH1 0x4 SWAP1 REVERT JUMPDEST CALLVALUE PUSH2 0x5C9 JUMPI PUSH1 0x20 CALLDATASIZE PUSH1 0x3 NOT ADD SLT PUSH2 0x5C9 JUMPI PUSH2 0xE87 PUSH2 0x3D49 JUMP JUMPDEST PUSH2 0xE8F PUSH2 0x470A JUMP JUMPDEST PUSH1 0xFF PUSH1 0x6 SLOAD AND PUSH2 0xF7C JUMPI PUSH1 0x1 PUSH1 0x1 PUSH1 0xA0 SHL SUB DUP2 DUP2 AND SWAP2 SWAP1 DUP3 ISZERO PUSH2 0xF6A JUMPI PUSH1 0x1 SLOAD AND SWAP1 DUP2 DUP4 EQ PUSH2 0xF58 JUMPI EXTCODESIZE ISZERO ISZERO DUP1 PUSH2 0xF3F JUMPI JUMPDEST PUSH2 0xF2D JUMPI PUSH1 0x4 DUP1 SLOAD PUSH1 0x1 PUSH1 0x1 PUSH1 0xA0 SHL SUB NOT AND DUP4 OR SWAP1 SSTORE TIMESTAMP PUSH1 0x3 DUP2 SWAP1 SSTORE PUSH3 0x2A300 DUP2 ADD SWAP1 DUP2 LT PUSH2 0xF17 JUMPI PUSH1 0x20 PUSH32 0x2CF6FD9B9AB77C245C3A6F994FCDD0DCAD5082C5C03C2121BA304C2741A16D1D SWAP2 PUSH1 0x40 MLOAD SWAP1 DUP2 MSTORE LOG3 STOP JUMPDEST PUSH4 0x4E487B71 PUSH1 0xE0 SHL PUSH1 0x0 MSTORE PUSH1 0x11 PUSH1 0x4 MSTORE PUSH1 0x24 PUSH1 0x0 REVERT JUMPDEST PUSH1 0x40 MLOAD PUSH4 0xE927F57 PUSH1 0xE2 SHL DUP2 MSTORE PUSH1 0x4 SWAP1 REVERT JUMPDEST POP DUP2 PUSH1 0x0 MSTORE PUSH1 0x5 PUSH1 0x20 MSTORE PUSH1 0xFF PUSH1 0x40 PUSH1 0x0 KECCAK256 SLOAD AND ISZERO PUSH2 0xEC1 JUMP JUMPDEST PUSH1 0x40 MLOAD PUSH4 0x622C96BD PUSH1 0xE1 SHL DUP2 MSTORE PUSH1 0x4 SWAP1 REVERT JUMPDEST PUSH1 0x40 MLOAD PUSH4 0x3A954ECD PUSH1 0xE2 SHL DUP2 MSTORE PUSH1 0x4 SWAP1 REVERT JUMPDEST PUSH1 0x40 MLOAD PUSH4 0x347C4EE7 PUSH1 0xE0 SHL DUP2 MSTORE PUSH1 0x4 SWAP1 REVERT JUMPDEST CALLVALUE PUSH2 0x5C9 JUMPI PUSH1 0x20 CALLDATASIZE PUSH1 0x3 NOT ADD SLT PUSH2 0x5C9 JUMPI PUSH1 0x4 CALLDATALOAD PUSH2 0xFAA PUSH2 0x470A JUMP JUMPDEST PUSH3 0x15180 DUP1 DUP3 MUL SWAP1 DUP3 DUP3 DIV DUP2 EQ DUP4 ISZERO OR ISZERO PUSH2 0xF17 JUMPI DUP2 LT PUSH2 0x1035 JUMPI PUSH3 0x278D00 DUP2 GT PUSH2 0x1023 JUMPI PUSH4 0xFFFFFFFF DUP2 GT PUSH2 0x971 JUMPI PUSH4 0x3C26700 DUP2 DUP2 ADD LT PUSH2 0x1011 JUMPI PUSH1 0x13 SSTORE PUSH32 0x33D1191F5A3ABFE19D468D51BB5ECE97489F1277A912A5B5C65992FC279AD3D4 PUSH1 0x0 DUP1 LOG2 STOP JUMPDEST PUSH1 0x40 MLOAD PUSH4 0xC139A611 PUSH1 0xE0 SHL DUP2 MSTORE PUSH1 0x4 SWAP1 REVERT JUMPDEST PUSH1 0x40 MLOAD PUSH4 0x70272FBB PUSH1 0xE1 SHL DUP2 MSTORE PUSH1 0x4 SWAP1 REVERT JUMPDEST PUSH1 0x40 MLOAD PUSH4 0x63E53BFD PUSH1 0xE0 SHL DUP2 MSTORE PUSH1 0x4 SWAP1 REVERT JUMPDEST CALLVALUE PUSH2 0x5C9 JUMPI PUSH1 0x60 CALLDATASIZE PUSH1 0x3 NOT ADD SLT PUSH2 0x5C9 JUMPI PUSH2 0x108D PUSH2 0x109B PUSH2 0x1076 PUSH2 0x1069 PUSH2 0x3D49 JUMP JUMPDEST PUSH1 0x44 CALLDATALOAD SWAP1 PUSH1 0x24 CALLDATALOAD SWAP1 PUSH2 0x45CB JUMP JUMPDEST SWAP2 SWAP3 SWAP1 PUSH1 0x40 MLOAD SWAP5 DUP6 SWAP5 PUSH1 0x60 DUP7 MSTORE PUSH1 0x60 DUP7 ADD SWAP1 PUSH2 0x3CAA JUMP JUMPDEST SWAP1 DUP5 DUP3 SUB PUSH1 0x20 DUP7 ADD MSTORE PUSH2 0x3FBB JUMP JUMPDEST SWAP1 PUSH1 0x40 DUP4 ADD MSTORE SUB SWAP1 RETURN JUMPDEST CALLVALUE PUSH2 0x5C9 JUMPI PUSH1 0x0 CALLDATASIZE PUSH1 0x3 NOT ADD SLT PUSH2 0x5C9 JUMPI PUSH1 0x20 PUSH1 0x40 MLOAD PUSH3 0x186A0 DUP2 MSTORE RETURN JUMPDEST CALLVALUE PUSH2 0x5C9 JUMPI PUSH1 0x0 CALLDATASIZE PUSH1 0x3 NOT ADD SLT PUSH2 0x5C9 JUMPI PUSH2 0x10DC PUSH2 0x470A JUMP JUMPDEST PUSH1 0x6 SLOAD PUSH1 0xFF DUP2 AND ISZERO PUSH2 0x1182 JUMPI PUSH1 0x7 SLOAD PUSH3 0x93A80 DUP2 ADD DUP1 SWAP2 GT PUSH2 0xF17 JUMPI TIMESTAMP LT PUSH2 0x1170 JUMPI PUSH1 0x1 DUP1 SLOAD PUSH1 0xFF NOT SWAP1 SWAP3 AND PUSH1 0x6 SSTORE PUSH1 0x0 PUSH1 0x7 DUP2 SWAP1 SSTORE PUSH1 0x2 DUP1 SLOAD PUSH1 0x1 PUSH1 0x1 PUSH1 0xA0 SHL SUB NOT SWAP1 DUP2 AND SWAP1 SWAP2 SSTORE DUP4 AND SWAP1 SWAP2 SSTORE PUSH1 0x1 PUSH1 0x1 PUSH1 0xA0 SHL SUB SWAP1 SWAP2 AND SWAP1 DUP2 PUSH1 0x0 DUP1 MLOAD PUSH1 0x20 PUSH2 0x5960 DUP4 CODECOPY DUP2 MLOAD SWAP2 MSTORE DUP3 DUP1 LOG3 PUSH32 0xF8DF31144D9C2F0F6B59D69B8B98ABD5459D07F2742C4DF920B25AAE33C64820 PUSH1 0x0 DUP1 LOG2 STOP JUMPDEST PUSH1 0x40 MLOAD PUSH4 0x5D94FEBB PUSH1 0xE1 SHL DUP2 MSTORE PUSH1 0x4 SWAP1 REVERT JUMPDEST PUSH1 0x40 MLOAD PUSH4 0x341C92EF PUSH1 0xE1 SHL DUP2 MSTORE PUSH1 0x4 SWAP1 REVERT JUMPDEST CALLVALUE PUSH2 0x5C9 JUMPI PUSH1 0x0 CALLDATASIZE PUSH1 0x3 NOT ADD SLT PUSH2 0x5C9 JUMPI PUSH1 0x40 MLOAD PUSH2 0x11B1 DUP2 PUSH2 0x3DF6 JUMP JUMPDEST PUSH1 0xE SLOAD DUP2 MSTORE PUSH1 0xF SLOAD PUSH1 0x20 DUP3 ADD SWAP1 DUP2 MSTORE PUSH1 0xFF PUSH1 0x10 SLOAD AND ISZERO DUP1 ISZERO PUSH1 0x40 DUP5 ADD MSTORE PUSH2 0x1234 JUMPI MLOAD TIMESTAMP LT PUSH2 0x1222 JUMPI PUSH1 0x40 PUSH32 0x3E08CBA9222B31BB7AAC09F5DACAA0671E5C98FAFD018A103E62AA35CC58714D SWAP2 PUSH1 0xC SLOAD SWAP1 MLOAD DUP1 PUSH1 0xC SSTORE PUSH1 0x0 PUSH1 0xE SSTORE PUSH1 0x0 PUSH1 0xF SSTORE PUSH1 0x0 PUSH1 0x10 SSTORE DUP3 MLOAD SWAP2 DUP3 MSTORE PUSH1 0x20 DUP3 ADD MSTORE LOG1 STOP JUMPDEST PUSH1 0x40 MLOAD PUSH4 0x813B0239 PUSH1 0xE0 SHL DUP2 MSTORE PUSH1 0x4 SWAP1 REVERT JUMPDEST PUSH1 0x40 MLOAD PUSH4 0x19B2C6EF PUSH1 0xE3 SHL DUP2 MSTORE PUSH1 0x4 SWAP1 REVERT JUMPDEST CALLVALUE PUSH2 0x5C9 JUMPI PUSH1 0x20 CALLDATASIZE PUSH1 0x3 NOT ADD SLT PUSH2 0x5C9 JUMPI PUSH1 0x4 CALLDATALOAD PUSH2 0x1262 PUSH2 0x4010 JUMP JUMPDEST PUSH1 0x9 SLOAD PUSH1 0x1 PUSH1 0x1 PUSH1 0xA0 SHL SUB AND CALLER SUB PUSH2 0x1330 JUMPI DUP1 PUSH1 0x0 MSTORE PUSH1 0x1D PUSH1 0x20 MSTORE PUSH1 0x40 PUSH1 0x0 KECCAK256 DUP1 SLOAD PUSH1 0xFF DUP2 PUSH1 0xB0 SHR AND PUSH2 0x131E JUMPI PUSH1 0xFF DUP2 PUSH1 0xB8 SHR AND PUSH2 0x130C JUMPI PUSH2 0x12AD PUSH1 0x4 DUP4 ADD SLOAD PUSH1 0x3 DUP5 ADD SLOAD SWAP1 PUSH2 0x4054 JUMP JUMPDEST PUSH2 0x384 DUP2 ADD DUP1 SWAP2 GT PUSH2 0xF17 JUMPI TIMESTAMP GT PUSH2 0x12FA JUMPI PUSH1 0xFF PUSH1 0xB0 SHL NOT AND PUSH1 0x1 PUSH1 0xB0 SHL OR SWAP1 SSTORE PUSH32 0x385ED28F1B8A63BA23626539AD487FED2882DB462AA0ABFFCA4FB5F39F6A4688 PUSH1 0x0 DUP1 LOG2 PUSH1 0x1 PUSH1 0x0 SSTORE STOP JUMPDEST PUSH1 0x40 MLOAD PUSH4 0x2DDEB065 PUSH1 0xE0 SHL DUP2 MSTORE PUSH1 0x4 SWAP1 REVERT JUMPDEST PUSH1 0x40 MLOAD PUSH4 0x74DF98BF PUSH1 0xE0 SHL DUP2 MSTORE PUSH1 0x4 SWAP1 REVERT JUMPDEST PUSH1 0x40 MLOAD PUSH4 0xE26CFD9 PUSH1 0xE0 SHL DUP2 MSTORE PUSH1 0x4 SWAP1 REVERT JUMPDEST PUSH1 0x40 MLOAD PUSH3 0x82B429 PUSH1 0xE8 SHL DUP2 MSTORE PUSH1 0x4 SWAP1 REVERT JUMPDEST CALLVALUE PUSH2 0x5C9 JUMPI PUSH1 0x20 CALLDATASIZE PUSH1 0x3 NOT ADD SLT PUSH2 0x5C9 JUMPI PUSH1 0x4 CALLDATALOAD PUSH1 0x1 PUSH1 0x1 PUSH1 0x40 SHL SUB DUP2 GT PUSH2 0x5C9 JUMPI PUSH2 0x686 PUSH2 0x1377 PUSH2 0x139A SWAP3 CALLDATASIZE SWAP1 PUSH1 0x4 ADD PUSH2 0x3D06 JUMP JUMPDEST SWAP3 SWAP1 PUSH2 0x1381 PUSH2 0x470A JUMP JUMPDEST PUSH1 0x40 MLOAD SWAP3 DUP4 SWAP2 PUSH1 0x20 DUP4 ADD SWAP6 PUSH1 0x20 DUP8 MSTORE PUSH1 0x40 DUP5 ADD SWAP2 PUSH2 0x4033 JUMP JUMPDEST MLOAD SWAP1 KECCAK256 DUP1 PUSH1 0x0 MSTORE PUSH1 0x16 PUSH1 0x20 MSTORE PUSH1 0xFF PUSH1 0x40 PUSH1 0x0 KECCAK256 SLOAD AND ISZERO PUSH2 0xB4B JUMPI DUP1 PUSH1 0x0 MSTORE PUSH1 0x16 PUSH1 0x20 MSTORE PUSH1 0x3 PUSH1 0x40 PUSH1 0x0 KECCAK256 ADD PUSH1 0xFF NOT DUP2 SLOAD AND SWAP1 SSTORE PUSH32 0x166BA91F2568F3B5F401C2D9E34CB29E8422613701D6024BBE60E627FA780B5C PUSH1 0x0 DUP1 LOG2 STOP JUMPDEST CALLVALUE PUSH2 0x5C9 JUMPI PUSH2 0x686 PUSH2 0x1415 PUSH2 0x1408 CALLDATASIZE PUSH2 0x3F5D JUMP JUMPDEST SWAP4 SWAP2 PUSH2 0x1381 SWAP4 SWAP2 SWAP4 PUSH2 0x470A JUMP JUMPDEST MLOAD SWAP1 KECCAK256 SWAP1 DUP2 PUSH1 0x0 MSTORE PUSH1 0x16 PUSH1 0x20 MSTORE PUSH1 0xFF PUSH1 0x40 PUSH1 0x0 KECCAK256 SLOAD AND ISZERO PUSH2 0xB4B JUMPI DUP1 ISZERO PUSH2 0x1484 JUMPI PUSH1 0x20 PUSH32 0x8DF6F90013E411F77A3760042C965962EF41E51850DE75BBBEB0129B5311B017 SWAP2 DUP4 PUSH1 0x0 MSTORE PUSH1 0x16 DUP3 MSTORE DUP1 PUSH1 0x4 PUSH1 0x40 PUSH1 0x0 KECCAK256 PUSH1 0x3 DUP2 ADD PUSH1 0x1 PUSH1 0xFF NOT DUP3 SLOAD AND OR SWAP1 SSTORE ADD SSTORE PUSH1 0x40 MLOAD SWAP1 DUP2 MSTORE LOG2 STOP JUMPDEST PUSH1 0x40 MLOAD PUSH4 0xF45E167B PUSH1 0xE0 SHL DUP2 MSTORE PUSH1 0x4 SWAP1 REVERT JUMPDEST CALLVALUE PUSH2 0x5C9 JUMPI PUSH2 0x14D3 PUSH2 0x14E1 PUSH2 0x14EF PUSH2 0x14FD PUSH2 0x14B9 PUSH2 0x14B3 CALLDATASIZE PUSH2 0x3FA5 JUMP JUMPDEST SWAP1 PUSH2 0x4BE7 JUMP JUMPDEST SWAP6 SWAP3 PUSH1 0x40 SWAP8 SWAP2 SWAP5 SWAP8 MLOAD SWAP9 DUP10 SWAP9 PUSH1 0xA0 DUP11 MSTORE PUSH1 0xA0 DUP11 ADD SWAP1 PUSH2 0x3CAA JUMP JUMPDEST SWAP1 DUP9 DUP3 SUB PUSH1 0x20 DUP11 ADD MSTORE PUSH2 0x3FBB JUMP JUMPDEST SWAP1 DUP7 DUP3 SUB PUSH1 0x40 DUP9 ADD MSTORE PUSH2 0x3FBB JUMP JUMPDEST SWAP1 DUP5 DUP3 SUB PUSH1 0x60 DUP7 ADD MSTORE PUSH2 0x3FBB JUMP JUMPDEST SWAP1 PUSH1 0x80 DUP4 ADD MSTORE SUB SWAP1 RETURN JUMPDEST CALLVALUE PUSH2 0x5C9 JUMPI PUSH1 0x0 CALLDATASIZE PUSH1 0x3 NOT ADD SLT PUSH2 0x5C9 JUMPI PUSH1 0x20 PUSH2 0x1522 PUSH2 0x578F JUMP JUMPDEST PUSH1 0x40 MLOAD PUSH1 0x1 PUSH1 0x1 PUSH1 0xA0 SHL SUB SWAP1 SWAP2 AND DUP2 MSTORE RETURN JUMPDEST CALLVALUE PUSH2 0x5C9 JUMPI PUSH1 0x0 CALLDATASIZE PUSH1 0x3 NOT ADD SLT PUSH2 0x5C9 JUMPI PUSH1 0x20 PUSH1 0xFF PUSH1 0x6 SLOAD AND PUSH1 0x40 MLOAD SWAP1 ISZERO ISZERO DUP2 MSTORE RETURN JUMPDEST CALLVALUE PUSH2 0x5C9 JUMPI PUSH1 0x20 CALLDATASIZE PUSH1 0x3 NOT ADD SLT PUSH2 0x5C9 JUMPI PUSH1 0x80 PUSH2 0x157A PUSH2 0x1575 PUSH2 0x3D49 JUMP JUMPDEST PUSH2 0x51C9 JUMP JUMPDEST SWAP2 PUSH1 0x40 MLOAD SWAP4 DUP5 MSTORE ISZERO ISZERO PUSH1 0x20 DUP5 ADD MSTORE PUSH1 0x40 DUP4 ADD MSTORE PUSH1 0x60 DUP3 ADD MSTORE RETURN JUMPDEST CALLVALUE PUSH2 0x5C9 JUMPI PUSH1 0x20 CALLDATASIZE PUSH1 0x3 NOT ADD SLT PUSH2 0x5C9 JUMPI PUSH1 0x4 CALLDATALOAD PUSH1 0x0 MSTORE PUSH1 0x16 PUSH1 0x20 MSTORE PUSH1 0xE0 PUSH1 0x40 PUSH1 0x0 KECCAK256 DUP1 SLOAD SWAP1 PUSH1 0x1 DUP2 ADD SLOAD SWAP1 PUSH1 0x2 DUP2 ADD SLOAD PUSH1 0xFF PUSH1 0x4 DUP2 PUSH1 0x3 DUP6 ADD SLOAD AND SWAP4 ADD SLOAD SWAP4 PUSH1 0x40 MLOAD SWAP6 DUP3 DUP2 AND ISZERO ISZERO DUP8 MSTORE PUSH1 0x1 DUP1 PUSH1 0xA0 SHL SUB DUP1 SWAP2 PUSH1 0x8 SHR AND PUSH1 0x20 DUP9 ADD MSTORE DUP2 AND PUSH1 0x40 DUP8 ADD MSTORE PUSH1 0xA0 SHR AND PUSH1 0x60 DUP6 ADD MSTORE PUSH1 0x80 DUP5 ADD MSTORE ISZERO ISZERO PUSH1 0xA0 DUP4 ADD MSTORE PUSH1 0xC0 DUP3 ADD MSTORE RETURN JUMPDEST CALLVALUE PUSH2 0x5C9 JUMPI PUSH1 0x0 CALLDATASIZE PUSH1 0x3 NOT ADD SLT PUSH2 0x5C9 JUMPI PUSH1 0x20 PUSH1 0x40 MLOAD PUSH3 0x15180 DUP2 MSTORE RETURN JUMPDEST CALLVALUE PUSH2 0x5C9 JUMPI PUSH1 0x0 CALLDATASIZE PUSH1 0x3 NOT ADD SLT PUSH2 0x5C9 JUMPI PUSH1 0xFF PUSH1 0x6 SLOAD AND DUP1 PUSH2 0x165C JUMPI JUMPDEST PUSH1 0x20 SWAP1 PUSH1 0x40 MLOAD SWAP1 ISZERO ISZERO DUP2 MSTORE RETURN JUMPDEST POP PUSH1 0x7 SLOAD PUSH3 0x93A80 DUP2 ADD DUP1 SWAP2 GT PUSH2 0xF17 JUMPI TIMESTAMP LT ISZERO PUSH2 0x164F JUMP JUMPDEST CALLVALUE PUSH2 0x5C9 JUMPI PUSH1 0x20 CALLDATASIZE PUSH1 0x3 NOT ADD SLT PUSH2 0x5C9 JUMPI PUSH1 0x4 CALLDATALOAD PUSH2 0x1691 PUSH2 0x470A JUMP JUMPDEST DUP1 ISZERO PUSH2 0x1778 JUMPI PUSH3 0x186A0 DUP2 LT PUSH2 0x1766 JUMPI PUSH1 0xC SLOAD DUP1 ISZERO DUP1 ISZERO PUSH2 0x1729 JUMPI JUMPDEST POP DUP2 GT ISZERO PUSH2 0x1711 JUMPI PUSH3 0x15180 TIMESTAMP ADD DUP1 TIMESTAMP GT PUSH2 0xF17 JUMPI PUSH1 0x0 DUP1 MLOAD PUSH1 0x20 PUSH2 0x5860 DUP4 CODECOPY DUP2 MLOAD SWAP2 MSTORE SWAP2 PUSH1 0x40 SWAP2 JUMPDEST PUSH1 0x1 DUP4 DUP1 MLOAD PUSH2 0x16E4 DUP2 PUSH2 0x3DF6 JUMP JUMPDEST DUP5 DUP2 MSTORE DUP4 PUSH1 0x20 DUP3 ADD MSTORE ADD MSTORE DUP2 PUSH1 0xE SSTORE DUP1 PUSH1 0xF SSTORE PUSH1 0x1 PUSH1 0xFF NOT PUSH1 0x10 SLOAD AND OR PUSH1 0x10 SSTORE DUP3 MLOAD SWAP2 DUP3 MSTORE PUSH1 0x20 DUP3 ADD MSTORE LOG1 STOP JUMPDEST PUSH1 0x40 PUSH1 0x0 DUP1 MLOAD PUSH1 0x20 PUSH2 0x5860 DUP4 CODECOPY DUP2 MLOAD SWAP2 MSTORE SWAP2 TIMESTAMP PUSH2 0x16D6 JUMP JUMPDEST PUSH2 0x1F4 SWAP1 DUP2 DUP4 MUL SWAP2 DUP4 DUP4 DIV EQ OR ISZERO PUSH2 0xF17 JUMPI PUSH1 0x64 PUSH2 0x1748 SWAP2 DIV DUP3 PUSH2 0x4054 JUMP JUMPDEST DUP3 GT PUSH2 0x1754 JUMPI DUP3 PUSH2 0x16AD JUMP JUMPDEST PUSH1 0x40 MLOAD PUSH4 0x464F806B PUSH1 0xE0 SHL DUP2 MSTORE PUSH1 0x4 SWAP1 REVERT JUMPDEST PUSH1 0x40 MLOAD PUSH4 0x6BF95363 PUSH1 0xE0 SHL DUP2 MSTORE PUSH1 0x4 SWAP1 REVERT JUMPDEST PUSH1 0x40 MLOAD PUSH4 0x1D015F9D PUSH1 0xE1 SHL DUP2 MSTORE PUSH1 0x4 SWAP1 REVERT JUMPDEST CALLVALUE PUSH2 0x5C9 JUMPI PUSH1 0x40 CALLDATASIZE PUSH1 0x3 NOT ADD SLT PUSH2 0x5C9 JUMPI PUSH2 0x17A3 PUSH2 0x3D49 JUMP JUMPDEST PUSH2 0x17AB PUSH2 0x3D33 JUMP JUMPDEST PUSH2 0x17B3 PUSH2 0x470A JUMP JUMPDEST PUSH2 0x17BB PUSH2 0x4010 JUMP JUMPDEST PUSH1 0x1 PUSH1 0x1 PUSH1 0xA0 SHL SUB DUP3 DUP2 AND DUP1 ISZERO PUSH2 0x19BB JUMPI DUP2 DUP4 AND SWAP4 DUP5 ISZERO PUSH2 0x19BB JUMPI PUSH1 0x0 SWAP2 PUSH1 0x40 MLOAD PUSH2 0x17E5 DUP2 PUSH2 0x3E48 JUMP JUMPDEST PUSH1 0x0 DUP2 MSTORE SWAP4 PUSH1 0x0 SWAP1 PUSH1 0x17 SLOAD SWAP2 JUMPDEST DUP3 DUP2 LT PUSH2 0x1901 JUMPI JUMPDEST POP POP DUP4 ISZERO SWAP1 POP PUSH2 0x1816 JUMPI POP PUSH2 0x180F SWAP5 POP PUSH2 0x4EE6 JUMP JUMPDEST PUSH1 0x1 PUSH1 0x0 SSTORE STOP JUMPDEST SWAP4 SWAP3 POP POP POP PUSH1 0x40 MLOAD PUSH4 0x70A08231 PUSH1 0xE0 SHL DUP2 MSTORE ADDRESS PUSH1 0x4 DUP3 ADD MSTORE PUSH1 0x20 SWAP1 DUP2 DUP2 PUSH1 0x24 DUP2 DUP8 GAS STATICCALL SWAP1 DUP2 ISZERO PUSH2 0x18F5 JUMPI PUSH1 0x0 SWAP2 PUSH2 0x18C8 JUMPI JUMPDEST POP DUP1 ISZERO PUSH2 0x18B6 JUMPI PUSH1 0x40 PUSH1 0x80 SWAP3 PUSH2 0x1891 DUP4 PUSH1 0x0 DUP1 MLOAD PUSH1 0x20 PUSH2 0x58E0 DUP4 CODECOPY DUP2 MLOAD SWAP2 MSTORE SWAP7 DUP9 PUSH1 0x0 DUP1 MLOAD PUSH1 0x20 PUSH2 0x59C0 DUP4 CODECOPY DUP2 MLOAD SWAP2 MSTORE PUSH1 0x60 DUP8 MLOAD DUP6 DUP2 MSTORE PUSH1 0x0 DUP9 DUP3 ADD MSTORE DUP6 DUP10 DUP3 ADD MSTORE LOG2 DUP9 PUSH2 0x44EA JUMP JUMPDEST DUP2 MLOAD SWAP3 DUP4 MSTORE DUP3 ADD MSTORE PUSH1 0x7 PUSH1 0x40 DUP3 ADD MSTORE PUSH7 0x2AA725A727ABA7 PUSH1 0xC9 SHL PUSH1 0x60 DUP3 ADD MSTORE LOG3 PUSH2 0x180F JUMP JUMPDEST PUSH1 0x40 MLOAD PUSH4 0x5E4F5821 PUSH1 0xE1 SHL DUP2 MSTORE PUSH1 0x4 SWAP1 REVERT JUMPDEST SWAP1 POP DUP2 DUP2 DUP2 RETURNDATASIZE DUP4 GT PUSH2 0x18EE JUMPI JUMPDEST PUSH2 0x18DF DUP2 DUP4 PUSH2 0x3E63 JUMP JUMPDEST DUP2 ADD SUB SLT PUSH2 0x5C9 JUMPI MLOAD DUP6 PUSH2 0x1848 JUMP JUMPDEST POP RETURNDATASIZE PUSH2 0x18D5 JUMP JUMPDEST PUSH1 0x40 MLOAD RETURNDATASIZE PUSH1 0x0 DUP3 RETURNDATACOPY RETURNDATASIZE SWAP1 REVERT JUMPDEST PUSH2 0x190A DUP2 PUSH2 0x3F2C JUMP JUMPDEST SWAP1 SLOAD PUSH1 0x3 SWAP2 DUP3 SHL SHR SWAP1 DUP2 PUSH1 0x0 MSTORE DUP6 PUSH1 0x20 SWAP2 PUSH1 0x16 DUP4 MSTORE PUSH1 0x40 PUSH1 0x0 KECCAK256 PUSH1 0xC0 PUSH1 0x4 PUSH1 0x40 MLOAD SWAP3 PUSH2 0x1935 DUP5 PUSH2 0x3DDB JUMP JUMPDEST DUP1 SLOAD SWAP5 DUP11 PUSH1 0xFF SWAP7 DUP8 DUP2 AND ISZERO ISZERO DUP8 MSTORE PUSH1 0x8 SHR AND SWAP6 DUP7 DUP10 DUP8 ADD MSTORE PUSH1 0x1 DUP4 ADD SLOAD SWAP2 DUP13 DUP4 AND PUSH1 0x40 DUP9 ADD MSTORE DUP2 PUSH1 0xA0 SWAP4 DUP5 SHR AND PUSH1 0x60 DUP9 ADD MSTORE PUSH1 0x2 DUP5 ADD SLOAD PUSH1 0x80 DUP9 ADD MSTORE DUP4 ADD SLOAD AND ISZERO ISZERO SWAP1 DUP6 ADD MSTORE ADD SLOAD SWAP2 ADD MSTORE EQ PUSH2 0x1995 JUMPI POP POP PUSH2 0x1990 SWAP1 PUSH2 0x4192 JUMP JUMPDEST PUSH2 0x17F2 JUMP JUMPDEST SWAP4 POP SWAP6 POP POP POP PUSH1 0x18 SWAP2 SWAP5 POP DUP4 PUSH1 0x0 MSTORE MSTORE PUSH2 0x19B2 PUSH1 0x40 PUSH1 0x0 KECCAK256 PUSH2 0x3E86 JUMP JUMPDEST SWAP3 DUP7 DUP1 DUP1 PUSH2 0x17FA JUMP JUMPDEST PUSH1 0x40 MLOAD PUSH4 0xE6C4247B PUSH1 0xE0 SHL DUP2 MSTORE PUSH1 0x4 SWAP1 REVERT JUMPDEST CALLVALUE PUSH2 0x5C9 JUMPI PUSH1 0x20 CALLDATASIZE PUSH1 0x3 NOT ADD SLT PUSH2 0x5C9 JUMPI PUSH1 0x4 CALLDATALOAD PUSH1 0x0 MSTORE PUSH1 0x1C PUSH1 0x20 MSTORE PUSH1 0x20 PUSH1 0x40 PUSH1 0x0 KECCAK256 SLOAD PUSH1 0x40 MLOAD SWAP1 DUP2 MSTORE RETURN JUMPDEST CALLVALUE PUSH2 0x5C9 JUMPI PUSH1 0x0 CALLDATASIZE PUSH1 0x3 NOT ADD SLT PUSH2 0x5C9 JUMPI PUSH1 0x20 PUSH1 0x13 SLOAD PUSH1 0x40 MLOAD SWAP1 DUP2 MSTORE RETURN JUMPDEST CALLVALUE PUSH2 0x5C9 JUMPI PUSH1 0x40 CALLDATASIZE PUSH1 0x3 NOT ADD SLT PUSH2 0x5C9 JUMPI PUSH2 0x1A30 PUSH2 0x3D33 JUMP JUMPDEST PUSH1 0x4 CALLDATALOAD PUSH1 0x0 MSTORE PUSH1 0x1A PUSH1 0x20 MSTORE PUSH1 0x40 PUSH1 0x0 KECCAK256 SWAP1 PUSH1 0x1 DUP1 PUSH1 0xA0 SHL SUB AND PUSH1 0x0 MSTORE PUSH1 0x20 MSTORE PUSH1 0x20 PUSH1 0x40 PUSH1 0x0 KECCAK256 SLOAD PUSH1 0x40 MLOAD SWAP1 DUP2 MSTORE RETURN JUMPDEST CALLVALUE PUSH2 0x5C9 JUMPI PUSH1 0x0 CALLDATASIZE PUSH1 0x3 NOT ADD SLT PUSH2 0x5C9 JUMPI PUSH1 0x20 PUSH1 0x11 SLOAD PUSH1 0x40 MLOAD SWAP1 DUP2 MSTORE RETURN JUMPDEST CALLVALUE PUSH2 0x5C9 JUMPI PUSH1 0xA0 CALLDATASIZE PUSH1 0x3 NOT ADD SLT PUSH2 0x5C9 JUMPI PUSH1 0x4 CALLDATALOAD PUSH1 0x1 PUSH1 0x1 PUSH1 0x40 SHL SUB DUP2 GT PUSH2 0x5C9 JUMPI PUSH2 0x1AAD SWAP1 CALLDATASIZE SWAP1 PUSH1 0x4 ADD PUSH2 0x3D06 JUMP JUMPDEST PUSH2 0x1AB5 PUSH2 0x3D33 JUMP JUMPDEST PUSH1 0x44 CALLDATALOAD SWAP3 SWAP1 SWAP2 SWAP1 PUSH1 0x1 PUSH1 0x1 PUSH1 0xA0 SHL SUB DUP5 AND DUP5 SUB PUSH2 0x5C9 JUMPI PUSH1 0x64 CALLDATALOAD SWAP1 PUSH1 0xFF DUP3 AND DUP3 SUB PUSH2 0x5C9 JUMPI PUSH2 0x1AE2 PUSH2 0x470A JUMP JUMPDEST PUSH1 0x40 MLOAD PUSH1 0x20 DUP2 ADD SWAP1 PUSH1 0x20 DUP3 MSTORE PUSH2 0x1B00 DUP2 PUSH2 0x686 PUSH1 0x40 DUP3 ADD DUP9 DUP8 PUSH2 0x4033 JUMP JUMPDEST MLOAD SWAP1 KECCAK256 SWAP2 DUP3 PUSH1 0x0 MSTORE PUSH1 0x16 PUSH1 0x20 MSTORE PUSH1 0xFF PUSH1 0x40 PUSH1 0x0 KECCAK256 SLOAD AND PUSH2 0x1E10 JUMPI PUSH1 0x1 PUSH1 0x1 PUSH1 0xA0 SHL SUB DUP7 AND ISZERO PUSH2 0x19BB JUMPI PUSH1 0x84 CALLDATALOAD ISZERO PUSH2 0x1DFE JUMPI PUSH2 0x1B3A DUP7 PUSH2 0x477F JUMP JUMPDEST PUSH1 0x4 PUSH1 0x40 MLOAD SWAP2 PUSH2 0x1B49 DUP4 PUSH2 0x3DDB JUMP JUMPDEST PUSH1 0x1 DUP4 MSTORE PUSH2 0x1C2D PUSH1 0x20 DUP5 ADD SWAP2 PUSH1 0x1 DUP1 PUSH1 0xA0 SHL SUB DUP10 AND DUP4 MSTORE PUSH1 0x40 DUP6 ADD PUSH1 0x1 DUP1 PUSH1 0xA0 SHL SUB DUP12 AND DUP2 MSTORE PUSH1 0xFF PUSH1 0x60 DUP8 ADD SWAP3 AND DUP3 MSTORE PUSH2 0x1C0F PUSH1 0x80 DUP8 ADD SWAP2 PUSH1 0x84 CALLDATALOAD DUP4 MSTORE PUSH1 0xFF PUSH1 0xA0 DUP10 ADD SWAP5 PUSH1 0x0 DUP7 MSTORE PUSH1 0xC0 DUP11 ADD SWAP8 PUSH1 0x0 DUP10 MSTORE DUP13 PUSH1 0x0 MSTORE PUSH1 0x16 PUSH1 0x20 MSTORE PUSH2 0x1BC1 PUSH1 0x40 PUSH1 0x0 KECCAK256 SWAP12 MLOAD ISZERO ISZERO DUP13 SWAP1 PUSH1 0xFF DUP1 NOT DUP4 SLOAD AND SWAP2 ISZERO ISZERO AND OR SWAP1 SSTORE JUMP JUMPDEST MLOAD DUP11 SLOAD PUSH2 0x100 PUSH1 0x1 PUSH1 0xA8 SHL SUB NOT AND PUSH1 0x8 SWAP2 SWAP1 SWAP2 SHL PUSH2 0x100 PUSH1 0x1 PUSH1 0xA8 SHL SUB AND OR DUP11 SSTORE SWAP2 MLOAD PUSH1 0x1 DUP11 ADD DUP1 SLOAD PUSH1 0x1 PUSH1 0x1 PUSH1 0xA0 SHL SUB NOT AND PUSH1 0x1 PUSH1 0x1 PUSH1 0xA0 SHL SUB SWAP3 SWAP1 SWAP3 AND SWAP2 SWAP1 SWAP2 OR DUP2 SSTORE SWAP2 MLOAD AND SWAP1 PUSH2 0x4175 JUMP JUMPDEST MLOAD PUSH1 0x2 DUP7 ADD SSTORE MLOAD ISZERO ISZERO PUSH1 0x3 DUP6 ADD SWAP1 PUSH1 0xFF DUP1 NOT DUP4 SLOAD AND SWAP2 ISZERO ISZERO AND OR SWAP1 SSTORE JUMP JUMPDEST MLOAD SWAP2 ADD SSTORE PUSH1 0x17 SLOAD PUSH1 0x1 PUSH1 0x40 SHL DUP2 LT ISZERO PUSH2 0xB5D JUMPI PUSH2 0x1C6B PUSH2 0x1C54 DUP3 PUSH1 0x1 DUP7 SWAP5 ADD PUSH1 0x17 SSTORE PUSH2 0x3F2C JUMP JUMPDEST DUP2 SWAP4 SWAP2 SLOAD SWAP1 PUSH1 0x3 SHL SWAP2 DUP3 SHL SWAP2 PUSH1 0x0 NOT SWAP1 SHL NOT AND OR SWAP1 JUMP JUMPDEST SWAP1 SSTORE PUSH1 0x17 SLOAD PUSH1 0x0 NOT SWAP6 SWAP1 DUP7 DUP2 ADD SWAP1 DUP2 GT PUSH2 0xF17 JUMPI DUP4 PUSH1 0x0 MSTORE PUSH1 0x1F PUSH1 0x20 MSTORE PUSH1 0x40 PUSH1 0x0 KECCAK256 SSTORE PUSH1 0x20 DUP1 MSTORE PUSH1 0x40 PUSH1 0x0 KECCAK256 PUSH1 0x1 PUSH1 0xFF NOT DUP3 SLOAD AND OR SWAP1 SSTORE PUSH1 0x18 PUSH1 0x20 MSTORE PUSH1 0x40 PUSH1 0x0 KECCAK256 PUSH1 0x1 DUP1 PUSH1 0x40 SHL SUB DUP6 GT PUSH2 0xB5D JUMPI PUSH2 0x1CC3 DUP2 SLOAD PUSH2 0x3DA1 JUMP JUMPDEST PUSH1 0x1F DUP2 GT PUSH2 0x1DB6 JUMPI JUMPDEST POP PUSH1 0x0 SWAP7 PUSH1 0x1F DUP7 GT PUSH1 0x1 EQ PUSH2 0x1D41 JUMPI DUP6 PUSH1 0x0 DUP1 MLOAD PUSH1 0x20 PUSH2 0x5900 DUP4 CODECOPY DUP2 MLOAD SWAP2 MSTORE SWAP6 SWAP7 SWAP8 SWAP9 PUSH1 0x0 SWAP2 PUSH2 0x1D36 JUMPI JUMPDEST POP DUP8 PUSH1 0x1 SHL SWAP2 DUP9 PUSH1 0x3 SHL SHR NOT AND OR SWAP1 SSTORE JUMPDEST PUSH1 0x40 MLOAD PUSH1 0x20 DUP1 DUP3 MSTORE PUSH1 0x1 PUSH1 0x1 PUSH1 0xA0 SHL SUB SWAP3 DUP4 AND SWAP8 SWAP1 SWAP3 AND SWAP6 SWAP1 SWAP3 DUP4 SWAP3 PUSH2 0x1D31 SWAP3 SWAP1 DUP5 ADD SWAP2 PUSH2 0x4033 JUMP JUMPDEST SUB SWAP1 LOG4 STOP JUMPDEST SWAP1 POP DUP5 ADD CALLDATALOAD DUP10 PUSH2 0x1CF7 JUMP JUMPDEST PUSH1 0x1F NOT DUP7 AND SWAP8 DUP3 PUSH1 0x0 MSTORE PUSH1 0x20 PUSH1 0x0 KECCAK256 SWAP2 PUSH1 0x0 JUMPDEST DUP11 DUP2 LT PUSH2 0x1D9E JUMPI POP DUP8 PUSH1 0x0 DUP1 MLOAD PUSH1 0x20 PUSH2 0x5900 DUP4 CODECOPY DUP2 MLOAD SWAP2 MSTORE SWAP8 SWAP9 SWAP10 SWAP11 LT PUSH2 0x1D86 JUMPI JUMPDEST POP POP POP PUSH1 0x1 DUP7 DUP2 SHL ADD SWAP1 SSTORE PUSH2 0x1D08 JUMP JUMPDEST PUSH1 0xF8 DUP10 PUSH1 0x3 SHL AND SHR NOT SWAP1 DUP6 ADD CALLDATALOAD AND SWAP1 SSTORE DUP8 DUP1 DUP1 PUSH2 0x1D76 JUMP JUMPDEST SWAP2 SWAP3 PUSH1 0x20 PUSH1 0x1 DUP2 SWAP3 DUP7 DUP11 ADD CALLDATALOAD DUP2 SSTORE ADD SWAP5 ADD SWAP3 ADD PUSH2 0x1D54 JUMP JUMPDEST DUP2 PUSH1 0x0 MSTORE PUSH1 0x20 PUSH1 0x0 KECCAK256 PUSH1 0x1F DUP8 ADD PUSH1 0x5 SHR DUP2 ADD SWAP2 PUSH1 0x20 DUP9 LT PUSH2 0x1DF4 JUMPI JUMPDEST PUSH1 0x1F ADD PUSH1 0x5 SHR ADD SWAP1 JUMPDEST DUP2 DUP2 LT PUSH2 0x1DE8 JUMPI POP PUSH2 0x1CCC JUMP JUMPDEST PUSH1 0x0 DUP2 SSTORE PUSH1 0x1 ADD PUSH2 0x1DDB JUMP JUMPDEST SWAP1 SWAP2 POP DUP2 SWAP1 PUSH2 0x1DD2 JUMP JUMPDEST PUSH1 0x40 MLOAD PUSH4 0x3FF3DD7 PUSH1 0xE1 SHL DUP2 MSTORE PUSH1 0x4 SWAP1 REVERT JUMPDEST PUSH1 0x40 MLOAD PUSH4 0xC78E82AD PUSH1 0xE0 SHL DUP2 MSTORE PUSH1 0x4 SWAP1 REVERT JUMPDEST CALLVALUE PUSH2 0x5C9 JUMPI PUSH1 0x0 CALLDATASIZE PUSH1 0x3 NOT ADD SLT PUSH2 0x5C9 JUMPI PUSH1 0x20 PUSH1 0x12 SLOAD PUSH1 0x40 MLOAD SWAP1 DUP2 MSTORE RETURN JUMPDEST CALLVALUE PUSH2 0x5C9 JUMPI PUSH1 0x0 CALLDATASIZE PUSH1 0x3 NOT ADD SLT PUSH2 0x5C9 JUMPI PUSH1 0x20 PUSH1 0x40 MLOAD PUSH1 0xF DUP2 MSTORE RETURN JUMPDEST CALLVALUE PUSH2 0x5C9 JUMPI PUSH1 0x20 CALLDATASIZE PUSH1 0x3 NOT ADD SLT PUSH2 0x5C9 JUMPI PUSH2 0x1E75 PUSH2 0x3D49 JUMP JUMPDEST PUSH2 0x1E7D PUSH2 0x470A JUMP JUMPDEST PUSH1 0x1 PUSH1 0x1 PUSH1 0xA0 SHL SUB SWAP1 DUP2 AND SWAP1 DUP2 ISZERO PUSH2 0x19BB JUMPI DUP1 PUSH1 0xA SLOAD AND DUP3 EQ PUSH2 0x1F37 JUMPI DUP1 PUSH1 0x9 SLOAD AND DUP3 EQ PUSH2 0x1F37 JUMPI DUP1 PUSH1 0xB SLOAD AND DUP1 PUSH1 0x0 DUP1 MLOAD PUSH1 0x20 PUSH2 0x59A0 DUP4 CODECOPY DUP2 MLOAD SWAP2 MSTORE PUSH1 0x0 DUP1 LOG2 PUSH1 0x0 MSTORE PUSH1 0x8 PUSH1 0x20 MSTORE PUSH1 0x40 PUSH1 0x0 KECCAK256 PUSH1 0xFF NOT SWAP1 DUP2 DUP2 SLOAD AND SWAP1 SSTORE DUP3 PUSH1 0x0 DUP1 MLOAD PUSH1 0x20 PUSH2 0x5880 DUP4 CODECOPY DUP2 MLOAD SWAP2 MSTORE PUSH1 0x0 DUP1 LOG2 DUP3 PUSH1 0x0 MSTORE PUSH1 0x1 PUSH1 0x40 PUSH1 0x0 KECCAK256 SWAP2 DUP3 SLOAD AND OR SWAP1 SSTORE DUP2 PUSH1 0xB SLOAD SWAP2 DUP3 AND PUSH32 0xA982575859D7AD2F390DC12B23F7DAB8BBDA047F9D0140AC68344B27BF34BFB4 PUSH1 0x0 DUP1 LOG3 PUSH1 0x1 PUSH1 0x1 PUSH1 0xA0 SHL SUB NOT AND OR PUSH1 0xB SSTORE STOP JUMPDEST PUSH1 0x40 MLOAD PUSH4 0x898CF5BD PUSH1 0xE0 SHL DUP2 MSTORE PUSH1 0x4 SWAP1 REVERT JUMPDEST CALLVALUE PUSH2 0x5C9 JUMPI PUSH1 0x20 CALLDATASIZE PUSH1 0x3 NOT ADD SLT PUSH2 0x5C9 JUMPI PUSH1 0x1 PUSH1 0x1 PUSH1 0xA0 SHL SUB PUSH2 0x1F6A PUSH2 0x3D49 JUMP JUMPDEST AND PUSH1 0x0 MSTORE PUSH1 0x5 PUSH1 0x20 MSTORE PUSH1 0x20 PUSH1 0xFF PUSH1 0x40 PUSH1 0x0 KECCAK256 SLOAD AND PUSH1 0x40 MLOAD SWAP1 ISZERO ISZERO DUP2 MSTORE RETURN JUMPDEST CALLVALUE PUSH2 0x5C9 JUMPI PUSH1 0x0 CALLDATASIZE PUSH1 0x3 NOT ADD SLT PUSH2 0x5C9 JUMPI PUSH1 0x20 PUSH1 0x1E SLOAD PUSH1 0x40 MLOAD SWAP1 DUP2 MSTORE RETURN JUMPDEST CALLVALUE PUSH2 0x5C9 JUMPI PUSH1 0x20 CALLDATASIZE PUSH1 0x3 NOT ADD SLT PUSH2 0x5C9 JUMPI PUSH1 0x1 PUSH1 0x1 PUSH1 0xA0 SHL SUB PUSH2 0x1FC7 PUSH2 0x3D49 JUMP JUMPDEST AND PUSH1 0x0 MSTORE PUSH1 0x8 PUSH1 0x20 MSTORE PUSH1 0x20 PUSH1 0xFF PUSH1 0x40 PUSH1 0x0 KECCAK256 SLOAD AND PUSH1 0x40 MLOAD SWAP1 ISZERO ISZERO DUP2 MSTORE RETURN JUMPDEST CALLVALUE PUSH2 0x5C9 JUMPI PUSH1 0x0 CALLDATASIZE PUSH1 0x3 NOT ADD SLT PUSH2 0x5C9 JUMPI PUSH1 0xFF PUSH1 0x10 SLOAD AND DUP1 PUSH2 0x200E JUMPI PUSH1 0x20 SWAP1 PUSH1 0x40 MLOAD SWAP1 ISZERO ISZERO DUP2 MSTORE RETURN JUMPDEST POP PUSH1 0xF SLOAD TIMESTAMP LT ISZERO PUSH2 0x164F JUMP JUMPDEST CALLVALUE PUSH2 0x5C9 JUMPI PUSH2 0x2028 CALLDATASIZE PUSH2 0x3FA5 JUMP JUMPDEST SWAP1 PUSH2 0x2031 PUSH2 0x470A JUMP JUMPDEST PUSH1 0x3C DUP2 MUL DUP2 DUP2 DIV PUSH1 0x3C EQ DUP3 ISZERO OR ISZERO PUSH2 0xF17 JUMPI PUSH3 0x15180 SWAP1 DUP2 DUP5 MUL SWAP2 DUP5 DUP4 DIV EQ DUP5 ISZERO OR ISZERO PUSH2 0xF17 JUMPI PUSH1 0x3C DUP2 LT PUSH2 0x213C JUMPI PUSH4 0x3C26700 DUP3 GT PUSH2 0x212A JUMPI DUP2 DUP2 LT ISZERO PUSH2 0x2118 JUMPI PUSH3 0x13C680 DUP5 MUL DUP3 DUP2 DIV PUSH1 0xF EQ DUP4 ISZERO OR ISZERO PUSH2 0xF17 JUMPI DUP3 PUSH1 0xF DUP3 DIV SUB PUSH2 0x2106 JUMPI PUSH2 0x209C SWAP1 TIMESTAMP NOT PUSH2 0x40AC JUMP JUMPDEST DUP3 GT PUSH2 0x20F4 JUMPI PUSH1 0x11 SSTORE PUSH1 0x12 SSTORE PUSH32 0x49A6934BF12DA797A1E19E9F70B578AF0FDAB9D72C2D4B8D82984A54C9E6400 PUSH1 0x0 DUP1 LOG2 PUSH32 0x5051341AB3F6D56C8295227B7476589D73AE29D5DFAFF08DFC01F67F28A8A3E3 PUSH1 0x0 DUP1 LOG2 STOP JUMPDEST PUSH1 0x40 MLOAD PUSH4 0xC869336B PUSH1 0xE0 SHL DUP2 MSTORE PUSH1 0x4 SWAP1 REVERT JUMPDEST PUSH1 0x40 MLOAD PUSH4 0xE0258223 PUSH1 0xE0 SHL DUP2 MSTORE PUSH1 0x4 SWAP1 REVERT JUMPDEST PUSH1 0x40 MLOAD PUSH4 0x8B1D8B4B PUSH1 0xE0 SHL DUP2 MSTORE PUSH1 0x4 SWAP1 REVERT JUMPDEST PUSH1 0x40 MLOAD PUSH4 0x1E61E07 PUSH1 0xE5 SHL DUP2 MSTORE PUSH1 0x4 SWAP1 REVERT JUMPDEST PUSH1 0x40 MLOAD PUSH4 0x36FA738B PUSH1 0xE0 SHL DUP2 MSTORE PUSH1 0x4 SWAP1 REVERT JUMPDEST CALLVALUE PUSH2 0x5C9 JUMPI PUSH2 0x215C CALLDATASIZE PUSH2 0x3D5F JUMP JUMPDEST SWAP1 PUSH2 0x2165 PUSH2 0x470A JUMP JUMPDEST PUSH2 0x216D PUSH2 0x4010 JUMP JUMPDEST PUSH1 0x1 PUSH1 0x1 PUSH1 0xA0 SHL SUB SWAP3 DUP3 DUP5 AND ISZERO PUSH2 0x19BB JUMPI PUSH1 0x40 MLOAD PUSH1 0x20 DUP2 ADD SWAP1 PUSH1 0x20 DUP3 MSTORE PUSH2 0x219C DUP2 PUSH2 0x686 PUSH1 0x40 DUP3 ADD DUP8 DUP8 PUSH2 0x4033 JUMP JUMPDEST MLOAD SWAP1 KECCAK256 SWAP1 DUP2 PUSH1 0x0 MSTORE PUSH1 0x16 PUSH1 0x20 MSTORE PUSH1 0x40 PUSH1 0x0 KECCAK256 SWAP1 PUSH1 0x40 MLOAD SWAP2 PUSH2 0x21BC DUP4 PUSH2 0x3DDB JUMP JUMPDEST DUP1 SLOAD SWAP3 PUSH1 0xC0 PUSH1 0x4 PUSH1 0xFF DUP7 AND ISZERO SWAP4 DUP5 ISZERO DUP5 MSTORE DUP11 PUSH1 0x20 DUP6 ADD SWAP8 PUSH1 0x8 SHR AND DUP8 MSTORE PUSH1 0xFF PUSH1 0x1 DUP3 ADD SLOAD DUP13 DUP2 AND PUSH1 0x40 DUP8 ADD MSTORE PUSH1 0xA0 SHR AND PUSH1 0x60 DUP6 ADD MSTORE PUSH1 0x2 DUP2 ADD SLOAD PUSH1 0x80 DUP6 ADD MSTORE PUSH1 0xFF PUSH1 0x3 DUP3 ADD SLOAD AND ISZERO ISZERO PUSH1 0xA0 DUP6 ADD MSTORE ADD SLOAD SWAP2 ADD MSTORE PUSH2 0xB4B JUMPI DUP6 DUP3 MLOAD AND ISZERO PUSH2 0x19BB JUMPI PUSH2 0x180F SWAP6 PUSH2 0x222E SWAP3 MLOAD AND SWAP4 CALLDATASIZE SWAP2 PUSH2 0x4EAF JUMP JUMPDEST SWAP2 PUSH2 0x4EE6 JUMP JUMPDEST CALLVALUE PUSH2 0x5C9 JUMPI PUSH1 0x20 CALLDATASIZE PUSH1 0x3 NOT ADD SLT PUSH2 0x5C9 JUMPI PUSH1 0x4 CALLDATALOAD PUSH2 0x2250 PUSH2 0x470A JUMP JUMPDEST PUSH1 0x3 DUP2 LT PUSH2 0x22D2 JUMPI PUSH1 0xF DUP2 GT PUSH2 0x22C0 JUMPI PUSH4 0x3C26700 DUP2 DUP2 MUL SWAP1 DUP1 PUSH2 0x2274 DUP5 DUP5 PUSH2 0x41B4 JUMP JUMPDEST SUB PUSH2 0x22AE JUMPI TIMESTAMP SWAP2 TIMESTAMP ADD ADD LT PUSH2 0x22AE JUMPI DUP1 PUSH1 0x14 SSTORE PUSH32 0x91A5406C059A34C86623B7BF1EEDF868A2C312DCA12617C7CB6389A9B9970233 PUSH1 0x0 DUP1 LOG2 STOP JUMPDEST PUSH1 0x40 MLOAD PUSH4 0x5F274823 PUSH1 0xE1 SHL DUP2 MSTORE PUSH1 0x4 SWAP1 REVERT JUMPDEST PUSH1 0x40 MLOAD PUSH4 0x9261E95 PUSH1 0xE4 SHL DUP2 MSTORE PUSH1 0x4 SWAP1 REVERT JUMPDEST PUSH1 0x40 MLOAD PUSH4 0x1035A3B5 PUSH1 0xE2 SHL DUP2 MSTORE PUSH1 0x4 SWAP1 REVERT JUMPDEST CALLVALUE PUSH2 0x5C9 JUMPI PUSH1 0x20 CALLDATASIZE PUSH1 0x3 NOT ADD SLT PUSH2 0x5C9 JUMPI PUSH1 0x4 CALLDATALOAD PUSH1 0x0 MSTORE PUSH1 0x1D PUSH1 0x20 MSTORE PUSH1 0x40 PUSH1 0x0 KECCAK256 DUP1 SLOAD SWAP1 PUSH1 0xFF DUP3 PUSH1 0xA8 SHR AND SWAP1 PUSH1 0x1 DUP2 ADD SLOAD SWAP1 PUSH1 0x2 DUP2 ADD SLOAD PUSH1 0x4 PUSH1 0x3 DUP4 ADD SLOAD SWAP3 ADD SLOAD SWAP3 PUSH1 0x40 MLOAD SWAP5 PUSH1 0x1 DUP1 PUSH1 0xA0 SHL SUB DUP8 AND DUP7 MSTORE PUSH1 0xFF DUP8 PUSH1 0xA0 SHR AND PUSH1 0x20 DUP8 ADD MSTORE PUSH1 0x4 DUP2 LT ISZERO PUSH2 0x5B3 JUMPI PUSH2 0x160 SWAP7 PUSH4 0xFFFFFFFF SWAP2 PUSH1 0x40 DUP9 ADD MSTORE PUSH1 0xFF DUP2 PUSH1 0xB0 SHR AND ISZERO ISZERO PUSH1 0x60 DUP9 ADD MSTORE PUSH1 0xFF DUP2 PUSH1 0xB8 SHR AND ISZERO ISZERO PUSH1 0x80 DUP9 ADD MSTORE PUSH1 0xFF DUP2 PUSH1 0xC0 SHR AND PUSH1 0xA0 DUP9 ADD MSTORE PUSH1 0xC8 SHR AND PUSH1 0xC0 DUP7 ADD MSTORE PUSH1 0xE0 DUP6 ADD MSTORE PUSH2 0x100 DUP5 ADD MSTORE PUSH2 0x120 DUP4 ADD MSTORE PUSH2 0x140 DUP3 ADD MSTORE RETURN JUMPDEST CALLVALUE PUSH2 0x5C9 JUMPI PUSH1 0x0 CALLDATASIZE PUSH1 0x3 NOT ADD SLT PUSH2 0x5C9 JUMPI PUSH1 0x1 SLOAD PUSH1 0x40 MLOAD PUSH1 0x1 PUSH1 0x1 PUSH1 0xA0 SHL SUB SWAP1 SWAP2 AND DUP2 MSTORE PUSH1 0x20 SWAP1 RETURN JUMPDEST CALLVALUE PUSH2 0x5C9 JUMPI PUSH1 0x0 CALLDATASIZE PUSH1 0x3 NOT ADD SLT PUSH2 0x5C9 JUMPI PUSH1 0x20 PUSH2 0x23E7 PUSH2 0x57B1 JUMP JUMPDEST PUSH1 0x40 MLOAD SWAP1 DUP2 MSTORE RETURN JUMPDEST CALLVALUE PUSH2 0x5C9 JUMPI PUSH1 0x20 CALLDATASIZE PUSH1 0x3 NOT ADD SLT PUSH2 0x5C9 JUMPI PUSH1 0x4 CALLDATALOAD PUSH1 0x1 PUSH1 0x1 PUSH1 0x40 SHL SUB DUP2 GT PUSH2 0x5C9 JUMPI PUSH2 0x242A PUSH2 0x2424 PUSH1 0x40 SWAP3 CALLDATASIZE SWAP1 PUSH1 0x4 ADD PUSH2 0x3D06 JUMP JUMPDEST SWAP1 PUSH2 0x561A JUMP JUMPDEST DUP3 MLOAD SWAP2 ISZERO ISZERO DUP3 MSTORE PUSH1 0x20 DUP3 ADD MSTORE RETURN JUMPDEST CALLVALUE PUSH2 0x5C9 JUMPI PUSH1 0x20 CALLDATASIZE PUSH1 0x3 NOT ADD SLT PUSH2 0x5C9 JUMPI PUSH1 0x4 CALLDATALOAD PUSH1 0x1 PUSH1 0x1 PUSH1 0x40 SHL SUB DUP2 GT PUSH2 0x5C9 JUMPI PUSH2 0x23E7 PUSH2 0x246D PUSH1 0x20 SWAP3 CALLDATASIZE SWAP1 PUSH1 0x4 ADD PUSH2 0x3D06 JUMP JUMPDEST SWAP1 PUSH2 0x507B JUMP JUMPDEST CALLVALUE PUSH2 0x5C9 JUMPI PUSH1 0x0 CALLDATASIZE PUSH1 0x3 NOT ADD SLT PUSH2 0x5C9 JUMPI PUSH2 0x248C PUSH2 0x470A JUMP JUMPDEST PUSH2 0x2494 PUSH2 0x3FEF JUMP JUMPDEST PUSH1 0x2 DUP1 SLOAD PUSH1 0xFF PUSH1 0xA0 SHL NOT AND PUSH1 0x1 PUSH1 0xA0 SHL OR SWAP1 SSTORE PUSH1 0x40 MLOAD CALLER DUP2 MSTORE PUSH32 0x62E78CEA01BEE320CD4E420270B5EA74000D11B0C9F74754EBDBFC544B05A258 SWAP1 PUSH1 0x20 SWAP1 LOG1 STOP JUMPDEST CALLVALUE PUSH2 0x5C9 JUMPI PUSH1 0x20 CALLDATASIZE PUSH1 0x3 NOT ADD SLT PUSH2 0x5C9 JUMPI PUSH2 0x24EE PUSH2 0x3D49 JUMP JUMPDEST PUSH2 0x24F6 PUSH2 0x470A JUMP JUMPDEST PUSH1 0x1 PUSH1 0x1 PUSH1 0xA0 SHL SUB AND PUSH1 0x0 DUP2 DUP2 MSTORE PUSH1 0x5 PUSH1 0x20 MSTORE PUSH1 0x40 DUP2 KECCAK256 DUP1 SLOAD PUSH1 0xFF NOT AND PUSH1 0x1 OR SWAP1 SSTORE PUSH32 0x28B124BC885018CB01DC65331DF0A825C10382EA21EABC26502AF36ED436D8F3 SWAP1 DUP1 LOG2 STOP JUMPDEST CALLVALUE PUSH2 0x5C9 JUMPI PUSH1 0x0 CALLDATASIZE PUSH1 0x3 NOT ADD SLT PUSH2 0x5C9 JUMPI PUSH1 0x20 PUSH2 0x23E7 PUSH2 0x5028 JUMP JUMPDEST CALLVALUE PUSH2 0x5C9 JUMPI PUSH1 0x0 CALLDATASIZE PUSH1 0x3 NOT ADD SLT PUSH2 0x5C9 JUMPI PUSH1 0xA SLOAD PUSH1 0x40 MLOAD PUSH1 0x1 PUSH1 0x1 PUSH1 0xA0 SHL SUB SWAP1 SWAP2 AND DUP2 MSTORE PUSH1 0x20 SWAP1 RETURN JUMPDEST CALLVALUE PUSH2 0x5C9 JUMPI PUSH1 0x0 CALLDATASIZE PUSH1 0x3 NOT ADD SLT PUSH2 0x5C9 JUMPI PUSH1 0x4 SLOAD PUSH1 0x1 PUSH1 0x1 PUSH1 0xA0 SHL SUB AND ISZERO ISZERO DUP1 PUSH2 0x25B3 JUMPI PUSH1 0x20 SWAP1 PUSH1 0x40 MLOAD SWAP1 ISZERO ISZERO DUP2 MSTORE RETURN JUMPDEST POP PUSH1 0x3 SLOAD PUSH3 0x2A300 DUP2 ADD DUP1 SWAP2 GT PUSH2 0xF17 JUMPI TIMESTAMP LT ISZERO PUSH2 0x164F JUMP JUMPDEST CALLVALUE PUSH2 0x5C9 JUMPI PUSH1 0x0 CALLDATASIZE PUSH1 0x3 NOT ADD SLT PUSH2 0x5C9 JUMPI PUSH1 0x1 PUSH1 0x1 PUSH1 0xA0 SHL SUB CALLER DUP2 PUSH2 0x25EF PUSH2 0x578F JUMP JUMPDEST AND EQ ISZERO DUP1 PUSH2 0x267A JUMPI JUMPDEST PUSH2 0x2668 JUMPI PUSH1 0x3 SLOAD PUSH3 0x2A300 DUP2 ADD DUP1 SWAP2 GT PUSH2 0xF17 JUMPI TIMESTAMP LT PUSH2 0x2656 JUMPI PUSH1 0x1 DUP1 PUSH1 0xA0 SHL SUB NOT SWAP1 DUP2 PUSH1 0x2 SLOAD AND PUSH1 0x2 SSTORE PUSH1 0x1 SLOAD SWAP1 CALLER DUP4 DUP4 AND OR PUSH1 0x1 SSTORE CALLER SWAP2 AND PUSH1 0x0 DUP1 MLOAD PUSH1 0x20 PUSH2 0x5960 DUP4 CODECOPY DUP2 MLOAD SWAP2 MSTORE PUSH1 0x0 DUP1 LOG3 PUSH1 0x4 SLOAD AND PUSH1 0x4 SSTORE PUSH1 0x0 PUSH1 0x3 SSTORE PUSH1 0x0 DUP1 RETURN JUMPDEST PUSH1 0x40 MLOAD PUSH4 0x5999A105 PUSH1 0xE1 SHL DUP2 MSTORE PUSH1 0x4 SWAP1 REVERT JUMPDEST PUSH1 0x40 MLOAD PUSH4 0x3C25D19 PUSH1 0xE6 SHL DUP2 MSTORE PUSH1 0x4 SWAP1 REVERT JUMPDEST POP CALLER DUP2 PUSH1 0x4 SLOAD AND EQ ISZERO PUSH2 0x25F8 JUMP JUMPDEST CALLVALUE PUSH2 0x5C9 JUMPI PUSH1 0x0 CALLDATASIZE PUSH1 0x3 NOT ADD SLT PUSH2 0x5C9 JUMPI PUSH1 0x20 PUSH1 0x40 MLOAD PUSH3 0x2A300 DUP2 MSTORE RETURN JUMPDEST CALLVALUE PUSH2 0x5C9 JUMPI PUSH2 0x26DA PUSH2 0x26E7 PUSH2 0x26BA CALLDATASIZE PUSH2 0x3F5D JUMP JUMPDEST SWAP3 SWAP2 PUSH2 0x26D4 PUSH2 0x26CC DUP4 DUP4 SWAP8 SWAP5 SWAP8 PUSH2 0x4A69 JUMP JUMPDEST SWAP6 DUP7 SWAP3 PUSH2 0x4B30 JUMP JUMPDEST SWAP4 PUSH2 0x4054 JUMP JUMPDEST SWAP2 PUSH1 0x40 MLOAD SWAP4 DUP5 SWAP4 DUP5 PUSH2 0x3F8F JUMP JUMPDEST SUB SWAP1 RETURN JUMPDEST CALLVALUE PUSH2 0x5C9 JUMPI PUSH1 0x0 CALLDATASIZE PUSH1 0x3 NOT ADD SLT PUSH2 0x5C9 JUMPI PUSH2 0x2704 PUSH2 0x470A JUMP JUMPDEST PUSH1 0x4 SLOAD PUSH1 0x1 PUSH1 0x1 PUSH1 0xA0 SHL SUB SWAP1 DUP2 AND PUSH2 0xF7C JUMPI PUSH1 0x6 SLOAD PUSH1 0xFF DUP2 AND PUSH2 0xF7C JUMPI PUSH1 0x1 SWAP1 PUSH1 0xFF NOT AND OR PUSH1 0x6 SSTORE TIMESTAMP PUSH1 0x7 SSTORE PUSH1 0x1 SLOAD AND PUSH3 0x93A80 TIMESTAMP ADD DUP1 TIMESTAMP GT PUSH2 0xF17 JUMPI PUSH1 0x20 PUSH32 0xE25D30C0102DBA87353D8CA0316DE41B0A0E8DD7C3867DA42D3B93929702AE10 SWAP2 PUSH1 0x40 MLOAD SWAP1 DUP2 MSTORE LOG2 STOP JUMPDEST CALLVALUE PUSH2 0x5C9 JUMPI PUSH1 0x0 CALLDATASIZE PUSH1 0x3 NOT ADD SLT PUSH2 0x5C9 JUMPI PUSH1 0x20 PUSH1 0x7 SLOAD PUSH1 0x40 MLOAD SWAP1 DUP2 MSTORE RETURN JUMPDEST CALLVALUE PUSH2 0x5C9 JUMPI PUSH1 0x20 CALLDATASIZE PUSH1 0x3 NOT ADD SLT PUSH2 0x5C9 JUMPI PUSH1 0x4 CALLDATALOAD PUSH1 0x1 PUSH1 0x1 PUSH1 0x40 SHL SUB DUP2 GT PUSH2 0x5C9 JUMPI PUSH2 0x686 PUSH2 0x27C2 PUSH2 0x27DD SWAP3 CALLDATASIZE SWAP1 PUSH1 0x4 ADD PUSH2 0x3D06 JUMP JUMPDEST SWAP3 SWAP1 PUSH1 0x40 MLOAD SWAP3 DUP4 SWAP2 PUSH1 0x20 DUP4 ADD SWAP6 PUSH1 0x20 DUP8 MSTORE PUSH1 0x40 DUP5 ADD SWAP2 PUSH2 0x4033 JUMP JUMPDEST MLOAD SWAP1 KECCAK256 PUSH1 0x0 MSTORE PUSH1 0x1B PUSH1 0x20 MSTORE PUSH1 0x20 PUSH1 0x40 PUSH1 0x0 KECCAK256 SLOAD PUSH1 0x40 MLOAD SWAP1 DUP2 MSTORE RETURN JUMPDEST CALLVALUE PUSH2 0x5C9 JUMPI PUSH1 0x0 CALLDATASIZE PUSH1 0x3 NOT ADD SLT PUSH2 0x5C9 JUMPI PUSH2 0x2811 PUSH2 0x470A JUMP JUMPDEST PUSH1 0xFF PUSH1 0x10 SLOAD AND ISZERO PUSH2 0x1234 JUMPI PUSH1 0x0 PUSH1 0xE SSTORE PUSH1 0x0 PUSH1 0xF SSTORE PUSH1 0x0 PUSH1 0x10 SSTORE PUSH32 0xF01A470041F696CF98054D8F318E3313EAA908F515B9C966D66BDD700EBEB9DE PUSH1 0x0 DUP1 LOG1 STOP JUMPDEST CALLVALUE PUSH2 0x5C9 JUMPI PUSH1 0x0 CALLDATASIZE PUSH1 0x3 NOT ADD SLT PUSH2 0x5C9 JUMPI PUSH2 0x286B PUSH2 0x470A JUMP JUMPDEST PUSH1 0x6 SLOAD PUSH1 0xFF DUP2 AND ISZERO PUSH2 0x1182 JUMPI PUSH1 0x1 DUP1 PUSH1 0xA0 SHL SUB PUSH1 0x1 SLOAD AND SWAP1 PUSH1 0xFF NOT AND PUSH1 0x6 SSTORE PUSH1 0x0 PUSH1 0x7 SSTORE PUSH1 0x0 DUP1 MLOAD PUSH1 0x20 PUSH2 0x58C0 DUP4 CODECOPY DUP2 MLOAD SWAP2 MSTORE PUSH1 0x0 DUP1 LOG2 STOP JUMPDEST CALLVALUE PUSH2 0x5C9 JUMPI PUSH1 0x0 CALLDATASIZE PUSH1 0x3 NOT ADD SLT PUSH2 0x5C9 JUMPI PUSH1 0x20 PUSH1 0x40 MLOAD PUSH1 0x3C DUP2 MSTORE RETURN JUMPDEST CALLVALUE PUSH2 0x5C9 JUMPI PUSH1 0x0 CALLDATASIZE PUSH1 0x3 NOT ADD SLT PUSH2 0x5C9 JUMPI PUSH1 0x20 PUSH1 0xFF PUSH1 0x2 SLOAD PUSH1 0xA0 SHR AND PUSH1 0x40 MLOAD SWAP1 ISZERO ISZERO DUP2 MSTORE RETURN JUMPDEST CALLVALUE PUSH2 0x5C9 JUMPI PUSH1 0x20 CALLDATASIZE PUSH1 0x3 NOT ADD SLT PUSH2 0x5C9 JUMPI PUSH1 0x4 CALLDATALOAD PUSH1 0xFF DUP2 AND DUP1 SWAP2 SUB PUSH2 0x5C9 JUMPI PUSH2 0x290D PUSH2 0x470A JUMP JUMPDEST PUSH1 0x5 DUP2 LT PUSH2 0x2962 JUMPI PUSH1 0x32 DUP2 GT PUSH2 0x2950 JUMPI DUP1 PUSH1 0xFF NOT PUSH1 0x15 SLOAD AND OR PUSH1 0x15 SSTORE PUSH32 0xA0544DF958EB64342ECE2DBBAF5F7E3215C6B1CBAD9EE36B2AD9375DF23E0467 PUSH1 0x0 DUP1 LOG2 STOP JUMPDEST PUSH1 0x40 MLOAD PUSH4 0x15599D7 PUSH1 0xE5 SHL DUP2 MSTORE PUSH1 0x4 SWAP1 REVERT JUMPDEST PUSH1 0x40 MLOAD PUSH4 0x357B60DB PUSH1 0xE2 SHL DUP2 MSTORE PUSH1 0x4 SWAP1 REVERT JUMPDEST CALLVALUE PUSH2 0x5C9 JUMPI PUSH1 0x0 CALLDATASIZE PUSH1 0x3 NOT ADD SLT PUSH2 0x5C9 JUMPI PUSH1 0x20 PUSH1 0x40 MLOAD PUSH3 0x93A80 DUP2 MSTORE RETURN JUMPDEST CALLVALUE PUSH2 0x5C9 JUMPI PUSH1 0x20 CALLDATASIZE PUSH1 0x3 NOT ADD SLT PUSH2 0x5C9 JUMPI PUSH2 0x29AB PUSH2 0x3D49 JUMP JUMPDEST PUSH2 0x29B3 PUSH2 0x470A JUMP JUMPDEST PUSH1 0x1 PUSH1 0x1 PUSH1 0xA0 SHL SUB SWAP1 DUP2 AND SWAP1 DUP2 ISZERO PUSH2 0x19BB JUMPI CALLER DUP3 EQ PUSH2 0x2A1E JUMPI DUP1 PUSH1 0xA SLOAD AND DUP3 EQ PUSH2 0x1F37 JUMPI DUP1 PUSH1 0xB SLOAD AND DUP3 EQ PUSH2 0x1F37 JUMPI DUP2 PUSH1 0x9 SLOAD SWAP2 DUP3 AND PUSH32 0x243549A92B2412F7A3CAF7A2E56D65B8821B91345363FAA5F57195384065FCC PUSH1 0x0 DUP1 LOG3 PUSH1 0x1 PUSH1 0x1 PUSH1 0xA0 SHL SUB NOT AND OR PUSH1 0x9 SSTORE STOP JUMPDEST PUSH1 0x40 MLOAD PUSH4 0xF914AC33 PUSH1 0xE0 SHL DUP2 MSTORE PUSH1 0x4 SWAP1 REVERT JUMPDEST CALLVALUE PUSH2 0x5C9 JUMPI PUSH1 0x20 CALLDATASIZE PUSH1 0x3 NOT ADD SLT PUSH2 0x5C9 JUMPI PUSH1 0x4 CALLDATALOAD PUSH1 0x1 PUSH1 0x1 PUSH1 0x40 SHL SUB DUP2 GT PUSH2 0x5C9 JUMPI PUSH2 0x23E7 PUSH2 0x2A65 PUSH1 0x20 SWAP3 CALLDATASIZE SWAP1 PUSH1 0x4 ADD PUSH2 0x3D06 JUMP JUMPDEST SWAP1 PUSH2 0x4836 JUMP JUMPDEST CALLVALUE PUSH2 0x5C9 JUMPI PUSH1 0x0 CALLDATASIZE PUSH1 0x3 NOT ADD SLT PUSH2 0x5C9 JUMPI PUSH1 0x20 PUSH1 0x40 MLOAD PUSH1 0x5 DUP2 MSTORE RETURN JUMPDEST CALLVALUE PUSH2 0x5C9 JUMPI PUSH1 0x20 CALLDATASIZE PUSH1 0x3 NOT ADD SLT PUSH2 0x5C9 JUMPI PUSH1 0x4 CALLDATALOAD PUSH1 0x17 SLOAD DUP2 LT ISZERO PUSH2 0x5C9 JUMPI PUSH2 0x2AB0 PUSH1 0x20 SWAP2 PUSH2 0x3F2C JUMP JUMPDEST SWAP1 SLOAD PUSH1 0x40 MLOAD SWAP2 PUSH1 0x3 SHL SHR DUP2 MSTORE RETURN JUMPDEST CALLVALUE PUSH2 0x5C9 JUMPI PUSH1 0x0 CALLDATASIZE PUSH1 0x3 NOT ADD SLT PUSH2 0x5C9 JUMPI PUSH1 0x20 PUSH1 0xD SLOAD PUSH1 0x40 MLOAD SWAP1 DUP2 MSTORE RETURN JUMPDEST CALLVALUE PUSH2 0x5C9 JUMPI PUSH1 0x20 CALLDATASIZE PUSH1 0x3 NOT ADD SLT PUSH2 0x5C9 JUMPI PUSH1 0x4 CALLDATALOAD PUSH1 0x1 PUSH1 0x1 PUSH1 0x40 SHL SUB DUP2 GT PUSH2 0x5C9 JUMPI PUSH2 0x23E7 PUSH2 0x2B11 PUSH1 0x20 SWAP3 CALLDATASIZE SWAP1 PUSH1 0x4 ADD PUSH2 0x3D06 JUMP JUMPDEST SWAP1 PUSH2 0x4A69 JUMP JUMPDEST CALLVALUE PUSH2 0x5C9 JUMPI PUSH1 0x0 CALLDATASIZE PUSH1 0x3 NOT ADD SLT PUSH2 0x5C9 JUMPI PUSH1 0x20 PUSH1 0x40 MLOAD PUSH3 0x278D00 DUP2 MSTORE RETURN JUMPDEST CALLVALUE PUSH2 0x5C9 JUMPI PUSH1 0x0 CALLDATASIZE PUSH1 0x3 NOT ADD SLT PUSH2 0x5C9 JUMPI PUSH1 0xB SLOAD PUSH1 0x40 MLOAD PUSH1 0x1 PUSH1 0x1 PUSH1 0xA0 SHL SUB SWAP1 SWAP2 AND DUP2 MSTORE PUSH1 0x20 SWAP1 RETURN JUMPDEST CALLVALUE PUSH2 0x5C9 JUMPI PUSH1 0x0 CALLDATASIZE PUSH1 0x3 NOT ADD SLT PUSH2 0x5C9 JUMPI PUSH2 0x2B77 PUSH2 0x470A JUMP JUMPDEST PUSH1 0x2 SLOAD PUSH1 0xFF DUP2 PUSH1 0xA0 SHR AND ISZERO PUSH2 0x2BBE JUMPI PUSH1 0xFF PUSH1 0xA0 SHL NOT AND PUSH1 0x2 SSTORE PUSH1 0x40 MLOAD CALLER DUP2 MSTORE PUSH32 0x5DB9EE0A495BF2E6FF9C91A7834C1BA4FDD244A5E8AA4E537BD38AEAE4B073AA SWAP1 PUSH1 0x20 SWAP1 LOG1 STOP JUMPDEST PUSH1 0x40 MLOAD PUSH4 0x8DFC202B PUSH1 0xE0 SHL DUP2 MSTORE PUSH1 0x4 SWAP1 REVERT JUMPDEST CALLVALUE PUSH2 0x5C9 JUMPI PUSH1 0x20 CALLDATASIZE PUSH1 0x3 NOT ADD SLT PUSH2 0x5C9 JUMPI PUSH1 0x4 CALLDATALOAD PUSH1 0x1 PUSH1 0x1 PUSH1 0x40 SHL SUB DUP2 GT PUSH2 0x5C9 JUMPI PUSH2 0x23E7 PUSH2 0x2C05 PUSH1 0x20 SWAP3 CALLDATASIZE SWAP1 PUSH1 0x4 ADD PUSH2 0x3D06 JUMP JUMPDEST SWAP1 PUSH2 0x4B30 JUMP JUMPDEST CALLVALUE PUSH2 0x5C9 JUMPI PUSH1 0x0 CALLDATASIZE PUSH1 0x3 NOT ADD SLT PUSH2 0x5C9 JUMPI PUSH1 0x60 PUSH1 0xE SLOAD PUSH1 0xF SLOAD PUSH1 0xFF PUSH1 0x10 SLOAD AND SWAP1 PUSH1 0x40 MLOAD SWAP3 DUP4 MSTORE PUSH1 0x20 DUP4 ADD MSTORE ISZERO ISZERO PUSH1 0x40 DUP3 ADD MSTORE RETURN JUMPDEST CALLVALUE PUSH2 0x5C9 JUMPI PUSH1 0x20 CALLDATASIZE PUSH1 0x3 NOT ADD SLT PUSH2 0x5C9 JUMPI PUSH1 0x4 CALLDATALOAD PUSH2 0x2C5B PUSH2 0x470A JUMP JUMPDEST DUP1 ISZERO PUSH2 0x1DFE JUMPI PUSH1 0x40 PUSH32 0x3FAC1AF836E5E5CB34B3C3EFBEC585CE813FE5C16ED53A4EC34A8BBE31F8680D SWAP2 PUSH1 0xD SLOAD SWAP1 DUP1 PUSH1 0xD SSTORE DUP3 MLOAD SWAP2 DUP3 MSTORE PUSH1 0x20 DUP3 ADD MSTORE LOG1 STOP JUMPDEST CALLVALUE PUSH2 0x5C9 JUMPI PUSH1 0x20 CALLDATASIZE PUSH1 0x3 NOT ADD SLT PUSH2 0x5C9 JUMPI PUSH2 0x2CB3 PUSH2 0x3D49 JUMP JUMPDEST PUSH2 0x2CBB PUSH2 0x470A JUMP JUMPDEST PUSH1 0x1 PUSH1 0x1 PUSH1 0xA0 SHL SUB SWAP1 DUP2 AND SWAP1 DUP2 ISZERO PUSH2 0x19BB JUMPI DUP1 PUSH1 0xB SLOAD AND DUP3 EQ PUSH2 0x1F37 JUMPI DUP1 PUSH1 0x9 SLOAD AND DUP3 EQ PUSH2 0x1F37 JUMPI DUP1 PUSH1 0xA SLOAD AND DUP1 PUSH1 0x0 DUP1 MLOAD PUSH1 0x20 PUSH2 0x59A0 DUP4 CODECOPY DUP2 MLOAD SWAP2 MSTORE PUSH1 0x0 DUP1 LOG2 PUSH1 0x0 MSTORE PUSH1 0x8 PUSH1 0x20 MSTORE PUSH1 0x40 PUSH1 0x0 KECCAK256 PUSH1 0xFF NOT SWAP1 DUP2 DUP2 SLOAD AND SWAP1 SSTORE DUP3 PUSH1 0x0 DUP1 MLOAD PUSH1 0x20 PUSH2 0x5880 DUP4 CODECOPY DUP2 MLOAD SWAP2 MSTORE PUSH1 0x0 DUP1 LOG2 DUP3 PUSH1 0x0 MSTORE PUSH1 0x1 PUSH1 0x40 PUSH1 0x0 KECCAK256 SWAP2 DUP3 SLOAD AND OR SWAP1 SSTORE DUP2 PUSH1 0xA SLOAD SWAP2 DUP3 AND PUSH32 0xC20073D1C4443096C55D22A3812DB7261AA6911634E1A0850F068D0C9923402D PUSH1 0x0 DUP1 LOG3 PUSH1 0x1 PUSH1 0x1 PUSH1 0xA0 SHL SUB NOT AND OR PUSH1 0xA SSTORE STOP JUMPDEST CALLVALUE PUSH2 0x5C9 JUMPI PUSH1 0x40 CALLDATASIZE PUSH1 0x3 NOT ADD SLT PUSH2 0x5C9 JUMPI PUSH1 0x4 CALLDATALOAD PUSH1 0x1 PUSH1 0x1 PUSH1 0x40 SHL SUB DUP1 DUP3 GT PUSH2 0x5C9 JUMPI CALLDATASIZE PUSH1 0x23 DUP4 ADD SLT ISZERO PUSH2 0x5C9 JUMPI DUP2 PUSH1 0x4 ADD CALLDATALOAD GT PUSH2 0x5C9 JUMPI PUSH1 0x24 DUP2 ADD CALLDATASIZE PUSH1 0x24 DUP4 PUSH1 0x4 ADD CALLDATALOAD PUSH1 0x5 SHL DUP5 ADD ADD GT PUSH2 0x5C9 JUMPI PUSH2 0x2DCC PUSH2 0x3D33 JUMP JUMPDEST PUSH2 0x2DD4 PUSH2 0x470A JUMP JUMPDEST PUSH2 0x2DDC PUSH2 0x4010 JUMP JUMPDEST PUSH1 0x1 PUSH1 0x1 PUSH1 0xA0 SHL SUB DUP2 AND ISZERO PUSH2 0x19BB JUMPI PUSH2 0x2DF8 DUP4 PUSH1 0x4 ADD CALLDATALOAD PUSH2 0x4524 JUMP JUMPDEST SWAP3 PUSH2 0x2E06 PUSH1 0x40 MLOAD SWAP5 DUP6 PUSH2 0x3E63 JUMP JUMPDEST PUSH1 0x4 DUP2 ADD CALLDATALOAD DUP1 DUP6 MSTORE PUSH1 0x1F NOT SWAP1 DUP2 SWAP1 PUSH2 0x2E1D SWAP1 PUSH2 0x4524 JUMP JUMPDEST ADD PUSH1 0x0 JUMPDEST DUP2 DUP2 LT PUSH2 0x3230 JUMPI POP POP PUSH1 0x0 SWAP4 PUSH1 0x0 JUMPDEST DUP4 PUSH1 0x4 ADD CALLDATALOAD DUP2 LT PUSH2 0x2EDD JUMPI DUP7 DUP7 ISZERO PUSH2 0x18B6 JUMPI PUSH1 0x1 DUP1 PUSH1 0x0 SSTORE PUSH1 0x40 MLOAD SWAP1 PUSH1 0x20 DUP1 DUP4 ADD DUP2 DUP5 MSTORE DUP5 MLOAD DUP1 SWAP2 MSTORE PUSH1 0x40 DUP5 ADD SWAP2 DUP1 PUSH1 0x40 DUP4 PUSH1 0x5 SHL DUP8 ADD ADD SWAP7 ADD SWAP3 PUSH1 0x0 SWAP1 JUMPDEST DUP4 DUP3 LT PUSH2 0x2E7C JUMPI DUP7 DUP9 SUB DUP8 RETURN JUMPDEST SWAP1 SWAP2 SWAP3 SWAP4 SWAP5 DUP4 DUP1 PUSH2 0x2ECC DUP4 SWAP11 PUSH1 0x3F NOT DUP12 DUP3 SUB ADD DUP7 MSTORE DUP10 MLOAD PUSH2 0x2EA5 DUP2 MLOAD PUSH1 0x80 DUP1 DUP6 MSTORE DUP5 ADD SWAP1 PUSH2 0x3C6A JUMP JUMPDEST SWAP2 DUP5 DUP3 ADD MLOAD ISZERO ISZERO DUP6 DUP3 ADD MSTORE PUSH1 0x40 DUP3 ADD MLOAD PUSH1 0x40 DUP3 ADD MSTORE PUSH1 0x60 DUP1 SWAP3 ADD MLOAD SWAP2 DUP2 DUP5 SUB SWAP2 ADD MSTORE PUSH2 0x3C6A JUMP JUMPDEST SWAP10 SWAP8 ADD SWAP6 SWAP5 SWAP4 SWAP2 SWAP1 SWAP2 ADD SWAP2 ADD PUSH2 0x2E6F JUMP JUMPDEST PUSH2 0x2EEC DUP2 DUP6 PUSH1 0x4 ADD CALLDATALOAD DUP5 PUSH2 0x537E JUMP JUMPDEST PUSH1 0x40 MLOAD PUSH2 0x2F16 DUP2 PUSH2 0x2F0A PUSH1 0x20 SWAP6 DUP7 DUP4 ADD SWAP6 DUP8 DUP8 MSTORE PUSH1 0x40 DUP5 ADD SWAP2 PUSH2 0x4033 JUMP JUMPDEST SUB DUP8 DUP2 ADD DUP4 MSTORE DUP3 PUSH2 0x3E63 JUMP JUMPDEST MLOAD SWAP1 KECCAK256 DUP1 PUSH1 0x0 MSTORE PUSH1 0x16 DUP3 MSTORE DUP7 PUSH1 0x40 PUSH1 0x0 KECCAK256 PUSH1 0xFF PUSH1 0x40 MLOAD SWAP2 PUSH2 0x2F36 DUP4 PUSH2 0x3DDB JUMP JUMPDEST PUSH1 0x4 DUP2 SLOAD SWAP2 DUP4 DUP4 AND ISZERO ISZERO DUP6 MSTORE PUSH1 0x1 DUP1 PUSH1 0xA0 SHL SUB DUP4 PUSH1 0x8 SHR AND DUP9 DUP7 ADD MSTORE DUP4 PUSH1 0x1 DUP3 ADD SLOAD PUSH1 0x1 DUP1 PUSH1 0xA0 SHL SUB DUP2 AND PUSH1 0x40 DUP9 ADD MSTORE PUSH1 0x60 PUSH1 0x80 MSTORE PUSH1 0xA0 SHR AND PUSH1 0x60 DUP7 ADD MSTORE PUSH1 0x2 DUP2 ADD SLOAD PUSH1 0x80 DUP7 ADD MSTORE DUP4 PUSH1 0x3 DUP1 PUSH1 0xA0 MSTORE DUP3 ADD SLOAD AND ISZERO ISZERO PUSH1 0xA0 DUP7 ADD MSTORE ADD SLOAD PUSH1 0xC0 DUP5 ADD MSTORE AND ISZERO PUSH2 0x31D4 JUMPI DUP1 DUP5 ADD MLOAD PUSH1 0x1 PUSH1 0x1 PUSH1 0xA0 SHL SUB AND DUP1 ISZERO ISZERO SWAP1 DUP2 PUSH2 0x31CA JUMPI JUMPDEST POP PUSH2 0x315E JUMPI DUP1 DUP5 ADD MLOAD PUSH1 0x1 PUSH1 0x1 PUSH1 0xA0 SHL SUB AND PUSH2 0x3128 JUMPI POP POP PUSH2 0x2FD4 PUSH2 0x5348 JUMP JUMPDEST SWAP1 PUSH1 0x40 MLOAD PUSH2 0x2FE1 DUP2 PUSH2 0x3E2D JUMP JUMPDEST PUSH1 0xA0 MLOAD DUP2 MSTORE PUSH3 0x8AA89 PUSH1 0xEB SHL DUP5 DUP3 ADD MSTORE DUP3 MSTORE SELFBALANCE SWAP1 PUSH1 0x0 MSTORE PUSH1 0x1C DUP4 MSTORE PUSH2 0x3015 PUSH1 0x40 PUSH1 0x0 KECCAK256 SLOAD PUSH1 0x1B DUP6 MSTORE PUSH1 0x40 PUSH1 0x0 KECCAK256 SLOAD SWAP1 PUSH2 0x4054 JUMP JUMPDEST DUP1 DUP3 GT ISZERO PUSH2 0x30F1 JUMPI PUSH2 0x3026 SWAP2 PUSH2 0x40AC JUMP JUMPDEST PUSH1 0x0 DUP1 DUP1 DUP1 DUP5 DUP13 GAS CALL PUSH2 0x3037 PUSH2 0x407C JUMP JUMPDEST POP ISZERO PUSH2 0x30BA JUMPI PUSH1 0x1 DUP3 DUP5 ADD MSTORE PUSH1 0x40 DUP1 DUP4 ADD DUP3 SWAP1 MSTORE MLOAD SWAP1 DUP2 MSTORE PUSH1 0x1 PUSH1 0x1 PUSH1 0xA0 SHL SUB DUP9 AND SWAP1 PUSH1 0x0 DUP1 MLOAD PUSH1 0x20 PUSH2 0x5980 DUP4 CODECOPY DUP2 MLOAD SWAP2 MSTORE SWAP1 DUP5 SWAP1 LOG2 JUMPDEST PUSH2 0x3078 DUP4 DUP11 PUSH2 0x45B7 JUMP JUMPDEST MSTORE PUSH2 0x3083 DUP3 DUP10 PUSH2 0x45B7 JUMP JUMPDEST POP JUMPDEST PUSH2 0x308F DUP3 DUP10 PUSH2 0x45B7 JUMP JUMPDEST MLOAD ADD MLOAD PUSH2 0x30A5 JUMPI JUMPDEST PUSH2 0x30A0 SWAP1 PUSH2 0x4192 JUMP JUMPDEST PUSH2 0x2E30 JUMP JUMPDEST SWAP5 PUSH2 0x30B2 PUSH2 0x30A0 SWAP2 PUSH2 0x4192 JUMP JUMPDEST SWAP6 SWAP1 POP PUSH2 0x3097 JUMP JUMPDEST POP PUSH1 0x40 MLOAD PUSH2 0x30C7 DUP2 PUSH2 0x3E2D JUMP JUMPDEST PUSH1 0x13 DUP2 MSTORE PUSH19 0x115512081D1C985B9CD9995C8819985A5B1959 PUSH1 0x6A SHL DUP4 DUP3 ADD MSTORE PUSH1 0x80 MLOAD DUP3 ADD MSTORE PUSH2 0x306E JUMP JUMPDEST POP POP PUSH1 0x40 MLOAD PUSH2 0x30FF DUP2 PUSH2 0x3E2D JUMP JUMPDEST PUSH1 0x12 DUP2 MSTORE PUSH18 0x9CDE40E4CAC6DEECCAE4C2C4D8CA408AA89 PUSH1 0x73 SHL DUP4 DUP3 ADD MSTORE PUSH1 0x80 MLOAD DUP3 ADD MSTORE PUSH2 0x306E JUMP JUMPDEST PUSH2 0x3143 SWAP3 PUSH2 0x313B DUP7 DUP11 PUSH1 0x4 ADD CALLDATALOAD DUP10 PUSH2 0x537E JUMP JUMPDEST SWAP3 SWAP1 SWAP2 PUSH2 0x53BF JUMP JUMPDEST PUSH2 0x314D DUP4 DUP11 PUSH2 0x45B7 JUMP JUMPDEST MSTORE PUSH2 0x3158 DUP3 DUP10 PUSH2 0x45B7 JUMP JUMPDEST POP PUSH2 0x3085 JUMP JUMPDEST POP POP POP SWAP1 PUSH2 0x30A0 SWAP2 PUSH2 0x318D PUSH2 0x3178 DUP4 DUP9 PUSH1 0x4 ADD CALLDATALOAD DUP8 PUSH2 0x537E JUMP JUMPDEST SWAP2 SWAP1 PUSH2 0x3184 DUP6 DUP14 PUSH2 0x45B7 JUMP JUMPDEST MLOAD SWAP3 CALLDATASIZE SWAP2 PUSH2 0x4EAF JUMP JUMPDEST SWAP1 MSTORE PUSH1 0x80 MLOAD PUSH2 0x319C DUP4 DUP12 PUSH2 0x45B7 JUMP JUMPDEST MLOAD ADD PUSH14 0x139BDD08184818DBDB9D1C9858DD PUSH1 0x92 SHL PUSH1 0x40 MLOAD SWAP3 PUSH2 0x31BD DUP5 PUSH2 0x3E2D JUMP JUMPDEST PUSH1 0xE DUP5 MSTORE DUP4 ADD MSTORE MSTORE PUSH2 0x4192 JUMP JUMPDEST SWAP1 POP EXTCODESIZE ISZERO DUP13 PUSH2 0x2FB4 JUMP JUMPDEST POP POP POP SWAP1 PUSH2 0x30A0 SWAP2 PUSH2 0x31EE PUSH2 0x3178 DUP4 DUP9 PUSH1 0x4 ADD CALLDATALOAD DUP8 PUSH2 0x537E JUMP JUMPDEST SWAP1 MSTORE PUSH1 0x80 MLOAD PUSH2 0x31FD DUP4 DUP12 PUSH2 0x45B7 JUMP JUMPDEST MLOAD ADD PUSH19 0x151BDAD95B881B9BDD081CDD5C1C1BDC9D1959 PUSH1 0x6A SHL PUSH1 0x40 MLOAD SWAP3 PUSH2 0x3223 DUP5 PUSH2 0x3E2D JUMP JUMPDEST PUSH1 0x13 DUP5 MSTORE DUP4 ADD MSTORE MSTORE PUSH2 0x4192 JUMP JUMPDEST PUSH1 0x20 SWAP1 PUSH2 0x323B PUSH2 0x5348 JUMP JUMPDEST DUP3 DUP3 DUP11 ADD ADD MSTORE ADD PUSH2 0x2E21 JUMP JUMPDEST CALLVALUE PUSH2 0x5C9 JUMPI PUSH1 0x0 CALLDATASIZE PUSH1 0x3 NOT ADD SLT PUSH2 0x5C9 JUMPI PUSH1 0x9 SLOAD PUSH1 0x40 MLOAD PUSH1 0x1 PUSH1 0x1 PUSH1 0xA0 SHL SUB SWAP1 SWAP2 AND DUP2 MSTORE PUSH1 0x20 SWAP1 RETURN JUMPDEST CALLVALUE PUSH2 0x5C9 JUMPI PUSH1 0x0 CALLDATASIZE PUSH1 0x3 NOT ADD SLT PUSH2 0x5C9 JUMPI PUSH1 0x20 PUSH1 0x40 MLOAD PUSH1 0x32 DUP2 MSTORE RETURN JUMPDEST CALLVALUE PUSH2 0x5C9 JUMPI PUSH1 0x0 CALLDATASIZE PUSH1 0x3 NOT ADD SLT PUSH2 0x5C9 JUMPI PUSH2 0x32A5 PUSH2 0x470A JUMP JUMPDEST PUSH1 0x4 SLOAD PUSH1 0x1 PUSH1 0x1 PUSH1 0xA0 SHL SUB SWAP1 DUP2 DUP2 AND SWAP1 DUP2 ISZERO DUP1 DUP1 PUSH2 0x334D JUMPI JUMPDEST PUSH2 0x333B JUMPI ISZERO PUSH2 0x32FC JUMPI JUMPDEST POP POP PUSH1 0x6 SLOAD PUSH1 0xFF DUP2 AND PUSH2 0x32D7 JUMPI STOP JUMPDEST PUSH1 0xFF NOT AND PUSH1 0x6 SSTORE PUSH1 0x0 PUSH1 0x7 SSTORE PUSH1 0x1 SLOAD AND PUSH1 0x0 DUP1 MLOAD PUSH1 0x20 PUSH2 0x58C0 DUP4 CODECOPY DUP2 MLOAD SWAP2 MSTORE PUSH1 0x0 DUP1 LOG2 STOP JUMPDEST PUSH1 0x1 PUSH1 0x1 PUSH1 0xA0 SHL SUB NOT AND PUSH1 0x4 SSTORE PUSH1 0x0 PUSH1 0x3 DUP2 SWAP1 SSTORE PUSH32 0x48A87225523C5FD46BF3B7DA3223E5525F77B8136A962695D701A24699BEF8F3 SWAP1 DUP1 LOG2 DUP2 DUP1 PUSH2 0x32C8 JUMP JUMPDEST PUSH1 0x40 MLOAD PUSH4 0x4E358433 PUSH1 0xE1 SHL DUP2 MSTORE PUSH1 0x4 SWAP1 REVERT JUMPDEST POP PUSH1 0xFF PUSH1 0x6 SLOAD AND ISZERO PUSH2 0x32BE JUMP JUMPDEST CALLVALUE PUSH2 0x5C9 JUMPI PUSH1 0x20 DUP1 PUSH1 0x3 NOT CALLDATASIZE ADD SLT PUSH2 0x5C9 JUMPI PUSH1 0x4 CALLDATALOAD PUSH1 0x1 PUSH1 0x1 PUSH1 0x40 SHL SUB DUP2 GT PUSH2 0x5C9 JUMPI PUSH2 0x338B SWAP1 CALLDATASIZE SWAP1 PUSH1 0x4 ADD PUSH2 0x3D06 JUMP JUMPDEST PUSH2 0x3393 PUSH2 0x470A JUMP JUMPDEST PUSH1 0x40 MLOAD DUP4 DUP2 ADD SWAP1 DUP5 DUP3 MSTORE PUSH2 0x33AF DUP2 PUSH2 0x686 PUSH1 0x40 DUP3 ADD DUP7 DUP9 PUSH2 0x4033 JUMP JUMPDEST MLOAD SWAP1 KECCAK256 SWAP3 DUP4 PUSH1 0x0 MSTORE DUP1 DUP1 MSTORE PUSH1 0xFF PUSH1 0x40 PUSH1 0x0 KECCAK256 SLOAD AND ISZERO PUSH2 0x351A JUMPI DUP4 PUSH1 0x0 MSTORE PUSH1 0x16 DUP2 MSTORE PUSH1 0xFF PUSH1 0x40 PUSH1 0x0 KECCAK256 SLOAD AND ISZERO PUSH2 0xB4B JUMPI DUP4 PUSH1 0x0 MSTORE PUSH1 0x1C DUP2 MSTORE PUSH1 0x40 PUSH1 0x0 KECCAK256 SLOAD PUSH2 0x3508 JUMPI DUP4 PUSH1 0x0 MSTORE PUSH1 0x1B DUP2 MSTORE PUSH1 0x40 PUSH1 0x0 KECCAK256 SLOAD PUSH2 0x3508 JUMPI DUP4 PUSH1 0x0 MSTORE PUSH1 0x16 DUP2 MSTORE PUSH1 0x40 PUSH1 0x0 KECCAK256 PUSH1 0xFF NOT SWAP1 DUP2 DUP2 SLOAD AND SWAP1 SSTORE PUSH1 0x1F DUP3 MSTORE PUSH1 0x40 PUSH1 0x0 KECCAK256 SLOAD SWAP4 PUSH1 0x17 SLOAD SWAP5 PUSH1 0x0 NOT SWAP6 DUP7 DUP2 ADD SWAP1 DUP2 GT PUSH2 0xF17 JUMPI DUP1 DUP3 SUB PUSH2 0x34D5 JUMPI JUMPDEST POP POP PUSH1 0x17 SLOAD SWAP2 DUP3 ISZERO PUSH2 0x34BF JUMPI DUP6 PUSH32 0x40FC64B980E88B51ADD22183817CD5475B98F00E59877F0D959E5C8CE860F6F5 SWAP7 PUSH2 0x34BA SWAP5 ADD SWAP1 PUSH2 0x347C DUP3 PUSH2 0x3F2C JUMP JUMPDEST SWAP1 SWAP2 DUP3 SLOAD SWAP2 PUSH1 0x3 SHL SHL NOT AND SWAP1 SSTORE PUSH1 0x17 SSTORE DUP7 PUSH1 0x0 MSTORE PUSH1 0x1F DUP5 MSTORE PUSH1 0x0 PUSH1 0x40 DUP2 KECCAK256 SSTORE DUP4 DUP1 MSTORE PUSH1 0x40 PUSH1 0x0 KECCAK256 SWAP1 DUP2 SLOAD AND SWAP1 SSTORE PUSH1 0x40 MLOAD SWAP4 DUP4 DUP6 SWAP5 DUP6 MSTORE DUP5 ADD SWAP2 PUSH2 0x4033 JUMP JUMPDEST SUB SWAP1 LOG2 STOP JUMPDEST PUSH4 0x4E487B71 PUSH1 0xE0 SHL PUSH1 0x0 MSTORE PUSH1 0x31 PUSH1 0x4 MSTORE PUSH1 0x24 PUSH1 0x0 REVERT JUMPDEST PUSH2 0x34DE SWAP1 PUSH2 0x3F2C JUMP JUMPDEST SWAP1 SLOAD SWAP1 PUSH1 0x3 SHL SHR DUP1 PUSH2 0x34F2 PUSH2 0x1C54 DUP5 PUSH2 0x3F2C JUMP JUMPDEST SWAP1 SSTORE PUSH1 0x0 MSTORE PUSH1 0x1F DUP5 MSTORE PUSH1 0x40 PUSH1 0x0 KECCAK256 SSTORE DUP7 DUP1 PUSH2 0x343E JUMP JUMPDEST PUSH1 0x40 MLOAD PUSH4 0x21BD81C9 PUSH1 0xE1 SHL DUP2 MSTORE PUSH1 0x4 SWAP1 REVERT JUMPDEST PUSH1 0x40 MLOAD PUSH4 0xCBDB7B3 PUSH1 0xE4 SHL DUP2 MSTORE PUSH1 0x4 SWAP1 REVERT JUMPDEST CALLVALUE PUSH2 0x5C9 JUMPI PUSH1 0x0 CALLDATASIZE PUSH1 0x3 NOT ADD SLT PUSH2 0x5C9 JUMPI PUSH1 0x20 PUSH1 0x40 MLOAD PUSH4 0x3C26700 DUP2 MSTORE RETURN JUMPDEST CALLVALUE PUSH2 0x5C9 JUMPI PUSH1 0x0 CALLDATASIZE PUSH1 0x3 NOT ADD SLT PUSH2 0x5C9 JUMPI PUSH1 0x20 PUSH1 0x14 SLOAD PUSH1 0x40 MLOAD SWAP1 DUP2 MSTORE RETURN JUMPDEST CALLVALUE PUSH2 0x5C9 JUMPI PUSH1 0x60 CALLDATASIZE PUSH1 0x3 NOT ADD SLT PUSH2 0x5C9 JUMPI PUSH1 0x4 CALLDATALOAD PUSH1 0x24 CALLDATALOAD SWAP1 PUSH1 0x44 CALLDATALOAD PUSH1 0x4 DUP2 LT ISZERO PUSH2 0x5C9 JUMPI PUSH2 0x3595 PUSH2 0x4010 JUMP JUMPDEST PUSH1 0x0 DUP3 DUP2 MSTORE PUSH1 0x1D PUSH1 0x20 MSTORE PUSH1 0x40 SWAP1 KECCAK256 DUP1 SLOAD SWAP1 SWAP4 PUSH1 0x1 PUSH1 0x1 PUSH1 0xA0 SHL SUB SWAP2 DUP3 DUP2 AND CALLER SUB PUSH2 0x1330 JUMPI PUSH1 0xFF DUP2 PUSH1 0xB8 SHR AND PUSH2 0x130C JUMPI PUSH1 0x4 DUP7 ADD SWAP1 DUP2 SLOAD SWAP1 PUSH2 0x35DC PUSH1 0x3 DUP10 ADD SWAP3 DUP4 SLOAD SWAP1 PUSH2 0x4054 JUMP JUMPDEST PUSH1 0xFF DUP3 PUSH1 0xB0 SHR AND PUSH1 0x0 EQ PUSH2 0x374A JUMPI POP POP POP POP PUSH1 0x1 PUSH1 0xB8 SHL PUSH1 0xFF PUSH1 0xB8 SHL NOT DUP7 SLOAD AND OR DUP6 SSTORE PUSH1 0x2 DUP6 ADD PUSH1 0x1 DUP2 SLOAD SWAP7 ADD SWAP6 DUP7 SLOAD PUSH1 0x0 MSTORE PUSH1 0x1C PUSH1 0x20 MSTORE PUSH2 0x3624 PUSH1 0x40 PUSH1 0x0 KECCAK256 SWAP2 DUP3 SLOAD PUSH2 0x40AC JUMP JUMPDEST SWAP1 SSTORE SLOAD SWAP1 PUSH1 0x0 SWAP3 DUP2 PUSH2 0x367B JUMPI JUMPDEST POP POP PUSH2 0x363D SWAP3 POP PUSH2 0x40AC JUMP JUMPDEST SWAP2 DUP3 DUP1 PUSH2 0x3668 JUMPI JUMPDEST POP POP PUSH1 0x40 MLOAD SWAP2 DUP3 MSTORE PUSH1 0x0 DUP1 MLOAD PUSH1 0x20 PUSH2 0x5920 DUP4 CODECOPY DUP2 MLOAD SWAP2 MSTORE PUSH1 0x20 CALLER SWAP4 LOG3 PUSH1 0x1 PUSH1 0x0 SSTORE STOP JUMPDEST PUSH2 0x3674 SWAP2 CALLER SWAP1 SLOAD PUSH2 0x434A JUMP JUMPDEST DUP3 DUP3 PUSH2 0x3645 JUMP JUMPDEST SWAP1 SWAP3 POP PUSH1 0x64 DUP4 GT PUSH2 0x3738 JUMPI PUSH1 0x0 SWAP3 PUSH1 0x1 DUP6 EQ SWAP5 DUP6 ISZERO SWAP1 DUP2 PUSH2 0x372A JUMPI JUMPDEST POP PUSH2 0x3718 JUMPI PUSH2 0x36A8 PUSH1 0x64 SWAP2 DUP5 PUSH2 0x41A1 JUMP JUMPDEST DIV SWAP3 PUSH2 0x5B3 JUMPI PUSH2 0x363D SWAP4 ISZERO PUSH2 0x370F JUMPI PUSH1 0xB SLOAD AND JUMPDEST DUP3 PUSH2 0x36C8 JUMPI JUMPDEST DUP1 PUSH2 0x3631 JUMP JUMPDEST PUSH2 0x36D4 DUP4 DUP3 DUP9 SLOAD PUSH2 0x434A JUMP JUMPDEST DUP5 PUSH32 0x587E785F004641121655A324F02AF272B5E9C825BF554A6FF5B9C563015EEA21 PUSH1 0x40 MLOAD DUP1 PUSH2 0x3706 CALLER SWAP6 DUP9 DUP4 PUSH2 0x41D4 JUMP JUMPDEST SUB SWAP1 LOG3 DUP6 PUSH2 0x36C2 JUMP JUMPDEST PUSH1 0xA SLOAD AND PUSH2 0x36BC JUMP JUMPDEST PUSH1 0x40 MLOAD PUSH4 0x2CC10FE9 PUSH1 0xE1 SHL DUP2 MSTORE PUSH1 0x4 SWAP1 REVERT JUMPDEST SWAP5 POP POP PUSH1 0x0 SWAP4 ISZERO ISZERO DUP9 PUSH2 0x3697 JUMP JUMPDEST PUSH1 0x40 MLOAD PUSH4 0x8639DA7D PUSH1 0xE0 SHL DUP2 MSTORE PUSH1 0x4 SWAP1 REVERT JUMPDEST SWAP3 SWAP6 POP SWAP3 POP SWAP3 POP SWAP5 SWAP4 SWAP5 TIMESTAMP GT PUSH1 0x0 EQ PUSH2 0x382E JUMPI PUSH1 0xA8 SHR PUSH1 0xFF AND PUSH1 0x4 DUP2 LT ISZERO PUSH2 0x5B3 JUMPI PUSH1 0x2 SUB PUSH2 0x381D JUMPI SLOAD DUP3 SLOAD SWAP2 PUSH1 0xFF DUP4 PUSH1 0xC0 SHR AND SWAP1 DUP3 PUSH2 0x378D DUP4 DUP3 MUL SWAP4 DUP5 PUSH2 0x41B4 JUMP JUMPDEST SUB PUSH2 0x380B JUMPI SLOAD SWAP2 DUP3 ADD ADD SWAP1 DUP2 LT PUSH2 0x380B JUMPI TIMESTAMP LT PUSH2 0x3508 JUMPI PUSH1 0x1 PUSH1 0xB8 SHL SWAP1 PUSH1 0xFF PUSH1 0xB8 SHL NOT AND OR DUP2 SSTORE PUSH2 0x37EA PUSH1 0x2 DUP3 ADD SWAP2 PUSH1 0x1 DUP4 SLOAD SWAP2 ADD SWAP1 DUP2 SLOAD PUSH1 0x0 MSTORE PUSH1 0x1C PUSH1 0x20 MSTORE PUSH2 0x37DD PUSH1 0x40 PUSH1 0x0 KECCAK256 SWAP2 DUP3 SLOAD PUSH2 0x40AC JUMP JUMPDEST SWAP1 SSTORE SLOAD DUP3 SLOAD SWAP1 CALLER SWAP1 PUSH2 0x434A JUMP JUMPDEST SLOAD SWAP1 PUSH1 0x40 MLOAD SWAP2 DUP3 MSTORE PUSH1 0x0 DUP1 MLOAD PUSH1 0x20 PUSH2 0x5920 DUP4 CODECOPY DUP2 MLOAD SWAP2 MSTORE PUSH1 0x20 CALLER SWAP4 LOG3 PUSH2 0x180F JUMP JUMPDEST PUSH1 0x40 MLOAD PUSH4 0x549A0197 PUSH1 0xE0 SHL DUP2 MSTORE PUSH1 0x4 SWAP1 REVERT JUMPDEST POP POP SWAP1 PUSH2 0x3829 SWAP2 PUSH2 0x41ED JUMP JUMPDEST PUSH2 0x180F JUMP JUMPDEST PUSH1 0x40 MLOAD PUSH4 0xA237D355 PUSH1 0xE0 SHL DUP2 MSTORE PUSH1 0x4 SWAP1 REVERT JUMPDEST CALLVALUE PUSH2 0x5C9 JUMPI PUSH1 0x0 CALLDATASIZE PUSH1 0x3 NOT ADD SLT PUSH2 0x5C9 JUMPI PUSH1 0x20 PUSH1 0x3 SLOAD PUSH1 0x40 MLOAD SWAP1 DUP2 MSTORE RETURN JUMPDEST CALLVALUE PUSH2 0x5C9 JUMPI PUSH1 0x0 CALLDATASIZE PUSH1 0x3 NOT ADD SLT PUSH2 0x5C9 JUMPI PUSH1 0x20 PUSH1 0x40 MLOAD PUSH2 0x1F4 DUP2 MSTORE RETURN JUMPDEST CALLVALUE PUSH2 0x5C9 JUMPI PUSH1 0x0 CALLDATASIZE PUSH1 0x3 NOT ADD SLT PUSH2 0x5C9 JUMPI PUSH1 0x20 PUSH1 0xFF PUSH1 0x15 SLOAD AND PUSH1 0x40 MLOAD SWAP1 DUP2 MSTORE RETURN JUMPDEST CALLVALUE PUSH2 0x5C9 JUMPI PUSH1 0x0 CALLDATASIZE PUSH1 0x3 NOT ADD SLT PUSH2 0x5C9 JUMPI PUSH1 0x20 PUSH1 0xC SLOAD PUSH1 0x40 MLOAD SWAP1 DUP2 MSTORE RETURN JUMPDEST CALLVALUE PUSH2 0x5C9 JUMPI PUSH1 0x20 CALLDATASIZE PUSH1 0x3 NOT ADD SLT PUSH2 0x5C9 JUMPI PUSH1 0x4 CALLDATALOAD PUSH1 0x1 PUSH1 0x1 PUSH1 0xA0 SHL SUB DUP2 AND SWAP1 DUP2 SWAP1 SUB PUSH2 0x5C9 JUMPI PUSH2 0x38E8 PUSH2 0x470A JUMP JUMPDEST PUSH2 0x38F0 PUSH2 0x4010 JUMP JUMPDEST DUP1 ISZERO PUSH2 0x19BB JUMPI SELFBALANCE PUSH1 0x40 MLOAD PUSH1 0x20 DUP2 ADD SWAP1 PUSH2 0x390C DUP2 PUSH2 0x686 DUP5 PUSH2 0x4E91 JUMP JUMPDEST MLOAD SWAP1 KECCAK256 PUSH1 0x0 MSTORE PUSH1 0x1C PUSH1 0x20 MSTORE PUSH2 0x3931 PUSH1 0x40 PUSH1 0x0 KECCAK256 SLOAD PUSH1 0x1B PUSH1 0x20 MSTORE PUSH1 0x40 PUSH1 0x0 KECCAK256 SLOAD SWAP1 PUSH2 0x4054 JUMP JUMPDEST DUP1 DUP3 GT DUP1 ISZERO PUSH2 0x39C0 JUMPI PUSH1 0x0 PUSH1 0x0 DUP1 MLOAD PUSH1 0x20 PUSH2 0x59C0 DUP4 CODECOPY DUP2 MLOAD SWAP2 MSTORE PUSH2 0x3966 PUSH2 0x3958 DUP6 DUP8 PUSH2 0x40AC JUMP JUMPDEST PUSH1 0x40 MLOAD SWAP2 DUP3 SWAP2 DUP8 DUP10 DUP5 PUSH2 0x3F8F JUMP JUMPDEST SUB SWAP1 LOG2 ISZERO PUSH2 0x18B6 JUMPI PUSH2 0x3977 SWAP2 PUSH2 0x40AC JUMP JUMPDEST PUSH1 0x0 DUP1 DUP1 DUP1 DUP5 DUP7 GAS CALL PUSH2 0x3988 PUSH2 0x407C JUMP JUMPDEST POP ISZERO PUSH2 0x39AE JUMPI PUSH1 0x20 PUSH1 0x0 DUP1 MLOAD PUSH1 0x20 PUSH2 0x5980 DUP4 CODECOPY DUP2 MLOAD SWAP2 MSTORE SWAP2 PUSH1 0x40 MLOAD SWAP1 DUP2 MSTORE LOG2 PUSH1 0x1 PUSH1 0x0 SSTORE STOP JUMPDEST PUSH1 0x40 MLOAD PUSH4 0xA4B66909 PUSH1 0xE0 SHL DUP2 MSTORE PUSH1 0x4 SWAP1 REVERT JUMPDEST PUSH1 0x0 PUSH1 0x0 DUP1 MLOAD PUSH1 0x20 PUSH2 0x59C0 DUP4 CODECOPY DUP2 MLOAD SWAP2 MSTORE PUSH2 0x3966 DUP3 PUSH2 0x3958 JUMP JUMPDEST CALLVALUE PUSH2 0x5C9 JUMPI PUSH1 0x20 CALLDATASIZE PUSH1 0x3 NOT ADD SLT PUSH2 0x5C9 JUMPI PUSH1 0x4 CALLDATALOAD PUSH1 0x0 MSTORE PUSH1 0x18 PUSH1 0x20 MSTORE PUSH2 0x26E7 PUSH2 0x3A06 PUSH1 0x40 PUSH1 0x0 KECCAK256 PUSH2 0x3E86 JUMP JUMPDEST PUSH1 0x40 MLOAD SWAP2 DUP3 SWAP2 PUSH1 0x20 DUP4 MSTORE PUSH1 0x20 DUP4 ADD SWAP1 PUSH2 0x3C6A JUMP JUMPDEST CALLVALUE PUSH2 0x5C9 JUMPI PUSH1 0x20 CALLDATASIZE PUSH1 0x3 NOT ADD SLT PUSH2 0x5C9 JUMPI PUSH1 0x4 CALLDATALOAD PUSH2 0x3A36 PUSH2 0x4010 JUMP JUMPDEST DUP1 PUSH1 0x0 MSTORE PUSH1 0x1D PUSH1 0x20 MSTORE PUSH1 0x40 PUSH1 0x0 KECCAK256 SWAP1 DUP2 SLOAD PUSH1 0xFF DUP2 PUSH1 0xB8 SHR AND PUSH2 0x130C JUMPI PUSH1 0xFF DUP2 PUSH1 0xB0 SHR AND PUSH2 0x3B31 JUMPI PUSH1 0x4 DUP4 ADD SLOAD SWAP1 PUSH1 0x3 DUP5 ADD SLOAD PUSH2 0x3A72 DUP2 DUP5 PUSH2 0x4054 JUMP JUMPDEST TIMESTAMP GT ISZERO PUSH2 0x3B1F JUMPI PUSH1 0xFF DUP3 PUSH1 0xA8 SHR AND PUSH1 0x4 DUP2 LT ISZERO PUSH2 0x5B3 JUMPI PUSH1 0x2 EQ PUSH2 0x3B0D JUMPI PUSH1 0x1 PUSH1 0x1 PUSH1 0xA0 SHL SUB DUP3 DUP2 AND CALLER EQ ISZERO SWAP4 SWAP1 DUP5 SWAP1 DUP2 PUSH2 0x3AFE JUMPI JUMPDEST POP PUSH2 0x1330 JUMPI DUP4 PUSH2 0x3AD5 JUMPI JUMPDEST POP POP POP PUSH2 0x3AC3 JUMPI PUSH2 0x180F SWAP2 PUSH2 0x41ED JUMP JUMPDEST PUSH1 0x40 MLOAD PUSH4 0x478F84E7 PUSH1 0xE0 SHL DUP2 MSTORE PUSH1 0x4 SWAP1 REVERT JUMPDEST PUSH2 0x3AF4 SWAP4 POP PUSH4 0xFFFFFFFF SWAP2 PUSH2 0x3AE9 SWAP2 PUSH2 0x4054 JUMP JUMPDEST SWAP2 PUSH1 0xC8 SHR AND SWAP1 PUSH2 0x4054 JUMP JUMPDEST TIMESTAMP LT DUP4 DUP1 DUP1 PUSH2 0x3AB3 JUMP JUMPDEST SWAP1 POP PUSH1 0x1 SLOAD AND CALLER EQ ISZERO DUP8 PUSH2 0x3AA8 JUMP JUMPDEST PUSH1 0x40 MLOAD PUSH4 0x75D3F2A7 PUSH1 0xE1 SHL DUP2 MSTORE PUSH1 0x4 SWAP1 REVERT JUMPDEST PUSH1 0x40 MLOAD PUSH4 0xA8F83FF PUSH1 0xE1 SHL DUP2 MSTORE PUSH1 0x4 SWAP1 REVERT JUMPDEST PUSH1 0x40 MLOAD PUSH4 0x67D2F5B PUSH1 0xE0 SHL DUP2 MSTORE PUSH1 0x4 SWAP1 REVERT JUMPDEST CALLVALUE PUSH2 0x5C9 JUMPI PUSH2 0x686 PUSH2 0x3B57 PUSH2 0x1408 CALLDATASIZE PUSH2 0x3D5F JUMP JUMPDEST MLOAD SWAP1 KECCAK256 SWAP1 DUP2 PUSH1 0x0 MSTORE PUSH1 0x16 PUSH1 0x20 MSTORE PUSH1 0xFF PUSH1 0x40 PUSH1 0x0 KECCAK256 SLOAD AND ISZERO PUSH2 0xB4B JUMPI PUSH1 0x1 PUSH1 0x1 PUSH1 0xA0 SHL SUB DUP2 DUP2 AND SWAP2 SWAP1 DUP3 ISZERO PUSH2 0x19BB JUMPI PUSH32 0x970F8D5D7E6E516816144D4407B19D32456882E220B4F45B59E1E4CE50A0653A SWAP3 PUSH2 0x3BB2 PUSH1 0x40 SWAP4 PUSH2 0x477F JUMP JUMPDEST PUSH1 0x0 DUP6 DUP2 MSTORE PUSH1 0x16 PUSH1 0x20 SWAP1 DUP2 MSTORE SWAP1 DUP5 SWAP1 KECCAK256 PUSH1 0x1 ADD DUP1 SLOAD PUSH1 0x1 PUSH1 0x1 PUSH1 0xA0 SHL SUB NOT DUP2 AND DUP5 OR SWAP1 SWAP2 SSTORE DUP5 MLOAD SWAP4 AND DUP4 MSTORE DUP3 ADD MSTORE LOG2 STOP JUMPDEST CALLVALUE PUSH2 0x5C9 JUMPI PUSH1 0x0 CALLDATASIZE PUSH1 0x3 NOT ADD SLT PUSH2 0x5C9 JUMPI PUSH1 0x17 SLOAD PUSH2 0x3C00 DUP2 PUSH2 0x453B JUMP JUMPDEST SWAP1 PUSH1 0x0 JUMPDEST DUP2 DUP2 LT PUSH2 0x3C21 JUMPI PUSH1 0x40 MLOAD PUSH1 0x20 DUP1 DUP3 MSTORE DUP2 SWAP1 PUSH2 0x26E7 SWAP1 DUP3 ADD DUP7 PUSH2 0x3CAA JUMP JUMPDEST DUP1 PUSH2 0x3C2E PUSH2 0x3C65 SWAP3 PUSH2 0x3F2C JUMP JUMPDEST SWAP1 SLOAD SWAP1 PUSH1 0x3 SHL SHR PUSH1 0x0 MSTORE PUSH1 0x18 PUSH1 0x20 MSTORE PUSH2 0x3C4A PUSH1 0x40 PUSH1 0x0 KECCAK256 PUSH2 0x3E86 JUMP JUMPDEST PUSH2 0x3C54 DUP3 DUP7 PUSH2 0x45B7 JUMP JUMPDEST MSTORE PUSH2 0x3C5F DUP2 DUP6 PUSH2 0x45B7 JUMP JUMPDEST POP PUSH2 0x4192 JUMP JUMPDEST PUSH2 0x3C04 JUMP JUMPDEST SWAP2 SWAP1 DUP3 MLOAD SWAP3 DUP4 DUP3 MSTORE PUSH1 0x0 JUMPDEST DUP5 DUP2 LT PUSH2 0x3C96 JUMPI POP POP DUP3 PUSH1 0x0 PUSH1 0x20 DUP1 SWAP5 SWAP6 DUP5 ADD ADD MSTORE PUSH1 0x1F DUP1 NOT SWAP2 ADD AND ADD ADD SWAP1 JUMP JUMPDEST PUSH1 0x20 DUP2 DUP4 ADD DUP2 ADD MLOAD DUP5 DUP4 ADD DUP3 ADD MSTORE ADD PUSH2 0x3C75 JUMP JUMPDEST SWAP1 DUP1 DUP3 MLOAD SWAP1 DUP2 DUP2 MSTORE PUSH1 0x20 DUP1 SWAP2 ADD SWAP3 DUP2 DUP1 DUP5 PUSH1 0x5 SHL DUP4 ADD ADD SWAP6 ADD SWAP4 PUSH1 0x0 SWAP2 JUMPDEST DUP5 DUP4 LT PUSH2 0x3CD8 JUMPI POP POP POP POP POP POP SWAP1 JUMP JUMPDEST SWAP1 SWAP2 SWAP3 SWAP4 SWAP5 SWAP6 DUP5 DUP1 PUSH2 0x3CF6 PUSH1 0x1 SWAP4 PUSH1 0x1F NOT DUP7 DUP3 SUB ADD DUP8 MSTORE DUP11 MLOAD PUSH2 0x3C6A JUMP JUMPDEST SWAP9 ADD SWAP4 ADD SWAP4 ADD SWAP2 SWAP5 SWAP4 SWAP3 SWAP1 PUSH2 0x3CC8 JUMP JUMPDEST SWAP2 DUP2 PUSH1 0x1F DUP5 ADD SLT ISZERO PUSH2 0x5C9 JUMPI DUP3 CALLDATALOAD SWAP2 PUSH1 0x1 PUSH1 0x1 PUSH1 0x40 SHL SUB DUP4 GT PUSH2 0x5C9 JUMPI PUSH1 0x20 DUP4 DUP2 DUP7 ADD SWAP6 ADD ADD GT PUSH2 0x5C9 JUMPI JUMP JUMPDEST PUSH1 0x24 CALLDATALOAD SWAP1 PUSH1 0x1 PUSH1 0x1 PUSH1 0xA0 SHL SUB DUP3 AND DUP3 SUB PUSH2 0x5C9 JUMPI JUMP JUMPDEST PUSH1 0x4 CALLDATALOAD SWAP1 PUSH1 0x1 PUSH1 0x1 PUSH1 0xA0 SHL SUB DUP3 AND DUP3 SUB PUSH2 0x5C9 JUMPI JUMP JUMPDEST PUSH1 0x40 PUSH1 0x3 NOT DUP3 ADD SLT PUSH2 0x5C9 JUMPI PUSH1 0x4 CALLDATALOAD SWAP1 PUSH1 0x1 PUSH1 0x1 PUSH1 0x40 SHL SUB DUP3 GT PUSH2 0x5C9 JUMPI PUSH2 0x3D89 SWAP2 PUSH1 0x4 ADD PUSH2 0x3D06 JUMP JUMPDEST SWAP1 SWAP2 PUSH1 0x24 CALLDATALOAD PUSH1 0x1 PUSH1 0x1 PUSH1 0xA0 SHL SUB DUP2 AND DUP2 SUB PUSH2 0x5C9 JUMPI SWAP1 JUMP JUMPDEST SWAP1 PUSH1 0x1 DUP3 DUP2 SHR SWAP3 AND DUP1 ISZERO PUSH2 0x3DD1 JUMPI JUMPDEST PUSH1 0x20 DUP4 LT EQ PUSH2 0x3DBB JUMPI JUMP JUMPDEST PUSH4 0x4E487B71 PUSH1 0xE0 SHL PUSH1 0x0 MSTORE PUSH1 0x22 PUSH1 0x4 MSTORE PUSH1 0x24 PUSH1 0x0 REVERT JUMPDEST SWAP2 PUSH1 0x7F AND SWAP2 PUSH2 0x3DB0 JUMP JUMPDEST PUSH1 0xE0 DUP2 ADD SWAP1 DUP2 LT PUSH1 0x1 PUSH1 0x1 PUSH1 0x40 SHL SUB DUP3 GT OR PUSH2 0xB5D JUMPI PUSH1 0x40 MSTORE JUMP JUMPDEST PUSH1 0x60 DUP2 ADD SWAP1 DUP2 LT PUSH1 0x1 PUSH1 0x1 PUSH1 0x40 SHL SUB DUP3 GT OR PUSH2 0xB5D JUMPI PUSH1 0x40 MSTORE JUMP JUMPDEST PUSH2 0x160 DUP2 ADD SWAP1 DUP2 LT PUSH1 0x1 PUSH1 0x1 PUSH1 0x40 SHL SUB DUP3 GT OR PUSH2 0xB5D JUMPI PUSH1 0x40 MSTORE JUMP JUMPDEST PUSH1 0x40 DUP2 ADD SWAP1 DUP2 LT PUSH1 0x1 PUSH1 0x1 PUSH1 0x40 SHL SUB DUP3 GT OR PUSH2 0xB5D JUMPI PUSH1 0x40 MSTORE JUMP JUMPDEST PUSH1 0x20 DUP2 ADD SWAP1 DUP2 LT PUSH1 0x1 PUSH1 0x1 PUSH1 0x40 SHL SUB DUP3 GT OR PUSH2 0xB5D JUMPI PUSH1 0x40 MSTORE JUMP JUMPDEST PUSH1 0x1F SWAP1 SWAP2 ADD PUSH1 0x1F NOT AND DUP2 ADD SWAP1 PUSH1 0x1 PUSH1 0x1 PUSH1 0x40 SHL SUB DUP3 GT SWAP1 DUP3 LT OR PUSH2 0xB5D JUMPI PUSH1 0x40 MSTORE JUMP JUMPDEST SWAP1 PUSH1 0x40 MLOAD SWAP2 DUP3 PUSH1 0x0 DUP3 SLOAD SWAP3 PUSH2 0x3E9A DUP5 PUSH2 0x3DA1 JUMP JUMPDEST SWAP1 DUP2 DUP5 MSTORE PUSH1 0x1 SWAP5 DUP6 DUP2 AND SWAP1 DUP2 PUSH1 0x0 EQ PUSH2 0x3F09 JUMPI POP PUSH1 0x1 EQ PUSH2 0x3EC6 JUMPI JUMPDEST POP POP PUSH2 0x3EC4 SWAP3 POP SUB DUP4 PUSH2 0x3E63 JUMP JUMPDEST JUMP JUMPDEST SWAP1 SWAP4 SWAP2 POP PUSH1 0x0 MSTORE PUSH1 0x20 SWAP1 DUP2 PUSH1 0x0 KECCAK256 SWAP4 PUSH1 0x0 SWAP2 JUMPDEST DUP2 DUP4 LT PUSH2 0x3EF1 JUMPI POP POP PUSH2 0x3EC4 SWAP4 POP DUP3 ADD ADD CODESIZE DUP1 PUSH2 0x3EB6 JUMP JUMPDEST DUP6 SLOAD DUP9 DUP5 ADD DUP6 ADD MSTORE SWAP5 DUP6 ADD SWAP5 DUP8 SWAP5 POP SWAP2 DUP4 ADD SWAP2 PUSH2 0x3ED9 JUMP JUMPDEST SWAP2 POP POP PUSH2 0x3EC4 SWAP5 POP PUSH1 0x20 SWAP3 POP PUSH1 0xFF NOT AND DUP3 DUP5 ADD MSTORE ISZERO ISZERO PUSH1 0x5 SHL DUP3 ADD ADD CODESIZE DUP1 PUSH2 0x3EB6 JUMP JUMPDEST PUSH1 0x17 SLOAD DUP2 LT ISZERO PUSH2 0x3F47 JUMPI PUSH1 0x17 PUSH1 0x0 MSTORE PUSH1 0x20 PUSH1 0x0 KECCAK256 ADD SWAP1 PUSH1 0x0 SWAP1 JUMP JUMPDEST PUSH4 0x4E487B71 PUSH1 0xE0 SHL PUSH1 0x0 MSTORE PUSH1 0x32 PUSH1 0x4 MSTORE PUSH1 0x24 PUSH1 0x0 REVERT JUMPDEST PUSH1 0x40 PUSH1 0x3 NOT DUP3 ADD SLT PUSH2 0x5C9 JUMPI PUSH1 0x4 CALLDATALOAD SWAP1 PUSH1 0x1 PUSH1 0x1 PUSH1 0x40 SHL SUB DUP3 GT PUSH2 0x5C9 JUMPI PUSH2 0x3F87 SWAP2 PUSH1 0x4 ADD PUSH2 0x3D06 JUMP JUMPDEST SWAP1 SWAP2 PUSH1 0x24 CALLDATALOAD SWAP1 JUMP JUMPDEST PUSH1 0x40 SWAP2 SWAP5 SWAP4 SWAP3 PUSH1 0x60 DUP3 ADD SWAP6 DUP3 MSTORE PUSH1 0x20 DUP3 ADD MSTORE ADD MSTORE JUMP JUMPDEST PUSH1 0x40 SWAP1 PUSH1 0x3 NOT ADD SLT PUSH2 0x5C9 JUMPI PUSH1 0x4 CALLDATALOAD SWAP1 PUSH1 0x24 CALLDATALOAD SWAP1 JUMP JUMPDEST SWAP1 DUP2 MLOAD DUP1 DUP3 MSTORE PUSH1 0x20 DUP1 DUP1 SWAP4 ADD SWAP4 ADD SWAP2 PUSH1 0x0 JUMPDEST DUP3 DUP2 LT PUSH2 0x3FDB JUMPI POP POP POP POP SWAP1 JUMP JUMPDEST DUP4 MLOAD DUP6 MSTORE SWAP4 DUP2 ADD SWAP4 SWAP3 DUP2 ADD SWAP3 PUSH1 0x1 ADD PUSH2 0x3FCD JUMP JUMPDEST PUSH1 0xFF PUSH1 0x2 SLOAD PUSH1 0xA0 SHR AND PUSH2 0x3FFE JUMPI JUMP JUMPDEST PUSH1 0x40 MLOAD PUSH4 0xD93C0665 PUSH1 0xE0 SHL DUP2 MSTORE PUSH1 0x4 SWAP1 REVERT JUMPDEST PUSH1 0x2 PUSH1 0x0 SLOAD EQ PUSH2 0x4021 JUMPI PUSH1 0x2 PUSH1 0x0 SSTORE JUMP JUMPDEST PUSH1 0x40 MLOAD PUSH4 0x3EE5AEB5 PUSH1 0xE0 SHL DUP2 MSTORE PUSH1 0x4 SWAP1 REVERT JUMPDEST SWAP1 DUP1 PUSH1 0x20 SWAP4 SWAP3 DUP2 DUP5 MSTORE DUP5 DUP5 ADD CALLDATACOPY PUSH1 0x0 DUP3 DUP3 ADD DUP5 ADD MSTORE PUSH1 0x1F ADD PUSH1 0x1F NOT AND ADD ADD SWAP1 JUMP JUMPDEST SWAP2 SWAP1 DUP3 ADD DUP1 SWAP3 GT PUSH2 0xF17 JUMPI JUMP JUMPDEST PUSH1 0x1 PUSH1 0x1 PUSH1 0x40 SHL SUB DUP2 GT PUSH2 0xB5D JUMPI PUSH1 0x1F ADD PUSH1 0x1F NOT AND PUSH1 0x20 ADD SWAP1 JUMP JUMPDEST RETURNDATASIZE ISZERO PUSH2 0x40A7 JUMPI RETURNDATASIZE SWAP1 PUSH2 0x408D DUP3 PUSH2 0x4061 JUMP JUMPDEST SWAP2 PUSH2 0x409B PUSH1 0x40 MLOAD SWAP4 DUP5 PUSH2 0x3E63 JUMP JUMPDEST DUP3 MSTORE RETURNDATASIZE PUSH1 0x0 PUSH1 0x20 DUP5 ADD RETURNDATACOPY JUMP JUMPDEST PUSH1 0x60 SWAP1 JUMP JUMPDEST SWAP2 SWAP1 DUP3 SUB SWAP2 DUP3 GT PUSH2 0xF17 JUMPI JUMP JUMPDEST PUSH1 0x40 MLOAD PUSH4 0x23B872DD PUSH1 0xE0 SHL PUSH1 0x20 DUP3 ADD MSTORE PUSH1 0x1 PUSH1 0x1 PUSH1 0xA0 SHL SUB SWAP3 DUP4 AND PUSH1 0x24 DUP3 ADD MSTORE SWAP3 SWAP1 SWAP2 AND PUSH1 0x44 DUP4 ADD MSTORE PUSH1 0x64 DUP1 DUP4 ADD SWAP4 SWAP1 SWAP4 MSTORE SWAP2 DUP2 MSTORE PUSH1 0xA0 DUP2 ADD SWAP2 DUP2 DUP4 LT PUSH1 0x1 PUSH1 0x1 PUSH1 0x40 SHL SUB DUP5 GT OR PUSH2 0xB5D JUMPI PUSH2 0x3EC4 SWAP3 PUSH1 0x40 MSTORE JUMPDEST SWAP1 PUSH1 0x0 PUSH1 0x20 SWAP2 DUP3 DUP2 MLOAD SWAP2 ADD DUP3 DUP6 GAS CALL ISZERO PUSH2 0x18F5 JUMPI PUSH1 0x0 MLOAD RETURNDATASIZE PUSH2 0x4160 JUMPI POP PUSH1 0x1 PUSH1 0x1 PUSH1 0xA0 SHL SUB DUP2 AND EXTCODESIZE ISZERO JUMPDEST PUSH2 0x413E JUMPI POP JUMP JUMPDEST PUSH1 0x40 MLOAD PUSH4 0x5274AFE7 PUSH1 0xE0 SHL DUP2 MSTORE PUSH1 0x1 PUSH1 0x1 PUSH1 0xA0 SHL SUB SWAP1 SWAP2 AND PUSH1 0x4 DUP3 ADD MSTORE PUSH1 0x24 SWAP1 REVERT JUMPDEST PUSH1 0x1 EQ ISZERO PUSH2 0x4137 JUMP JUMPDEST PUSH1 0x4 DUP3 LT ISZERO PUSH2 0x5B3 JUMPI MSTORE JUMP JUMPDEST DUP1 SLOAD PUSH1 0xFF PUSH1 0xA0 SHL NOT AND PUSH1 0xA0 SWAP3 SWAP1 SWAP3 SHL PUSH1 0xFF PUSH1 0xA0 SHL AND SWAP2 SWAP1 SWAP2 OR SWAP1 SSTORE JUMP JUMPDEST PUSH1 0x0 NOT DUP2 EQ PUSH2 0xF17 JUMPI PUSH1 0x1 ADD SWAP1 JUMP JUMPDEST DUP2 DUP2 MUL SWAP3 SWAP2 DUP2 ISZERO SWAP2 DUP5 DIV EQ OR ISZERO PUSH2 0xF17 JUMPI JUMP JUMPDEST DUP2 ISZERO PUSH2 0x41BE JUMPI DIV SWAP1 JUMP JUMPDEST PUSH4 0x4E487B71 PUSH1 0xE0 SHL PUSH1 0x0 MSTORE PUSH1 0x12 PUSH1 0x4 MSTORE PUSH1 0x24 PUSH1 0x0 REVERT JUMPDEST SWAP1 DUP2 MSTORE PUSH1 0x1 PUSH1 0x1 PUSH1 0xA0 SHL SUB SWAP1 SWAP2 AND PUSH1 0x20 DUP3 ADD MSTORE PUSH1 0x40 ADD SWAP1 JUMP JUMPDEST SWAP1 PUSH1 0x1 PUSH1 0xB8 SHL PUSH1 0xFF PUSH1 0xB8 SHL NOT DUP4 SLOAD AND OR DUP3 SSTORE PUSH1 0x2 DUP3 ADD SWAP2 DUP3 SLOAD SWAP3 PUSH1 0x1 DUP3 ADD SWAP4 DUP5 SLOAD PUSH1 0x0 MSTORE PUSH1 0x1C PUSH1 0x20 MSTORE PUSH2 0x4226 PUSH1 0x40 PUSH1 0x0 KECCAK256 SWAP2 DUP3 SLOAD PUSH2 0x40AC JUMP JUMPDEST SWAP1 SSTORE SLOAD SWAP3 DUP2 SLOAD SWAP4 PUSH2 0x424A PUSH1 0x64 PUSH2 0x4242 PUSH1 0xFF DUP9 PUSH1 0xA0 SHR AND DUP5 PUSH2 0x41A1 JUMP JUMPDEST DIV DUP1 SWAP3 PUSH2 0x40AC JUMP JUMPDEST SWAP5 PUSH1 0xA8 SHR PUSH1 0xFF AND PUSH1 0x0 PUSH1 0x4 DUP3 LT ISZERO PUSH2 0x4336 JUMPI POP SWAP2 DUP5 PUSH1 0x0 DUP1 MLOAD PUSH1 0x20 PUSH2 0x5920 DUP4 CODECOPY DUP2 MLOAD SWAP2 MSTORE SWAP5 SWAP3 DUP5 PUSH1 0x3 PUSH1 0x20 SWAP7 EQ PUSH1 0x0 EQ PUSH2 0x430D JUMPI POP PUSH2 0xDEAD JUMPDEST DUP2 PUSH2 0x42C5 JUMPI JUMPDEST POP POP POP DUP6 DUP1 PUSH2 0x42A9 JUMPI JUMPDEST POP POP SLOAD PUSH1 0x40 MLOAD SWAP5 DUP6 MSTORE PUSH1 0x1 PUSH1 0x1 PUSH1 0xA0 SHL SUB AND SWAP4 LOG3 JUMP JUMPDEST PUSH2 0x42BE SWAP2 SLOAD PUSH1 0x1 DUP1 PUSH1 0xA0 SHL SUB DUP5 SLOAD AND SWAP1 PUSH2 0x434A JUMP JUMPDEST CODESIZE DUP6 PUSH2 0x4293 JUMP JUMPDEST DUP2 PUSH2 0x42F3 PUSH32 0x25552A005E45B02912DEF900B2C31382A6D3AD3542AE5DCF1B1F701DB19D07E SWAP4 DUP4 DUP8 SLOAD PUSH2 0x434A JUMP JUMPDEST PUSH2 0x4302 PUSH1 0x40 MLOAD SWAP3 DUP4 SWAP3 DUP4 PUSH2 0x41D4 JUMP JUMPDEST SUB SWAP1 LOG2 DUP5 CODESIZE DUP1 PUSH2 0x4289 JUMP JUMPDEST PUSH1 0x1 SUB PUSH2 0x4325 JUMPI PUSH1 0xB SLOAD PUSH1 0x1 PUSH1 0x1 PUSH1 0xA0 SHL SUB AND PUSH2 0x4283 JUMP JUMPDEST PUSH1 0xA SLOAD PUSH1 0x1 PUSH1 0x1 PUSH1 0xA0 SHL SUB AND PUSH2 0x4283 JUMP JUMPDEST PUSH4 0x4E487B71 PUSH1 0xE0 SHL DUP2 MSTORE PUSH1 0x21 PUSH1 0x4 MSTORE PUSH1 0x24 SWAP1 REVERT JUMPDEST SWAP2 SWAP1 PUSH1 0x19 SWAP3 DUP4 SLOAD SWAP3 PUSH1 0xFF DUP5 AND PUSH2 0x44BD JUMPI PUSH1 0x1 PUSH1 0xFF NOT DUP1 SWAP6 AND OR DUP6 SSTORE PUSH1 0x0 SWAP2 DUP1 DUP4 MSTORE PUSH1 0x20 SWAP1 PUSH1 0x16 DUP3 MSTORE PUSH1 0x40 SWAP5 DUP6 DUP6 KECCAK256 SWAP1 DUP7 MLOAD SWAP2 PUSH2 0x4385 DUP4 PUSH2 0x3DDB JUMP JUMPDEST DUP1 SLOAD SWAP3 PUSH1 0xFF DUP5 AND ISZERO ISZERO DUP2 MSTORE PUSH1 0xC0 PUSH1 0x4 PUSH1 0x1 DUP1 PUSH1 0xA0 SHL SUB DUP1 SWAP7 PUSH1 0x8 SHR AND SWAP4 DUP5 DUP10 DUP6 ADD MSTORE PUSH1 0xFF PUSH1 0x1 DUP3 ADD SLOAD DUP14 DUP10 DUP3 AND SWAP1 DUP8 ADD MSTORE PUSH1 0xA0 SHR AND PUSH1 0x60 DUP6 ADD MSTORE PUSH1 0x2 DUP2 ADD SLOAD PUSH1 0x80 DUP6 ADD MSTORE PUSH1 0xFF PUSH1 0x3 DUP3 ADD SLOAD AND ISZERO ISZERO PUSH1 0xA0 DUP6 ADD MSTORE ADD SLOAD SWAP2 ADD MSTORE DUP1 ISZERO PUSH1 0x0 EQ PUSH2 0x44A7 JUMPI POP AND SWAP2 DUP3 DUP6 MSTORE PUSH1 0x8 DUP2 MSTORE PUSH1 0xFF DUP7 DUP7 KECCAK256 SLOAD AND PUSH1 0x0 EQ PUSH2 0x442E JUMPI POP POP DUP3 DUP1 SWAP3 DUP2 SWAP3 GAS CALL PUSH2 0x440F PUSH2 0x407C JUMP JUMPDEST POP ISZERO PUSH2 0x441E JUMPI POP JUMPDEST DUP2 SLOAD AND SWAP1 SSTORE JUMP JUMPDEST MLOAD PUSH4 0xDB2C7F1 PUSH1 0xE3 SHL DUP2 MSTORE PUSH1 0x4 SWAP1 REVERT JUMPDEST SWAP2 SWAP4 SWAP3 SWAP1 SWAP5 DUP4 DUP1 DUP1 DUP1 DUP6 DUP10 PUSH2 0x8FC CALL PUSH2 0x4445 PUSH2 0x407C JUMP JUMPDEST POP ISZERO PUSH2 0x4456 JUMPI POP POP POP POP POP POP PUSH2 0x4417 JUMP JUMPDEST DUP1 DUP5 DUP8 PUSH1 0x0 DUP1 MLOAD PUSH1 0x20 PUSH2 0x58A0 DUP4 CODECOPY DUP2 MLOAD SWAP2 MSTORE SWAP7 MSTORE PUSH1 0x1A DUP6 MSTORE DUP2 DUP2 KECCAK256 DUP8 DUP3 MSTORE DUP6 MSTORE DUP2 DUP2 KECCAK256 PUSH2 0x4484 DUP6 DUP3 SLOAD PUSH2 0x4054 JUMP JUMPDEST SWAP1 SSTORE DUP8 DUP2 MSTORE PUSH1 0x1B DUP6 MSTORE KECCAK256 PUSH2 0x4499 DUP4 DUP3 SLOAD PUSH2 0x4054 JUMP JUMPDEST SWAP1 SSTORE MLOAD SWAP1 DUP2 MSTORE LOG3 DUP2 SLOAD AND SWAP1 SSTORE JUMP JUMPDEST SWAP4 POP SWAP4 SWAP5 POP POP POP PUSH2 0x44B8 SWAP4 POP PUSH2 0x44EA JUMP JUMPDEST PUSH2 0x4417 JUMP JUMPDEST PUSH1 0x40 MLOAD PUSH4 0xB2A722F9 PUSH1 0xE0 SHL DUP2 MSTORE PUSH1 0x4 SWAP1 REVERT JUMPDEST PUSH1 0x1 PUSH1 0x1 PUSH1 0xA0 SHL SUB SWAP1 SWAP2 AND DUP2 MSTORE PUSH1 0x20 DUP2 ADD SWAP2 SWAP1 SWAP2 MSTORE PUSH1 0x40 ADD SWAP1 JUMP JUMPDEST PUSH2 0x451F PUSH2 0x3EC4 SWAP4 SWAP3 PUSH2 0x4511 PUSH1 0x40 MLOAD SWAP5 DUP6 SWAP3 PUSH4 0xA9059CBB PUSH1 0xE0 SHL PUSH1 0x20 DUP6 ADD MSTORE PUSH1 0x24 DUP5 ADD PUSH2 0x44CF JUMP JUMPDEST SUB PUSH1 0x1F NOT DUP2 ADD DUP5 MSTORE DUP4 PUSH2 0x3E63 JUMP JUMPDEST PUSH2 0x410D JUMP JUMPDEST PUSH1 0x1 PUSH1 0x1 PUSH1 0x40 SHL SUB DUP2 GT PUSH2 0xB5D JUMPI PUSH1 0x5 SHL PUSH1 0x20 ADD SWAP1 JUMP JUMPDEST SWAP1 PUSH2 0x4545 DUP3 PUSH2 0x4524 JUMP JUMPDEST PUSH2 0x4552 PUSH1 0x40 MLOAD SWAP2 DUP3 PUSH2 0x3E63 JUMP JUMPDEST DUP3 DUP2 MSTORE DUP1 SWAP3 PUSH2 0x4563 PUSH1 0x1F NOT SWAP2 PUSH2 0x4524 JUMP JUMPDEST ADD SWAP1 PUSH1 0x0 JUMPDEST DUP3 DUP2 LT PUSH2 0x4574 JUMPI POP POP POP JUMP JUMPDEST DUP1 PUSH1 0x60 PUSH1 0x20 DUP1 SWAP4 DUP6 ADD ADD MSTORE ADD PUSH2 0x4568 JUMP JUMPDEST SWAP1 PUSH2 0x458F DUP3 PUSH2 0x4524 JUMP JUMPDEST PUSH2 0x459C PUSH1 0x40 MLOAD SWAP2 DUP3 PUSH2 0x3E63 JUMP JUMPDEST DUP3 DUP2 MSTORE DUP1 SWAP3 PUSH2 0x45AD PUSH1 0x1F NOT SWAP2 PUSH2 0x4524 JUMP JUMPDEST ADD SWAP1 PUSH1 0x20 CALLDATASIZE SWAP2 ADD CALLDATACOPY JUMP JUMPDEST DUP1 MLOAD DUP3 LT ISZERO PUSH2 0x3F47 JUMPI PUSH1 0x20 SWAP2 PUSH1 0x5 SHL ADD ADD SWAP1 JUMP JUMPDEST SWAP3 SWAP1 SWAP3 DUP3 ISZERO PUSH2 0x46F8 JUMPI PUSH1 0x64 DUP4 GT PUSH2 0x46E6 JUMPI PUSH1 0x17 SLOAD SWAP3 DUP4 SWAP1 DUP5 DUP7 LT ISZERO PUSH2 0x46B5 JUMPI PUSH2 0x4608 SWAP2 PUSH2 0x45F9 DUP8 SWAP3 DUP4 PUSH2 0x4054 JUMP JUMPDEST SWAP1 DUP1 DUP3 GT PUSH2 0x46AD JUMPI JUMPDEST POP PUSH2 0x40AC JUMP JUMPDEST PUSH2 0x4611 DUP2 PUSH2 0x453B JUMP JUMPDEST SWAP2 PUSH2 0x461B DUP3 PUSH2 0x4585 JUMP JUMPDEST SWAP6 PUSH1 0x0 JUMPDEST DUP4 DUP2 LT PUSH2 0x462F JUMPI POP POP POP POP SWAP3 SWAP2 SWAP1 JUMP JUMPDEST DUP1 PUSH2 0x4645 PUSH2 0x4640 PUSH2 0x46A8 SWAP4 DUP6 PUSH2 0x4054 JUMP JUMPDEST PUSH2 0x3F2C JUMP JUMPDEST SWAP1 SLOAD SWAP1 PUSH1 0x3 SHL SHR DUP1 PUSH1 0x0 MSTORE PUSH1 0x20 PUSH1 0x18 DUP2 MSTORE PUSH1 0x40 SWAP2 PUSH2 0x4665 DUP4 PUSH1 0x0 KECCAK256 PUSH2 0x3E86 JUMP JUMPDEST PUSH2 0x466F DUP6 DUP12 PUSH2 0x45B7 JUMP JUMPDEST MSTORE PUSH2 0x467A DUP5 DUP11 PUSH2 0x45B7 JUMP JUMPDEST POP PUSH1 0x0 SWAP1 DUP2 MSTORE PUSH1 0x1A DUP3 MSTORE DUP3 DUP2 KECCAK256 PUSH1 0x1 PUSH1 0x1 PUSH1 0xA0 SHL SUB DUP9 AND DUP3 MSTORE SWAP1 SWAP2 MSTORE KECCAK256 SLOAD PUSH2 0x46A2 DUP3 DUP12 PUSH2 0x45B7 JUMP JUMPDEST MSTORE PUSH2 0x4192 JUMP JUMPDEST PUSH2 0x461F JUMP JUMPDEST SWAP1 POP CODESIZE PUSH2 0x4602 JUMP JUMPDEST POP POP POP SWAP2 POP PUSH1 0x40 MLOAD SWAP2 PUSH2 0x46C7 DUP4 PUSH2 0x3E48 JUMP JUMPDEST PUSH1 0x0 DUP4 MSTORE PUSH1 0x40 MLOAD SWAP3 PUSH2 0x46D8 DUP5 PUSH2 0x3E48 JUMP JUMPDEST PUSH1 0x0 DUP5 MSTORE PUSH1 0x0 CALLDATASIZE DUP2 CALLDATACOPY SWAP3 SWAP2 SWAP1 JUMP JUMPDEST PUSH1 0x40 MLOAD PUSH4 0x7022F26F PUSH1 0xE0 SHL DUP2 MSTORE PUSH1 0x4 SWAP1 REVERT JUMPDEST PUSH1 0x40 MLOAD PUSH4 0x1A49577B PUSH1 0xE1 SHL DUP2 MSTORE PUSH1 0x4 SWAP1 REVERT JUMPDEST PUSH1 0x1 SLOAD PUSH1 0x1 PUSH1 0x1 PUSH1 0xA0 SHL SUB AND CALLER SUB PUSH2 0x471E JUMPI JUMP JUMPDEST PUSH1 0x40 MLOAD PUSH4 0x118CDAA7 PUSH1 0xE0 SHL DUP2 MSTORE CALLER PUSH1 0x4 DUP3 ADD MSTORE PUSH1 0x24 SWAP1 REVERT JUMPDEST MLOAD SWAP1 PUSH1 0x1 PUSH1 0x1 PUSH1 0x50 SHL SUB DUP3 AND DUP3 SUB PUSH2 0x5C9 JUMPI JUMP JUMPDEST SWAP1 DUP2 PUSH1 0xA0 SWAP2 SUB SLT PUSH2 0x5C9 JUMPI PUSH2 0x475E DUP2 PUSH2 0x4736 JUMP JUMPDEST SWAP2 PUSH1 0x20 DUP3 ADD MLOAD SWAP2 PUSH1 0x40 DUP2 ADD MLOAD SWAP2 PUSH2 0x477C PUSH1 0x80 PUSH1 0x60 DUP5 ADD MLOAD SWAP4 ADD PUSH2 0x4736 JUMP JUMPDEST SWAP1 JUMP JUMPDEST PUSH1 0x40 MLOAD PUSH4 0x3FABE5A3 PUSH1 0xE2 SHL DUP2 MSTORE SWAP1 PUSH1 0xA0 SWAP1 DUP3 SWAP1 PUSH1 0x4 SWAP1 DUP3 SWAP1 PUSH1 0x1 PUSH1 0x1 PUSH1 0xA0 SHL SUB AND GAS STATICCALL PUSH1 0x0 SWAP2 DUP2 PUSH2 0x47CC JUMPI JUMPDEST POP PUSH2 0x47C2 JUMPI PUSH1 0x40 MLOAD PUSH4 0xF45E167B PUSH1 0xE0 SHL DUP2 MSTORE PUSH1 0x4 SWAP1 REVERT JUMPDEST PUSH1 0x0 SLT ISZERO PUSH2 0x1484 JUMPI JUMP JUMPDEST PUSH2 0x47EE SWAP2 SWAP3 POP PUSH1 0xA0 RETURNDATASIZE DUP2 GT PUSH2 0x47FA JUMPI JUMPDEST PUSH2 0x47E6 DUP2 DUP4 PUSH2 0x3E63 JUMP JUMPDEST DUP2 ADD SWAP1 PUSH2 0x474A JUMP JUMPDEST POP POP POP SWAP1 POP SWAP1 CODESIZE PUSH2 0x47AB JUMP JUMPDEST POP RETURNDATASIZE PUSH2 0x47DC JUMP JUMPDEST PUSH1 0xFF PUSH1 0x11 NOT SWAP2 AND ADD SWAP1 PUSH1 0xFF DUP3 GT PUSH2 0xF17 JUMPI JUMP JUMPDEST PUSH1 0xFF AND PUSH1 0x12 SUB SWAP1 PUSH1 0xFF DUP3 GT PUSH2 0xF17 JUMPI JUMP JUMPDEST PUSH1 0xFF AND PUSH1 0x4D DUP2 GT PUSH2 0xF17 JUMPI PUSH1 0xA EXP SWAP1 JUMP JUMPDEST PUSH1 0x40 SWAP2 DUP3 MLOAD PUSH2 0x4855 DUP2 PUSH2 0x686 PUSH1 0x20 SWAP6 DUP7 DUP4 ADD SWAP6 DUP8 DUP8 MSTORE DUP9 DUP5 ADD SWAP2 PUSH2 0x4033 JUMP JUMPDEST MLOAD SWAP1 KECCAK256 PUSH1 0x0 SWAP1 DUP2 MSTORE PUSH1 0x16 DUP3 MSTORE DUP3 DUP2 KECCAK256 DUP4 MLOAD SWAP3 PUSH2 0x4870 DUP5 PUSH2 0x3DDB JUMP JUMPDEST DUP2 SLOAD PUSH1 0xFF DUP2 AND ISZERO SWAP5 DUP6 ISZERO DUP2 MSTORE PUSH1 0x1 DUP1 PUSH1 0xA0 SHL SUB DUP1 SWAP3 PUSH1 0x8 SHR AND DUP4 DUP3 ADD MSTORE PUSH1 0x1 DUP5 ADD SLOAD SWAP1 PUSH1 0xFF DUP9 DUP3 ADD SWAP3 DUP5 DUP2 AND DUP5 MSTORE PUSH1 0xA0 SHR AND PUSH1 0x60 DUP3 ADD MSTORE PUSH1 0x2 DUP6 ADD SLOAD SWAP7 PUSH1 0x80 DUP3 ADD SWAP8 DUP9 MSTORE PUSH1 0xFF PUSH1 0x3 DUP8 ADD SLOAD AND SWAP1 PUSH1 0xA0 DUP4 ADD SWAP2 ISZERO ISZERO DUP3 MSTORE PUSH1 0xC0 PUSH1 0x4 DUP1 SWAP9 ADD SLOAD SWAP4 ADD SWAP3 DUP4 MSTORE PUSH2 0x4A59 JUMPI MLOAD PUSH2 0x4A4D JUMPI POP MLOAD AND DUP6 MLOAD SWAP5 PUSH4 0x3FABE5A3 PUSH1 0xE2 SHL DUP7 MSTORE PUSH1 0xA0 DUP7 DUP6 DUP2 DUP6 GAS STATICCALL SWAP6 DUP7 ISZERO PUSH2 0x4A43 JUMPI DUP6 SWAP7 DUP7 SWAP8 DUP8 SWAP3 DUP9 SWAP3 PUSH2 0x4A19 JUMPI JUMPDEST POP DUP8 DUP10 SGT ISZERO PUSH2 0x4A09 JUMPI DUP3 ISZERO PUSH2 0x4A09 JUMPI PUSH1 0x1 PUSH1 0x1 PUSH1 0x50 SHL SUB SWAP1 DUP2 AND SWAP2 AND LT PUSH2 0x49F9 JUMPI PUSH2 0x4933 SWAP1 TIMESTAMP PUSH2 0x40AC JUMP JUMPDEST SWAP1 MLOAD LT PUSH2 0x49E9 JUMPI DUP2 SWAP1 DUP7 MLOAD SWAP4 DUP5 DUP1 SWAP3 PUSH4 0x313CE567 PUSH1 0xE0 SHL DUP3 MSTORE GAS STATICCALL SWAP5 DUP6 ISZERO PUSH2 0x49E0 JUMPI POP DUP3 SWAP5 PUSH2 0x499B JUMPI JUMPDEST POP POP POP PUSH1 0x12 PUSH1 0xFF DUP4 AND LT ISZERO PUSH2 0x4986 JUMPI PUSH2 0x4980 PUSH2 0x497B PUSH2 0x477C SWAP4 PUSH2 0x4814 JUMP JUMPDEST PUSH2 0x4825 JUMP JUMPDEST SWAP1 PUSH2 0x41A1 JUMP JUMPDEST PUSH2 0x4995 PUSH2 0x497B PUSH2 0x477C SWAP4 PUSH2 0x4801 JUMP JUMPDEST SWAP1 PUSH2 0x41B4 JUMP JUMPDEST SWAP1 DUP1 SWAP3 SWAP4 SWAP5 POP DUP2 RETURNDATASIZE DUP4 GT PUSH2 0x49D9 JUMPI JUMPDEST PUSH2 0x49B4 DUP2 DUP4 PUSH2 0x3E63 JUMP JUMPDEST DUP2 ADD SUB SLT PUSH2 0x49D5 JUMPI MLOAD SWAP1 PUSH1 0xFF DUP3 AND DUP3 SUB PUSH2 0x49D2 JUMPI POP SWAP1 CODESIZE DUP1 DUP1 PUSH2 0x495D JUMP JUMPDEST DUP1 REVERT JUMPDEST POP DUP1 REVERT JUMPDEST POP RETURNDATASIZE PUSH2 0x49AA JUMP JUMPDEST MLOAD RETURNDATASIZE DUP5 DUP3 RETURNDATACOPY RETURNDATASIZE SWAP1 REVERT JUMPDEST DUP6 MLOAD PUSH4 0xCD5FA07 PUSH1 0xE1 SHL DUP2 MSTORE DUP4 SWAP1 REVERT JUMPDEST DUP8 MLOAD PUSH4 0xCD5FA07 PUSH1 0xE1 SHL DUP2 MSTORE DUP6 SWAP1 REVERT JUMPDEST DUP10 MLOAD PUSH4 0xF45E167B PUSH1 0xE0 SHL DUP2 MSTORE DUP8 SWAP1 REVERT JUMPDEST SWAP3 POP POP POP PUSH2 0x4A36 SWAP2 SWAP7 POP PUSH1 0xA0 RETURNDATASIZE DUP2 GT PUSH2 0x47FA JUMPI PUSH2 0x47E6 DUP2 DUP4 PUSH2 0x3E63 JUMP JUMPDEST SWAP3 SWAP9 SWAP4 SWAP1 SWAP3 SWAP2 POP CODESIZE PUSH2 0x4908 JUMP JUMPDEST DUP8 MLOAD RETURNDATASIZE DUP8 DUP3 RETURNDATACOPY RETURNDATASIZE SWAP1 REVERT JUMPDEST SWAP7 POP POP POP POP POP POP POP MLOAD SWAP1 JUMP JUMPDEST DUP9 MLOAD PUSH4 0x3DD1B305 PUSH1 0xE0 SHL DUP2 MSTORE DUP7 SWAP1 REVERT JUMPDEST SWAP1 PUSH1 0x40 SWAP2 DUP3 MLOAD PUSH1 0x20 DUP2 ADD SWAP1 PUSH1 0x20 DUP3 MSTORE PUSH2 0x4A89 DUP2 PUSH2 0x686 DUP8 DUP3 ADD DUP8 DUP8 PUSH2 0x4033 JUMP JUMPDEST MLOAD SWAP1 KECCAK256 PUSH1 0x0 MSTORE PUSH1 0x16 PUSH1 0x20 MSTORE DUP3 PUSH1 0x0 KECCAK256 SWAP3 DUP1 MLOAD SWAP4 PUSH2 0x4AA5 DUP6 PUSH2 0x3DDB JUMP JUMPDEST DUP1 SLOAD SWAP5 PUSH1 0xC0 PUSH1 0x4 PUSH1 0xFF DUP9 AND ISZERO SWAP4 DUP5 ISZERO DUP5 MSTORE PUSH1 0x1 DUP1 PUSH1 0xA0 SHL SUB DUP1 SWAP10 PUSH1 0x8 SHR AND PUSH1 0x20 DUP6 ADD MSTORE PUSH1 0x1 DUP2 ADD SLOAD SWAP9 DUP10 AND DUP7 DUP6 ADD MSTORE PUSH1 0xFF PUSH1 0x60 DUP6 ADD SWAP10 PUSH1 0xA0 SHR AND DUP10 MSTORE PUSH1 0x2 DUP2 ADD SLOAD PUSH1 0x80 DUP6 ADD MSTORE PUSH1 0xFF PUSH1 0x3 DUP3 ADD SLOAD AND ISZERO ISZERO PUSH1 0xA0 DUP6 ADD MSTORE ADD SLOAD SWAP2 ADD MSTORE PUSH2 0x4B20 JUMPI POP PUSH2 0x477C SWAP3 SWAP2 PUSH2 0x4B12 SWAP2 PUSH2 0x4836 JUMP JUMPDEST PUSH1 0xFF PUSH1 0xC SLOAD SWAP3 MLOAD AND SWAP2 PUSH2 0x57EA JUMP JUMPDEST MLOAD PUSH4 0x3DD1B305 PUSH1 0xE0 SHL DUP2 MSTORE PUSH1 0x4 SWAP1 REVERT JUMPDEST SWAP1 PUSH1 0x40 SWAP2 DUP3 MLOAD PUSH1 0x20 DUP2 ADD SWAP1 PUSH1 0x20 DUP3 MSTORE PUSH2 0x4B50 DUP2 PUSH2 0x686 DUP8 DUP3 ADD DUP8 DUP8 PUSH2 0x4033 JUMP JUMPDEST MLOAD SWAP1 KECCAK256 PUSH1 0x0 MSTORE PUSH1 0x16 PUSH1 0x20 MSTORE DUP3 PUSH1 0x0 KECCAK256 SWAP3 DUP1 MLOAD SWAP4 PUSH2 0x4B6C DUP6 PUSH2 0x3DDB JUMP JUMPDEST DUP1 SLOAD SWAP5 PUSH1 0xC0 PUSH1 0x4 PUSH1 0xFF DUP9 AND ISZERO SWAP4 DUP5 ISZERO DUP5 MSTORE PUSH1 0x1 DUP1 PUSH1 0xA0 SHL SUB DUP1 SWAP10 PUSH1 0x8 SHR AND PUSH1 0x20 DUP6 ADD MSTORE PUSH1 0x1 DUP2 ADD SLOAD SWAP9 DUP10 AND DUP7 DUP6 ADD MSTORE PUSH1 0xFF PUSH1 0x60 DUP6 ADD SWAP10 PUSH1 0xA0 SHR AND DUP10 MSTORE PUSH1 0x2 DUP2 ADD SLOAD PUSH1 0x80 DUP6 ADD MSTORE PUSH1 0xFF PUSH1 0x3 DUP3 ADD SLOAD AND ISZERO ISZERO PUSH1 0xA0 DUP6 ADD MSTORE ADD SLOAD SWAP2 ADD MSTORE PUSH2 0x4B20 JUMPI POP PUSH2 0x477C SWAP3 SWAP2 PUSH2 0x4BD9 SWAP2 PUSH2 0x4836 JUMP JUMPDEST PUSH1 0xFF PUSH1 0xD SLOAD SWAP3 MLOAD AND SWAP2 PUSH2 0x57EA JUMP JUMPDEST DUP2 ISZERO PUSH2 0x46F8 JUMPI PUSH1 0x64 DUP3 GT PUSH2 0x46E6 JUMPI PUSH1 0x17 SLOAD SWAP2 DUP3 SWAP1 DUP4 DUP4 LT ISZERO PUSH2 0x4E41 JUMPI PUSH2 0x4C12 SWAP2 PUSH2 0x45F9 DUP5 SWAP3 DUP4 PUSH2 0x4054 JUMP JUMPDEST SWAP2 PUSH2 0x4C1C DUP4 PUSH2 0x453B JUMP JUMPDEST SWAP4 PUSH2 0x4C26 DUP5 PUSH2 0x4585 JUMP JUMPDEST SWAP5 PUSH2 0x4C30 DUP6 PUSH2 0x4585 JUMP JUMPDEST SWAP5 PUSH2 0x4C3A DUP2 PUSH2 0x4585 JUMP JUMPDEST SWAP5 PUSH1 0x0 JUMPDEST DUP3 DUP2 LT PUSH2 0x4C4F JUMPI POP POP POP SWAP5 SWAP4 SWAP3 SWAP2 SWAP1 JUMP JUMPDEST PUSH2 0x4C5C PUSH2 0x4640 DUP3 DUP5 PUSH2 0x4054 JUMP JUMPDEST SWAP1 SLOAD SWAP1 PUSH1 0x3 SHL SHR SWAP1 DUP2 PUSH1 0x0 MSTORE PUSH1 0x18 SWAP2 PUSH1 0x20 SWAP3 DUP1 DUP5 MSTORE PUSH1 0x40 SWAP1 PUSH2 0x4C80 DUP3 PUSH1 0x0 KECCAK256 PUSH2 0x3E86 JUMP JUMPDEST PUSH2 0x4C8A DUP6 DUP11 PUSH2 0x45B7 JUMP JUMPDEST MSTORE PUSH2 0x4C95 DUP5 DUP10 PUSH2 0x45B7 JUMP JUMPDEST POP PUSH1 0x0 SWAP3 DUP4 MSTORE DUP5 MSTORE PUSH2 0x4CA8 DUP2 DUP4 KECCAK256 PUSH2 0x3E86 JUMP JUMPDEST SWAP1 DUP1 MLOAD SWAP3 PUSH4 0x5350758F PUSH1 0xE0 SHL DUP5 MSTORE PUSH1 0x4 SWAP4 DUP7 DUP6 DUP3 ADD MSTORE PUSH1 0x24 SWAP2 DUP8 DUP3 DUP1 PUSH2 0x4CD0 DUP7 DUP3 ADD DUP10 PUSH2 0x3C6A JUMP JUMPDEST SUB DUP2 ADDRESS GAS STATICCALL SWAP1 SWAP2 DUP3 DUP3 PUSH2 0x4E0F JUMPI JUMPDEST POP POP PUSH2 0x4D18 JUMPI POP POP POP POP POP PUSH2 0x4D13 SWAP2 POP PUSH1 0x0 DUP1 DUP2 JUMPDEST PUSH2 0x4CFD DUP5 DUP13 PUSH2 0x45B7 JUMP JUMPDEST MSTORE PUSH2 0x4D08 DUP4 DUP13 PUSH2 0x45B7 JUMP JUMPDEST MSTORE PUSH2 0x46A2 DUP3 DUP13 PUSH2 0x45B7 JUMP JUMPDEST PUSH2 0x4C3E JUMP JUMPDEST SWAP4 DUP3 MLOAD PUSH4 0x4C53969 PUSH1 0xE4 SHL DUP2 MSTORE DUP8 DUP3 DUP3 ADD MSTORE DUP8 DUP2 DUP1 PUSH2 0x4D39 DUP7 DUP3 ADD DUP10 PUSH2 0x3C6A JUMP JUMPDEST SUB DUP2 ADDRESS GAS STATICCALL SWAP1 DUP2 ISZERO PUSH2 0x4E04 JUMPI SWAP1 DUP9 SWAP2 PUSH1 0x0 SWAP2 PUSH2 0x4DD4 JUMPI JUMPDEST POP SWAP2 PUSH2 0x4D74 DUP3 SWAP4 SWAP7 DUP7 MLOAD SWAP6 DUP7 SWAP5 DUP6 SWAP5 PUSH4 0x36227C69 PUSH1 0xE0 SHL DUP7 MSTORE DUP6 ADD MSTORE DUP4 ADD SWAP1 PUSH2 0x3C6A JUMP JUMPDEST SUB DUP2 ADDRESS GAS STATICCALL SWAP2 DUP3 ISZERO PUSH2 0x4DCA JUMPI POP PUSH1 0x0 SWAP2 PUSH2 0x4D94 JUMPI JUMPDEST POP PUSH2 0x4D13 SWAP5 POP PUSH2 0x4CF3 JUMP JUMPDEST SWAP2 SWAP3 SWAP4 SWAP5 DUP3 DUP2 RETURNDATASIZE DUP4 GT PUSH2 0x4DC3 JUMPI JUMPDEST PUSH2 0x4DAC DUP2 DUP4 PUSH2 0x3E63 JUMP JUMPDEST DUP2 ADD SUB SLT PUSH2 0x49D2 JUMPI POP SWAP1 PUSH2 0x4D13 SWAP4 SWAP3 SWAP2 MLOAD CODESIZE PUSH2 0x4D89 JUMP JUMPDEST POP RETURNDATASIZE PUSH2 0x4DA2 JUMP JUMPDEST MLOAD RETURNDATASIZE PUSH1 0x0 DUP3 RETURNDATACOPY RETURNDATASIZE SWAP1 REVERT JUMPDEST SWAP2 DUP3 DUP2 RETURNDATASIZE DUP4 GT PUSH2 0x4DFD JUMPI JUMPDEST PUSH2 0x4DE9 DUP2 DUP4 PUSH2 0x3E63 JUMP JUMPDEST DUP2 ADD SUB SLT PUSH2 0x49D2 JUMPI POP MLOAD DUP8 SWAP1 PUSH2 0x4D74 PUSH2 0x4D50 JUMP JUMPDEST POP RETURNDATASIZE PUSH2 0x4DDF JUMP JUMPDEST DUP5 MLOAD RETURNDATASIZE PUSH1 0x0 DUP3 RETURNDATACOPY RETURNDATASIZE SWAP1 REVERT JUMPDEST SWAP1 SWAP2 SWAP3 POP DUP9 DUP3 DUP2 RETURNDATASIZE DUP4 GT PUSH2 0x4E3A JUMPI JUMPDEST PUSH2 0x4E28 DUP2 DUP4 PUSH2 0x3E63 JUMP JUMPDEST DUP2 ADD SUB SLT PUSH2 0x49D2 JUMPI POP MLOAD SWAP1 CODESIZE DUP1 PUSH2 0x4CDE JUMP JUMPDEST POP RETURNDATASIZE PUSH2 0x4E1E JUMP JUMPDEST POP POP POP PUSH1 0x40 MLOAD SWAP1 PUSH2 0x4E51 DUP3 PUSH2 0x3E48 JUMP JUMPDEST PUSH1 0x0 SWAP1 DUP2 DUP4 MSTORE PUSH1 0x40 MLOAD SWAP4 PUSH2 0x4E64 DUP6 PUSH2 0x3E48 JUMP JUMPDEST DUP3 DUP6 MSTORE PUSH1 0x40 MLOAD SWAP4 PUSH2 0x4E74 DUP6 PUSH2 0x3E48 JUMP JUMPDEST DUP4 DUP6 MSTORE PUSH1 0x40 MLOAD SWAP4 PUSH2 0x4E84 DUP6 PUSH2 0x3E48 JUMP JUMPDEST DUP1 DUP6 MSTORE CALLDATASIZE DUP2 CALLDATACOPY SWAP5 SWAP4 SWAP3 SWAP2 SWAP1 JUMP JUMPDEST PUSH1 0x60 SWAP1 PUSH1 0x20 DUP2 MSTORE PUSH1 0x3 PUSH1 0x20 DUP3 ADD MSTORE PUSH3 0x8AA89 PUSH1 0xEB SHL PUSH1 0x40 DUP3 ADD MSTORE ADD SWAP1 JUMP JUMPDEST SWAP3 SWAP2 SWAP3 PUSH2 0x4EBB DUP3 PUSH2 0x4061 JUMP JUMPDEST SWAP2 PUSH2 0x4EC9 PUSH1 0x40 MLOAD SWAP4 DUP5 PUSH2 0x3E63 JUMP JUMPDEST DUP3 SWAP5 DUP2 DUP5 MSTORE DUP2 DUP4 ADD GT PUSH2 0x5C9 JUMPI DUP3 DUP2 PUSH1 0x20 SWAP4 DUP5 PUSH1 0x0 SWAP7 ADD CALLDATACOPY ADD ADD MSTORE JUMP JUMPDEST SWAP3 PUSH1 0x1 DUP1 PUSH1 0xA0 SHL SUB DUP1 SWAP5 AND SWAP3 PUSH1 0x40 SWAP5 DUP6 MLOAD PUSH4 0x70A08231 PUSH1 0xE0 SHL DUP2 MSTORE ADDRESS PUSH1 0x4 DUP3 ADD MSTORE PUSH1 0x20 SWAP5 DUP6 DUP3 PUSH1 0x24 DUP2 DUP11 GAS STATICCALL SWAP2 DUP3 ISZERO PUSH2 0x501D JUMPI PUSH1 0x0 SWAP3 PUSH2 0x4FEE JUMPI JUMPDEST POP PUSH1 0x0 MSTORE PUSH1 0x1C DUP6 MSTORE PUSH2 0x4F40 DUP8 PUSH1 0x0 KECCAK256 SLOAD PUSH1 0x1B DUP8 MSTORE DUP9 PUSH1 0x0 KECCAK256 SLOAD SWAP1 PUSH2 0x4054 JUMP JUMPDEST SWAP1 DUP2 DUP2 GT DUP8 PUSH1 0x0 DUP3 ISZERO PUSH2 0x4FD6 JUMPI POP PUSH1 0x0 DUP1 MLOAD PUSH1 0x20 PUSH2 0x59C0 DUP4 CODECOPY DUP2 MLOAD SWAP2 MSTORE PUSH2 0x4F77 PUSH2 0x4F6A DUP7 DUP7 PUSH2 0x40AC JUMP JUMPDEST DUP13 MLOAD SWAP2 DUP3 SWAP2 DUP9 DUP9 DUP5 PUSH2 0x3F8F JUMP JUMPDEST SUB SWAP1 LOG2 ISZERO PUSH2 0x4FC5 JUMPI SWAP2 PUSH2 0x4F9F PUSH1 0x0 DUP1 MLOAD PUSH1 0x20 PUSH2 0x58E0 DUP4 CODECOPY DUP2 MLOAD SWAP2 MSTORE SWAP7 SWAP6 SWAP5 SWAP3 PUSH2 0x4FC0 SWAP5 PUSH2 0x40AC JUMP JUMPDEST SWAP4 PUSH2 0x4FAB DUP6 DUP3 DUP11 PUSH2 0x44EA JUMP JUMPDEST DUP9 DUP1 MLOAD SWAP7 DUP8 SWAP7 DUP8 MSTORE DUP7 ADD MSTORE AND SWAP7 DUP4 ADD SWAP1 PUSH2 0x3C6A JUMP JUMPDEST SUB SWAP1 LOG3 JUMP JUMPDEST DUP8 MLOAD PUSH4 0x5E4F5821 PUSH1 0xE1 SHL DUP2 MSTORE PUSH1 0x4 SWAP1 REVERT JUMPDEST PUSH2 0x4F77 PUSH1 0x0 DUP1 MLOAD PUSH1 0x20 PUSH2 0x59C0 DUP4 CODECOPY DUP2 MLOAD SWAP2 MSTORE SWAP2 PUSH2 0x4F6A JUMP JUMPDEST SWAP1 SWAP2 DUP7 DUP3 DUP2 RETURNDATASIZE DUP4 GT PUSH2 0x5016 JUMPI JUMPDEST PUSH2 0x5005 DUP2 DUP4 PUSH2 0x3E63 JUMP JUMPDEST DUP2 ADD SUB SLT PUSH2 0x49D2 JUMPI POP MLOAD SWAP1 CODESIZE PUSH2 0x4F21 JUMP JUMPDEST POP RETURNDATASIZE PUSH2 0x4FFB JUMP JUMPDEST DUP9 MLOAD RETURNDATASIZE PUSH1 0x0 DUP3 RETURNDATACOPY RETURNDATASIZE SWAP1 REVERT JUMPDEST SELFBALANCE PUSH1 0x40 MLOAD PUSH1 0x20 DUP2 ADD SWAP1 PUSH2 0x503E DUP2 PUSH2 0x686 DUP5 PUSH2 0x4E91 JUMP JUMPDEST MLOAD SWAP1 KECCAK256 PUSH1 0x0 MSTORE PUSH1 0x1C PUSH1 0x20 MSTORE PUSH2 0x5063 PUSH1 0x40 PUSH1 0x0 KECCAK256 SLOAD PUSH1 0x1B PUSH1 0x20 MSTORE PUSH1 0x40 PUSH1 0x0 KECCAK256 SLOAD SWAP1 PUSH2 0x4054 JUMP JUMPDEST DUP1 DUP3 GT ISZERO PUSH2 0x5074 JUMPI PUSH2 0x477C SWAP2 PUSH2 0x40AC JUMP JUMPDEST POP POP PUSH1 0x0 SWAP1 JUMP JUMPDEST PUSH1 0x40 SWAP2 DUP3 MLOAD PUSH2 0x509A DUP2 PUSH2 0x686 PUSH1 0x20 SWAP6 DUP7 DUP4 ADD SWAP6 DUP8 DUP8 MSTORE DUP9 DUP5 ADD SWAP2 PUSH2 0x4033 JUMP JUMPDEST MLOAD SWAP1 KECCAK256 SWAP1 PUSH1 0x0 SWAP3 DUP3 DUP5 MSTORE PUSH1 0x16 DUP3 MSTORE DUP1 DUP5 KECCAK256 SWAP3 DUP2 MLOAD SWAP4 PUSH2 0x50B8 DUP6 PUSH2 0x3DDB JUMP JUMPDEST DUP1 SLOAD SWAP5 PUSH1 0xFF DUP7 AND ISZERO SWAP1 PUSH1 0xC0 PUSH1 0x4 DUP4 ISZERO SWAP5 DUP6 DUP5 MSTORE PUSH1 0xFF PUSH1 0x1 DUP1 PUSH1 0xA0 SHL SUB DUP1 SWAP12 PUSH1 0x8 SHR AND SWAP11 DUP12 DUP12 DUP8 ADD MSTORE PUSH1 0x1 DUP4 ADD SLOAD SWAP1 DUP2 AND DUP11 DUP8 ADD MSTORE PUSH1 0xA0 SHR AND PUSH1 0x60 DUP6 ADD MSTORE PUSH1 0x2 DUP2 ADD SLOAD PUSH1 0x80 DUP6 ADD MSTORE PUSH1 0xFF PUSH1 0x3 DUP3 ADD SLOAD AND ISZERO ISZERO PUSH1 0xA0 DUP6 ADD MSTORE ADD SLOAD SWAP2 ADD MSTORE SWAP1 PUSH2 0x51C1 JUMPI JUMPDEST PUSH2 0x51BA JUMPI DUP3 PUSH1 0x24 SWAP5 DUP4 MLOAD SWAP6 DUP7 DUP1 SWAP3 PUSH4 0x70A08231 PUSH1 0xE0 SHL DUP3 MSTORE ADDRESS PUSH1 0x4 DUP4 ADD MSTORE GAS STATICCALL SWAP4 DUP5 ISZERO PUSH2 0x51B0 JUMPI DUP6 SWAP5 PUSH2 0x517B JUMPI JUMPDEST POP DUP5 MSTORE PUSH1 0x1C DUP3 MSTORE DUP1 DUP5 KECCAK256 SLOAD PUSH1 0x1B SWAP1 SWAP3 MSTORE DUP4 KECCAK256 SLOAD PUSH2 0x5163 SWAP2 PUSH2 0x4054 JUMP JUMPDEST SWAP1 DUP2 DUP2 GT ISZERO PUSH2 0x5176 JUMPI PUSH2 0x477C SWAP3 POP PUSH2 0x40AC JUMP JUMPDEST POP POP SWAP1 JUMP JUMPDEST SWAP1 SWAP4 POP DUP3 DUP2 DUP2 RETURNDATASIZE DUP4 GT PUSH2 0x51A9 JUMPI JUMPDEST PUSH2 0x5193 DUP2 DUP4 PUSH2 0x3E63 JUMP JUMPDEST DUP2 ADD SUB SLT PUSH2 0x51A5 JUMPI MLOAD SWAP3 PUSH2 0x5163 PUSH2 0x5147 JUMP JUMPDEST DUP5 DUP1 REVERT JUMPDEST POP RETURNDATASIZE PUSH2 0x5189 JUMP JUMPDEST DUP3 MLOAD RETURNDATASIZE DUP8 DUP3 RETURNDATACOPY RETURNDATASIZE SWAP1 REVERT JUMPDEST POP POP POP POP SWAP1 JUMP JUMPDEST POP DUP4 ISZERO PUSH2 0x5119 JUMP JUMPDEST PUSH1 0x40 DUP1 MLOAD PUSH4 0x70A08231 PUSH1 0xE0 SHL DUP2 MSTORE ADDRESS PUSH1 0x4 DUP1 DUP4 ADD SWAP2 SWAP1 SWAP2 MSTORE SWAP1 SWAP3 SWAP1 SWAP2 PUSH1 0x1 PUSH1 0x1 PUSH1 0xA0 SHL SUB SWAP2 DUP3 AND SWAP2 PUSH1 0x20 SWAP2 DUP3 DUP7 PUSH1 0x24 DUP2 DUP8 GAS STATICCALL SWAP6 DUP7 ISZERO PUSH2 0x533D JUMPI PUSH1 0x0 SWAP7 PUSH2 0x530E JUMPI JUMPDEST POP PUSH1 0x17 SLOAD SWAP4 PUSH1 0x0 JUMPDEST DUP6 DUP2 LT PUSH2 0x522D JUMPI POP POP POP POP POP POP POP SWAP1 PUSH1 0x0 SWAP1 PUSH1 0x0 SWAP1 PUSH1 0x0 SWAP1 JUMP JUMPDEST PUSH2 0x5236 DUP2 PUSH2 0x3F2C JUMP JUMPDEST SWAP1 SLOAD PUSH1 0x3 SWAP2 DUP3 SHL SHR SWAP1 DUP2 PUSH1 0x0 MSTORE PUSH1 0x16 DUP8 MSTORE DUP4 DUP8 DUP7 PUSH1 0x0 KECCAK256 PUSH1 0xC0 DUP13 DUP10 MLOAD SWAP3 PUSH2 0x525C DUP5 PUSH2 0x3DDB JUMP JUMPDEST DUP12 DUP2 SLOAD DUP2 PUSH1 0xFF SWAP2 DUP3 DUP2 AND ISZERO ISZERO DUP9 MSTORE PUSH1 0x8 SHR AND DUP1 SWAP8 DUP8 ADD MSTORE PUSH1 0x1 SWAP9 DUP14 DUP11 DUP6 ADD SLOAD SWAP4 DUP5 AND SWAP1 DUP9 ADD MSTORE DUP2 PUSH1 0xA0 SWAP4 DUP5 SHR AND PUSH1 0x60 DUP9 ADD MSTORE PUSH1 0x2 DUP5 ADD SLOAD PUSH1 0x80 DUP9 ADD MSTORE DUP4 ADD SLOAD AND ISZERO ISZERO SWAP1 DUP6 ADD MSTORE ADD SLOAD SWAP2 ADD MSTORE EQ PUSH2 0x52BC JUMPI POP POP PUSH2 0x52B7 SWAP1 PUSH2 0x4192 JUMP JUMPDEST PUSH2 0x5213 JUMP JUMPDEST SWAP6 SWAP9 SWAP8 POP SWAP9 SWAP6 POP POP POP SWAP1 POP DUP2 SWAP6 PUSH1 0x0 MSTORE PUSH1 0x1C DUP6 MSTORE PUSH1 0x1B DUP2 PUSH1 0x0 KECCAK256 SLOAD SWAP6 MSTORE PUSH1 0x0 KECCAK256 SLOAD SWAP3 PUSH2 0x52E8 DUP5 DUP7 PUSH2 0x4054 JUMP JUMPDEST SWAP2 DUP3 DUP3 GT ISZERO PUSH2 0x5302 JUMPI POP SWAP1 PUSH2 0x52FC SWAP2 PUSH2 0x40AC JUMP JUMPDEST SWAP4 SWAP3 SWAP2 SWAP1 JUMP JUMPDEST SWAP6 POP POP POP PUSH1 0x0 SWAP4 SWAP3 SWAP2 SWAP1 JUMP JUMPDEST SWAP1 SWAP6 DUP4 DUP3 DUP2 RETURNDATASIZE DUP4 GT PUSH2 0x5336 JUMPI JUMPDEST PUSH2 0x5325 DUP2 DUP4 PUSH2 0x3E63 JUMP JUMPDEST DUP2 ADD SUB SLT PUSH2 0x49D2 JUMPI POP MLOAD SWAP5 CODESIZE PUSH2 0x520B JUMP JUMPDEST POP RETURNDATASIZE PUSH2 0x531B JUMP JUMPDEST POP MLOAD RETURNDATASIZE PUSH1 0x0 DUP3 RETURNDATACOPY RETURNDATASIZE SWAP1 REVERT JUMPDEST PUSH1 0x40 MLOAD SWAP1 PUSH1 0x80 DUP3 ADD PUSH1 0x1 PUSH1 0x1 PUSH1 0x40 SHL SUB DUP2 GT DUP4 DUP3 LT OR PUSH2 0xB5D JUMPI PUSH1 0x40 MSTORE PUSH1 0x60 DUP1 DUP4 DUP2 DUP2 MSTORE PUSH1 0x0 PUSH1 0x20 DUP3 ADD MSTORE PUSH1 0x0 PUSH1 0x40 DUP3 ADD MSTORE ADD MSTORE JUMP JUMPDEST SWAP2 SWAP1 DUP2 LT ISZERO PUSH2 0x3F47 JUMPI PUSH1 0x5 SHL DUP2 ADD CALLDATALOAD SWAP1 PUSH1 0x1E NOT DUP2 CALLDATASIZE SUB ADD DUP3 SLT ISZERO PUSH2 0x5C9 JUMPI ADD DUP1 CALLDATALOAD SWAP2 SWAP1 PUSH1 0x1 PUSH1 0x1 PUSH1 0x40 SHL SUB DUP4 GT PUSH2 0x5C9 JUMPI PUSH1 0x20 ADD DUP3 CALLDATASIZE SUB DUP2 SGT PUSH2 0x5C9 JUMPI SWAP2 SWAP1 JUMP JUMPDEST SWAP3 SWAP1 SWAP4 SWAP2 SWAP4 PUSH2 0x53CC PUSH2 0x5348 JUMP JUMPDEST SWAP5 PUSH2 0x53D8 CALLDATASIZE DUP5 DUP4 PUSH2 0x4EAF JUMP JUMPDEST DUP7 MSTORE PUSH1 0x20 SWAP2 DUP3 ADD DUP1 MLOAD PUSH1 0x40 DUP1 MLOAD PUSH4 0x70A08231 PUSH1 0xE0 SHL DUP2 MSTORE ADDRESS PUSH1 0x4 DUP3 ADD MSTORE SWAP1 SWAP8 PUSH1 0x1 PUSH1 0x1 PUSH1 0xA0 SHL SUB SWAP7 SWAP4 SWAP5 SWAP4 SWAP3 DUP7 SWAP1 DUP4 SWAP1 PUSH1 0x24 SWAP1 DUP3 SWAP1 DUP12 AND GAS STATICCALL SWAP2 DUP3 ISZERO PUSH2 0x560F JUMPI PUSH1 0x0 SWAP3 PUSH2 0x55E0 JUMPI JUMPDEST POP PUSH1 0x0 MSTORE PUSH1 0x1C DUP6 MSTORE PUSH2 0x543F DUP9 PUSH1 0x0 KECCAK256 SLOAD PUSH1 0x1B DUP8 MSTORE DUP10 PUSH1 0x0 KECCAK256 SLOAD SWAP1 PUSH2 0x4054 JUMP JUMPDEST SWAP1 DUP2 DUP2 GT ISZERO PUSH2 0x55A3 JUMPI PUSH1 0x0 DUP10 DUP10 DUP3 DUP11 PUSH2 0x5484 DUP12 PUSH2 0x5463 PUSH2 0x686 SWAP13 SWAP12 SWAP11 SWAP10 DUP6 SWAP10 PUSH2 0x40AC JUMP JUMPDEST SWAP12 DUP13 SWAP4 DUP13 MLOAD AND SWAP7 MLOAD SWAP4 DUP5 SWAP3 DUP4 ADD SWAP7 PUSH4 0xA9059CBB PUSH1 0xE0 SHL DUP9 MSTORE PUSH1 0x24 DUP5 ADD PUSH2 0x44CF JUMP JUMPDEST MLOAD SWAP3 GAS CALL PUSH2 0x5490 PUSH2 0x407C JUMP JUMPDEST SWAP1 ISZERO PUSH2 0x556A JUMPI DUP6 DUP2 MLOAD DUP1 ISZERO PUSH1 0x0 EQ PUSH2 0x5501 JUMPI POP PUSH1 0x1 SWAP2 POP DUP11 ADD MSTORE DUP4 DUP9 DUP11 ADD MSTORE JUMPDEST DUP5 DUP10 ADD MLOAD PUSH2 0x54C4 JUMPI JUMPDEST POP POP POP POP POP POP POP POP SWAP1 JUMP JUMPDEST DUP6 PUSH1 0x0 DUP1 MLOAD PUSH1 0x20 PUSH2 0x58E0 DUP4 CODECOPY DUP2 MLOAD SWAP2 MSTORE SWAP7 PUSH2 0x54F1 SWAP5 MLOAD AND SWAP8 DUP10 DUP1 MLOAD SWAP8 DUP9 SWAP8 DUP9 MSTORE DUP8 ADD MSTORE AND SWAP8 DUP5 ADD SWAP2 PUSH2 0x4033 JUMP JUMPDEST SUB SWAP1 LOG3 CODESIZE DUP1 DUP1 DUP1 DUP1 DUP1 DUP1 DUP1 PUSH2 0x54B9 JUMP JUMPDEST DUP3 SWAP1 DUP2 ADD SUB SLT PUSH2 0x5C9 JUMPI DUP6 ADD MLOAD DUP1 ISZERO ISZERO DUP2 SUB PUSH2 0x5C9 JUMPI ISZERO PUSH2 0x552C JUMPI PUSH1 0x1 DUP6 DUP11 ADD MSTORE DUP4 DUP9 DUP11 ADD MSTORE PUSH2 0x54B0 JUMP JUMPDEST POP POP POP POP SWAP3 SWAP1 POP PUSH23 0x5472616E736665722072657475726E65642066616C7365 PUSH1 0x48 SHL SWAP2 POP MLOAD SWAP2 PUSH2 0x555B DUP4 PUSH2 0x3E2D JUMP JUMPDEST PUSH1 0x17 DUP4 MSTORE DUP3 ADD MSTORE PUSH1 0x60 DUP3 ADD MSTORE SWAP1 JUMP JUMPDEST POP POP POP POP POP SWAP3 SWAP1 POP PUSH17 0x151C985B9CD9995C881C995D995C9D1959 PUSH1 0x7A SHL SWAP2 POP MLOAD SWAP2 PUSH2 0x5594 DUP4 PUSH2 0x3E2D JUMP JUMPDEST PUSH1 0x11 DUP4 MSTORE DUP3 ADD MSTORE PUSH1 0x60 DUP3 ADD MSTORE SWAP1 JUMP JUMPDEST POP POP POP POP POP SWAP3 SWAP1 POP PUSH21 0x4E6F207265636F76657261626C6520746F6B656E73 PUSH1 0x58 SHL SWAP2 POP MLOAD SWAP2 PUSH2 0x55D1 DUP4 PUSH2 0x3E2D JUMP JUMPDEST PUSH1 0x15 DUP4 MSTORE DUP3 ADD MSTORE PUSH1 0x60 DUP3 ADD MSTORE SWAP1 JUMP JUMPDEST SWAP1 SWAP2 DUP7 DUP3 DUP2 RETURNDATASIZE DUP4 GT PUSH2 0x5608 JUMPI JUMPDEST PUSH2 0x55F7 DUP2 DUP4 PUSH2 0x3E63 JUMP JUMPDEST DUP2 ADD SUB SLT PUSH2 0x49D2 JUMPI POP MLOAD SWAP1 CODESIZE PUSH2 0x5420 JUMP JUMPDEST POP RETURNDATASIZE PUSH2 0x55ED JUMP JUMPDEST DUP10 MLOAD RETURNDATASIZE PUSH1 0x0 DUP3 RETURNDATACOPY RETURNDATASIZE SWAP1 REVERT JUMPDEST SWAP2 SWAP1 PUSH1 0x40 SWAP1 DUP2 MLOAD PUSH2 0x563B DUP2 PUSH2 0x686 PUSH1 0x20 SWAP8 DUP9 DUP4 ADD SWAP6 DUP10 DUP8 MSTORE DUP8 DUP5 ADD SWAP2 PUSH2 0x4033 JUMP JUMPDEST MLOAD SWAP1 KECCAK256 SWAP1 PUSH1 0x0 SWAP4 DUP3 DUP6 MSTORE PUSH1 0x16 DUP2 MSTORE DUP2 DUP6 KECCAK256 DUP3 MLOAD SWAP1 PUSH2 0x5658 DUP3 PUSH2 0x3DDB JUMP JUMPDEST DUP1 SLOAD SWAP2 PUSH1 0xFF DUP4 AND ISZERO SWAP1 DUP2 ISZERO DUP2 MSTORE PUSH1 0xC0 PUSH1 0x4 DUP7 DUP4 ADD SWAP5 PUSH1 0x1 DUP1 PUSH1 0xA0 SHL SUB DUP1 SWAP8 PUSH1 0x8 SHR AND DUP7 MSTORE PUSH1 0xFF PUSH1 0x1 DUP3 ADD SLOAD DUP9 DUP2 AND DUP12 DUP8 ADD MSTORE PUSH1 0xA0 SHR AND PUSH1 0x60 DUP6 ADD MSTORE PUSH1 0x2 DUP2 ADD SLOAD PUSH1 0x80 DUP6 ADD MSTORE PUSH1 0xFF PUSH1 0x3 DUP3 ADD SLOAD AND ISZERO ISZERO PUSH1 0xA0 DUP6 ADD MSTORE ADD SLOAD SWAP2 ADD MSTORE PUSH2 0x577E JUMPI MLOAD AND SWAP2 DUP3 PUSH2 0x570D JUMPI PUSH2 0x56DC SWAP3 POP SELFBALANCE SWAP4 JUMPDEST DUP7 MSTORE PUSH1 0x1C DUP3 MSTORE PUSH1 0x1B DUP2 DUP8 KECCAK256 SLOAD SWAP3 MSTORE DUP6 KECCAK256 SLOAD SWAP1 PUSH2 0x4054 JUMP JUMPDEST SWAP1 DUP1 DUP3 SUB PUSH2 0x56EC JUMPI POP POP PUSH1 0x1 SWAP2 SWAP1 JUMP JUMPDEST DUP2 DUP2 GT ISZERO PUSH2 0x5704 JUMPI PUSH2 0x56FF SWAP3 SWAP4 POP PUSH2 0x40AC JUMP JUMPDEST PUSH1 0x1 SWAP2 JUMP JUMPDEST PUSH2 0x477C SWAP2 PUSH2 0x40AC JUMP JUMPDEST DUP2 PUSH1 0x24 SWAP4 DUP3 MLOAD SWAP5 DUP6 DUP1 SWAP3 PUSH4 0x70A08231 PUSH1 0xE0 SHL DUP3 MSTORE ADDRESS PUSH1 0x4 DUP4 ADD MSTORE GAS STATICCALL DUP1 ISZERO PUSH2 0x5774 JUMPI DUP7 SWAP1 PUSH2 0x5741 JUMPI JUMPDEST PUSH2 0x56DC SWAP4 POP SWAP4 PUSH2 0x56C5 JUMP JUMPDEST POP DUP2 DUP4 DUP2 RETURNDATASIZE DUP4 GT PUSH2 0x576D JUMPI JUMPDEST PUSH2 0x5757 DUP2 DUP4 PUSH2 0x3E63 JUMP JUMPDEST DUP2 ADD SUB SLT PUSH2 0x5769 JUMPI PUSH2 0x56DC SWAP3 MLOAD PUSH2 0x5736 JUMP JUMPDEST DUP6 DUP1 REVERT JUMPDEST POP RETURNDATASIZE PUSH2 0x574D JUMP JUMPDEST DUP2 MLOAD RETURNDATASIZE DUP9 DUP3 RETURNDATACOPY RETURNDATASIZE SWAP1 REVERT JUMPDEST DUP4 MLOAD PUSH4 0x3DD1B305 PUSH1 0xE0 SHL DUP2 MSTORE PUSH1 0x4 SWAP1 REVERT JUMPDEST PUSH1 0x2 SLOAD PUSH1 0x1 PUSH1 0x1 PUSH1 0xA0 SHL SUB SWAP1 DUP2 AND SWAP1 DUP2 ISZERO PUSH2 0x57A8 JUMPI POP SWAP1 JUMP JUMPDEST SWAP1 POP PUSH1 0x4 SLOAD AND SWAP1 JUMP JUMPDEST PUSH1 0xFF PUSH1 0x6 SLOAD AND ISZERO PUSH2 0x57E5 JUMPI PUSH1 0x7 SLOAD PUSH3 0x93A80 DUP2 ADD DUP1 SWAP2 GT PUSH2 0xF17 JUMPI DUP1 TIMESTAMP LT ISZERO PUSH2 0x57DF JUMPI PUSH2 0x477C SWAP1 TIMESTAMP SWAP1 PUSH2 0x40AC JUMP JUMPDEST POP PUSH1 0x0 SWAP1 JUMP JUMPDEST PUSH1 0x0 SWAP1 JUMP JUMPDEST SWAP2 SWAP1 SWAP2 PUSH5 0xE8D4A51000 SWAP1 DUP2 DUP2 MUL SWAP2 DUP2 DUP4 DIV EQ DUP2 ISZERO OR ISZERO PUSH2 0xF17 JUMPI PUSH9 0x327CB2734119D3B7A9 PUSH1 0x1E SHL MUL SWAP1 DUP1 DUP3 DIV PUSH8 0xDE0B6B3A7640000 EQ SWAP1 ISZERO OR ISZERO PUSH2 0xF17 JUMPI PUSH2 0x477C SWAP3 PUSH2 0x5835 SWAP2 PUSH2 0x41B4 JUMP JUMPDEST PUSH1 0x12 PUSH1 0xFF DUP4 AND LT ISZERO PUSH2 0x5850 JUMPI PUSH2 0x4995 PUSH2 0x497B PUSH2 0x477C SWAP4 PUSH2 0x4814 JUMP JUMPDEST PUSH2 0x4980 PUSH2 0x497B PUSH2 0x477C SWAP4 PUSH2 0x4801 JUMP INVALID SWAP12 SSTORE 0x4B 0x4A MULMOD 0xEF LOG1 DUP15 0x2F CALLDATASIZE 0xC9 0xCC 0xB2 XOR PUSH23 0x1ED612341710703F6FF2EDF03947238C72D868C725F20C PUSH6 0xEE0E4E29658C 0xAE CALLCODE 0xA5 AND 0xC5 0xAC TIMESTAMP 0x28 JUMPI 0xD6 LOG3 0xCD SWAP7 0xB9 SWAP8 SWAP3 0xDB 0x2A 0xF6 0xB7 INVALID SWAP7 CALLVALUE INVALID LOG2 0xAC 0x24 PC ADDMOD PREVRANDAO MSTORE 0xE1 0xE7 DUP6 PUSH23 0x38EBAFFB91D5B22D34D74A134801E9330835EDCA54B085 MOD 0xB1 0xF7 GASLIMIT 0x26 PC 0x1E MSTORE SWAP14 SIGNEXTEND 0xDC PUSH1 0x9B CODESIZE ADDMOD NUMBER 0xD5 0xBF 0xEE SWAP16 0xDE CALL CALLCODE 0xC9 SHL PUSH20 0x3A14D80F1FCB0833E90F69A6F8716C5A12586560 0xDE 0xFB 0xA9 NUMBER 0xC6 PUSH11 0xF96373049E528E5975397D AND CALLDATALOAD MOD 0xE3 0xA8 0xEE MUL 0xD8 PC JUMPDEST 0xD2 PUSH27 0x404861F4B6B4B142B22C085868CECF7D23A3CBE4E8B36FF82FD1B0 JUMPDEST SHL OR CALLDATACOPY RETURNDATASIZE 0xC7 DUP1 0x4B 0x4E 0xBB 0xD6 0xE2 CALLDATALOAD PUSH8 0x16EF20237284396A 0xDD DUP14 0xB3 0xEB DELEGATECALL PUSH24 0x3BD540256F3A4357001E69305EFCB1A95D565284FBDAE48B 0xE0 SMOD SWAP13 MSTORE8 AND MSIZE EQ SGT PREVRANDAO 0xCD 0x1F 0xD0 LOG4 CALLCODE DUP5 NOT 0x49 PUSH32 0x9722A3DAAFE3B4186F6B6457E005AF21D7340BF49FDE03A32C3BCC785015C94A 0xCD DUP4 MSTORE8 0x1F 0xC6 0xDF 0xBF 0xB9 GASPRICE 0x24 0xC3 PUSH5 0xCA2225519B 0xB0 0xD4 GASLIMIT 0x2C DUP16 LT 0xBE PUSH31 0x343F6AFBD9CBA6CA41410B1D7ABDB148C5F7B7C56C4916D52FD6FD994184FA 0xD1 GT 0x26 SWAP8 0xEE DUP3 SWAP3 0xA6 PUSH26 0xDB49CA66F12AC15BFF60980EA2646970667358221220E9F6DFEC 0xA6 MOD 0xBA 0xBC 0xA6 0xCB 0xA5 JUMPI 0x27 INVALID PUSH16 0x7C753E8B8D1DA125ED278B46436F3A1A PUSH26 0x64736F6C63430008140033000000000000000000000000000000 "},"methodIdentifiers":{"ABSOLUTE_MAX_DURATION()":"1eddfecb","ABSOLUTE_MAX_MIN_PENALTY()":"29293774","ABSOLUTE_MIN_DURATION()":"5dbf6637","ABSOLUTE_MIN_PENALTY()":"52581af5","FEE_UPDATE_DELAY()":"d4a06c8f","GRACE_PERIOD()":"c1a287e2","LOCK_MULTIPLIER()":"1ad6534a","MAX_DURATION()":"b1724b46","MAX_FEE_CHANGE_PERCENT()":"15c109cc","MAX_GRACE_PERIOD()":"46619649","MAX_LOCK_MULTIPLIER()":"b0b91517","MIN_DURATION()":"b6a6d177","MIN_LOCK_MULTIPLIER()":"f9fca4cf","MIN_PENALTY_PERCENTAGE()":"14926f97","MIN_USDC_FEE()":"f0a9ac19","OWNERSHIP_RENUNCIATION_DELAY()":"586213a8","OWNERSHIP_TRANSFER_DELAY()":"7433ae7a","acceptOwnership()":"79ba5097","addToken(string,address,address,uint8,uint256)":"b2bbf647","batchRecoverTokens(string[],address)":"2d63109f","calculateMinStake(string)":"36227c69","calculateRequiredPayment(string,uint256)":"72e20d30","calculateTokenFee(string)":"4c539690","canAcceptOwnership()":"7b167493","canExecuteRenunciation()":"d1ce999d","canExecuteUSDCFeeUpdate()":"9c254479","cancelOwnershipRenunciation()":"63a9f22d","cancelOwnershipTransfer()":"23452b9c","cancelUSDCFeeUpdate()":"63b95fe6","challengeCount()":"a2f05725","challenges(uint256)":"8f1d3776","charityWallet()":"7b208769","claimPendingWithdrawal(string)":"f56bca4b","createChallenge(string,uint256,uint256,uint8,uint8)":"fc12134b","disableFallbackPrice(string)":"eb6d420b","enableFallbackPrice(string,uint256)":"e738b2b5","executeOwnershipRenunciation()":"efbcd303","executeUSDCFeeUpdate()":"eea2d7dc","getAllPendingWithdrawals(address,uint256,uint256)":"f2e5f3c1","getAllSupportedTokens()":"0107e472","getAllTokenPricing(uint256,uint256)":"e3501156","getChallengeLockedInfo(uint256)":"ffa1cc25","getPendingWithdrawal(string,address)":"fac97c1b","getRecoverableETH()":"7ccf7c07","getRecoverableTokensByAddress(address)":"dc62d614","getRecoverableTokensBySymbol(string)":"889952aa","getTokenPrice(string)":"5350758f","getTotalPendingWithdrawals(string)":"66f78e76","owner()":"8da5cb5b","ownershipRenunciationInitiated()":"df4b8b06","ownershipRenunciationInitiatedAt()":"6f8225c8","ownershipTransferInitiatedAt()":"16b92646","pause()":"8456cb59","paused()":"5c975abb","pendingOwner()":"e30c3978","pendingUSDCFeeUpdate()":"356c6693","pendingWithdrawals(bytes32,address)":"be44d38d","recoverERC20ByAddress(address,address)":"c5b07ffa","recoverERC20BySymbol(string,address)":"94b7c592","recoverETH(address)":"134dfcd8","removeMultiSigWhitelist(address)":"f6a0edb1","removeToken(string)":"1f455922","renounceOwnership()":"715018a6","renunciationTimeRemaining()":"8b3e2afb","scheduleUSDCFeeUpdate(uint256)":"d09676a9","setCharityWallet(address)":"30563bd7","setGracePeriod(uint256)":"f2f65960","setLockMultiplier(uint256)":"926946d1","setMinPenaltyPercentage(uint8)":"59682444","setTreasuryWallet(address)":"a8602fea","setUSDCMinStake(uint256)":"3080f540","setVerifier(address)":"5437988d","supportedTokenIds(uint256)":"4e5e0e80","sweepPenalty(uint256)":"0b1001b4","tokenConfigs(bytes32)":"d9bd722a","tokenSymbols(bytes32)":"12095891","totalLockedByToken(bytes32)":"c24b58a4","totalPendingWithdrawals(bytes32)":"faf74ece","transferOwnership(address)":"f2fde38b","treasuryWallet()":"4626402b","trustedMultiSigs(address)":"a49641e6","trustedRecipients(address)":"a018e5a0","unpause()":"3f4ba83a","updateDurationBounds(uint256,uint256)":"9a2830f7","updatePriceFeed(string,address)":"0932a214","usdcFee()":"136f5cdd","usdcMinStake()":"4d7e1c75","verifier()":"2b7ac3f3","verifyFundAccounting(string)":"8ad16bbf","verifySuccess(uint256)":"ec05386b","whitelistMultiSig(address)":"7fe3ca36","withdraw(uint256,uint256,uint8)":"17f0088d"}}}}}