{
  "_format": "hh-sol-artifact-1",
  "contractName": "MaliciousToken",
  "sourceName": "contracts/mocks/MaliciousToken.sol",
  "abi": [
    {
      "inputs": [],
      "stateMutability": "nonpayable",
      "type": "constructor"
    },
    {
      "inputs": [
        {
          "internalType": "address",
          "name": "spender",
          "type": "address"
        },
        {
          "internalType": "uint256",
          "name": "allowance",
          "type": "uint256"
        },
        {
          "internalType": "uint256",
          "name": "needed",
          "type": "uint256"
        }
      ],
      "name": "ERC20InsufficientAllowance",
      "type": "error"
    },
    {
      "inputs": [
        {
          "internalType": "address",
          "name": "sender",
          "type": "address"
        },
        {
          "internalType": "uint256",
          "name": "balance",
          "type": "uint256"
        },
        {
          "internalType": "uint256",
          "name": "needed",
          "type": "uint256"
        }
      ],
      "name": "ERC20InsufficientBalance",
      "type": "error"
    },
    {
      "inputs": [
        {
          "internalType": "address",
          "name": "approver",
          "type": "address"
        }
      ],
      "name": "ERC20InvalidApprover",
      "type": "error"
    },
    {
      "inputs": [
        {
          "internalType": "address",
          "name": "receiver",
          "type": "address"
        }
      ],
      "name": "ERC20InvalidReceiver",
      "type": "error"
    },
    {
      "inputs": [
        {
          "internalType": "address",
          "name": "sender",
          "type": "address"
        }
      ],
      "name": "ERC20InvalidSender",
      "type": "error"
    },
    {
      "inputs": [
        {
          "internalType": "address",
          "name": "spender",
          "type": "address"
        }
      ],
      "name": "ERC20InvalidSpender",
      "type": "error"
    },
    {
      "anonymous": false,
      "inputs": [
        {
          "indexed": true,
          "internalType": "address",
          "name": "owner",
          "type": "address"
        },
        {
          "indexed": true,
          "internalType": "address",
          "name": "spender",
          "type": "address"
        },
        {
          "indexed": false,
          "internalType": "uint256",
          "name": "value",
          "type": "uint256"
        }
      ],
      "name": "Approval",
      "type": "event"
    },
    {
      "anonymous": false,
      "inputs": [
        {
          "indexed": true,
          "internalType": "address",
          "name": "from",
          "type": "address"
        },
        {
          "indexed": true,
          "internalType": "address",
          "name": "to",
          "type": "address"
        },
        {
          "indexed": false,
          "internalType": "uint256",
          "name": "value",
          "type": "uint256"
        }
      ],
      "name": "Transfer",
      "type": "event"
    },
    {
      "inputs": [
        {
          "internalType": "address",
          "name": "owner",
          "type": "address"
        },
        {
          "internalType": "address",
          "name": "spender",
          "type": "address"
        }
      ],
      "name": "allowance",
      "outputs": [
        {
          "internalType": "uint256",
          "name": "",
          "type": "uint256"
        }
      ],
      "stateMutability": "view",
      "type": "function"
    },
    {
      "inputs": [
        {
          "internalType": "address",
          "name": "spender",
          "type": "address"
        },
        {
          "internalType": "uint256",
          "name": "value",
          "type": "uint256"
        }
      ],
      "name": "approve",
      "outputs": [
        {
          "internalType": "bool",
          "name": "",
          "type": "bool"
        }
      ],
      "stateMutability": "nonpayable",
      "type": "function"
    },
    {
      "inputs": [],
      "name": "attackCount",
      "outputs": [
        {
          "internalType": "uint256",
          "name": "",
          "type": "uint256"
        }
      ],
      "stateMutability": "view",
      "type": "function"
    },
    {
      "inputs": [],
      "name": "attackOnTransfer",
      "outputs": [
        {
          "internalType": "bool",
          "name": "",
          "type": "bool"
        }
      ],
      "stateMutability": "view",
      "type": "function"
    },
    {
      "inputs": [],
      "name": "attackOnTransferFrom",
      "outputs": [
        {
          "internalType": "bool",
          "name": "",
          "type": "bool"
        }
      ],
      "stateMutability": "view",
      "type": "function"
    },
    {
      "inputs": [
        {
          "internalType": "address",
          "name": "account",
          "type": "address"
        }
      ],
      "name": "balanceOf",
      "outputs": [
        {
          "internalType": "uint256",
          "name": "",
          "type": "uint256"
        }
      ],
      "stateMutability": "view",
      "type": "function"
    },
    {
      "inputs": [],
      "name": "decimals",
      "outputs": [
        {
          "internalType": "uint8",
          "name": "",
          "type": "uint8"
        }
      ],
      "stateMutability": "pure",
      "type": "function"
    },
    {
      "inputs": [],
      "name": "disableAttacks",
      "outputs": [],
      "stateMutability": "nonpayable",
      "type": "function"
    },
    {
      "inputs": [],
      "name": "enableAttackOnTransfer",
      "outputs": [],
      "stateMutability": "nonpayable",
      "type": "function"
    },
    {
      "inputs": [],
      "name": "enableAttackOnTransferFrom",
      "outputs": [],
      "stateMutability": "nonpayable",
      "type": "function"
    },
    {
      "inputs": [
        {
          "internalType": "address",
          "name": "to",
          "type": "address"
        },
        {
          "internalType": "uint256",
          "name": "amount",
          "type": "uint256"
        }
      ],
      "name": "mint",
      "outputs": [],
      "stateMutability": "nonpayable",
      "type": "function"
    },
    {
      "inputs": [],
      "name": "name",
      "outputs": [
        {
          "internalType": "string",
          "name": "",
          "type": "string"
        }
      ],
      "stateMutability": "view",
      "type": "function"
    },
    {
      "inputs": [],
      "name": "resetAttackCount",
      "outputs": [],
      "stateMutability": "nonpayable",
      "type": "function"
    },
    {
      "inputs": [
        {
          "internalType": "address",
          "name": "_target",
          "type": "address"
        }
      ],
      "name": "setTarget",
      "outputs": [],
      "stateMutability": "nonpayable",
      "type": "function"
    },
    {
      "inputs": [],
      "name": "symbol",
      "outputs": [
        {
          "internalType": "string",
          "name": "",
          "type": "string"
        }
      ],
      "stateMutability": "view",
      "type": "function"
    },
    {
      "inputs": [],
      "name": "target",
      "outputs": [
        {
          "internalType": "address",
          "name": "",
          "type": "address"
        }
      ],
      "stateMutability": "view",
      "type": "function"
    },
    {
      "inputs": [],
      "name": "totalSupply",
      "outputs": [
        {
          "internalType": "uint256",
          "name": "",
          "type": "uint256"
        }
      ],
      "stateMutability": "view",
      "type": "function"
    },
    {
      "inputs": [
        {
          "internalType": "address",
          "name": "to",
          "type": "address"
        },
        {
          "internalType": "uint256",
          "name": "amount",
          "type": "uint256"
        }
      ],
      "name": "transfer",
      "outputs": [
        {
          "internalType": "bool",
          "name": "",
          "type": "bool"
        }
      ],
      "stateMutability": "nonpayable",
      "type": "function"
    },
    {
      "inputs": [
        {
          "internalType": "address",
          "name": "from",
          "type": "address"
        },
        {
          "internalType": "address",
          "name": "to",
          "type": "address"
        },
        {
          "internalType": "uint256",
          "name": "amount",
          "type": "uint256"
        }
      ],
      "name": "transferFrom",
      "outputs": [
        {
          "internalType": "bool",
          "name": "",
          "type": "bool"
        }
      ],
      "stateMutability": "nonpayable",
      "type": "function"
    }
  ],
  "bytecode": "0x6080346200039c576040906001600160401b0390808301828111828210176200029c578352600f81526020906e26b0b634b1b4b7bab9902a37b5b2b760891b82820152835192848401848110828211176200029c57855260038085526213505360ea1b8486015282518281116200029c578154906001948583811c9316801562000391575b878410146200037b578190601f9384811162000325575b508790848311600114620002be57600092620002b2575b505060001982851b1c191690851b1782555b85519283116200029c5760049586548581811c9116801562000291575b878210146200027c5782811162000231575b5085918411600114620001c657938394918492600095620001ba575b50501b92600019911b1c19161782555b3315620001a35760025469d3c21bcecceda1000000928382018092116200018e57506000917fddf252ad1be2c89b69c2b068fc378daa952ba7f163c4a11628f55a4df523b3ef9160025533835282815284832084815401905584519384523393a351610a909081620003a28239f35b601190634e487b7160e01b6000525260246000fd5b506000602492519163ec442f0560e01b8352820152fd5b0151935038806200010f565b9190601f198416928760005284876000209460005b8989838310620002195750505010620001fe575b50505050811b0182556200011f565b01519060f884600019921b161c1916905538808080620001ef565b868601518955909701969485019488935001620001db565b87600052866000208380870160051c82019289881062000272575b0160051c019086905b82811062000265575050620000f3565b6000815501869062000255565b925081926200024c565b602288634e487b7160e01b6000525260246000fd5b90607f1690620000e1565b634e487b7160e01b600052604160045260246000fd5b015190503880620000b2565b90879350601f1983169186600052896000209260005b8b8282106200030e5750508411620002f5575b505050811b018255620000c4565b015160001983871b60f8161c19169055388080620002e7565b8385015186558b97909501949384019301620002d4565b90915084600052876000208480850160051c8201928a861062000371575b918991869594930160051c01915b828110620003615750506200009b565b6000815585945089910162000351565b9250819262000343565b634e487b7160e01b600052602260045260246000fd5b92607f169262000084565b600080fdfe608060408181526004918236101561001657600080fd5b600092833560e01c91826301f207201461083557826306fdde031461075e57508163095ea7b3146106b457816318160ddd1461069557816323b872dd14610518578163313ce567146104fc578163407c2821146104dd57816340c10f19146104445781634359c6f71461041d57816370a08231146103e657816376c53b07146103c4578163776d1a011461038e5781637aef84741461037657816395d89b4114610290578163a2e08cb614610269578163a9059cbb1461019457508063d4b839921461016c578063dd62ed3e1461011f5763fe051c5c146100f657600080fd5b3461011b578160031936011261011b5760209060ff60055460a01c1690519015158152f35b5080fd5b503461011b578060031936011261011b5760209161013b6108a5565b826101446108c0565b6001600160a01b03928316845260018652922091166000908152908352819020549051908152f35b503461011b578160031936011261011b5760055490516001600160a01b039091168152602090f35b8284346102435781600319360112610243576101ae6108a5565b9260055460ff8160a01c1680610254575b8061024a575b6101e1575b6020846101da6024358833610983565b5160018152f35b6101ec600654610940565b6006556001600160a01b031690813b156102465761022083928392865194858094819363f56bca4b60e01b83528201610965565b03925af161022f575b806101ca565b61023982916108d6565b6102435780610229565b80fd5b8280fd5b50600654156101c5565b506001600160a01b03858116908216146101bf565b83346102435780600319360112610243576005805460ff60a01b1916600160a01b17905580f35b83833461011b578160031936011261011b57805191809380549160019083821c9282851694851561036c575b60209586861081146103595785895290811561033557506001146102fa575b6102f687876102ec828c03836108ff565b519182918261085c565b0390f35b9080949750528583205b82841061032257505050826102f6946102ec928201019486806102db565b8054868501880152928601928101610304565b60ff19168887015250505050151560051b83010192506102ec826102f686806102db565b634e487b7160e01b845260228352602484fd5b93607f16936102bc565b83346102435780600319360112610243578060065580f35b8334610243576020366003190112610243576001600160a01b036103b06108a5565b1660018060a01b0319600554161760055580f35b83346102435780600319360112610243576005805461ffff60a01b1916905580f35b50503461011b57602036600319011261011b5760209181906001600160a01b0361040e6108a5565b16815280845220549051908152f35b50503461011b578160031936011261011b5760209060ff60055460a81c1690519015158152f35b9190503461024657806003193601126102465761045f6108a5565b6001600160a01b031691602435919083156104c857600254908382018092116104b35750600092600080516020610a3b8339815191529260209260025585855284835280852082815401905551908152a380f35b601190634e487b7160e01b6000525260246000fd5b84602492519163ec442f0560e01b8352820152fd5b50503461011b578160031936011261011b576020906006549051908152f35b50503461011b578160031936011261011b576020905160128152f35b8391503461011b57606036600319011261011b576105346108a5565b61053c6108c0565b916044359360055460ff8160a81c1680610680575b80610676575b610623575b508560018060a01b03841691828152600160205220336000526020528560002054916000198310610596575b6020876101da888888610983565b8583106106015781156105ea5733156105d357506000908152600160209081528682203383528152908690209185900390915582906101da610588565b6024906000885191634a1406b160e11b8352820152fd5b602490600088519163e602df0560e01b8352820152fd5b905061061f858751938493637dc7a0d960e11b855233908501610922565b0390fd5b61062e600654610940565b6006556001600160a01b0316803b1561011b57818751809263f56bca4b60e01b825281838161065e898201610965565b03925af11561055c57610670906108d6565b8661055c565b5060065415610557565b506001600160a01b0385811690821614610551565b50503461011b578160031936011261011b576020906002549051908152f35b9050346102465781600319360112610246576106ce6108a5565b602435903315610747576001600160a01b031691821561073057508083602095338152600187528181208582528752205582519081527f8c5be1e5ebec7d5bd14f71427d1e84f3dd0314c0f7b2291e5b200ac8c7c3b925843392a35160018152f35b8351634a1406b160e11b8152908101859052602490fd5b835163e602df0560e01b8152808401869052602490fd5b92915034610831578360031936011261083157600354600181811c9186908281168015610827575b602095868610821461081457508488529081156107f257506001146107b7575b6102f686866102ec828b03836108ff565b929550600383528583205b8284106107df57505050826102f6946102ec9282010194386107a6565b80548685018801529286019281016107c2565b60ff191687860152505050151560051b83010192506102ec826102f6386107a6565b634e487b7160e01b845260229052602483fd5b93607f1693610786565b8380fd5b84346102435780600319360112610243576005805460ff60a81b1916600160a81b17905580f35b6020808252825181830181905290939260005b82811061089157505060409293506000838284010152601f8019910116010190565b81810186015184820160400152850161086f565b600435906001600160a01b03821682036108bb57565b600080fd5b602435906001600160a01b03821682036108bb57565b6001600160401b0381116108e957604052565b634e487b7160e01b600052604160045260246000fd5b601f909101601f19168101906001600160401b038211908210176108e957604052565b604091949392606082019560018060a01b0316825260208201520152565b600019811461094f5760010190565b634e487b7160e01b600052601160045260246000fd5b60609060208152600360208201526213505360ea1b60408201520190565b916001600160a01b03808416928315610a215716928315610a0857600090838252816020526040822054908382106109eb57509160408282600080516020610a3b833981519152958760209652828652038282205586815220818154019055604051908152a3565b61061f8460405193849363391434e360e21b855260048501610922565b60405163ec442f0560e01b815260006004820152602490fd5b604051634b637e8f60e11b815260006004820152602490fdfeddf252ad1be2c89b69c2b068fc378daa952ba7f163c4a11628f55a4df523b3efa264697066735822122062e142ece707e58708ae27c3683b156c9d7059367e910887e24f4b2eed84162964736f6c63430008140033",
  "linkReferences": {},
  "deployedLinkReferences": {}
}