{
  "_format": "hh-sol-artifact-1",
  "contractName": "TouchGrassNFT",
  "sourceName": "contracts/TouchGrassNFT.sol",
  "abi": [
    {
      "inputs": [
        {
          "internalType": "address",
          "name": "_touchGrassAddress",
          "type": "address"
        }
      ],
      "stateMutability": "nonpayable",
      "type": "constructor"
    },
    {
      "inputs": [
        {
          "internalType": "address",
          "name": "sender",
          "type": "address"
        },
        {
          "internalType": "uint256",
          "name": "tokenId",
          "type": "uint256"
        },
        {
          "internalType": "address",
          "name": "owner",
          "type": "address"
        }
      ],
      "name": "ERC721IncorrectOwner",
      "type": "error"
    },
    {
      "inputs": [
        {
          "internalType": "address",
          "name": "operator",
          "type": "address"
        },
        {
          "internalType": "uint256",
          "name": "tokenId",
          "type": "uint256"
        }
      ],
      "name": "ERC721InsufficientApproval",
      "type": "error"
    },
    {
      "inputs": [
        {
          "internalType": "address",
          "name": "approver",
          "type": "address"
        }
      ],
      "name": "ERC721InvalidApprover",
      "type": "error"
    },
    {
      "inputs": [
        {
          "internalType": "address",
          "name": "operator",
          "type": "address"
        }
      ],
      "name": "ERC721InvalidOperator",
      "type": "error"
    },
    {
      "inputs": [
        {
          "internalType": "address",
          "name": "owner",
          "type": "address"
        }
      ],
      "name": "ERC721InvalidOwner",
      "type": "error"
    },
    {
      "inputs": [
        {
          "internalType": "address",
          "name": "receiver",
          "type": "address"
        }
      ],
      "name": "ERC721InvalidReceiver",
      "type": "error"
    },
    {
      "inputs": [
        {
          "internalType": "address",
          "name": "sender",
          "type": "address"
        }
      ],
      "name": "ERC721InvalidSender",
      "type": "error"
    },
    {
      "inputs": [
        {
          "internalType": "uint256",
          "name": "tokenId",
          "type": "uint256"
        }
      ],
      "name": "ERC721NonexistentToken",
      "type": "error"
    },
    {
      "inputs": [
        {
          "internalType": "address",
          "name": "owner",
          "type": "address"
        }
      ],
      "name": "OwnableInvalidOwner",
      "type": "error"
    },
    {
      "inputs": [
        {
          "internalType": "address",
          "name": "account",
          "type": "address"
        }
      ],
      "name": "OwnableUnauthorizedAccount",
      "type": "error"
    },
    {
      "anonymous": false,
      "inputs": [
        {
          "indexed": true,
          "internalType": "address",
          "name": "owner",
          "type": "address"
        },
        {
          "indexed": true,
          "internalType": "address",
          "name": "approved",
          "type": "address"
        },
        {
          "indexed": true,
          "internalType": "uint256",
          "name": "tokenId",
          "type": "uint256"
        }
      ],
      "name": "Approval",
      "type": "event"
    },
    {
      "anonymous": false,
      "inputs": [
        {
          "indexed": true,
          "internalType": "address",
          "name": "owner",
          "type": "address"
        },
        {
          "indexed": true,
          "internalType": "address",
          "name": "operator",
          "type": "address"
        },
        {
          "indexed": false,
          "internalType": "bool",
          "name": "approved",
          "type": "bool"
        }
      ],
      "name": "ApprovalForAll",
      "type": "event"
    },
    {
      "anonymous": false,
      "inputs": [
        {
          "indexed": false,
          "internalType": "uint256",
          "name": "_fromTokenId",
          "type": "uint256"
        },
        {
          "indexed": false,
          "internalType": "uint256",
          "name": "_toTokenId",
          "type": "uint256"
        }
      ],
      "name": "BatchMetadataUpdate",
      "type": "event"
    },
    {
      "anonymous": false,
      "inputs": [
        {
          "indexed": false,
          "internalType": "uint256",
          "name": "_tokenId",
          "type": "uint256"
        }
      ],
      "name": "MetadataUpdate",
      "type": "event"
    },
    {
      "anonymous": false,
      "inputs": [
        {
          "indexed": true,
          "internalType": "address",
          "name": "previousOwner",
          "type": "address"
        },
        {
          "indexed": true,
          "internalType": "address",
          "name": "newOwner",
          "type": "address"
        }
      ],
      "name": "OwnershipTransferred",
      "type": "event"
    },
    {
      "anonymous": false,
      "inputs": [
        {
          "indexed": true,
          "internalType": "address",
          "name": "from",
          "type": "address"
        },
        {
          "indexed": true,
          "internalType": "address",
          "name": "to",
          "type": "address"
        },
        {
          "indexed": true,
          "internalType": "uint256",
          "name": "tokenId",
          "type": "uint256"
        }
      ],
      "name": "Transfer",
      "type": "event"
    },
    {
      "inputs": [
        {
          "internalType": "address",
          "name": "to",
          "type": "address"
        },
        {
          "internalType": "uint256",
          "name": "tokenId",
          "type": "uint256"
        }
      ],
      "name": "approve",
      "outputs": [],
      "stateMutability": "nonpayable",
      "type": "function"
    },
    {
      "inputs": [
        {
          "internalType": "address",
          "name": "owner",
          "type": "address"
        }
      ],
      "name": "balanceOf",
      "outputs": [
        {
          "internalType": "uint256",
          "name": "",
          "type": "uint256"
        }
      ],
      "stateMutability": "view",
      "type": "function"
    },
    {
      "inputs": [
        {
          "internalType": "uint256",
          "name": "tokenId",
          "type": "uint256"
        }
      ],
      "name": "getApproved",
      "outputs": [
        {
          "internalType": "address",
          "name": "",
          "type": "address"
        }
      ],
      "stateMutability": "view",
      "type": "function"
    },
    {
      "inputs": [
        {
          "internalType": "uint256",
          "name": "",
          "type": "uint256"
        }
      ],
      "name": "hasMinted",
      "outputs": [
        {
          "internalType": "bool",
          "name": "",
          "type": "bool"
        }
      ],
      "stateMutability": "view",
      "type": "function"
    },
    {
      "inputs": [
        {
          "internalType": "address",
          "name": "owner",
          "type": "address"
        },
        {
          "internalType": "address",
          "name": "operator",
          "type": "address"
        }
      ],
      "name": "isApprovedForAll",
      "outputs": [
        {
          "internalType": "bool",
          "name": "",
          "type": "bool"
        }
      ],
      "stateMutability": "view",
      "type": "function"
    },
    {
      "inputs": [
        {
          "internalType": "uint256",
          "name": "_challengeId",
          "type": "uint256"
        }
      ],
      "name": "mintBadge",
      "outputs": [],
      "stateMutability": "nonpayable",
      "type": "function"
    },
    {
      "inputs": [],
      "name": "name",
      "outputs": [
        {
          "internalType": "string",
          "name": "",
          "type": "string"
        }
      ],
      "stateMutability": "view",
      "type": "function"
    },
    {
      "inputs": [],
      "name": "nextTokenId",
      "outputs": [
        {
          "internalType": "uint256",
          "name": "",
          "type": "uint256"
        }
      ],
      "stateMutability": "view",
      "type": "function"
    },
    {
      "inputs": [],
      "name": "owner",
      "outputs": [
        {
          "internalType": "address",
          "name": "",
          "type": "address"
        }
      ],
      "stateMutability": "view",
      "type": "function"
    },
    {
      "inputs": [
        {
          "internalType": "uint256",
          "name": "tokenId",
          "type": "uint256"
        }
      ],
      "name": "ownerOf",
      "outputs": [
        {
          "internalType": "address",
          "name": "",
          "type": "address"
        }
      ],
      "stateMutability": "view",
      "type": "function"
    },
    {
      "inputs": [],
      "name": "renounceOwnership",
      "outputs": [],
      "stateMutability": "nonpayable",
      "type": "function"
    },
    {
      "inputs": [
        {
          "internalType": "address",
          "name": "from",
          "type": "address"
        },
        {
          "internalType": "address",
          "name": "to",
          "type": "address"
        },
        {
          "internalType": "uint256",
          "name": "tokenId",
          "type": "uint256"
        }
      ],
      "name": "safeTransferFrom",
      "outputs": [],
      "stateMutability": "nonpayable",
      "type": "function"
    },
    {
      "inputs": [
        {
          "internalType": "address",
          "name": "from",
          "type": "address"
        },
        {
          "internalType": "address",
          "name": "to",
          "type": "address"
        },
        {
          "internalType": "uint256",
          "name": "tokenId",
          "type": "uint256"
        },
        {
          "internalType": "bytes",
          "name": "data",
          "type": "bytes"
        }
      ],
      "name": "safeTransferFrom",
      "outputs": [],
      "stateMutability": "nonpayable",
      "type": "function"
    },
    {
      "inputs": [
        {
          "internalType": "address",
          "name": "operator",
          "type": "address"
        },
        {
          "internalType": "bool",
          "name": "approved",
          "type": "bool"
        }
      ],
      "name": "setApprovalForAll",
      "outputs": [],
      "stateMutability": "nonpayable",
      "type": "function"
    },
    {
      "inputs": [
        {
          "internalType": "uint256",
          "name": "tokenId",
          "type": "uint256"
        },
        {
          "internalType": "string",
          "name": "_tokenURI",
          "type": "string"
        }
      ],
      "name": "setTokenURI",
      "outputs": [],
      "stateMutability": "nonpayable",
      "type": "function"
    },
    {
      "inputs": [
        {
          "internalType": "bytes4",
          "name": "interfaceId",
          "type": "bytes4"
        }
      ],
      "name": "supportsInterface",
      "outputs": [
        {
          "internalType": "bool",
          "name": "",
          "type": "bool"
        }
      ],
      "stateMutability": "view",
      "type": "function"
    },
    {
      "inputs": [],
      "name": "symbol",
      "outputs": [
        {
          "internalType": "string",
          "name": "",
          "type": "string"
        }
      ],
      "stateMutability": "view",
      "type": "function"
    },
    {
      "inputs": [
        {
          "internalType": "uint256",
          "name": "tokenId",
          "type": "uint256"
        }
      ],
      "name": "tokenURI",
      "outputs": [
        {
          "internalType": "string",
          "name": "",
          "type": "string"
        }
      ],
      "stateMutability": "view",
      "type": "function"
    },
    {
      "inputs": [],
      "name": "touchGrassContract",
      "outputs": [
        {
          "internalType": "contract ITouchGrass",
          "name": "",
          "type": "address"
        }
      ],
      "stateMutability": "view",
      "type": "function"
    },
    {
      "inputs": [
        {
          "internalType": "address",
          "name": "from",
          "type": "address"
        },
        {
          "internalType": "address",
          "name": "to",
          "type": "address"
        },
        {
          "internalType": "uint256",
          "name": "tokenId",
          "type": "uint256"
        }
      ],
      "name": "transferFrom",
      "outputs": [],
      "stateMutability": "nonpayable",
      "type": "function"
    },
    {
      "inputs": [
        {
          "internalType": "address",
          "name": "newOwner",
          "type": "address"
        }
      ],
      "name": "transferOwnership",
      "outputs": [],
      "stateMutability": "nonpayable",
      "type": "function"
    }
  ],
  "bytecode": "0x608034620003ce576001600160401b0390601f90601f199062001845388190038481018416830186811184821017620003d357839282916040528339602092839181010312620003ce57516001600160a01b03948582169491859003620003ce576200006a620003e9565b91601883527f546f756368477261737320566963746f72792042616467650000000000000000848401526200009e620003e9565b600494858252632a23ab2160e11b81830152845196848811620003b9576000978854966001978881811c91168015620003ae575b858210146200039b5790818784931162000348575b508490878311600114620002e7578b92620002db575b5050600019600383901b1c191690871b1788555b8251948511620002c85785548681811c91168015620002bd575b83821014620002aa5790818587969594931162000251575b5081938511600114620001ec5750508692620001e0575b5050600019600383901b1c191690821b1790555b3315620001ca575060075460018060a01b03199133838316176007557f8be0079c531659141344cd1fd0a4f28419497f9722a3daafe3b4186f6b6457e0604051953393169180a3600854161760085561143b90816200040a8239f35b60249160405191631e4fbdf760e01b8352820152fd5b0151905038806200015a565b869593929193168589528389209389905b8282106200023757505084116200021d575b505050811b0190556200016e565b015160001960f88460031b161c191690553880806200020f565b8484015186558897909501949384019390810190620001fd565b9091929394508689528289208580880160051c820192858910620002a0575b9188978a9297969594930160051c01915b8281106200029157505062000143565b8b815588975089910162000281565b9250819262000270565b634e487b7160e01b895260228852602489fd5b90607f16906200012b565b634e487b7160e01b885260418752602488fd5b015190503880620000fd565b90848a9416918c8052868d20928d5b8882821062000331575050841162000317575b505050811b01885562000111565b015160001960f88460031b161c1916905538808062000309565b8385015186558d97909501949384019301620002f6565b9091508a8052848b208780850160051c82019287861062000391575b918b91869594930160051c01915b82811062000382575050620000e7565b8d81558594508b910162000372565b9250819262000364565b634e487b7160e01b8b5260228a5260248bfd5b90607f1690620000d2565b604187634e487b7160e01b6000525260246000fd5b600080fd5b634e487b7160e01b600052604160045260246000fd5b60408051919082016001600160401b03811183821017620003d35760405256fe6080604081815260048036101561001557600080fd5b600092833560e01c90816301ffc9a714610ce15750806306fdde0314610c5a578063081812fc14610c1f578063095ea7b314610b43578063162094c414610af057806323b872dd14610ad857806342842e0e14610aa95780636352211e14610a7857806370a0823114610a23578063715018a6146109d557806375794a3c146109b65780638da5cb5b1461098d57806395d89b41146108cb578063a22cb4651461082a578063b88d4fde146107bf578063c3c63edc14610320578063c87b56dd1461022b578063e5b95595146101ff578063e985e9c5146101b1578063f1f15206146101845763f2fde38b1461010a57600080fd5b3461018057602036600319011261018057610123610da7565b9061012c610eb3565b6001600160a01b0391821692831561016a575050600780546001600160a01b031981168417909155166000805160206113a68339815191528380a380f35b51631e4fbdf760e01b8152908101849052602490fd5b8280fd5b5050346101ad57816003193601126101ad5760085490516001600160a01b039091168152602090f35b5080fd5b5050346101ad57806003193601126101ad5760ff816020936101d1610da7565b6101d9610dc2565b6001600160a01b0391821683526005875283832091168252855220549151911615158152f35b5034610180576020366003190112610180578160209360ff92358152600a855220541690519015158152f35b509034610180576020918260031936011261031c573561024a816110b1565b5083526006825280832092815180948290805461026681610edf565b918285526001918883821691826000146102f55750506001146102b7575b5050506102b3939291610298910386610e09565b81516102a381610dd8565b5251928284938452830190610d67565b0390f35b8552868520879350859291905b8284106102dd57505050820101816102986102b3610284565b8054848b0186015289955088949093019281016102c4565b60ff19168782015293151560051b8601909301935084925061029891506102b39050610284565b8380fd5b508290346101ad5760208060031936011261018057600854845163478e9bbb60e11b8152833581850181905260249490939290916001600160a01b039161016090819083908990829087165afa9182156107b55790839189918a94610722575b50501633036106e6571561069957838652600a835260ff878720541661064e57600954936000199081861461063c57600186016009558752600a8452878720600160ff198254161790558751916103d683610dd8565b87835233156106265785908189526002865289892054168015159283610607575b5033808a52600387528a8a2080546001019055828a52600287528a8a2080546001600160a01b03191682179055906000805160206113c68339815191528a80a46105f157333b6104d8575b5085519360808501916001600160401b038311868410176104c7575050947f697066733a2f2f6261666b72656961647378376533713533616637797a776a347f6b7867796c357a797379616f356c6b36737136346a6c6a6c6768787073367176926104c4969783526042865285015283015261326560f01b6060830152611251565b80f35b634e487b7160e01b87526041905285fd5b8694969593919551838180610513630a85bd0160e11b95868352338c840152898d840152876044840152608060648401526084830190610d67565b038188335af18591816105ad575b5061057c575050503d600014610573573d61053b81610e2c565b9061054885519283610e09565b81528092823d92013e5b81519182610570575050505190633250574960e11b82523390820152fd5b01fd5b60609150610552565b63ffffffff60e0989698979395971b16036105975786610442565b8390865190633250574960e11b82523390820152fd5b9091508481813d83116105ea575b6105c58183610e09565b810103126105e657516001600160e01b0319811681036105e6579089610521565b8580fd5b503d6105bb565b86516339e3563760e11b81528083018790528590fd5b61061083611093565b818a52600387528a8a209081540190558a6103f7565b8851633250574960e11b81528085018990528790fd5b634e487b7160e01b8852601184528688fd5b5060218460849388519362461bcd60e51b85528401528201527f416c7265616479206d696e74656420666f722074686973206368616c6c656e676044820152606560f81b6064820152fd5b508360849287519262461bcd60e51b8452830152808201527f4368616c6c656e6765206e6f7420636f6d706c65746564207375636365737366604482015263756c6c7960e01b6064820152fd5b875162461bcd60e51b8152808401859052601781880152762737ba103a34329031b430b63632b733b29037bbb732b960491b6044820152606490fd5b925092505081813d83116107ae575b61073b8183610e09565b810103126107aa57805182811681036107a657610759858301611236565b50610765898301611236565b5060c061077460608401611244565b9261078160808201611244565b5061078e60a08201611236565b50015163ffffffff8116036107a65782908a80610380565b8780fd5b8680fd5b503d610731565b89513d8a823e3d90fd5b8382346101ad5760803660031901126101ad576107da610da7565b6107e2610dc2565b604435906064356001600160401b0381116105e657366023820112156105e6576104c49481602461081893369301359101610e47565b92610824838383610f19565b336110ec565b509034610180578060031936011261018057610844610da7565b90602435918215158093036108c7576001600160a01b03169283156108b25750338452600560205280842083855260205280842060ff1981541660ff8416179055519081527f17307eab39ab6107e8899845ad3d59bd9653f200f220920489ca2b5937696c3160203392a380f35b836024925191630b61174360e31b8352820152fd5b8480fd5b5050346101ad57816003193601126101ad578051908260018054906108ef82610edf565b80865291818116908115610965575060011461092a575b505050610918826102b3940383610e09565b51918291602083526020830190610d67565b80955082526020948583205b82841061095257505050826102b3946109189282010194610906565b8054868501880152928601928101610936565b6102b397506109189450602092508693915060ff191682840152151560051b82010194610906565b5050346101ad57816003193601126101ad5760075490516001600160a01b039091168152602090f35b5050346101ad57816003193601126101ad576020906009549051908152f35b8334610a205780600319360112610a20576109ee610eb3565b600780546001600160a01b0319811690915581906001600160a01b03166000805160206113a68339815191528280a380f35b80fd5b509134610a20576020366003190112610a20576001600160a01b03610a46610da7565b16928315610a635750806020938392526003845220549051908152f35b91516322718ad960e21b815291820152602490fd5b509134610a20576020366003190112610a205750610a98602092356110b1565b90516001600160a01b039091168152f35b5050346101ad576104c490610abd36610e7e565b91925192610aca84610dd8565b858452610824838383610f19565b8334610a20576104c4610aea36610e7e565b91610f19565b509034610180573660031901126101ad57602435906001600160401b038211610180573660238301121561018057610b346104c49236906024818501359101610e47565b90610b3d610eb3565b35611251565b509034610180578060031936011261018057610b5d610da7565b91602435610b6a816110b1565b33151580610c0c575b80610be3575b610bcd576001600160a01b039485169482918691167f8c5be1e5ebec7d5bd14f71427d1e84f3dd0314c0f7b2291e5b200ac8c7c3b9258880a48452602052822080546001600160a01b031916909117905580f35b835163a9fbf51f60e01b81523381850152602490fd5b506001600160a01b03811686526005602090815284872033885290528386205460ff1615610b79565b506001600160a01b038116331415610b73565b503461018057602036600319011261018057918260209335610c40816110b1565b50825283528190205490516001600160a01b039091168152f35b5050346101ad57816003193601126101ad57805190828054610c7b81610edf565b808552906001908181169081156109655750600114610ca657505050610918826102b3940383610e09565b94508180526020948583205b828410610cce57505050826102b3946109189282010194610906565b8054868501880152928601928101610cb2565b92505034610180576020366003190112610180573563ffffffff60e01b81168091036101805760209250632483248360e11b8114908115610d24575b5015158152f35b6380ac58cd60e01b811491508115610d56575b8115610d45575b5038610d1d565b6301ffc9a760e01b14905038610d3e565b635b5e139f60e01b81149150610d37565b919082519283825260005b848110610d93575050826000602080949584010152601f8019910116010190565b602081830181015184830182015201610d72565b600435906001600160a01b0382168203610dbd57565b600080fd5b602435906001600160a01b0382168203610dbd57565b602081019081106001600160401b03821117610df357604052565b634e487b7160e01b600052604160045260246000fd5b601f909101601f19168101906001600160401b03821190821017610df357604052565b6001600160401b038111610df357601f01601f191660200190565b929192610e5382610e2c565b91610e616040519384610e09565b829481845281830111610dbd578281602093846000960137010152565b6060906003190112610dbd576001600160a01b03906004358281168103610dbd57916024359081168103610dbd579060443590565b6007546001600160a01b03163303610ec757565b60405163118cdaa760e01b8152336004820152602490fd5b90600182811c92168015610f0f575b6020831014610ef957565b634e487b7160e01b600052602260045260246000fd5b91607f1691610eee565b6001600160a01b03918216929091831561107a57600092828452826020956002875260409684888820541696879133151580610fe4575b509060026000805160206113c68339815191529284610fc4575b858352600381528b8320805460010190558683525289812080546001600160a01b0319168517905580a41692838303610fa35750505050565b6064945051926364283d7b60e01b8452600484015260248301526044820152fd5b610fcd87611093565b848352600381528b83208054600019019055610f6a565b91939450915080611039575b1561100057859291879138610f50565b87868861101d576024915190637e27328960e01b82526004820152fd5b604491519063177e802f60e01b82523360048301526024820152fd5b50338714801561105e575b80610ff05750858252600481523385898420541614610ff0565b5086825260058152878220338352815260ff8883205416611044565b604051633250574960e11b815260006004820152602490fd5b600090815260046020526040902080546001600160a01b0319169055565b6000818152600260205260409020546001600160a01b03169081156110d4575090565b60249060405190637e27328960e01b82526004820152fd5b90939192833b6110fe575b5050505050565b604051630a85bd0160e11b8082526001600160a01b03938416600483015295831660248201526044810191909152608060648201529492169260209291859061114b906084830190610d67565b039483816000978189895af18691816111f6575b506111c0575050503d6000146111b7573d61117981610e2c565b906111876040519283610e09565b81528093823d92013e5b825192836111b257604051633250574960e11b815260048101849052602490fd5b019050fd5b60609250611191565b919450915063ffffffff60e01b16036111de575038808080806110f7565b60249060405190633250574960e11b82526004820152fd5b9091508481813d831161122f575b61120e8183610e09565b810103126107aa57516001600160e01b0319811681036107aa57903861115f565b503d611204565b519060ff82168203610dbd57565b51908115158203610dbd57565b6000818152600660209081526040822084519495949193929091906001600160401b038211611391576112848354610edf565b601f811161134e575b508490601f83116001146112dc57906000805160206113e68339815191529697836112d1575b50508160011b916000199060031b1c19161790555b604051908152a1565b0151905038806112b3565b9196601f198816848452868420935b81811061133757509160019391896000805160206113e6833981519152999a941061131e575b505050811b0190556112c8565b015160001960f88460031b161c19169055388080611311565b9293876001819287860151815501950193016112eb565b838252858220601f840160051c810191878510611387575b601f0160051c01905b81811061137c575061128d565b82815560010161136f565b9091508190611366565b634e487b7160e01b81526041600452602490fdfe8be0079c531659141344cd1fd0a4f28419497f9722a3daafe3b4186f6b6457e0ddf252ad1be2c89b69c2b068fc378daa952ba7f163c4a11628f55a4df523b3eff8e1a15aba9398e019f0b49df1a4fde98ee17ae345cb5f6b5e2c27f5033e8ce7a2646970667358221220fb073c6457b36f84491a75cc83300444ba73b2818cbb5b2eea37b15dd86a590a64736f6c63430008140033",
  "linkReferences": {},
  "deployedLinkReferences": {}
}