{
  "_format": "hh-sol-artifact-1",
  "contractName": "TouchGrass",
  "sourceName": "contracts/TouchGrass.sol",
  "abi": [
    {
      "inputs": [
        {
          "internalType": "address",
          "name": "_verifierAddress",
          "type": "address"
        },
        {
          "internalType": "address",
          "name": "_charityAddress",
          "type": "address"
        },
        {
          "internalType": "address",
          "name": "_treasuryAddress",
          "type": "address"
        },
        {
          "internalType": "uint256",
          "name": "_USDCFee",
          "type": "uint256"
        },
        {
          "internalType": "uint256",
          "name": "_USDCMinStake",
          "type": "uint256"
        }
      ],
      "stateMutability": "nonpayable",
      "type": "constructor"
    },
    {
      "inputs": [],
      "name": "BurnPercentLessThan100",
      "type": "error"
    },
    {
      "inputs": [],
      "name": "CannotRecoverLockedFunds",
      "type": "error"
    },
    {
      "inputs": [],
      "name": "CannotRecoverStakedTokens",
      "type": "error"
    },
    {
      "inputs": [],
      "name": "CannotSweepLock",
      "type": "error"
    },
    {
      "inputs": [],
      "name": "CannotSweepPartialPenalty",
      "type": "error"
    },
    {
      "inputs": [],
      "name": "ChallengeActive",
      "type": "error"
    },
    {
      "inputs": [],
      "name": "ChallengeAlreadySuccess",
      "type": "error"
    },
    {
      "inputs": [],
      "name": "ChallengeAlreadyWithdrawn",
      "type": "error"
    },
    {
      "inputs": [],
      "name": "ChallengeNotExpired",
      "type": "error"
    },
    {
      "inputs": [],
      "name": "ChallengeSuccessful",
      "type": "error"
    },
    {
      "inputs": [],
      "name": "CountTooLarge",
      "type": "error"
    },
    {
      "inputs": [],
      "name": "DuplicateAddresses",
      "type": "error"
    },
    {
      "inputs": [],
      "name": "DurationCausesTimestampOverflow",
      "type": "error"
    },
    {
      "inputs": [],
      "name": "DurationTooLarge",
      "type": "error"
    },
    {
      "inputs": [],
      "name": "EnforcedPause",
      "type": "error"
    },
    {
      "inputs": [],
      "name": "EthTransferFailed",
      "type": "error"
    },
    {
      "inputs": [],
      "name": "ExpectedPause",
      "type": "error"
    },
    {
      "inputs": [],
      "name": "FeeChangeTooLarge",
      "type": "error"
    },
    {
      "inputs": [],
      "name": "FeeTransferFailed",
      "type": "error"
    },
    {
      "inputs": [],
      "name": "FundsLocked",
      "type": "error"
    },
    {
      "inputs": [],
      "name": "GracePeriodActive",
      "type": "error"
    },
    {
      "inputs": [],
      "name": "GracePeriodCannotBeLessThanADay",
      "type": "error"
    },
    {
      "inputs": [],
      "name": "GracePeriodCausesOverflow",
      "type": "error"
    },
    {
      "inputs": [],
      "name": "GracePeriodTooLarge",
      "type": "error"
    },
    {
      "inputs": [],
      "name": "GracePeriodTooLong",
      "type": "error"
    },
    {
      "inputs": [],
      "name": "InsufficientEth",
      "type": "error"
    },
    {
      "inputs": [],
      "name": "InsufficientFee",
      "type": "error"
    },
    {
      "inputs": [],
      "name": "InsufficientPayment",
      "type": "error"
    },
    {
      "inputs": [],
      "name": "InvalidAddress",
      "type": "error"
    },
    {
      "inputs": [],
      "name": "InvalidCount",
      "type": "error"
    },
    {
      "inputs": [],
      "name": "InvalidDuration",
      "type": "error"
    },
    {
      "inputs": [],
      "name": "InvalidInput",
      "type": "error"
    },
    {
      "inputs": [],
      "name": "InvalidPayment",
      "type": "error"
    },
    {
      "inputs": [],
      "name": "InvalidPenaltyPercent",
      "type": "error"
    },
    {
      "inputs": [],
      "name": "InvalidPriceData",
      "type": "error"
    },
    {
      "inputs": [],
      "name": "InvalidStake",
      "type": "error"
    },
    {
      "inputs": [],
      "name": "InvalidTokenConfig",
      "type": "error"
    },
    {
      "inputs": [],
      "name": "InvalidVoluntaryDonationPercent",
      "type": "error"
    },
    {
      "inputs": [],
      "name": "InvalidVoluntaryDonationTarget",
      "type": "error"
    },
    {
      "inputs": [],
      "name": "LockMultiplierCausesOverflow",
      "type": "error"
    },
    {
      "inputs": [],
      "name": "LockMultiplierTooHigh",
      "type": "error"
    },
    {
      "inputs": [],
      "name": "LockMultiplierTooLow",
      "type": "error"
    },
    {
      "inputs": [],
      "name": "MaxDurationAboveAbsolute",
      "type": "error"
    },
    {
      "inputs": [],
      "name": "MaxDurationCausesOverflow",
      "type": "error"
    },
    {
      "inputs": [],
      "name": "MinDurationAboveMax",
      "type": "error"
    },
    {
      "inputs": [],
      "name": "MinDurationBelowAbsolute",
      "type": "error"
    },
    {
      "inputs": [],
      "name": "MinPenaltyPercentageHigherThan50",
      "type": "error"
    },
    {
      "inputs": [],
      "name": "MinPenaltyPercentageMustBeGreaterThan5",
      "type": "error"
    },
    {
      "inputs": [],
      "name": "NoPendingUpdate",
      "type": "error"
    },
    {
      "inputs": [],
      "name": "NoPendingWithdrawal",
      "type": "error"
    },
    {
      "inputs": [],
      "name": "NoTokensToRecover",
      "type": "error"
    },
    {
      "inputs": [],
      "name": "NoTransferPending",
      "type": "error"
    },
    {
      "inputs": [],
      "name": "OnlyPendingOwner",
      "type": "error"
    },
    {
      "inputs": [
        {
          "internalType": "address",
          "name": "owner",
          "type": "address"
        }
      ],
      "name": "OwnableInvalidOwner",
      "type": "error"
    },
    {
      "inputs": [
        {
          "internalType": "address",
          "name": "account",
          "type": "address"
        }
      ],
      "name": "OwnableUnauthorizedAccount",
      "type": "error"
    },
    {
      "inputs": [],
      "name": "OwnershipRenunciationInProgress",
      "type": "error"
    },
    {
      "inputs": [],
      "name": "OwnershipRenunciationNotInitiated",
      "type": "error"
    },
    {
      "inputs": [],
      "name": "PenaltyPercentLessThanMinimum",
      "type": "error"
    },
    {
      "inputs": [],
      "name": "PriceOracleNotSet",
      "type": "error"
    },
    {
      "inputs": [],
      "name": "RecoveryFailed",
      "type": "error"
    },
    {
      "inputs": [],
      "name": "ReentrancyGuardReentrantCall",
      "type": "error"
    },
    {
      "inputs": [],
      "name": "ReentrantTransfer",
      "type": "error"
    },
    {
      "inputs": [],
      "name": "RenunciationDelayNotMet",
      "type": "error"
    },
    {
      "inputs": [
        {
          "internalType": "address",
          "name": "token",
          "type": "address"
        }
      ],
      "name": "SafeERC20FailedOperation",
      "type": "error"
    },
    {
      "inputs": [],
      "name": "StakeBelowMinimum",
      "type": "error"
    },
    {
      "inputs": [],
      "name": "StalePrice",
      "type": "error"
    },
    {
      "inputs": [],
      "name": "TimeExpired",
      "type": "error"
    },
    {
      "inputs": [],
      "name": "TimestampOverflow",
      "type": "error"
    },
    {
      "inputs": [],
      "name": "TokenAlreadySupported",
      "type": "error"
    },
    {
      "inputs": [],
      "name": "TokenNotFound",
      "type": "error"
    },
    {
      "inputs": [],
      "name": "TokenNotSupported",
      "type": "error"
    },
    {
      "inputs": [],
      "name": "TokenTransferFailed",
      "type": "error"
    },
    {
      "inputs": [],
      "name": "TransferDelayNotMet",
      "type": "error"
    },
    {
      "inputs": [],
      "name": "TransferToContract",
      "type": "error"
    },
    {
      "inputs": [],
      "name": "TransferToCurrentOwner",
      "type": "error"
    },
    {
      "inputs": [],
      "name": "TransferToZeroAddress",
      "type": "error"
    },
    {
      "inputs": [],
      "name": "USDCFeeOverflow",
      "type": "error"
    },
    {
      "inputs": [],
      "name": "USDCFeeTooLow",
      "type": "error"
    },
    {
      "inputs": [],
      "name": "USDCFeeZero",
      "type": "error"
    },
    {
      "inputs": [],
      "name": "Unauthorized",
      "type": "error"
    },
    {
      "inputs": [],
      "name": "UpdateNotReady",
      "type": "error"
    },
    {
      "inputs": [],
      "name": "VerifierCannotBeOwner",
      "type": "error"
    },
    {
      "inputs": [],
      "name": "WithdrawalClaimFailed",
      "type": "error"
    },
    {
      "anonymous": false,
      "inputs": [
        {
          "indexed": false,
          "internalType": "uint256",
          "name": "oldMinStake",
          "type": "uint256"
        },
        {
          "indexed": false,
          "internalType": "uint256",
          "name": "newMinStake",
          "type": "uint256"
        }
      ],
      "name": "BaseUSDCMinStakeUpdated",
      "type": "event"
    },
    {
      "anonymous": false,
      "inputs": [
        {
          "indexed": true,
          "internalType": "uint256",
          "name": "id",
          "type": "uint256"
        },
        {
          "indexed": true,
          "internalType": "address",
          "name": "staker",
          "type": "address"
        },
        {
          "indexed": false,
          "internalType": "uint256",
          "name": "amount",
          "type": "uint256"
        }
      ],
      "name": "ChallengeCreated",
      "type": "event"
    },
    {
      "anonymous": false,
      "inputs": [
        {
          "indexed": true,
          "internalType": "uint256",
          "name": "id",
          "type": "uint256"
        }
      ],
      "name": "ChallengeSuccess",
      "type": "event"
    },
    {
      "anonymous": false,
      "inputs": [
        {
          "indexed": true,
          "internalType": "address",
          "name": "oldCharityWallet",
          "type": "address"
        },
        {
          "indexed": true,
          "internalType": "address",
          "name": "newCharityWallet",
          "type": "address"
        }
      ],
      "name": "CharityWalletUpdated",
      "type": "event"
    },
    {
      "anonymous": false,
      "inputs": [
        {
          "indexed": true,
          "internalType": "address",
          "name": "token",
          "type": "address"
        },
        {
          "indexed": true,
          "internalType": "address",
          "name": "recipient",
          "type": "address"
        },
        {
          "indexed": false,
          "internalType": "uint256",
          "name": "amount",
          "type": "uint256"
        },
        {
          "indexed": false,
          "internalType": "string",
          "name": "tokenSymbol",
          "type": "string"
        }
      ],
      "name": "ERC20Recovered",
      "type": "event"
    },
    {
      "anonymous": false,
      "inputs": [
        {
          "indexed": true,
          "internalType": "address",
          "name": "recipient",
          "type": "address"
        },
        {
          "indexed": false,
          "internalType": "uint256",
          "name": "amount",
          "type": "uint256"
        }
      ],
      "name": "ETHRecovered",
      "type": "event"
    },
    {
      "anonymous": false,
      "inputs": [
        {
          "indexed": true,
          "internalType": "bytes32",
          "name": "tokenId",
          "type": "bytes32"
        }
      ],
      "name": "FallbackPriceDisabled",
      "type": "event"
    },
    {
      "anonymous": false,
      "inputs": [
        {
          "indexed": true,
          "internalType": "bytes32",
          "name": "tokenId",
          "type": "bytes32"
        },
        {
          "indexed": false,
          "internalType": "uint256",
          "name": "price",
          "type": "uint256"
        }
      ],
      "name": "FallbackPriceEnabled",
      "type": "event"
    },
    {
      "anonymous": false,
      "inputs": [
        {
          "indexed": true,
          "internalType": "uint256",
          "name": "newGracePeriod",
          "type": "uint256"
        }
      ],
      "name": "GracePeriodUpdated",
      "type": "event"
    },
    {
      "anonymous": false,
      "inputs": [
        {
          "indexed": true,
          "internalType": "uint256",
          "name": "newLockMultiplier",
          "type": "uint256"
        }
      ],
      "name": "LockMultiplierUpdated",
      "type": "event"
    },
    {
      "anonymous": false,
      "inputs": [
        {
          "indexed": true,
          "internalType": "uint256",
          "name": "newMaxDuration",
          "type": "uint256"
        }
      ],
      "name": "MaxDurationUpdated",
      "type": "event"
    },
    {
      "anonymous": false,
      "inputs": [
        {
          "indexed": true,
          "internalType": "uint256",
          "name": "newMinDuration",
          "type": "uint256"
        }
      ],
      "name": "MinDurationUpdated",
      "type": "event"
    },
    {
      "anonymous": false,
      "inputs": [
        {
          "indexed": true,
          "internalType": "uint8",
          "name": "newMinPenaltyPercentage",
          "type": "uint8"
        }
      ],
      "name": "MinPenaltyPercentageUpdated",
      "type": "event"
    },
    {
      "anonymous": false,
      "inputs": [
        {
          "indexed": true,
          "internalType": "address",
          "name": "multiSig",
          "type": "address"
        }
      ],
      "name": "MultiSigRemovedFromWhitelist",
      "type": "event"
    },
    {
      "anonymous": false,
      "inputs": [
        {
          "indexed": true,
          "internalType": "address",
          "name": "multiSig",
          "type": "address"
        }
      ],
      "name": "MultiSigWhitelisted",
      "type": "event"
    },
    {
      "anonymous": false,
      "inputs": [
        {
          "indexed": true,
          "internalType": "address",
          "name": "previousOwner",
          "type": "address"
        }
      ],
      "name": "OwnershipRenounced",
      "type": "event"
    },
    {
      "anonymous": false,
      "inputs": [
        {
          "indexed": true,
          "internalType": "address",
          "name": "owner",
          "type": "address"
        }
      ],
      "name": "OwnershipRenunciationCancelled",
      "type": "event"
    },
    {
      "anonymous": false,
      "inputs": [
        {
          "indexed": true,
          "internalType": "address",
          "name": "owner",
          "type": "address"
        },
        {
          "indexed": false,
          "internalType": "uint256",
          "name": "effectiveTime",
          "type": "uint256"
        }
      ],
      "name": "OwnershipRenunciationScheduled",
      "type": "event"
    },
    {
      "anonymous": false,
      "inputs": [
        {
          "indexed": true,
          "internalType": "address",
          "name": "cancelledPendingOwner",
          "type": "address"
        }
      ],
      "name": "OwnershipTransferCancelled",
      "type": "event"
    },
    {
      "anonymous": false,
      "inputs": [
        {
          "indexed": true,
          "internalType": "address",
          "name": "currentOwner",
          "type": "address"
        },
        {
          "indexed": true,
          "internalType": "address",
          "name": "pendingOwner",
          "type": "address"
        },
        {
          "indexed": false,
          "internalType": "uint256",
          "name": "effectiveTime",
          "type": "uint256"
        }
      ],
      "name": "OwnershipTransferScheduled",
      "type": "event"
    },
    {
      "anonymous": false,
      "inputs": [
        {
          "indexed": true,
          "internalType": "address",
          "name": "previousOwner",
          "type": "address"
        },
        {
          "indexed": true,
          "internalType": "address",
          "name": "newOwner",
          "type": "address"
        }
      ],
      "name": "OwnershipTransferStarted",
      "type": "event"
    },
    {
      "anonymous": false,
      "inputs": [
        {
          "indexed": true,
          "internalType": "address",
          "name": "previousOwner",
          "type": "address"
        },
        {
          "indexed": true,
          "internalType": "address",
          "name": "newOwner",
          "type": "address"
        }
      ],
      "name": "OwnershipTransferred",
      "type": "event"
    },
    {
      "anonymous": false,
      "inputs": [
        {
          "indexed": false,
          "internalType": "address",
          "name": "account",
          "type": "address"
        }
      ],
      "name": "Paused",
      "type": "event"
    },
    {
      "anonymous": false,
      "inputs": [
        {
          "indexed": true,
          "internalType": "uint256",
          "name": "id",
          "type": "uint256"
        },
        {
          "indexed": false,
          "internalType": "uint256",
          "name": "penaltyAmount",
          "type": "uint256"
        },
        {
          "indexed": false,
          "internalType": "address",
          "name": "destination",
          "type": "address"
        }
      ],
      "name": "PenaltyExecuted",
      "type": "event"
    },
    {
      "anonymous": false,
      "inputs": [
        {
          "indexed": true,
          "internalType": "address",
          "name": "token",
          "type": "address"
        },
        {
          "indexed": false,
          "internalType": "uint256",
          "name": "contractBalance",
          "type": "uint256"
        },
        {
          "indexed": false,
          "internalType": "uint256",
          "name": "lockedAmount",
          "type": "uint256"
        },
        {
          "indexed": false,
          "internalType": "uint256",
          "name": "recoverable",
          "type": "uint256"
        }
      ],
      "name": "RecoveryAttempt",
      "type": "event"
    },
    {
      "anonymous": false,
      "inputs": [
        {
          "indexed": true,
          "internalType": "bytes32",
          "name": "tokenId",
          "type": "bytes32"
        },
        {
          "indexed": false,
          "internalType": "string",
          "name": "symbol",
          "type": "string"
        },
        {
          "indexed": true,
          "internalType": "address",
          "name": "tokenAddress",
          "type": "address"
        },
        {
          "indexed": true,
          "internalType": "address",
          "name": "priceFeed",
          "type": "address"
        }
      ],
      "name": "TokenAdded",
      "type": "event"
    },
    {
      "anonymous": false,
      "inputs": [
        {
          "indexed": true,
          "internalType": "bytes32",
          "name": "tokenId",
          "type": "bytes32"
        },
        {
          "indexed": false,
          "internalType": "address",
          "name": "oldFeed",
          "type": "address"
        },
        {
          "indexed": false,
          "internalType": "address",
          "name": "newFeed",
          "type": "address"
        }
      ],
      "name": "TokenPriceFeedUpdated",
      "type": "event"
    },
    {
      "anonymous": false,
      "inputs": [
        {
          "indexed": true,
          "internalType": "bytes32",
          "name": "tokenId",
          "type": "bytes32"
        },
        {
          "indexed": false,
          "internalType": "string",
          "name": "symbol",
          "type": "string"
        }
      ],
      "name": "TokenRemoved",
      "type": "event"
    },
    {
      "anonymous": false,
      "inputs": [
        {
          "indexed": true,
          "internalType": "address",
          "name": "user",
          "type": "address"
        },
        {
          "indexed": true,
          "internalType": "bytes32",
          "name": "tokenId",
          "type": "bytes32"
        },
        {
          "indexed": false,
          "internalType": "uint256",
          "name": "amount",
          "type": "uint256"
        }
      ],
      "name": "TransferFailed",
      "type": "event"
    },
    {
      "anonymous": false,
      "inputs": [
        {
          "indexed": true,
          "internalType": "address",
          "name": "oldTreasuryWallet",
          "type": "address"
        },
        {
          "indexed": true,
          "internalType": "address",
          "name": "newTreasuryWallet",
          "type": "address"
        }
      ],
      "name": "TreasuryWalletUpdated",
      "type": "event"
    },
    {
      "anonymous": false,
      "inputs": [
        {
          "indexed": true,
          "internalType": "address",
          "name": "recipient",
          "type": "address"
        }
      ],
      "name": "TrustedRecipientAdded",
      "type": "event"
    },
    {
      "anonymous": false,
      "inputs": [
        {
          "indexed": true,
          "internalType": "address",
          "name": "recipient",
          "type": "address"
        }
      ],
      "name": "TrustedRecipientRemoved",
      "type": "event"
    },
    {
      "anonymous": false,
      "inputs": [],
      "name": "USDCFeeUpdateCancelled",
      "type": "event"
    },
    {
      "anonymous": false,
      "inputs": [
        {
          "indexed": false,
          "internalType": "uint256",
          "name": "newFee",
          "type": "uint256"
        },
        {
          "indexed": false,
          "internalType": "uint256",
          "name": "effectiveTime",
          "type": "uint256"
        }
      ],
      "name": "USDCFeeUpdateScheduled",
      "type": "event"
    },
    {
      "anonymous": false,
      "inputs": [
        {
          "indexed": false,
          "internalType": "uint256",
          "name": "oldFee",
          "type": "uint256"
        },
        {
          "indexed": false,
          "internalType": "uint256",
          "name": "newFee",
          "type": "uint256"
        }
      ],
      "name": "USDCFeeUpdated",
      "type": "event"
    },
    {
      "anonymous": false,
      "inputs": [
        {
          "indexed": false,
          "internalType": "address",
          "name": "account",
          "type": "address"
        }
      ],
      "name": "Unpaused",
      "type": "event"
    },
    {
      "anonymous": false,
      "inputs": [
        {
          "indexed": true,
          "internalType": "address",
          "name": "oldVerifier",
          "type": "address"
        },
        {
          "indexed": true,
          "internalType": "address",
          "name": "newVerifier",
          "type": "address"
        }
      ],
      "name": "VerifierUpdated",
      "type": "event"
    },
    {
      "anonymous": false,
      "inputs": [
        {
          "indexed": true,
          "internalType": "uint256",
          "name": "id",
          "type": "uint256"
        },
        {
          "indexed": true,
          "internalType": "address",
          "name": "donor",
          "type": "address"
        },
        {
          "indexed": false,
          "internalType": "uint256",
          "name": "amount",
          "type": "uint256"
        },
        {
          "indexed": false,
          "internalType": "address",
          "name": "target",
          "type": "address"
        }
      ],
      "name": "VoluntaryDonation",
      "type": "event"
    },
    {
      "anonymous": false,
      "inputs": [
        {
          "indexed": true,
          "internalType": "address",
          "name": "user",
          "type": "address"
        },
        {
          "indexed": true,
          "internalType": "bytes32",
          "name": "tokenId",
          "type": "bytes32"
        },
        {
          "indexed": false,
          "internalType": "uint256",
          "name": "amount",
          "type": "uint256"
        }
      ],
      "name": "WithdrawalClaimed",
      "type": "event"
    },
    {
      "anonymous": false,
      "inputs": [
        {
          "indexed": true,
          "internalType": "uint256",
          "name": "id",
          "type": "uint256"
        },
        {
          "indexed": true,
          "internalType": "address",
          "name": "staker",
          "type": "address"
        },
        {
          "indexed": false,
          "internalType": "uint256",
          "name": "amount",
          "type": "uint256"
        }
      ],
      "name": "Withdrawn",
      "type": "event"
    },
    {
      "inputs": [],
      "name": "ABSOLUTE_MAX_DURATION",
      "outputs": [
        {
          "internalType": "uint256",
          "name": "",
          "type": "uint256"
        }
      ],
      "stateMutability": "view",
      "type": "function"
    },
    {
      "inputs": [],
      "name": "ABSOLUTE_MAX_MIN_PENALTY",
      "outputs": [
        {
          "internalType": "uint8",
          "name": "",
          "type": "uint8"
        }
      ],
      "stateMutability": "view",
      "type": "function"
    },
    {
      "inputs": [],
      "name": "ABSOLUTE_MIN_DURATION",
      "outputs": [
        {
          "internalType": "uint256",
          "name": "",
          "type": "uint256"
        }
      ],
      "stateMutability": "view",
      "type": "function"
    },
    {
      "inputs": [],
      "name": "ABSOLUTE_MIN_PENALTY",
      "outputs": [
        {
          "internalType": "uint8",
          "name": "",
          "type": "uint8"
        }
      ],
      "stateMutability": "view",
      "type": "function"
    },
    {
      "inputs": [],
      "name": "FEE_UPDATE_DELAY",
      "outputs": [
        {
          "internalType": "uint256",
          "name": "",
          "type": "uint256"
        }
      ],
      "stateMutability": "view",
      "type": "function"
    },
    {
      "inputs": [],
      "name": "GRACE_PERIOD",
      "outputs": [
        {
          "internalType": "uint256",
          "name": "",
          "type": "uint256"
        }
      ],
      "stateMutability": "view",
      "type": "function"
    },
    {
      "inputs": [],
      "name": "LOCK_MULTIPLIER",
      "outputs": [
        {
          "internalType": "uint256",
          "name": "",
          "type": "uint256"
        }
      ],
      "stateMutability": "view",
      "type": "function"
    },
    {
      "inputs": [],
      "name": "MAX_DURATION",
      "outputs": [
        {
          "internalType": "uint256",
          "name": "",
          "type": "uint256"
        }
      ],
      "stateMutability": "view",
      "type": "function"
    },
    {
      "inputs": [],
      "name": "MAX_FEE_CHANGE_PERCENT",
      "outputs": [
        {
          "internalType": "uint256",
          "name": "",
          "type": "uint256"
        }
      ],
      "stateMutability": "view",
      "type": "function"
    },
    {
      "inputs": [],
      "name": "MAX_GRACE_PERIOD",
      "outputs": [
        {
          "internalType": "uint256",
          "name": "",
          "type": "uint256"
        }
      ],
      "stateMutability": "view",
      "type": "function"
    },
    {
      "inputs": [],
      "name": "MAX_LOCK_MULTIPLIER",
      "outputs": [
        {
          "internalType": "uint256",
          "name": "",
          "type": "uint256"
        }
      ],
      "stateMutability": "view",
      "type": "function"
    },
    {
      "inputs": [],
      "name": "MIN_DURATION",
      "outputs": [
        {
          "internalType": "uint256",
          "name": "",
          "type": "uint256"
        }
      ],
      "stateMutability": "view",
      "type": "function"
    },
    {
      "inputs": [],
      "name": "MIN_LOCK_MULTIPLIER",
      "outputs": [
        {
          "internalType": "uint256",
          "name": "",
          "type": "uint256"
        }
      ],
      "stateMutability": "view",
      "type": "function"
    },
    {
      "inputs": [],
      "name": "MIN_PENALTY_PERCENTAGE",
      "outputs": [
        {
          "internalType": "uint8",
          "name": "",
          "type": "uint8"
        }
      ],
      "stateMutability": "view",
      "type": "function"
    },
    {
      "inputs": [],
      "name": "MIN_USDC_FEE",
      "outputs": [
        {
          "internalType": "uint256",
          "name": "",
          "type": "uint256"
        }
      ],
      "stateMutability": "view",
      "type": "function"
    },
    {
      "inputs": [],
      "name": "OWNERSHIP_RENUNCIATION_DELAY",
      "outputs": [
        {
          "internalType": "uint256",
          "name": "",
          "type": "uint256"
        }
      ],
      "stateMutability": "view",
      "type": "function"
    },
    {
      "inputs": [],
      "name": "OWNERSHIP_TRANSFER_DELAY",
      "outputs": [
        {
          "internalType": "uint256",
          "name": "",
          "type": "uint256"
        }
      ],
      "stateMutability": "view",
      "type": "function"
    },
    {
      "inputs": [],
      "name": "acceptOwnership",
      "outputs": [],
      "stateMutability": "nonpayable",
      "type": "function"
    },
    {
      "inputs": [
        {
          "internalType": "string",
          "name": "_symbol",
          "type": "string"
        },
        {
          "internalType": "address",
          "name": "_tokenAddress",
          "type": "address"
        },
        {
          "internalType": "address",
          "name": "_priceFeed",
          "type": "address"
        },
        {
          "internalType": "uint8",
          "name": "_decimals",
          "type": "uint8"
        },
        {
          "internalType": "uint256",
          "name": "_priceStalenessTolerance",
          "type": "uint256"
        }
      ],
      "name": "addToken",
      "outputs": [],
      "stateMutability": "nonpayable",
      "type": "function"
    },
    {
      "inputs": [
        {
          "internalType": "string[]",
          "name": "_symbols",
          "type": "string[]"
        },
        {
          "internalType": "address",
          "name": "_to",
          "type": "address"
        }
      ],
      "name": "batchRecoverTokens",
      "outputs": [
        {
          "components": [
            {
              "internalType": "string",
              "name": "symbol",
              "type": "string"
            },
            {
              "internalType": "bool",
              "name": "success",
              "type": "bool"
            },
            {
              "internalType": "uint256",
              "name": "amount",
              "type": "uint256"
            },
            {
              "internalType": "string",
              "name": "errorReason",
              "type": "string"
            }
          ],
          "internalType": "struct TouchGrass.RecoveryResult[]",
          "name": "",
          "type": "tuple[]"
        }
      ],
      "stateMutability": "nonpayable",
      "type": "function"
    },
    {
      "inputs": [
        {
          "internalType": "string",
          "name": "_symbol",
          "type": "string"
        }
      ],
      "name": "calculateMinStake",
      "outputs": [
        {
          "internalType": "uint256",
          "name": "minStake",
          "type": "uint256"
        }
      ],
      "stateMutability": "view",
      "type": "function"
    },
    {
      "inputs": [
        {
          "internalType": "string",
          "name": "_symbol",
          "type": "string"
        },
        {
          "internalType": "uint256",
          "name": "_stakeAmount",
          "type": "uint256"
        }
      ],
      "name": "calculateRequiredPayment",
      "outputs": [
        {
          "internalType": "uint256",
          "name": "totalRequired",
          "type": "uint256"
        },
        {
          "internalType": "uint256",
          "name": "fee",
          "type": "uint256"
        },
        {
          "internalType": "uint256",
          "name": "minStake",
          "type": "uint256"
        }
      ],
      "stateMutability": "view",
      "type": "function"
    },
    {
      "inputs": [
        {
          "internalType": "string",
          "name": "_symbol",
          "type": "string"
        }
      ],
      "name": "calculateTokenFee",
      "outputs": [
        {
          "internalType": "uint256",
          "name": "fee",
          "type": "uint256"
        }
      ],
      "stateMutability": "view",
      "type": "function"
    },
    {
      "inputs": [],
      "name": "canAcceptOwnership",
      "outputs": [
        {
          "internalType": "bool",
          "name": "",
          "type": "bool"
        }
      ],
      "stateMutability": "view",
      "type": "function"
    },
    {
      "inputs": [],
      "name": "canExecuteRenunciation",
      "outputs": [
        {
          "internalType": "bool",
          "name": "",
          "type": "bool"
        }
      ],
      "stateMutability": "view",
      "type": "function"
    },
    {
      "inputs": [],
      "name": "canExecuteUSDCFeeUpdate",
      "outputs": [
        {
          "internalType": "bool",
          "name": "",
          "type": "bool"
        }
      ],
      "stateMutability": "view",
      "type": "function"
    },
    {
      "inputs": [],
      "name": "cancelOwnershipRenunciation",
      "outputs": [],
      "stateMutability": "nonpayable",
      "type": "function"
    },
    {
      "inputs": [],
      "name": "cancelOwnershipTransfer",
      "outputs": [],
      "stateMutability": "nonpayable",
      "type": "function"
    },
    {
      "inputs": [],
      "name": "cancelUSDCFeeUpdate",
      "outputs": [],
      "stateMutability": "nonpayable",
      "type": "function"
    },
    {
      "inputs": [],
      "name": "challengeCount",
      "outputs": [
        {
          "internalType": "uint256",
          "name": "",
          "type": "uint256"
        }
      ],
      "stateMutability": "view",
      "type": "function"
    },
    {
      "inputs": [
        {
          "internalType": "uint256",
          "name": "",
          "type": "uint256"
        }
      ],
      "name": "challenges",
      "outputs": [
        {
          "internalType": "address",
          "name": "staker",
          "type": "address"
        },
        {
          "internalType": "uint8",
          "name": "penaltyPercent",
          "type": "uint8"
        },
        {
          "internalType": "enum TouchGrass.PenaltyType",
          "name": "penaltyType",
          "type": "uint8"
        },
        {
          "internalType": "bool",
          "name": "isSuccess",
          "type": "bool"
        },
        {
          "internalType": "bool",
          "name": "isWithdrawn",
          "type": "bool"
        },
        {
          "internalType": "uint8",
          "name": "lockMultiplierSnapshot",
          "type": "uint8"
        },
        {
          "internalType": "uint32",
          "name": "gracePeriodSnapshot",
          "type": "uint32"
        },
        {
          "internalType": "bytes32",
          "name": "tokenId",
          "type": "bytes32"
        },
        {
          "internalType": "uint256",
          "name": "stakeAmount",
          "type": "uint256"
        },
        {
          "internalType": "uint256",
          "name": "duration",
          "type": "uint256"
        },
        {
          "internalType": "uint256",
          "name": "startTime",
          "type": "uint256"
        }
      ],
      "stateMutability": "view",
      "type": "function"
    },
    {
      "inputs": [],
      "name": "charityWallet",
      "outputs": [
        {
          "internalType": "address",
          "name": "",
          "type": "address"
        }
      ],
      "stateMutability": "view",
      "type": "function"
    },
    {
      "inputs": [
        {
          "internalType": "string",
          "name": "_symbol",
          "type": "string"
        }
      ],
      "name": "claimPendingWithdrawal",
      "outputs": [],
      "stateMutability": "nonpayable",
      "type": "function"
    },
    {
      "inputs": [
        {
          "internalType": "string",
          "name": "_symbol",
          "type": "string"
        },
        {
          "internalType": "uint256",
          "name": "_stakeAmount",
          "type": "uint256"
        },
        {
          "internalType": "uint256",
          "name": "_durationSeconds",
          "type": "uint256"
        },
        {
          "internalType": "enum TouchGrass.PenaltyType",
          "name": "_penaltyType",
          "type": "uint8"
        },
        {
          "internalType": "uint8",
          "name": "_penaltyPercent",
          "type": "uint8"
        }
      ],
      "name": "createChallenge",
      "outputs": [],
      "stateMutability": "payable",
      "type": "function"
    },
    {
      "inputs": [
        {
          "internalType": "string",
          "name": "_symbol",
          "type": "string"
        }
      ],
      "name": "disableFallbackPrice",
      "outputs": [],
      "stateMutability": "nonpayable",
      "type": "function"
    },
    {
      "inputs": [
        {
          "internalType": "string",
          "name": "_symbol",
          "type": "string"
        },
        {
          "internalType": "uint256",
          "name": "_fallbackPrice",
          "type": "uint256"
        }
      ],
      "name": "enableFallbackPrice",
      "outputs": [],
      "stateMutability": "nonpayable",
      "type": "function"
    },
    {
      "inputs": [],
      "name": "executeOwnershipRenunciation",
      "outputs": [],
      "stateMutability": "nonpayable",
      "type": "function"
    },
    {
      "inputs": [],
      "name": "executeUSDCFeeUpdate",
      "outputs": [],
      "stateMutability": "nonpayable",
      "type": "function"
    },
    {
      "inputs": [
        {
          "internalType": "address",
          "name": "_user",
          "type": "address"
        },
        {
          "internalType": "uint256",
          "name": "_startIndex",
          "type": "uint256"
        },
        {
          "internalType": "uint256",
          "name": "_count",
          "type": "uint256"
        }
      ],
      "name": "getAllPendingWithdrawals",
      "outputs": [
        {
          "internalType": "string[]",
          "name": "symbols",
          "type": "string[]"
        },
        {
          "internalType": "uint256[]",
          "name": "amounts",
          "type": "uint256[]"
        },
        {
          "internalType": "uint256",
          "name": "totalTokens",
          "type": "uint256"
        }
      ],
      "stateMutability": "view",
      "type": "function"
    },
    {
      "inputs": [],
      "name": "getAllSupportedTokens",
      "outputs": [
        {
          "internalType": "string[]",
          "name": "",
          "type": "string[]"
        }
      ],
      "stateMutability": "view",
      "type": "function"
    },
    {
      "inputs": [
        {
          "internalType": "uint256",
          "name": "_startIndex",
          "type": "uint256"
        },
        {
          "internalType": "uint256",
          "name": "_count",
          "type": "uint256"
        }
      ],
      "name": "getAllTokenPricing",
      "outputs": [
        {
          "internalType": "string[]",
          "name": "tokens",
          "type": "string[]"
        },
        {
          "internalType": "uint256[]",
          "name": "prices",
          "type": "uint256[]"
        },
        {
          "internalType": "uint256[]",
          "name": "fees",
          "type": "uint256[]"
        },
        {
          "internalType": "uint256[]",
          "name": "minStakes",
          "type": "uint256[]"
        },
        {
          "internalType": "uint256",
          "name": "totalTokens",
          "type": "uint256"
        }
      ],
      "stateMutability": "view",
      "type": "function"
    },
    {
      "inputs": [
        {
          "internalType": "uint256",
          "name": "_challengeId",
          "type": "uint256"
        }
      ],
      "name": "getChallengeLockedInfo",
      "outputs": [
        {
          "internalType": "address",
          "name": "staker",
          "type": "address"
        },
        {
          "internalType": "bytes32",
          "name": "tokenId",
          "type": "bytes32"
        },
        {
          "internalType": "string",
          "name": "tokenSymbol",
          "type": "string"
        },
        {
          "internalType": "uint256",
          "name": "stakeAmount",
          "type": "uint256"
        },
        {
          "internalType": "bool",
          "name": "isWithdrawn",
          "type": "bool"
        },
        {
          "internalType": "bool",
          "name": "isSuccess",
          "type": "bool"
        },
        {
          "internalType": "uint256",
          "name": "unlockTime",
          "type": "uint256"
        }
      ],
      "stateMutability": "view",
      "type": "function"
    },
    {
      "inputs": [
        {
          "internalType": "string",
          "name": "_symbol",
          "type": "string"
        },
        {
          "internalType": "address",
          "name": "_user",
          "type": "address"
        }
      ],
      "name": "getPendingWithdrawal",
      "outputs": [
        {
          "internalType": "uint256",
          "name": "amount",
          "type": "uint256"
        }
      ],
      "stateMutability": "view",
      "type": "function"
    },
    {
      "inputs": [],
      "name": "getRecoverableETH",
      "outputs": [
        {
          "internalType": "uint256",
          "name": "recoverableAmount",
          "type": "uint256"
        }
      ],
      "stateMutability": "view",
      "type": "function"
    },
    {
      "inputs": [
        {
          "internalType": "address",
          "name": "_tokenAddress",
          "type": "address"
        }
      ],
      "name": "getRecoverableTokensByAddress",
      "outputs": [
        {
          "internalType": "uint256",
          "name": "recoverableAmount",
          "type": "uint256"
        },
        {
          "internalType": "bool",
          "name": "isSupported",
          "type": "bool"
        },
        {
          "internalType": "uint256",
          "name": "lockedAmount",
          "type": "uint256"
        },
        {
          "internalType": "uint256",
          "name": "pendingAmount",
          "type": "uint256"
        }
      ],
      "stateMutability": "view",
      "type": "function"
    },
    {
      "inputs": [
        {
          "internalType": "string",
          "name": "_symbol",
          "type": "string"
        }
      ],
      "name": "getRecoverableTokensBySymbol",
      "outputs": [
        {
          "internalType": "uint256",
          "name": "recoverableAmount",
          "type": "uint256"
        }
      ],
      "stateMutability": "view",
      "type": "function"
    },
    {
      "inputs": [
        {
          "internalType": "string",
          "name": "_symbol",
          "type": "string"
        }
      ],
      "name": "getTokenPrice",
      "outputs": [
        {
          "internalType": "uint256",
          "name": "price",
          "type": "uint256"
        }
      ],
      "stateMutability": "view",
      "type": "function"
    },
    {
      "inputs": [
        {
          "internalType": "string",
          "name": "_symbol",
          "type": "string"
        }
      ],
      "name": "getTotalPendingWithdrawals",
      "outputs": [
        {
          "internalType": "uint256",
          "name": "total",
          "type": "uint256"
        }
      ],
      "stateMutability": "view",
      "type": "function"
    },
    {
      "inputs": [],
      "name": "owner",
      "outputs": [
        {
          "internalType": "address",
          "name": "",
          "type": "address"
        }
      ],
      "stateMutability": "view",
      "type": "function"
    },
    {
      "inputs": [],
      "name": "ownershipRenunciationInitiated",
      "outputs": [
        {
          "internalType": "bool",
          "name": "",
          "type": "bool"
        }
      ],
      "stateMutability": "view",
      "type": "function"
    },
    {
      "inputs": [],
      "name": "ownershipRenunciationInitiatedAt",
      "outputs": [
        {
          "internalType": "uint256",
          "name": "",
          "type": "uint256"
        }
      ],
      "stateMutability": "view",
      "type": "function"
    },
    {
      "inputs": [],
      "name": "ownershipTransferInitiatedAt",
      "outputs": [
        {
          "internalType": "uint256",
          "name": "",
          "type": "uint256"
        }
      ],
      "stateMutability": "view",
      "type": "function"
    },
    {
      "inputs": [],
      "name": "pause",
      "outputs": [],
      "stateMutability": "nonpayable",
      "type": "function"
    },
    {
      "inputs": [],
      "name": "paused",
      "outputs": [
        {
          "internalType": "bool",
          "name": "",
          "type": "bool"
        }
      ],
      "stateMutability": "view",
      "type": "function"
    },
    {
      "inputs": [],
      "name": "pendingOwner",
      "outputs": [
        {
          "internalType": "address",
          "name": "",
          "type": "address"
        }
      ],
      "stateMutability": "view",
      "type": "function"
    },
    {
      "inputs": [],
      "name": "pendingUSDCFeeUpdate",
      "outputs": [
        {
          "internalType": "uint256",
          "name": "newFee",
          "type": "uint256"
        },
        {
          "internalType": "uint256",
          "name": "effectiveTime",
          "type": "uint256"
        },
        {
          "internalType": "bool",
          "name": "isPending",
          "type": "bool"
        }
      ],
      "stateMutability": "view",
      "type": "function"
    },
    {
      "inputs": [
        {
          "internalType": "bytes32",
          "name": "",
          "type": "bytes32"
        },
        {
          "internalType": "address",
          "name": "",
          "type": "address"
        }
      ],
      "name": "pendingWithdrawals",
      "outputs": [
        {
          "internalType": "uint256",
          "name": "",
          "type": "uint256"
        }
      ],
      "stateMutability": "view",
      "type": "function"
    },
    {
      "inputs": [
        {
          "internalType": "address",
          "name": "_tokenAddress",
          "type": "address"
        },
        {
          "internalType": "address",
          "name": "_to",
          "type": "address"
        }
      ],
      "name": "recoverERC20ByAddress",
      "outputs": [],
      "stateMutability": "nonpayable",
      "type": "function"
    },
    {
      "inputs": [
        {
          "internalType": "string",
          "name": "_symbol",
          "type": "string"
        },
        {
          "internalType": "address",
          "name": "_to",
          "type": "address"
        }
      ],
      "name": "recoverERC20BySymbol",
      "outputs": [],
      "stateMutability": "nonpayable",
      "type": "function"
    },
    {
      "inputs": [
        {
          "internalType": "address payable",
          "name": "_to",
          "type": "address"
        }
      ],
      "name": "recoverETH",
      "outputs": [],
      "stateMutability": "nonpayable",
      "type": "function"
    },
    {
      "inputs": [
        {
          "internalType": "address",
          "name": "_multiSig",
          "type": "address"
        }
      ],
      "name": "removeMultiSigWhitelist",
      "outputs": [],
      "stateMutability": "nonpayable",
      "type": "function"
    },
    {
      "inputs": [
        {
          "internalType": "string",
          "name": "_symbol",
          "type": "string"
        }
      ],
      "name": "removeToken",
      "outputs": [],
      "stateMutability": "nonpayable",
      "type": "function"
    },
    {
      "inputs": [],
      "name": "renounceOwnership",
      "outputs": [],
      "stateMutability": "nonpayable",
      "type": "function"
    },
    {
      "inputs": [],
      "name": "renunciationTimeRemaining",
      "outputs": [
        {
          "internalType": "uint256",
          "name": "",
          "type": "uint256"
        }
      ],
      "stateMutability": "view",
      "type": "function"
    },
    {
      "inputs": [
        {
          "internalType": "uint256",
          "name": "_newUSDCFee",
          "type": "uint256"
        }
      ],
      "name": "scheduleUSDCFeeUpdate",
      "outputs": [],
      "stateMutability": "nonpayable",
      "type": "function"
    },
    {
      "inputs": [
        {
          "internalType": "address",
          "name": "_newCharity",
          "type": "address"
        }
      ],
      "name": "setCharityWallet",
      "outputs": [],
      "stateMutability": "nonpayable",
      "type": "function"
    },
    {
      "inputs": [
        {
          "internalType": "uint256",
          "name": "_newGracePeriod",
          "type": "uint256"
        }
      ],
      "name": "setGracePeriod",
      "outputs": [],
      "stateMutability": "nonpayable",
      "type": "function"
    },
    {
      "inputs": [
        {
          "internalType": "uint256",
          "name": "_newLockMultiplier",
          "type": "uint256"
        }
      ],
      "name": "setLockMultiplier",
      "outputs": [],
      "stateMutability": "nonpayable",
      "type": "function"
    },
    {
      "inputs": [
        {
          "internalType": "uint8",
          "name": "_newMinPenaltyPercentage",
          "type": "uint8"
        }
      ],
      "name": "setMinPenaltyPercentage",
      "outputs": [],
      "stateMutability": "nonpayable",
      "type": "function"
    },
    {
      "inputs": [
        {
          "internalType": "address",
          "name": "_newTreasury",
          "type": "address"
        }
      ],
      "name": "setTreasuryWallet",
      "outputs": [],
      "stateMutability": "nonpayable",
      "type": "function"
    },
    {
      "inputs": [
        {
          "internalType": "uint256",
          "name": "_newMinStake",
          "type": "uint256"
        }
      ],
      "name": "setUSDCMinStake",
      "outputs": [],
      "stateMutability": "nonpayable",
      "type": "function"
    },
    {
      "inputs": [
        {
          "internalType": "address",
          "name": "_newVerifier",
          "type": "address"
        }
      ],
      "name": "setVerifier",
      "outputs": [],
      "stateMutability": "nonpayable",
      "type": "function"
    },
    {
      "inputs": [
        {
          "internalType": "uint256",
          "name": "",
          "type": "uint256"
        }
      ],
      "name": "supportedTokenIds",
      "outputs": [
        {
          "internalType": "bytes32",
          "name": "",
          "type": "bytes32"
        }
      ],
      "stateMutability": "view",
      "type": "function"
    },
    {
      "inputs": [
        {
          "internalType": "uint256",
          "name": "_id",
          "type": "uint256"
        }
      ],
      "name": "sweepPenalty",
      "outputs": [],
      "stateMutability": "nonpayable",
      "type": "function"
    },
    {
      "inputs": [
        {
          "internalType": "bytes32",
          "name": "",
          "type": "bytes32"
        }
      ],
      "name": "tokenConfigs",
      "outputs": [
        {
          "internalType": "bool",
          "name": "isSupported",
          "type": "bool"
        },
        {
          "internalType": "address",
          "name": "tokenAddress",
          "type": "address"
        },
        {
          "internalType": "address",
          "name": "priceFeed",
          "type": "address"
        },
        {
          "internalType": "uint8",
          "name": "decimals",
          "type": "uint8"
        },
        {
          "internalType": "uint256",
          "name": "priceStalenessTolerance",
          "type": "uint256"
        },
        {
          "internalType": "bool",
          "name": "useFallbackPrice",
          "type": "bool"
        },
        {
          "internalType": "uint256",
          "name": "fallbackPrice",
          "type": "uint256"
        }
      ],
      "stateMutability": "view",
      "type": "function"
    },
    {
      "inputs": [
        {
          "internalType": "bytes32",
          "name": "",
          "type": "bytes32"
        }
      ],
      "name": "tokenSymbols",
      "outputs": [
        {
          "internalType": "string",
          "name": "",
          "type": "string"
        }
      ],
      "stateMutability": "view",
      "type": "function"
    },
    {
      "inputs": [
        {
          "internalType": "bytes32",
          "name": "",
          "type": "bytes32"
        }
      ],
      "name": "totalLockedByToken",
      "outputs": [
        {
          "internalType": "uint256",
          "name": "",
          "type": "uint256"
        }
      ],
      "stateMutability": "view",
      "type": "function"
    },
    {
      "inputs": [
        {
          "internalType": "bytes32",
          "name": "",
          "type": "bytes32"
        }
      ],
      "name": "totalPendingWithdrawals",
      "outputs": [
        {
          "internalType": "uint256",
          "name": "",
          "type": "uint256"
        }
      ],
      "stateMutability": "view",
      "type": "function"
    },
    {
      "inputs": [
        {
          "internalType": "address",
          "name": "newOwner",
          "type": "address"
        }
      ],
      "name": "transferOwnership",
      "outputs": [],
      "stateMutability": "nonpayable",
      "type": "function"
    },
    {
      "inputs": [],
      "name": "treasuryWallet",
      "outputs": [
        {
          "internalType": "address",
          "name": "",
          "type": "address"
        }
      ],
      "stateMutability": "view",
      "type": "function"
    },
    {
      "inputs": [
        {
          "internalType": "address",
          "name": "",
          "type": "address"
        }
      ],
      "name": "trustedMultiSigs",
      "outputs": [
        {
          "internalType": "bool",
          "name": "",
          "type": "bool"
        }
      ],
      "stateMutability": "view",
      "type": "function"
    },
    {
      "inputs": [
        {
          "internalType": "address",
          "name": "",
          "type": "address"
        }
      ],
      "name": "trustedRecipients",
      "outputs": [
        {
          "internalType": "bool",
          "name": "",
          "type": "bool"
        }
      ],
      "stateMutability": "view",
      "type": "function"
    },
    {
      "inputs": [],
      "name": "unpause",
      "outputs": [],
      "stateMutability": "nonpayable",
      "type": "function"
    },
    {
      "inputs": [
        {
          "internalType": "uint256",
          "name": "_newMinDuration",
          "type": "uint256"
        },
        {
          "internalType": "uint256",
          "name": "_newMaxDuration",
          "type": "uint256"
        }
      ],
      "name": "updateDurationBounds",
      "outputs": [],
      "stateMutability": "nonpayable",
      "type": "function"
    },
    {
      "inputs": [
        {
          "internalType": "string",
          "name": "_symbol",
          "type": "string"
        },
        {
          "internalType": "address",
          "name": "_newPriceFeed",
          "type": "address"
        }
      ],
      "name": "updatePriceFeed",
      "outputs": [],
      "stateMutability": "nonpayable",
      "type": "function"
    },
    {
      "inputs": [],
      "name": "usdcFee",
      "outputs": [
        {
          "internalType": "uint256",
          "name": "",
          "type": "uint256"
        }
      ],
      "stateMutability": "view",
      "type": "function"
    },
    {
      "inputs": [],
      "name": "usdcMinStake",
      "outputs": [
        {
          "internalType": "uint256",
          "name": "",
          "type": "uint256"
        }
      ],
      "stateMutability": "view",
      "type": "function"
    },
    {
      "inputs": [],
      "name": "verifier",
      "outputs": [
        {
          "internalType": "address",
          "name": "",
          "type": "address"
        }
      ],
      "stateMutability": "view",
      "type": "function"
    },
    {
      "inputs": [
        {
          "internalType": "string",
          "name": "_symbol",
          "type": "string"
        }
      ],
      "name": "verifyFundAccounting",
      "outputs": [
        {
          "internalType": "bool",
          "name": "isBalanced",
          "type": "bool"
        },
        {
          "internalType": "uint256",
          "name": "discrepancy",
          "type": "uint256"
        }
      ],
      "stateMutability": "view",
      "type": "function"
    },
    {
      "inputs": [
        {
          "internalType": "uint256",
          "name": "_id",
          "type": "uint256"
        }
      ],
      "name": "verifySuccess",
      "outputs": [],
      "stateMutability": "nonpayable",
      "type": "function"
    },
    {
      "inputs": [
        {
          "internalType": "address",
          "name": "_multiSig",
          "type": "address"
        }
      ],
      "name": "whitelistMultiSig",
      "outputs": [],
      "stateMutability": "nonpayable",
      "type": "function"
    },
    {
      "inputs": [
        {
          "internalType": "uint256",
          "name": "_id",
          "type": "uint256"
        },
        {
          "internalType": "uint256",
          "name": "_donationPercent",
          "type": "uint256"
        },
        {
          "internalType": "enum TouchGrass.PenaltyType",
          "name": "_donationTarget",
          "type": "uint8"
        }
      ],
      "name": "withdraw",
      "outputs": [],
      "stateMutability": "nonpayable",
      "type": "function"
    }
  ],
  "bytecode": "0x6080346200021357601f62005c5938819003918201601f1916830191906001600160401b0383118484101762000218578160a09285926040958652833981010312620002135762000050826200022e565b6200005e602084016200022e565b906200006c8385016200022e565b936080606082015191015191600090600182553315620001fb57600280546001600160a01b0319908116909155600180543381841681179092558851929992976001600160a01b03949092859283167f8be0079c531659141344cd1fd0a4f28419497f9722a3daafe3b4186f6b6457e08880a3169687158015620001f0575b8015620001e5575b620001d657508216958681148015620001ca575b8015620001be575b620001ad573381146200019c57918891889993601499959460095416176009558783600a541617600a55168091600b541617600b55815260086020528181209460ff1995600187825416179055815220600184825416179055600c55600d55603c6011556301e1338060125562093a8060135560058255601554161760155551615a159081620002448239f35b875163f914ac3360e01b8152600490fd5b875163898cf5bd60e01b8152600490fd5b5082821687146200010f565b50828216811462000107565b63e6c4247b60e01b8152600490fd5b5083831615620000f3565b5083821615620000eb565b8551631e4fbdf760e01b815260048101839052602490fd5b600080fd5b634e487b7160e01b600052604160045260246000fd5b51906001600160a01b0382168203620002135756fe60c0604052600436101561001257600080fd5b60003560e01c80630107e47214613be35780630932a21414613b435780630b1001b414613a1a57806312095891146139da578063134dfcd8146138ba578063136f5cdd1461389c57806314926f971461387b57806315c109cc1461385e57806316b926461461384057806317f0088d146135695780631ad6534a1461354b5780631eddfecb1461352c5780631f4559221461335a57806323452b9c1461328c57806329293774146132705780632b7ac3f3146132475780632d63109f14612d7557806330563bd714612c9a5780633080f54014612c3f578063356c669314612c0b57806336227c6914612bd05780633f4ba83a14612b5e5780634626402b14612b355780634661964914612b175780634c53969014612adc5780634d7e1c7514612abe5780634e5e0e8014612a8757806352581af514612a6b5780635350758f14612a305780635437988d14612992578063586213a81461297457806359682444146128e65780635c975abb146128c05780635dbf6637146128a457806363a9f22d1461285257806363b95fe6146127f857806366f78e761461278c5780636f8225c81461276e578063715018a6146126eb57806372e20d30146126a65780637433ae7a1461268857806379ba5097146125cc5780637b167493146125825780637b208769146125595780637ccf7c071461253e5780637fe3ca36146124d55780638456cb5914612473578063889952aa146124385780638ad16bbf146123ef5780638b3e2afb146123cc5780638da5cb5b146123a35780638f1d3776146122e4578063926946d11461223457806394b7c5921461214e5780639a2830f71461201a5780639c25447914611fe5578063a018e5a014611fa6578063a2f0572514611f88578063a49641e614611f49578063a8602fea14611e5c578063b0b9151714611e40578063b1724b4614611e22578063b2bbf64714611a7d578063b6a6d17714611a5f578063be44d38d14611a17578063c1a287e2146119f9578063c24b58a4146119cd578063c5b07ffa1461178a578063d09676a914611675578063d1ce999d14611632578063d4a06c8f14611614578063d9bd722a14611594578063dc62d61414611557578063df4b8b0614611534578063e30c397814611507578063e350115614611496578063e738b2b5146113f4578063eb6d420b14611341578063ec05386b14611246578063eea2d7dc14611194578063efbcd303146110c3578063f0a9ac19146110a5578063f2e5f3c114611047578063f2f6596014610f8e578063f2fde38b14610e6e578063f56bca4b14610c94578063f6a0edb114610c2e578063f9fca4cf14610c12578063fac97c1b14610bb1578063faf74ece14610b85578063fc12134b146105ce5763ffa1cc251461041057600080fd5b346105c95760203660031901126105c957600435600052601d602052604060002060405161043d81613e11565b81546001600160a01b03808216835260ff60a083901c811660208501529192604081019061047160a886901c851683614169565b60608101848660b01c16151581526080820191858760b81c161515835263ffffffff60a0820197878160c01c16895260c81c1660c08201526001880154978860e083015260028101549561010083019687526004600383015492610120850193845201549261014081019384525116978960005260186020526104f76040600020613e86565b96519785511515958551151597519560048710156105b3576002610571971491826105a9575b508161059f575b501561058a579161054261054c9261055195948351915116906141a1565b9251905190614054565b614054565b935b6040519788978852602088015260e0604088015260e0870190613c6a565b936060860152608085015260a084015260c08301520390f35b50506105999151905190614054565b93610553565b9050511538610524565b511591503861051d565b634e487b7160e01b600052602160045260246000fd5b600080fd5b60a03660031901126105c9576001600160401b036004358181116105c9576105fa903690600401613d06565b90600460643510156105c9576084359160ff831683036105c95761061c614010565b610624613fef565b8015610b73576040519360a0850190811185821017610b5d576040526000845260208401916000835260408501906000825260608601926000845260808701916000835260405160208101906020825261069481610686604082018787614033565b03601f198101835282613e63565b5190208089526000526016602052604060002090604051906106b582613ddb565b82549160ff8316159081158152602081019360018060a01b039060081c16845260c0600460018701549660018060a01b038816604085015260ff606085019860a01c1688526002810154608085015260ff600382015416151560a08501520154910152610b4b57838161072d60ff9661073494614a69565b8a52614b30565b8552516001600160a01b031685525116905260243515610b39575160243510610b275760036064351480610b1a575b610b0857601154604435108015610afb575b610ae957606460ff841611610ad75760ff6015541660ff841610610ac55780516001600160a01b0316610a5957506107b08151602435614054565b90813410610a47575180610a0a575b50803411610983575b508151600052601c60205260406000206107e56024358254614054565b90555b60135463ffffffff81116109715760ff60145416925160ff6040519361080d85613e11565b33855216602084015261082560643560408501614169565b6000606084015260808301906000825260a0840194855263ffffffff60c085019316835260e0840190815261010084019060243582526101208501926044358452610140860194428652601e54600052601d60205260406000209760018060a01b0388511660018060a01b03198a54161789556108a960ff60208a0151168a614175565b60408801519260048410156105b3576004988a5490606060ff60b01b910151151560b01b169160ff60b81b9051151560b81b169260ff60c01b905160c01b169363ffffffff60c81b905160c81b169460ff60a81b9060a81b1690600160a81b600160e81b0319161717171717865551600186015551600285015551600384015551910155610967601e546040516024358152817f4392aedf3bdc85e85ccf5c599cb7976a5b4f7b7189118379628127df3f40b10460203393a3614192565b601e556001600055005b60405163c516778760e01b8152600490fd5b61098d90346140ac565b600080808084335af161099e61407c565b506107c8578251600052601a60205260406000203360005260205260406000206109c9828254614054565b90558251600052601b60205260406000206109e5828254614054565b90558251906040519081526000805160206158a083398151915260203392a3826107c8565b600b546000918291829182916001600160a01b03165af1610a2961407c565b5015610a3557836107bf565b604051634033e4e360e01b8152600490fd5b60405163500d4efb60e11b8152600490fd5b9034610ab3579051600b549151610a90926001600160a01b0392831692610a8392911633846140b9565b60243590309033906140b9565b8151600052601c6020526040600020610aac6024358254614054565b90556107e8565b60405163078d696560e31b8152600490fd5b60405163895cc90360e01b8152600490fd5b604051630a1dcded60e31b8152600490fd5b604051637616640160e01b8152600490fd5b5060125460443511610775565b6040516307e07b3160e21b8152600490fd5b50606460ff841610610763565b60405163de588d7360e01b8152600490fd5b604051634eba4d4960e11b8152600490fd5b604051633dd1b30560e01b8152600490fd5b634e487b7160e01b600052604160045260246000fd5b60405163b4fa3fb360e01b8152600490fd5b346105c95760203660031901126105c957600435600052601b6020526020604060002054604051908152f35b346105c957610686610be3610bc536613d5f565b93916040939193519283916020830195602087526040840191614033565b519020600052601a60205260406000209060018060a01b03166000526020526020604060002054604051908152f35b346105c95760003660031901126105c957602060405160038152f35b346105c95760203660031901126105c957610c47613d49565b610c4f61470a565b6001600160a01b03166000818152600560205260408120805460ff191690557f88d7b4e47baac0d3da32ec23b674f5a638d583d1d651a4cecceb2fbaf123844f9080a2005b346105c9576020806003193601126105c9576004356001600160401b0381116105c957610686610ccb610cec923690600401613d06565b9290610cd5614010565b604051928391868301958787526040840191614033565b5190209081600052601a81526040600020336000528152604060002054908115610e5c5782600052601a815260406000203360005281526000604081205582600052601b81526040600020610d428382546140ac565b90558260005260168152816040600020604051610d5e81613ddb565b60c0600483549360ff85161515845260ff60018060a01b03809660081c169586898701526001830154908116604087015260a01c1660608501526002810154608085015260ff600382015416151560a085015201549101528015600014610e3b5750600080808093335af1610dd161407c565b5015610df857600080516020615940833981519152905b6040519283523392a36001600055005b601b9083610e2894600052601a825260406000203360005282528360406000205560005252604060002054614054565b50604051630ae6942360e01b8152600490fd5b6000805160206159408339815191529291610e579133906144ea565b610de8565b604051639121b84f60e01b8152600490fd5b346105c95760203660031901126105c957610e87613d49565b610e8f61470a565b60ff60065416610f7c576001600160a01b0381811691908215610f6a576001541690818314610f58573b151580610f3f575b610f2d57600480546001600160a01b031916831790554260038190556202a3008101908110610f175760207f2cf6fd9b9ab77c245c3a6f994fcdd0dcad5082c5c03c2121ba304c2741a16d1d91604051908152a3005b634e487b7160e01b600052601160045260246000fd5b604051630e927f5760e21b8152600490fd5b5081600052600560205260ff6040600020541615610ec1565b60405163622c96bd60e11b8152600490fd5b604051633a954ecd60e21b8152600490fd5b60405163347c4ee760e01b8152600490fd5b346105c95760203660031901126105c957600435610faa61470a565b6201518080820290828204811483151715610f175781106110355762278d0081116110235763ffffffff8111610971576303c2670081810110611011576013557f33d1191f5a3abfe19d468d51bb5ece97489f1277a912a5b5c65992fc279ad3d4600080a2005b60405163c139a61160e01b8152600490fd5b6040516370272fbb60e11b8152600490fd5b6040516363e53bfd60e01b8152600490fd5b346105c95760603660031901126105c95761108d61109b611076611069613d49565b60443590602435906145cb565b919290604051948594606086526060860190613caa565b908482036020860152613fbb565b9060408301520390f35b346105c95760003660031901126105c9576020604051620186a08152f35b346105c95760003660031901126105c9576110dc61470a565b60065460ff8116156111825760075462093a808101809111610f17574210611170576001805460ff1990921660065560006007819055600280546001600160a01b031990811690915583169091556001600160a01b0390911690816000805160206159608339815191528280a37ff8df31144d9c2f0f6b59d69b8b98abd5459d07f2742c4df920b25aae33c64820600080a2005b604051635d94febb60e11b8152600490fd5b60405163341c92ef60e11b8152600490fd5b346105c95760003660031901126105c9576040516111b181613df6565b600e548152600f546020820190815260ff601054161580156040840152611234575142106112225760407f3e08cba9222b31bb7aac09f5dacaa0671e5c98fafd018a103e62aa35cc58714d91600c54905180600c556000600e556000600f55600060105582519182526020820152a1005b60405163813b023960e01b8152600490fd5b6040516319b2c6ef60e31b8152600490fd5b346105c95760203660031901126105c957600435611262614010565b6009546001600160a01b031633036113305780600052601d6020526040600020805460ff8160b01c1661131e5760ff8160b81c1661130c576112ad6004830154600384015490614054565b6103848101809111610f175742116112fa5760ff60b01b1916600160b01b1790557f385ed28f1b8a63ba23626539ad487fed2882db462aa0abffca4fb5f39f6a4688600080a26001600055005b604051632ddeb06560e01b8152600490fd5b6040516374df98bf60e01b8152600490fd5b604051630e26cfd960e01b8152600490fd5b6040516282b42960e81b8152600490fd5b346105c95760203660031901126105c9576004356001600160401b0381116105c95761068661137761139a923690600401613d06565b929061138161470a565b6040519283916020830195602087526040840191614033565b51902080600052601660205260ff6040600020541615610b4b57806000526016602052600360406000200160ff1981541690557f166ba91f2568f3b5f401c2d9e34cb29e8422613701d6024bbe60e627fa780b5c600080a2005b346105c95761068661141561140836613f5d565b939161138193919361470a565b5190209081600052601660205260ff6040600020541615610b4b5780156114845760207f8df6f90013e411f77a3760042c965962ef41e51850de75bbbeb0129b5311b017918360005260168252806004604060002060038101600160ff198254161790550155604051908152a2005b60405163f45e167b60e01b8152600490fd5b346105c9576114d36114e16114ef6114fd6114b96114b336613fa5565b90614be7565b95926040979194975198899860a08a5260a08a0190613caa565b9088820360208a0152613fbb565b908682036040880152613fbb565b908482036060860152613fbb565b9060808301520390f35b346105c95760003660031901126105c957602061152261578f565b6040516001600160a01b039091168152f35b346105c95760003660031901126105c957602060ff600654166040519015158152f35b346105c95760203660031901126105c957608061157a611575613d49565b6151c9565b916040519384521515602084015260408301526060820152f35b346105c95760203660031901126105c957600435600052601660205260e06040600020805490600181015490600281015460ff60048160038501541693015493604051958281161515875260018060a01b03809160081c1660208801528116604087015260a01c1660608501526080840152151560a083015260c0820152f35b346105c95760003660031901126105c9576020604051620151808152f35b346105c95760003660031901126105c95760ff600654168061165c575b6020906040519015158152f35b5060075462093a808101809111610f175742101561164f565b346105c95760203660031901126105c95760043561169161470a565b801561177857620186a0811061176657600c5480158015611729575b5081111561171157620151804201804211610f1757600080516020615860833981519152916040915b60018380516116e481613df6565b848152836020820152015281600e5580600f55600160ff19601054161760105582519182526020820152a1005b604060008051602061586083398151915291426116d6565b6101f49081830291838304141715610f17576064611748910482614054565b821161175457826116ad565b60405163464f806b60e01b8152600490fd5b604051636bf9536360e01b8152600490fd5b604051631d015f9d60e11b8152600490fd5b346105c95760403660031901126105c9576117a3613d49565b6117ab613d33565b6117b361470a565b6117bb614010565b6001600160a01b0382811680156119bb578183169384156119bb576000916040516117e581613e48565b6000815293600090601754915b828110611901575b505083159050611816575061180f9450614ee6565b6001600055005b93925050506040516370a0823160e01b81523060048201526020908181602481875afa9081156118f5576000916118c8575b5080156118b6576040608092611891836000805160206158e083398151915296886000805160206159c0833981519152606087518581526000888201528589820152a2886144ea565b815192835282015260076040820152662aa725a727aba760c91b6060820152a361180f565b604051635e4f582160e11b8152600490fd5b90508181813d83116118ee575b6118df8183613e63565b810103126105c9575185611848565b503d6118d5565b6040513d6000823e3d90fd5b61190a81613f2c565b9054600391821b1c90816000528560209160168352604060002060c060046040519261193584613ddb565b8054948a60ff968781161515875260081c169586898701526001830154918c831660408801528160a093841c166060880152600284015460808801528301541615159085015201549101521461199557505061199090614192565b6117f2565b935095505050601891945083600052526119b26040600020613e86565b928680806117fa565b60405163e6c4247b60e01b8152600490fd5b346105c95760203660031901126105c957600435600052601c6020526020604060002054604051908152f35b346105c95760003660031901126105c9576020601354604051908152f35b346105c95760403660031901126105c957611a30613d33565b600435600052601a60205260406000209060018060a01b03166000526020526020604060002054604051908152f35b346105c95760003660031901126105c9576020601154604051908152f35b346105c95760a03660031901126105c9576004356001600160401b0381116105c957611aad903690600401613d06565b611ab5613d33565b604435929091906001600160a01b03841684036105c9576064359060ff821682036105c957611ae261470a565b604051602081019060208252611b0081610686604082018887614033565b5190209182600052601660205260ff60406000205416611e10576001600160a01b038616156119bb5760843515611dfe57611b3a8661477f565b600460405191611b4983613ddb565b60018352611c2d602084019160018060a01b03891683526040850160018060a01b038b16815260ff6060870192168252611c0f6080870191608435835260ff60a08901946000865260c08a0197600089528c6000526016602052611bc160406000209b5115158c9060ff801983541691151516179055565b518a54610100600160a81b03191660089190911b610100600160a81b0316178a55915160018a0180546001600160a01b0319166001600160a01b039290921691909117815591511690614175565b516002860155511515600385019060ff801983541691151516179055565b51910155601754600160401b811015610b5d57611c6b611c54826001869401601755613f2c565b819391549060031b91821b91600019901b19161790565b90556017546000199590868101908111610f175783600052601f602052604060002055602080526040600020600160ff198254161790556018602052604060002060018060401b038511610b5d57611cc38154613da1565b601f8111611db6575b50600096601f8611600114611d41578560008051602061590083398151915295969798600091611d36575b508760011b918860031b1c19161790555b60405160208082526001600160a01b03928316979092169590928392611d319290840191614033565b0390a4005b905084013589611cf7565b601f198616978260005260206000209160005b8a8110611d9e5750876000805160206159008339815191529798999a10611d86575b505050600186811b019055611d08565b60f88960031b161c1990850135169055878080611d76565b9192602060018192868a013581550194019201611d54565b816000526020600020601f870160051c81019160208810611df4575b601f0160051c01905b818110611de85750611ccc565b60008155600101611ddb565b9091508190611dd2565b6040516303ff3dd760e11b8152600490fd5b60405163c78e82ad60e01b8152600490fd5b346105c95760003660031901126105c9576020601254604051908152f35b346105c95760003660031901126105c9576020604051600f8152f35b346105c95760203660031901126105c957611e75613d49565b611e7d61470a565b6001600160a01b039081169081156119bb5780600a54168214611f375780600954168214611f375780600b5416806000805160206159a0833981519152600080a26000526008602052604060002060ff199081815416905582600080516020615880833981519152600080a282600052600160406000209182541617905581600b549182167fa982575859d7ad2f390dc12b23f7dab8bbda047f9d0140ac68344b27bf34bfb4600080a36001600160a01b03191617600b55005b60405163898cf5bd60e01b8152600490fd5b346105c95760203660031901126105c9576001600160a01b03611f6a613d49565b166000526005602052602060ff604060002054166040519015158152f35b346105c95760003660031901126105c9576020601e54604051908152f35b346105c95760203660031901126105c9576001600160a01b03611fc7613d49565b166000526008602052602060ff604060002054166040519015158152f35b346105c95760003660031901126105c95760ff601054168061200e576020906040519015158152f35b50600f5442101561164f565b346105c95761202836613fa5565b9061203161470a565b603c8102818104603c1482151715610f17576201518090818402918483041484151715610f1757603c811061213c576303c26700821161212a5781811015612118576213c6808402828104600f1483151715610f175782600f8204036121065761209c9042196140ac565b82116120f4576011556012557f049a6934bf12da797a1e19e9f70b578af0fdab9d72c2d4b8d82984a54c9e6400600080a27f5051341ab3f6d56c8295227b7476589d73ae29d5dfaff08dfc01f67f28a8a3e3600080a2005b60405163c869336b60e01b8152600490fd5b60405163e025822360e01b8152600490fd5b604051638b1d8b4b60e01b8152600490fd5b6040516301e61e0760e51b8152600490fd5b6040516336fa738b60e01b8152600490fd5b346105c95761215c36613d5f565b9061216561470a565b61216d614010565b6001600160a01b0392828416156119bb5760405160208101906020825261219c81610686604082018787614033565b51902090816000526016602052604060002090604051916121bc83613ddb565b80549260c0600460ff86161593841584528a602085019760081c16875260ff60018201548c8116604087015260a01c1660608501526002810154608085015260ff600382015416151560a08501520154910152610b4b5785825116156119bb5761180f9561222e925116933691614eaf565b91614ee6565b346105c95760203660031901126105c95760043561225061470a565b600381106122d257600f81116122c0576303c26700818102908061227484846141b4565b036122ae574291420101106122ae57806014557f91a5406c059a34c86623b7bf1eedf868a2c312dca12617c7cb6389a9b9970233600080a2005b604051635f27482360e11b8152600490fd5b6040516309261e9560e41b8152600490fd5b604051631035a3b560e21b8152600490fd5b346105c95760203660031901126105c957600435600052601d602052604060002080549060ff8260a81c1690600181015490600281015460046003830154920154926040519460018060a01b038716865260ff8760a01c16602087015260048110156105b3576101609663ffffffff91604088015260ff8160b01c161515606088015260ff8160b81c161515608088015260ff8160c01c1660a088015260c81c1660c086015260e0850152610100840152610120830152610140820152f35b346105c95760003660031901126105c9576001546040516001600160a01b039091168152602090f35b346105c95760003660031901126105c95760206123e76157b1565b604051908152f35b346105c95760203660031901126105c9576004356001600160401b0381116105c95761242a6124246040923690600401613d06565b9061561a565b825191151582526020820152f35b346105c95760203660031901126105c9576004356001600160401b0381116105c9576123e761246d6020923690600401613d06565b9061507b565b346105c95760003660031901126105c95761248c61470a565b612494613fef565b6002805460ff60a01b1916600160a01b1790556040513381527f62e78cea01bee320cd4e420270b5ea74000d11b0c9f74754ebdbfc544b05a25890602090a1005b346105c95760203660031901126105c9576124ee613d49565b6124f661470a565b6001600160a01b03166000818152600560205260408120805460ff191660011790557f28b124bc885018cb01dc65331df0a825c10382ea21eabc26502af36ed436d8f39080a2005b346105c95760003660031901126105c95760206123e7615028565b346105c95760003660031901126105c957600a546040516001600160a01b039091168152602090f35b346105c95760003660031901126105c9576004546001600160a01b03161515806125b3576020906040519015158152f35b506003546202a3008101809111610f175742101561164f565b346105c95760003660031901126105c9576001600160a01b0333816125ef61578f565b1614158061267a575b612668576003546202a3008101809111610f175742106126565760018060a01b0319908160025416600255600154903383831617600155339116600080516020615960833981519152600080a3600454166004556000600355600080f35b604051635999a10560e11b8152600490fd5b6040516303c25d1960e61b8152600490fd5b5033816004541614156125f8565b346105c95760003660031901126105c95760206040516202a3008152f35b346105c9576126da6126e76126ba36613f5d565b92916126d46126cc8383979497614a69565b958692614b30565b93614054565b9160405193849384613f8f565b0390f35b346105c95760003660031901126105c95761270461470a565b6004546001600160a01b03908116610f7c5760065460ff8116610f7c5760019060ff191617600655426007556001541662093a804201804211610f175760207fe25d30c0102dba87353d8ca0316de41b0a0e8dd7c3867da42d3b93929702ae1091604051908152a2005b346105c95760003660031901126105c9576020600754604051908152f35b346105c95760203660031901126105c9576004356001600160401b0381116105c9576106866127c26127dd923690600401613d06565b92906040519283916020830195602087526040840191614033565b519020600052601b6020526020604060002054604051908152f35b346105c95760003660031901126105c95761281161470a565b60ff6010541615611234576000600e556000600f5560006010557ff01a470041f696cf98054d8f318e3313eaa908f515b9c966d66bdd700ebeb9de600080a1005b346105c95760003660031901126105c95761286b61470a565b60065460ff8116156111825760018060a01b03600154169060ff191660065560006007556000805160206158c0833981519152600080a2005b346105c95760003660031901126105c9576020604051603c8152f35b346105c95760003660031901126105c957602060ff60025460a01c166040519015158152f35b346105c95760203660031901126105c95760043560ff81168091036105c95761290d61470a565b600581106129625760328111612950578060ff1960155416176015557fa0544df958eb64342ece2dbbaf5f7e3215c6b1cbad9ee36b2ad9375df23e0467600080a2005b60405163015599d760e51b8152600490fd5b60405163357b60db60e21b8152600490fd5b346105c95760003660031901126105c957602060405162093a808152f35b346105c95760203660031901126105c9576129ab613d49565b6129b361470a565b6001600160a01b039081169081156119bb57338214612a1e5780600a54168214611f375780600b54168214611f3757816009549182167f0243549a92b2412f7a3caf7a2e56d65b8821b91345363faa5f57195384065fcc600080a36001600160a01b03191617600955005b60405163f914ac3360e01b8152600490fd5b346105c95760203660031901126105c9576004356001600160401b0381116105c9576123e7612a656020923690600401613d06565b90614836565b346105c95760003660031901126105c957602060405160058152f35b346105c95760203660031901126105c9576004356017548110156105c957612ab0602091613f2c565b90546040519160031b1c8152f35b346105c95760003660031901126105c9576020600d54604051908152f35b346105c95760203660031901126105c9576004356001600160401b0381116105c9576123e7612b116020923690600401613d06565b90614a69565b346105c95760003660031901126105c957602060405162278d008152f35b346105c95760003660031901126105c957600b546040516001600160a01b039091168152602090f35b346105c95760003660031901126105c957612b7761470a565b60025460ff8160a01c1615612bbe5760ff60a01b19166002556040513381527f5db9ee0a495bf2e6ff9c91a7834c1ba4fdd244a5e8aa4e537bd38aeae4b073aa90602090a1005b604051638dfc202b60e01b8152600490fd5b346105c95760203660031901126105c9576004356001600160401b0381116105c9576123e7612c056020923690600401613d06565b90614b30565b346105c95760003660031901126105c9576060600e54600f5460ff6010541690604051928352602083015215156040820152f35b346105c95760203660031901126105c957600435612c5b61470a565b8015611dfe5760407f3fac1af836e5e5cb34b3c3efbec585ce813fe5c16ed53a4ec34a8bbe31f8680d91600d549080600d5582519182526020820152a1005b346105c95760203660031901126105c957612cb3613d49565b612cbb61470a565b6001600160a01b039081169081156119bb5780600b54168214611f375780600954168214611f375780600a5416806000805160206159a0833981519152600080a26000526008602052604060002060ff199081815416905582600080516020615880833981519152600080a282600052600160406000209182541617905581600a549182167fc20073d1c4443096c55d22a3812db7261aa6911634e1a0850f068d0c9923402d600080a36001600160a01b03191617600a55005b346105c95760403660031901126105c9576004356001600160401b038082116105c957366023830112156105c9578160040135116105c95760248101366024836004013560051b840101116105c957612dcc613d33565b612dd461470a565b612ddc614010565b6001600160a01b038116156119bb57612df88360040135614524565b92612e066040519485613e63565b6004810135808552601f19908190612e1d90614524565b0160005b81811061323057505060009360005b83600401358110612edd578686156118b657600180600055604051906020808301818452845180915260408401918060408360051b8701019601926000905b838210612e7c5786880387f35b90919293948380612ecc839a603f198b82030186528951612ea581516080808552840190613c6a565b91848201511515858201526040820151604082015260608092015191818403910152613c6a565b999701959493919091019101612e6f565b612eec8185600401358461537e565b604051612f1681612f0a602095868301958787526040840191614033565b03878101835282613e63565b519020806000526016825286604060002060ff60405191612f3683613ddb565b60048154918383161515855260018060a01b038360081c168886015283600182015460018060a01b0381166040880152606060805260a01c166060860152600281015460808601528360038060a05282015416151560a0860152015460c084015216156131d457808401516001600160a01b031680151590816131ca575b5061315e57808401516001600160a01b0316613128575050612fd4615348565b90604051612fe181613e2d565b60a05181526208aa8960eb1b8482015282524790600052601c8352613015604060002054601b855260406000205490614054565b808211156130f157613026916140ac565b6000808080848c5af161303761407c565b50156130ba576001828401526040808301829052519081526001600160a01b03881690600080516020615980833981519152908490a25b613078838a6145b7565b5261308382896145b7565b505b61308f82896145b7565b5101516130a5575b6130a090614192565b612e30565b946130b26130a091614192565b959050613097565b506040516130c781613e2d565b6013815272115512081d1c985b9cd9995c8819985a5b1959606a1b8382015260805182015261306e565b50506040516130ff81613e2d565b601281527109cde40e4cac6deeccae4c2c4d8ca408aa8960731b8382015260805182015261306e565b6131439261313b868a600401358961537e565b9290916153bf565b61314d838a6145b7565b5261315882896145b7565b50613085565b505050906130a09161318d6131788388600401358761537e565b9190613184858d6145b7565b51923691614eaf565b905260805161319c838b6145b7565b51016d139bdd08184818dbdb9d1c9858dd60921b604051926131bd84613e2d565b600e845283015252614192565b90503b158c612fb4565b505050906130a0916131ee6131788388600401358761537e565b90526080516131fd838b6145b7565b510172151bdad95b881b9bdd081cdd5c1c1bdc9d1959606a1b6040519261322384613e2d565b6013845283015252614192565b60209061323b615348565b82828a01015201612e21565b346105c95760003660031901126105c9576009546040516001600160a01b039091168152602090f35b346105c95760003660031901126105c957602060405160328152f35b346105c95760003660031901126105c9576132a561470a565b6004546001600160a01b0390818116908115808061334d575b61333b57156132fc575b505060065460ff81166132d757005b60ff19166006556000600755600154166000805160206158c0833981519152600080a2005b6001600160a01b031916600455600060038190557f48a87225523c5fd46bf3b7da3223e5525f77b8136a962695d701a24699bef8f39080a281806132c8565b604051634e35843360e11b8152600490fd5b5060ff60065416156132be565b346105c9576020806003193601126105c9576004356001600160401b0381116105c95761338b903690600401613d06565b61339361470a565b604051838101908482526133af81610686604082018688614033565b519020928360005280805260ff604060002054161561351a57836000526016815260ff6040600020541615610b4b5783600052601c81526040600020546135085783600052601b8152604060002054613508578360005260168152604060002060ff1990818154169055601f8252604060002054936017549460001995868101908111610f17578082036134d5575b50506017549182156134bf57857f40fc64b980e88b51add22183817cd5475b98f00e59877f0d959e5c8ce860f6f5966134ba94019061347c82613f2c565b909182549160031b1b1916905560175586600052601f8452600060408120558380526040600020908154169055604051938385948552840191614033565b0390a2005b634e487b7160e01b600052603160045260246000fd5b6134de90613f2c565b90549060031b1c806134f2611c5484613f2c565b9055600052601f8452604060002055868061343e565b6040516321bd81c960e11b8152600490fd5b604051630cbdb7b360e41b8152600490fd5b346105c95760003660031901126105c95760206040516303c267008152f35b346105c95760003660031901126105c9576020601454604051908152f35b346105c95760603660031901126105c9576004356024359060443560048110156105c957613595614010565b6000828152601d60205260409020805490936001600160a01b039182811633036113305760ff8160b81c1661130c5760048601908154906135dc6003890192835490614054565b60ff8260b01c1660001461374a5750505050600160b81b60ff60b81b1986541617855560028501600181549601958654600052601c60205261362460406000209182546140ac565b905554906000928161367b575b505061363d92506140ac565b918280613668575b505060405191825260008051602061592083398151915260203393a36001600055005b6136749133905461434a565b8282613645565b909250606483116137385760009260018514948515908161372a575b50613718576136a8606491846141a1565b04926105b35761363d931561370f57600b54165b826136c8575b80613631565b6136d48382885461434a565b847f587e785f004641121655a324f02af272b5e9c825bf554a6ff5b9c563015eea2160405180613706339588836141d4565b0390a3856136c2565b600a54166136bc565b604051632cc10fe960e11b8152600490fd5b945050600093151588613697565b604051638639da7d60e01b8152600490fd5b92955092509250949394421160001461382e5760a81c60ff1660048110156105b35760020361381d575482549160ff8360c01c16908261378d83820293846141b4565b0361380b57549182010190811061380b57421061350857600160b81b9060ff60b81b19161781556137ea6002820191600183549101908154600052601c6020526137dd60406000209182546140ac565b905554825490339061434a565b549060405191825260008051602061592083398151915260203393a361180f565b60405163549a019760e01b8152600490fd5b505090613829916141ed565b61180f565b60405163a237d35560e01b8152600490fd5b346105c95760003660031901126105c9576020600354604051908152f35b346105c95760003660031901126105c95760206040516101f48152f35b346105c95760003660031901126105c957602060ff60155416604051908152f35b346105c95760003660031901126105c9576020600c54604051908152f35b346105c95760203660031901126105c9576004356001600160a01b038116908190036105c9576138e861470a565b6138f0614010565b80156119bb5747604051602081019061390c8161068684614e91565b519020600052601c602052613931604060002054601b60205260406000205490614054565b80821180156139c05760006000805160206159c083398151915261396661395885876140ac565b604051918291878984613f8f565b0390a2156118b657613977916140ac565b600080808084865af161398861407c565b50156139ae57602060008051602061598083398151915291604051908152a26001600055005b60405163a4b6690960e01b8152600490fd5b60006000805160206159c083398151915261396682613958565b346105c95760203660031901126105c95760043560005260186020526126e7613a066040600020613e86565b604051918291602083526020830190613c6a565b346105c95760203660031901126105c957600435613a36614010565b80600052601d602052604060002090815460ff8160b81c1661130c5760ff8160b01c16613b31576004830154906003840154613a728184614054565b421115613b1f5760ff8260a81c1660048110156105b357600214613b0d576001600160a01b038281163314159390849081613afe575b506113305783613ad5575b505050613ac35761180f916141ed565b60405163478f84e760e01b8152600490fd5b613af4935063ffffffff91613ae991614054565b9160c81c1690614054565b4210838080613ab3565b90506001541633141587613aa8565b6040516375d3f2a760e11b8152600490fd5b604051630a8f83ff60e11b8152600490fd5b60405163067d2f5b60e01b8152600490fd5b346105c957610686613b5761140836613d5f565b5190209081600052601660205260ff6040600020541615610b4b576001600160a01b03818116919082156119bb577f970f8d5d7e6e516816144d4407b19d32456882e220b4f45b59e1e4ce50a0653a92613bb260409361477f565b6000858152601660209081529084902060010180546001600160a01b031981168417909155845193168352820152a2005b346105c95760003660031901126105c957601754613c008161453b565b9060005b818110613c2157604051602080825281906126e790820186613caa565b80613c2e613c6592613f2c565b90549060031b1c6000526018602052613c4a6040600020613e86565b613c5482866145b7565b52613c5f81856145b7565b50614192565b613c04565b919082519283825260005b848110613c96575050826000602080949584010152601f8019910116010190565b602081830181015184830182015201613c75565b908082519081815260208091019281808460051b8301019501936000915b848310613cd85750505050505090565b9091929394958480613cf6600193601f198682030187528a51613c6a565b9801930193019194939290613cc8565b9181601f840112156105c9578235916001600160401b0383116105c957602083818601950101116105c957565b602435906001600160a01b03821682036105c957565b600435906001600160a01b03821682036105c957565b60406003198201126105c957600435906001600160401b0382116105c957613d8991600401613d06565b90916024356001600160a01b03811681036105c95790565b90600182811c92168015613dd1575b6020831014613dbb57565b634e487b7160e01b600052602260045260246000fd5b91607f1691613db0565b60e081019081106001600160401b03821117610b5d57604052565b606081019081106001600160401b03821117610b5d57604052565b61016081019081106001600160401b03821117610b5d57604052565b604081019081106001600160401b03821117610b5d57604052565b602081019081106001600160401b03821117610b5d57604052565b601f909101601f19168101906001600160401b03821190821017610b5d57604052565b9060405191826000825492613e9a84613da1565b908184526001948581169081600014613f095750600114613ec6575b5050613ec492500383613e63565b565b9093915060005260209081600020936000915b818310613ef1575050613ec493508201013880613eb6565b85548884018501529485019487945091830191613ed9565b915050613ec494506020925060ff191682840152151560051b8201013880613eb6565b601754811015613f4757601760005260206000200190600090565b634e487b7160e01b600052603260045260246000fd5b60406003198201126105c957600435906001600160401b0382116105c957613f8791600401613d06565b909160243590565b6040919493926060820195825260208201520152565b60409060031901126105c9576004359060243590565b90815180825260208080930193019160005b828110613fdb575050505090565b835185529381019392810192600101613fcd565b60ff60025460a01c16613ffe57565b60405163d93c066560e01b8152600490fd5b600260005414614021576002600055565b604051633ee5aeb560e01b8152600490fd5b908060209392818452848401376000828201840152601f01601f1916010190565b91908201809211610f1757565b6001600160401b038111610b5d57601f01601f191660200190565b3d156140a7573d9061408d82614061565b9161409b6040519384613e63565b82523d6000602084013e565b606090565b91908203918211610f1757565b6040516323b872dd60e01b60208201526001600160a01b03928316602482015292909116604483015260648083019390935291815260a08101918183106001600160401b03841117610b5d57613ec4926040525b906000602091828151910182855af1156118f5576000513d61416057506001600160a01b0381163b155b61413e5750565b604051635274afe760e01b81526001600160a01b039091166004820152602490fd5b60011415614137565b60048210156105b35752565b805460ff60a01b191660a09290921b60ff60a01b16919091179055565b6000198114610f175760010190565b81810292918115918404141715610f1757565b81156141be570490565b634e487b7160e01b600052601260045260246000fd5b9081526001600160a01b03909116602082015260400190565b90600160b81b60ff60b81b19835416178255600282019182549260018201938454600052601c60205261422660406000209182546140ac565b9055549281549361424a606461424260ff8860a01c16846141a1565b0480926140ac565b9460a81c60ff16600060048210156143365750918460008051602061592083398151915294928460036020961460001461430d575061dead5b816142c5575b50505085806142a9575b5050546040519485526001600160a01b031693a3565b6142be915460018060a01b038454169061434a565b3885614293565b816142f37f025552a005e45b02912def900b2c31382a6d3ad3542ae5dcf1b1f701db19d07e9383875461434a565b614302604051928392836141d4565b0390a2843880614289565b60010361432557600b546001600160a01b0316614283565b600a546001600160a01b0316614283565b634e487b7160e01b81526021600452602490fd5b919060199283549260ff84166144bd57600160ff19809516178555600091808352602090601682526040948585209086519161438583613ddb565b80549260ff84161515815260c0600460018060a01b03809660081c1693848985015260ff60018201548d8982169087015260a01c1660608501526002810154608085015260ff600382015416151560a0850152015491015280156000146144a7575016918285526008815260ff868620541660001461442e57505082809281925af161440f61407c565b501561441e57505b8154169055565b51630db2c7f160e31b8152600490fd5b91939290948380808085896108fcf161444561407c565b501561445657505050505050614417565b8084876000805160206158a08339815191529652601a85528181208782528552818120614484858254614054565b9055878152601b855220614499838254614054565b905551908152a38154169055565b935093945050506144b893506144ea565b614417565b60405163b2a722f960e01b8152600490fd5b6001600160a01b039091168152602081019190915260400190565b61451f613ec4939261451160405194859263a9059cbb60e01b6020850152602484016144cf565b03601f198101845283613e63565b61410d565b6001600160401b038111610b5d5760051b60200190565b9061454582614524565b6145526040519182613e63565b8281528092614563601f1991614524565b019060005b82811061457457505050565b806060602080938501015201614568565b9061458f82614524565b61459c6040519182613e63565b82815280926145ad601f1991614524565b0190602036910137565b8051821015613f475760209160051b010190565b92909282156146f857606483116146e657601754928390848610156146b557614608916145f9879283614054565b908082116146ad575b506140ac565b6146118161453b565b9161461b82614585565b9560005b83811061462f5750505050929190565b806146456146406146a89385614054565b613f2c565b90549060031b1c8060005260206018815260409161466583600020613e86565b61466f858b6145b7565b5261467a848a6145b7565b506000908152601a82528281206001600160a01b038816825290915220546146a2828b6145b7565b52614192565b61461f565b905038614602565b5050509150604051916146c783613e48565b60008352604051926146d884613e48565b600084526000368137929190565b604051637022f26f60e01b8152600490fd5b604051631a49577b60e11b8152600490fd5b6001546001600160a01b0316330361471e57565b60405163118cdaa760e01b8152336004820152602490fd5b51906001600160501b03821682036105c957565b908160a09103126105c95761475e81614736565b9160208201519160408101519161477c608060608401519301614736565b90565b604051633fabe5a360e21b81529060a090829060049082906001600160a01b03165afa600091816147cc575b506147c25760405163f45e167b60e01b8152600490fd5b6000121561148457565b6147ee91925060a03d81116147fa575b6147e68183613e63565b81019061474a565b505050905090386147ab565b503d6147dc565b60ff6011199116019060ff8211610f1757565b60ff166012039060ff8211610f1757565b60ff16604d8111610f1757600a0a90565b6040918251614855816106866020958683019587875288840191614033565b51902060009081526016825282812083519261487084613ddb565b815460ff811615948515815260018060a01b03809260081c168382015260018401549060ff88820192848116845260a01c1660608201526002850154966080820197885260ff6003870154169060a08301911515825260c06004809801549301928352614a595751614a4d57505116855194633fabe5a360e21b865260a0868581855afa958615614a43578596869787928892614a19575b5087891315614a09578215614a09576001600160501b039081169116106149f95761493390426140ac565b9051106149e957819086519384809263313ce56760e01b82525afa9485156149e05750829461499b575b505050601260ff831610156149865761498061497b61477c93614814565b614825565b906141a1565b61499561497b61477c93614801565b906141b4565b908092939450813d83116149d9575b6149b48183613e63565b810103126149d557519060ff821682036149d257509038808061495d565b80fd5b5080fd5b503d6149aa565b513d84823e3d90fd5b8551630cd5fa0760e11b81528390fd5b8751630cd5fa0760e11b81528590fd5b895163f45e167b60e01b81528790fd5b92505050614a3691965060a03d81116147fa576147e68183613e63565b9298939092915038614908565b87513d87823e3d90fd5b96505050505050505190565b8851633dd1b30560e01b81528690fd5b906040918251602081019060208252614a89816106868782018787614033565b51902060005260166020528260002092805193614aa585613ddb565b80549460c0600460ff881615938415845260018060a01b03809960081c16602085015260018101549889168685015260ff606085019960a01c1689526002810154608085015260ff600382015416151560a08501520154910152614b20575061477c9291614b1291614836565b60ff600c54925116916157ea565b51633dd1b30560e01b8152600490fd5b906040918251602081019060208252614b50816106868782018787614033565b51902060005260166020528260002092805193614b6c85613ddb565b80549460c0600460ff881615938415845260018060a01b03809960081c16602085015260018101549889168685015260ff606085019960a01c1689526002810154608085015260ff600382015416151560a08501520154910152614b20575061477c9291614bd991614836565b60ff600d54925116916157ea565b81156146f857606482116146e65760175491829083831015614e4157614c12916145f9849283614054565b91614c1c8361453b565b93614c2684614585565b94614c3085614585565b94614c3a81614585565b9460005b828110614c4f575050509493929190565b614c5c6146408284614054565b90549060031b1c9081600052601891602092808452604090614c8082600020613e86565b614c8a858a6145b7565b52614c9584896145b7565b5060009283528452614ca8818320613e86565b90805192635350758f60e01b84526004938685820152602491878280614cd086820189613c6a565b0381305afa90918282614e0f575b5050614d18575050505050614d139150600080815b614cfd848c6145b7565b52614d08838c6145b7565b526146a2828c6145b7565b614c3e565b9382516304c5396960e41b81528782820152878180614d3986820189613c6a565b0381305afa908115614e0457908891600091614dd4575b5091614d74829396865195869485946336227c6960e01b8652850152830190613c6a565b0381305afa918215614dca5750600091614d94575b50614d139450614cf3565b9192939482813d8311614dc3575b614dac8183613e63565b810103126149d2575090614d139392915138614d89565b503d614da2565b513d6000823e3d90fd5b9182813d8311614dfd575b614de98183613e63565b810103126149d25750518790614d74614d50565b503d614ddf565b84513d6000823e3d90fd5b909192508882813d8311614e3a575b614e288183613e63565b810103126149d2575051903880614cde565b503d614e1e565b50505060405190614e5182613e48565b60009081835260405193614e6485613e48565b82855260405193614e7485613e48565b83855260405193614e8485613e48565b8085523681379493929190565b60609060208152600360208201526208aa8960eb1b60408201520190565b929192614ebb82614061565b91614ec96040519384613e63565b8294818452818301116105c9578281602093846000960137010152565b9260018060a01b038094169260409485516370a0823160e01b815230600482015260209485826024818a5afa91821561501d57600092614fee575b50600052601c8552614f408760002054601b8752886000205490614054565b908181118760008215614fd657506000805160206159c0833981519152614f77614f6a86866140ac565b8c51918291888884613f8f565b0390a215614fc55791614f9f6000805160206158e083398151915296959492614fc0946140ac565b93614fab85828a6144ea565b88805196879687528601521696830190613c6a565b0390a3565b8751635e4f582160e11b8152600490fd5b614f776000805160206159c083398151915291614f6a565b90918682813d8311615016575b6150058183613e63565b810103126149d25750519038614f21565b503d614ffb565b88513d6000823e3d90fd5b47604051602081019061503e8161068684614e91565b519020600052601c602052615063604060002054601b60205260406000205490614054565b808211156150745761477c916140ac565b5050600090565b604091825161509a816106866020958683019587875288840191614033565b5190209060009282845260168252808420928151936150b885613ddb565b80549460ff8616159060c0600483159485845260ff60018060a01b03809b60081c169a8b8b87015260018301549081168a87015260a01c1660608501526002810154608085015260ff600382015416151560a08501520154910152906151c1575b6151ba57826024948351958680926370a0823160e01b82523060048301525afa9384156151b057859461517b575b508452601c825280842054601b90925283205461516391614054565b90818111156151765761477c92506140ac565b505090565b9093508281813d83116151a9575b6151938183613e63565b810103126151a5575192615163615147565b8480fd5b503d615189565b82513d87823e3d90fd5b5050505090565b508315615119565b604080516370a0823160e01b815230600480830191909152909290916001600160a01b03918216916020918286602481875afa95861561533d5760009661530e575b506017549360005b85811061522d575050505050505090600090600090600090565b61523681613f2c565b9054600391821b1c90816000526016875283878660002060c08c89519261525c84613ddb565b8b81548160ff918281161515885260081c1680978701526001988d8a850154938416908801528160a093841c16606088015260028401546080880152830154161515908501520154910152146152bc5750506152b790614192565b615213565b95989750989550505090508195600052601c8552601b8160002054955260002054926152e88486614054565b91828211156153025750906152fc916140ac565b93929190565b95505050600093929190565b90958382813d8311615336575b6153258183613e63565b810103126149d2575051943861520b565b503d61531b565b50513d6000823e3d90fd5b60405190608082016001600160401b03811183821017610b5d576040526060808381815260006020820152600060408201520152565b9190811015613f475760051b81013590601e19813603018212156105c95701803591906001600160401b0383116105c95760200182360381136105c9579190565b92909391936153cc615348565b946153d8368483614eaf565b865260209182018051604080516370a0823160e01b815230600482015290976001600160a01b0396939493928690839060249082908b165afa91821561560f576000926155e0575b50600052601c855261543f8860002054601b8752896000205490614054565b90818111156155a35760008989828a6154848b6154636106869c9b9a9985996140ac565b9b8c938c5116965193849283019663a9059cbb60e01b8852602484016144cf565b51925af161549061407c565b901561556a5785815180156000146155015750600191508a015283888a01525b848901516154c4575b505050505050505090565b856000805160206158e0833981519152966154f19451169789805197889788528701521697840191614033565b0390a338808080808080806154b9565b8290810103126105c95785015180151581036105c9571561552c576001858a015283888a01526154b0565b50505050929050765472616e736665722072657475726e65642066616c736560481b9150519161555b83613e2d565b60178352820152606082015290565b505050505092905070151c985b9cd9995c881c995d995c9d1959607a1b9150519161559483613e2d565b60118352820152606082015290565b5050505050929050744e6f207265636f76657261626c6520746f6b656e7360581b915051916155d183613e2d565b60158352820152606082015290565b90918682813d8311615608575b6155f78183613e63565b810103126149d25750519038615420565b503d6155ed565b89513d6000823e3d90fd5b9190604090815161563b816106866020978883019589875287840191614033565b519020906000938285526016815281852082519061565882613ddb565b80549160ff831615908115815260c060048683019460018060a01b03809760081c16865260ff60018201548881168b87015260a01c1660608501526002810154608085015260ff600382015416151560a0850152015491015261577e575116918261570d576156dc925047935b8652601c8252601b81872054925285205490614054565b908082036156ec57505060019190565b81811115615704576156ff9293506140ac565b600191565b61477c916140ac565b816024938251948580926370a0823160e01b82523060048301525afa8015615774578690615741575b6156dc9350936156c5565b508183813d831161576d575b6157578183613e63565b81010312615769576156dc9251615736565b8580fd5b503d61574d565b81513d88823e3d90fd5b8351633dd1b30560e01b8152600490fd5b6002546001600160a01b039081169081156157a8575090565b90506004541690565b60ff60065416156157e55760075462093a808101809111610f1757804210156157df5761477c9042906140ac565b50600090565b600090565b91909164e8d4a5100090818102918183041481151715610f175768327cb2734119d3b7a9601e1b0290808204670de0b6b3a76400001490151715610f175761477c92615835916141b4565b601260ff831610156158505761499561497b61477c93614814565b61498061497b61477c9361480156fe9b554b4a09efa18e2f36c9ccb218761ed612341710703f6ff2edf03947238c72d868c725f20c65ee0e4e29658caef2a516c5ac422857d6a3cd96b99792db2af6b7fe9634fea2ac2458084452e1e7857638ebaffb91d5b22d34d74a134801e9330835edca54b08506b1f74526581e529d0bdc609b380843d5bfee9fdef1f2c91b733a14d80f1fcb0833e90f69a6f8716c5a12586560defba943c66af96373049e528e5975397d163506e3a8ee02d8585bd27a404861f4b6b4b142b22c085868cecf7d23a3cbe4e8b36ff82fd1b05b1b17373dc7804b4ebbd6e2356716ef20237284396add8db3ebf4773bd540256f3a4357001e69305efcb1a95d565284fbdae48be0079c531659141344cd1fd0a4f28419497f9722a3daafe3b4186f6b6457e005af21d7340bf49fde03a32c3bcc785015c94acd83531fc6dfbfb93a24c364ca2225519bb0d4452c8f10be7e343f6afbd9cba6ca41410b1d7abdb148c5f7b7c56c4916d52fd6fd994184fad1112697ee8292a679db49ca66f12ac15bff60980ea2646970667358221220e9f6dfeca606babca6cba55727fe6f7c753e8b8d1da125ed278b46436f3a1a7964736f6c63430008140033",
  "linkReferences": {},
  "deployedLinkReferences": {}
}