{
  "_format": "hh-sol-artifact-1",
  "contractName": "TouchGrass",
  "sourceName": "contracts/TouchGrass.sol",
  "abi": [
    {
      "inputs": [
        {
          "internalType": "address",
          "name": "_verifierAddress",
          "type": "address"
        },
        {
          "internalType": "address",
          "name": "_charityAddress",
          "type": "address"
        },
        {
          "internalType": "address",
          "name": "_treasuryAddress",
          "type": "address"
        },
        {
          "internalType": "uint256",
          "name": "_USDCFee",
          "type": "uint256"
        },
        {
          "internalType": "uint256",
          "name": "_USDCMinStake",
          "type": "uint256"
        }
      ],
      "stateMutability": "nonpayable",
      "type": "constructor"
    },
    {
      "inputs": [],
      "name": "BurnPercentLessThan100",
      "type": "error"
    },
    {
      "inputs": [],
      "name": "CannotRecoverLockedFunds",
      "type": "error"
    },
    {
      "inputs": [],
      "name": "CannotRecoverStakedTokens",
      "type": "error"
    },
    {
      "inputs": [],
      "name": "CannotSweepLock",
      "type": "error"
    },
    {
      "inputs": [],
      "name": "CannotSweepPartialPenalty",
      "type": "error"
    },
    {
      "inputs": [],
      "name": "ChallengeActive",
      "type": "error"
    },
    {
      "inputs": [],
      "name": "ChallengeAlreadySuccess",
      "type": "error"
    },
    {
      "inputs": [],
      "name": "ChallengeAlreadyWithdrawn",
      "type": "error"
    },
    {
      "inputs": [],
      "name": "ChallengeNotExpired",
      "type": "error"
    },
    {
      "inputs": [],
      "name": "ChallengeSuccessful",
      "type": "error"
    },
    {
      "inputs": [],
      "name": "CountTooLarge",
      "type": "error"
    },
    {
      "inputs": [],
      "name": "DuplicateAddresses",
      "type": "error"
    },
    {
      "inputs": [],
      "name": "DurationCausesTimestampOverflow",
      "type": "error"
    },
    {
      "inputs": [],
      "name": "DurationTooLarge",
      "type": "error"
    },
    {
      "inputs": [],
      "name": "EnforcedPause",
      "type": "error"
    },
    {
      "inputs": [],
      "name": "EthTransferFailed",
      "type": "error"
    },
    {
      "inputs": [],
      "name": "ExpectedPause",
      "type": "error"
    },
    {
      "inputs": [],
      "name": "FeeChangeTooLarge",
      "type": "error"
    },
    {
      "inputs": [],
      "name": "FeeTransferFailed",
      "type": "error"
    },
    {
      "inputs": [],
      "name": "FundsLocked",
      "type": "error"
    },
    {
      "inputs": [],
      "name": "GracePeriodActive",
      "type": "error"
    },
    {
      "inputs": [],
      "name": "GracePeriodCannotBeLessThanADay",
      "type": "error"
    },
    {
      "inputs": [],
      "name": "GracePeriodCausesOverflow",
      "type": "error"
    },
    {
      "inputs": [],
      "name": "GracePeriodTooLarge",
      "type": "error"
    },
    {
      "inputs": [],
      "name": "GracePeriodTooLong",
      "type": "error"
    },
    {
      "inputs": [],
      "name": "InsufficientEth",
      "type": "error"
    },
    {
      "inputs": [],
      "name": "InsufficientFee",
      "type": "error"
    },
    {
      "inputs": [],
      "name": "InsufficientPayment",
      "type": "error"
    },
    {
      "inputs": [],
      "name": "InvalidAddress",
      "type": "error"
    },
    {
      "inputs": [],
      "name": "InvalidCount",
      "type": "error"
    },
    {
      "inputs": [],
      "name": "InvalidDuration",
      "type": "error"
    },
    {
      "inputs": [],
      "name": "InvalidInput",
      "type": "error"
    },
    {
      "inputs": [],
      "name": "InvalidPayment",
      "type": "error"
    },
    {
      "inputs": [],
      "name": "InvalidPenaltyPercent",
      "type": "error"
    },
    {
      "inputs": [],
      "name": "InvalidPriceData",
      "type": "error"
    },
    {
      "inputs": [],
      "name": "InvalidStake",
      "type": "error"
    },
    {
      "inputs": [],
      "name": "InvalidTokenConfig",
      "type": "error"
    },
    {
      "inputs": [],
      "name": "InvalidVoluntaryDonationPercent",
      "type": "error"
    },
    {
      "inputs": [],
      "name": "InvalidVoluntaryDonationTarget",
      "type": "error"
    },
    {
      "inputs": [],
      "name": "LockMultiplierCausesOverflow",
      "type": "error"
    },
    {
      "inputs": [],
      "name": "LockMultiplierTooHigh",
      "type": "error"
    },
    {
      "inputs": [],
      "name": "LockMultiplierTooLow",
      "type": "error"
    },
    {
      "inputs": [],
      "name": "MaxDurationAboveAbsolute",
      "type": "error"
    },
    {
      "inputs": [],
      "name": "MaxDurationCausesOverflow",
      "type": "error"
    },
    {
      "inputs": [],
      "name": "MinDurationAboveMax",
      "type": "error"
    },
    {
      "inputs": [],
      "name": "MinDurationBelowAbsolute",
      "type": "error"
    },
    {
      "inputs": [],
      "name": "MinPenaltyPercentageHigherThan50",
      "type": "error"
    },
    {
      "inputs": [],
      "name": "MinPenaltyPercentageMustBeGreaterThan5",
      "type": "error"
    },
    {
      "inputs": [],
      "name": "NoPendingUpdate",
      "type": "error"
    },
    {
      "inputs": [],
      "name": "NoPendingWithdrawal",
      "type": "error"
    },
    {
      "inputs": [],
      "name": "NoTokensToRecover",
      "type": "error"
    },
    {
      "inputs": [],
      "name": "NoTransferPending",
      "type": "error"
    },
    {
      "inputs": [],
      "name": "OnlyPendingOwner",
      "type": "error"
    },
    {
      "inputs": [
        {
          "internalType": "address",
          "name": "owner",
          "type": "address"
        }
      ],
      "name": "OwnableInvalidOwner",
      "type": "error"
    },
    {
      "inputs": [
        {
          "internalType": "address",
          "name": "account",
          "type": "address"
        }
      ],
      "name": "OwnableUnauthorizedAccount",
      "type": "error"
    },
    {
      "inputs": [],
      "name": "OwnershipRenunciationInProgress",
      "type": "error"
    },
    {
      "inputs": [],
      "name": "OwnershipRenunciationNotInitiated",
      "type": "error"
    },
    {
      "inputs": [],
      "name": "PenaltyPercentLessThanMinimum",
      "type": "error"
    },
    {
      "inputs": [],
      "name": "PriceOracleNotSet",
      "type": "error"
    },
    {
      "inputs": [],
      "name": "RecoveryFailed",
      "type": "error"
    },
    {
      "inputs": [],
      "name": "ReentrancyGuardReentrantCall",
      "type": "error"
    },
    {
      "inputs": [],
      "name": "ReentrantTransfer",
      "type": "error"
    },
    {
      "inputs": [],
      "name": "RenunciationDelayNotMet",
      "type": "error"
    },
    {
      "inputs": [
        {
          "internalType": "address",
          "name": "token",
          "type": "address"
        }
      ],
      "name": "SafeERC20FailedOperation",
      "type": "error"
    },
    {
      "inputs": [],
      "name": "StakeBelowMinimum",
      "type": "error"
    },
    {
      "inputs": [],
      "name": "StalePrice",
      "type": "error"
    },
    {
      "inputs": [],
      "name": "TimeExpired",
      "type": "error"
    },
    {
      "inputs": [],
      "name": "TimestampOverflow",
      "type": "error"
    },
    {
      "inputs": [],
      "name": "TokenAlreadySupported",
      "type": "error"
    },
    {
      "inputs": [],
      "name": "TokenNotFound",
      "type": "error"
    },
    {
      "inputs": [],
      "name": "TokenNotSupported",
      "type": "error"
    },
    {
      "inputs": [],
      "name": "TokenTransferFailed",
      "type": "error"
    },
    {
      "inputs": [],
      "name": "TransferDelayNotMet",
      "type": "error"
    },
    {
      "inputs": [],
      "name": "TransferToContract",
      "type": "error"
    },
    {
      "inputs": [],
      "name": "TransferToCurrentOwner",
      "type": "error"
    },
    {
      "inputs": [],
      "name": "TransferToZeroAddress",
      "type": "error"
    },
    {
      "inputs": [],
      "name": "USDCFeeOverflow",
      "type": "error"
    },
    {
      "inputs": [],
      "name": "USDCFeeTooLow",
      "type": "error"
    },
    {
      "inputs": [],
      "name": "USDCFeeZero",
      "type": "error"
    },
    {
      "inputs": [],
      "name": "Unauthorized",
      "type": "error"
    },
    {
      "inputs": [],
      "name": "UpdateNotReady",
      "type": "error"
    },
    {
      "inputs": [],
      "name": "VerifierCannotBeOwner",
      "type": "error"
    },
    {
      "inputs": [],
      "name": "WithdrawalClaimFailed",
      "type": "error"
    },
    {
      "anonymous": false,
      "inputs": [
        {
          "indexed": false,
          "internalType": "uint256",
          "name": "oldMinStake",
          "type": "uint256"
        },
        {
          "indexed": false,
          "internalType": "uint256",
          "name": "newMinStake",
          "type": "uint256"
        }
      ],
      "name": "BaseUSDCMinStakeUpdated",
      "type": "event"
    },
    {
      "anonymous": false,
      "inputs": [
        {
          "indexed": true,
          "internalType": "uint256",
          "name": "id",
          "type": "uint256"
        },
        {
          "indexed": true,
          "internalType": "address",
          "name": "staker",
          "type": "address"
        },
        {
          "indexed": false,
          "internalType": "uint256",
          "name": "amount",
          "type": "uint256"
        }
      ],
      "name": "ChallengeCreated",
      "type": "event"
    },
    {
      "anonymous": false,
      "inputs": [
        {
          "indexed": true,
          "internalType": "uint256",
          "name": "id",
          "type": "uint256"
        }
      ],
      "name": "ChallengeSuccess",
      "type": "event"
    },
    {
      "anonymous": false,
      "inputs": [
        {
          "indexed": true,
          "internalType": "address",
          "name": "oldCharityWallet",
          "type": "address"
        },
        {
          "indexed": true,
          "internalType": "address",
          "name": "newCharityWallet",
          "type": "address"
        }
      ],
      "name": "CharityWalletUpdated",
      "type": "event"
    },
    {
      "anonymous": false,
      "inputs": [
        {
          "indexed": true,
          "internalType": "address",
          "name": "token",
          "type": "address"
        },
        {
          "indexed": true,
          "internalType": "address",
          "name": "recipient",
          "type": "address"
        },
        {
          "indexed": false,
          "internalType": "uint256",
          "name": "amount",
          "type": "uint256"
        },
        {
          "indexed": false,
          "internalType": "string",
          "name": "tokenSymbol",
          "type": "string"
        }
      ],
      "name": "ERC20Recovered",
      "type": "event"
    },
    {
      "anonymous": false,
      "inputs": [
        {
          "indexed": true,
          "internalType": "address",
          "name": "recipient",
          "type": "address"
        },
        {
          "indexed": false,
          "internalType": "uint256",
          "name": "amount",
          "type": "uint256"
        }
      ],
      "name": "ETHRecovered",
      "type": "event"
    },
    {
      "anonymous": false,
      "inputs": [
        {
          "indexed": true,
          "internalType": "bytes32",
          "name": "tokenId",
          "type": "bytes32"
        }
      ],
      "name": "FallbackPriceDisabled",
      "type": "event"
    },
    {
      "anonymous": false,
      "inputs": [
        {
          "indexed": true,
          "internalType": "bytes32",
          "name": "tokenId",
          "type": "bytes32"
        },
        {
          "indexed": false,
          "internalType": "uint256",
          "name": "price",
          "type": "uint256"
        }
      ],
      "name": "FallbackPriceEnabled",
      "type": "event"
    },
    {
      "anonymous": false,
      "inputs": [
        {
          "indexed": true,
          "internalType": "uint256",
          "name": "newGracePeriod",
          "type": "uint256"
        }
      ],
      "name": "GracePeriodUpdated",
      "type": "event"
    },
    {
      "anonymous": false,
      "inputs": [
        {
          "indexed": true,
          "internalType": "uint256",
          "name": "newLockMultiplier",
          "type": "uint256"
        }
      ],
      "name": "LockMultiplierUpdated",
      "type": "event"
    },
    {
      "anonymous": false,
      "inputs": [
        {
          "indexed": true,
          "internalType": "uint256",
          "name": "newMaxDuration",
          "type": "uint256"
        }
      ],
      "name": "MaxDurationUpdated",
      "type": "event"
    },
    {
      "anonymous": false,
      "inputs": [
        {
          "indexed": true,
          "internalType": "uint256",
          "name": "newMinDuration",
          "type": "uint256"
        }
      ],
      "name": "MinDurationUpdated",
      "type": "event"
    },
    {
      "anonymous": false,
      "inputs": [
        {
          "indexed": true,
          "internalType": "uint8",
          "name": "newMinPenaltyPercentage",
          "type": "uint8"
        }
      ],
      "name": "MinPenaltyPercentageUpdated",
      "type": "event"
    },
    {
      "anonymous": false,
      "inputs": [
        {
          "indexed": true,
          "internalType": "address",
          "name": "multiSig",
          "type": "address"
        }
      ],
      "name": "MultiSigRemovedFromWhitelist",
      "type": "event"
    },
    {
      "anonymous": false,
      "inputs": [
        {
          "indexed": true,
          "internalType": "address",
          "name": "multiSig",
          "type": "address"
        }
      ],
      "name": "MultiSigWhitelisted",
      "type": "event"
    },
    {
      "anonymous": false,
      "inputs": [
        {
          "indexed": true,
          "internalType": "address",
          "name": "previousOwner",
          "type": "address"
        }
      ],
      "name": "OwnershipRenounced",
      "type": "event"
    },
    {
      "anonymous": false,
      "inputs": [
        {
          "indexed": true,
          "internalType": "address",
          "name": "owner",
          "type": "address"
        }
      ],
      "name": "OwnershipRenunciationCancelled",
      "type": "event"
    },
    {
      "anonymous": false,
      "inputs": [
        {
          "indexed": true,
          "internalType": "address",
          "name": "owner",
          "type": "address"
        },
        {
          "indexed": false,
          "internalType": "uint256",
          "name": "effectiveTime",
          "type": "uint256"
        }
      ],
      "name": "OwnershipRenunciationScheduled",
      "type": "event"
    },
    {
      "anonymous": false,
      "inputs": [
        {
          "indexed": true,
          "internalType": "address",
          "name": "cancelledPendingOwner",
          "type": "address"
        }
      ],
      "name": "OwnershipTransferCancelled",
      "type": "event"
    },
    {
      "anonymous": false,
      "inputs": [
        {
          "indexed": true,
          "internalType": "address",
          "name": "currentOwner",
          "type": "address"
        },
        {
          "indexed": true,
          "internalType": "address",
          "name": "pendingOwner",
          "type": "address"
        },
        {
          "indexed": false,
          "internalType": "uint256",
          "name": "effectiveTime",
          "type": "uint256"
        }
      ],
      "name": "OwnershipTransferScheduled",
      "type": "event"
    },
    {
      "anonymous": false,
      "inputs": [
        {
          "indexed": true,
          "internalType": "address",
          "name": "previousOwner",
          "type": "address"
        },
        {
          "indexed": true,
          "internalType": "address",
          "name": "newOwner",
          "type": "address"
        }
      ],
      "name": "OwnershipTransferStarted",
      "type": "event"
    },
    {
      "anonymous": false,
      "inputs": [
        {
          "indexed": true,
          "internalType": "address",
          "name": "previousOwner",
          "type": "address"
        },
        {
          "indexed": true,
          "internalType": "address",
          "name": "newOwner",
          "type": "address"
        }
      ],
      "name": "OwnershipTransferred",
      "type": "event"
    },
    {
      "anonymous": false,
      "inputs": [
        {
          "indexed": false,
          "internalType": "address",
          "name": "account",
          "type": "address"
        }
      ],
      "name": "Paused",
      "type": "event"
    },
    {
      "anonymous": false,
      "inputs": [
        {
          "indexed": true,
          "internalType": "uint256",
          "name": "id",
          "type": "uint256"
        },
        {
          "indexed": false,
          "internalType": "uint256",
          "name": "penaltyAmount",
          "type": "uint256"
        },
        {
          "indexed": false,
          "internalType": "address",
          "name": "destination",
          "type": "address"
        }
      ],
      "name": "PenaltyExecuted",
      "type": "event"
    },
    {
      "anonymous": false,
      "inputs": [
        {
          "indexed": true,
          "internalType": "address",
          "name": "token",
          "type": "address"
        },
        {
          "indexed": false,
          "internalType": "uint256",
          "name": "contractBalance",
          "type": "uint256"
        },
        {
          "indexed": false,
          "internalType": "uint256",
          "name": "lockedAmount",
          "type": "uint256"
        },
        {
          "indexed": false,
          "internalType": "uint256",
          "name": "recoverable",
          "type": "uint256"
        }
      ],
      "name": "RecoveryAttempt",
      "type": "event"
    },
    {
      "anonymous": false,
      "inputs": [
        {
          "indexed": true,
          "internalType": "bytes32",
          "name": "tokenId",
          "type": "bytes32"
        },
        {
          "indexed": false,
          "internalType": "string",
          "name": "symbol",
          "type": "string"
        },
        {
          "indexed": true,
          "internalType": "address",
          "name": "tokenAddress",
          "type": "address"
        },
        {
          "indexed": true,
          "internalType": "address",
          "name": "priceFeed",
          "type": "address"
        }
      ],
      "name": "TokenAdded",
      "type": "event"
    },
    {
      "anonymous": false,
      "inputs": [
        {
          "indexed": true,
          "internalType": "bytes32",
          "name": "tokenId",
          "type": "bytes32"
        },
        {
          "indexed": false,
          "internalType": "address",
          "name": "oldFeed",
          "type": "address"
        },
        {
          "indexed": false,
          "internalType": "address",
          "name": "newFeed",
          "type": "address"
        }
      ],
      "name": "TokenPriceFeedUpdated",
      "type": "event"
    },
    {
      "anonymous": false,
      "inputs": [
        {
          "indexed": true,
          "internalType": "bytes32",
          "name": "tokenId",
          "type": "bytes32"
        },
        {
          "indexed": false,
          "internalType": "string",
          "name": "symbol",
          "type": "string"
        }
      ],
      "name": "TokenRemoved",
      "type": "event"
    },
    {
      "anonymous": false,
      "inputs": [
        {
          "indexed": true,
          "internalType": "address",
          "name": "user",
          "type": "address"
        },
        {
          "indexed": true,
          "internalType": "bytes32",
          "name": "tokenId",
          "type": "bytes32"
        },
        {
          "indexed": false,
          "internalType": "uint256",
          "name": "amount",
          "type": "uint256"
        }
      ],
      "name": "TransferFailed",
      "type": "event"
    },
    {
      "anonymous": false,
      "inputs": [
        {
          "indexed": true,
          "internalType": "address",
          "name": "oldTreasuryWallet",
          "type": "address"
        },
        {
          "indexed": true,
          "internalType": "address",
          "name": "newTreasuryWallet",
          "type": "address"
        }
      ],
      "name": "TreasuryWalletUpdated",
      "type": "event"
    },
    {
      "anonymous": false,
      "inputs": [
        {
          "indexed": true,
          "internalType": "address",
          "name": "recipient",
          "type": "address"
        }
      ],
      "name": "TrustedRecipientAdded",
      "type": "event"
    },
    {
      "anonymous": false,
      "inputs": [
        {
          "indexed": true,
          "internalType": "address",
          "name": "recipient",
          "type": "address"
        }
      ],
      "name": "TrustedRecipientRemoved",
      "type": "event"
    },
    {
      "anonymous": false,
      "inputs": [],
      "name": "USDCFeeUpdateCancelled",
      "type": "event"
    },
    {
      "anonymous": false,
      "inputs": [
        {
          "indexed": false,
          "internalType": "uint256",
          "name": "newFee",
          "type": "uint256"
        },
        {
          "indexed": false,
          "internalType": "uint256",
          "name": "effectiveTime",
          "type": "uint256"
        }
      ],
      "name": "USDCFeeUpdateScheduled",
      "type": "event"
    },
    {
      "anonymous": false,
      "inputs": [
        {
          "indexed": false,
          "internalType": "uint256",
          "name": "oldFee",
          "type": "uint256"
        },
        {
          "indexed": false,
          "internalType": "uint256",
          "name": "newFee",
          "type": "uint256"
        }
      ],
      "name": "USDCFeeUpdated",
      "type": "event"
    },
    {
      "anonymous": false,
      "inputs": [
        {
          "indexed": false,
          "internalType": "address",
          "name": "account",
          "type": "address"
        }
      ],
      "name": "Unpaused",
      "type": "event"
    },
    {
      "anonymous": false,
      "inputs": [
        {
          "indexed": true,
          "internalType": "address",
          "name": "oldVerifier",
          "type": "address"
        },
        {
          "indexed": true,
          "internalType": "address",
          "name": "newVerifier",
          "type": "address"
        }
      ],
      "name": "VerifierUpdated",
      "type": "event"
    },
    {
      "anonymous": false,
      "inputs": [
        {
          "indexed": true,
          "internalType": "uint256",
          "name": "id",
          "type": "uint256"
        },
        {
          "indexed": true,
          "internalType": "address",
          "name": "donor",
          "type": "address"
        },
        {
          "indexed": false,
          "internalType": "uint256",
          "name": "amount",
          "type": "uint256"
        },
        {
          "indexed": false,
          "internalType": "address",
          "name": "target",
          "type": "address"
        }
      ],
      "name": "VoluntaryDonation",
      "type": "event"
    },
    {
      "anonymous": false,
      "inputs": [
        {
          "indexed": true,
          "internalType": "address",
          "name": "user",
          "type": "address"
        },
        {
          "indexed": true,
          "internalType": "bytes32",
          "name": "tokenId",
          "type": "bytes32"
        },
        {
          "indexed": false,
          "internalType": "uint256",
          "name": "amount",
          "type": "uint256"
        }
      ],
      "name": "WithdrawalClaimed",
      "type": "event"
    },
    {
      "anonymous": false,
      "inputs": [
        {
          "indexed": true,
          "internalType": "uint256",
          "name": "id",
          "type": "uint256"
        },
        {
          "indexed": true,
          "internalType": "address",
          "name": "staker",
          "type": "address"
        },
        {
          "indexed": false,
          "internalType": "uint256",
          "name": "amount",
          "type": "uint256"
        }
      ],
      "name": "Withdrawn",
      "type": "event"
    },
    {
      "inputs": [],
      "name": "ABSOLUTE_MAX_DURATION",
      "outputs": [
        {
          "internalType": "uint256",
          "name": "",
          "type": "uint256"
        }
      ],
      "stateMutability": "view",
      "type": "function"
    },
    {
      "inputs": [],
      "name": "ABSOLUTE_MAX_MIN_PENALTY",
      "outputs": [
        {
          "internalType": "uint8",
          "name": "",
          "type": "uint8"
        }
      ],
      "stateMutability": "view",
      "type": "function"
    },
    {
      "inputs": [],
      "name": "ABSOLUTE_MIN_DURATION",
      "outputs": [
        {
          "internalType": "uint256",
          "name": "",
          "type": "uint256"
        }
      ],
      "stateMutability": "view",
      "type": "function"
    },
    {
      "inputs": [],
      "name": "ABSOLUTE_MIN_PENALTY",
      "outputs": [
        {
          "internalType": "uint8",
          "name": "",
          "type": "uint8"
        }
      ],
      "stateMutability": "view",
      "type": "function"
    },
    {
      "inputs": [],
      "name": "FEE_UPDATE_DELAY",
      "outputs": [
        {
          "internalType": "uint256",
          "name": "",
          "type": "uint256"
        }
      ],
      "stateMutability": "view",
      "type": "function"
    },
    {
      "inputs": [],
      "name": "GRACE_PERIOD",
      "outputs": [
        {
          "internalType": "uint256",
          "name": "",
          "type": "uint256"
        }
      ],
      "stateMutability": "view",
      "type": "function"
    },
    {
      "inputs": [],
      "name": "LOCK_MULTIPLIER",
      "outputs": [
        {
          "internalType": "uint256",
          "name": "",
          "type": "uint256"
        }
      ],
      "stateMutability": "view",
      "type": "function"
    },
    {
      "inputs": [],
      "name": "MAX_DURATION",
      "outputs": [
        {
          "internalType": "uint256",
          "name": "",
          "type": "uint256"
        }
      ],
      "stateMutability": "view",
      "type": "function"
    },
    {
      "inputs": [],
      "name": "MAX_FEE_CHANGE_PERCENT",
      "outputs": [
        {
          "internalType": "uint256",
          "name": "",
          "type": "uint256"
        }
      ],
      "stateMutability": "view",
      "type": "function"
    },
    {
      "inputs": [],
      "name": "MAX_GRACE_PERIOD",
      "outputs": [
        {
          "internalType": "uint256",
          "name": "",
          "type": "uint256"
        }
      ],
      "stateMutability": "view",
      "type": "function"
    },
    {
      "inputs": [],
      "name": "MAX_LOCK_MULTIPLIER",
      "outputs": [
        {
          "internalType": "uint256",
          "name": "",
          "type": "uint256"
        }
      ],
      "stateMutability": "view",
      "type": "function"
    },
    {
      "inputs": [],
      "name": "MAX_USDC_FEE_INPUT",
      "outputs": [
        {
          "internalType": "uint256",
          "name": "",
          "type": "uint256"
        }
      ],
      "stateMutability": "view",
      "type": "function"
    },
    {
      "inputs": [],
      "name": "MIN_DURATION",
      "outputs": [
        {
          "internalType": "uint256",
          "name": "",
          "type": "uint256"
        }
      ],
      "stateMutability": "view",
      "type": "function"
    },
    {
      "inputs": [],
      "name": "MIN_LOCK_MULTIPLIER",
      "outputs": [
        {
          "internalType": "uint256",
          "name": "",
          "type": "uint256"
        }
      ],
      "stateMutability": "view",
      "type": "function"
    },
    {
      "inputs": [],
      "name": "MIN_PENALTY_PERCENTAGE",
      "outputs": [
        {
          "internalType": "uint8",
          "name": "",
          "type": "uint8"
        }
      ],
      "stateMutability": "view",
      "type": "function"
    },
    {
      "inputs": [],
      "name": "MIN_USDC_FEE",
      "outputs": [
        {
          "internalType": "uint256",
          "name": "",
          "type": "uint256"
        }
      ],
      "stateMutability": "view",
      "type": "function"
    },
    {
      "inputs": [],
      "name": "OWNERSHIP_RENUNCIATION_DELAY",
      "outputs": [
        {
          "internalType": "uint256",
          "name": "",
          "type": "uint256"
        }
      ],
      "stateMutability": "view",
      "type": "function"
    },
    {
      "inputs": [],
      "name": "OWNERSHIP_TRANSFER_DELAY",
      "outputs": [
        {
          "internalType": "uint256",
          "name": "",
          "type": "uint256"
        }
      ],
      "stateMutability": "view",
      "type": "function"
    },
    {
      "inputs": [],
      "name": "acceptOwnership",
      "outputs": [],
      "stateMutability": "nonpayable",
      "type": "function"
    },
    {
      "inputs": [
        {
          "internalType": "string",
          "name": "_symbol",
          "type": "string"
        },
        {
          "internalType": "address",
          "name": "_tokenAddress",
          "type": "address"
        },
        {
          "internalType": "address",
          "name": "_priceFeed",
          "type": "address"
        },
        {
          "internalType": "uint8",
          "name": "_decimals",
          "type": "uint8"
        },
        {
          "internalType": "uint256",
          "name": "_priceStalenessTolerance",
          "type": "uint256"
        }
      ],
      "name": "addToken",
      "outputs": [],
      "stateMutability": "nonpayable",
      "type": "function"
    },
    {
      "inputs": [
        {
          "internalType": "string[]",
          "name": "_symbols",
          "type": "string[]"
        },
        {
          "internalType": "address",
          "name": "_to",
          "type": "address"
        }
      ],
      "name": "batchRecoverTokens",
      "outputs": [
        {
          "components": [
            {
              "internalType": "string",
              "name": "symbol",
              "type": "string"
            },
            {
              "internalType": "bool",
              "name": "success",
              "type": "bool"
            },
            {
              "internalType": "uint256",
              "name": "amount",
              "type": "uint256"
            },
            {
              "internalType": "string",
              "name": "errorReason",
              "type": "string"
            }
          ],
          "internalType": "struct TouchGrass.RecoveryResult[]",
          "name": "",
          "type": "tuple[]"
        }
      ],
      "stateMutability": "nonpayable",
      "type": "function"
    },
    {
      "inputs": [
        {
          "internalType": "string",
          "name": "_symbol",
          "type": "string"
        }
      ],
      "name": "calculateMinStake",
      "outputs": [
        {
          "internalType": "uint256",
          "name": "minStake",
          "type": "uint256"
        }
      ],
      "stateMutability": "view",
      "type": "function"
    },
    {
      "inputs": [
        {
          "internalType": "string",
          "name": "_symbol",
          "type": "string"
        },
        {
          "internalType": "uint256",
          "name": "_stakeAmount",
          "type": "uint256"
        }
      ],
      "name": "calculateRequiredPayment",
      "outputs": [
        {
          "internalType": "uint256",
          "name": "totalRequired",
          "type": "uint256"
        },
        {
          "internalType": "uint256",
          "name": "fee",
          "type": "uint256"
        },
        {
          "internalType": "uint256",
          "name": "minStake",
          "type": "uint256"
        }
      ],
      "stateMutability": "view",
      "type": "function"
    },
    {
      "inputs": [
        {
          "internalType": "string",
          "name": "_symbol",
          "type": "string"
        }
      ],
      "name": "calculateTokenFee",
      "outputs": [
        {
          "internalType": "uint256",
          "name": "fee",
          "type": "uint256"
        }
      ],
      "stateMutability": "view",
      "type": "function"
    },
    {
      "inputs": [],
      "name": "canAcceptOwnership",
      "outputs": [
        {
          "internalType": "bool",
          "name": "",
          "type": "bool"
        }
      ],
      "stateMutability": "view",
      "type": "function"
    },
    {
      "inputs": [],
      "name": "canExecuteRenunciation",
      "outputs": [
        {
          "internalType": "bool",
          "name": "",
          "type": "bool"
        }
      ],
      "stateMutability": "view",
      "type": "function"
    },
    {
      "inputs": [],
      "name": "canExecuteUSDCFeeUpdate",
      "outputs": [
        {
          "internalType": "bool",
          "name": "",
          "type": "bool"
        }
      ],
      "stateMutability": "view",
      "type": "function"
    },
    {
      "inputs": [],
      "name": "cancelOwnershipRenunciation",
      "outputs": [],
      "stateMutability": "nonpayable",
      "type": "function"
    },
    {
      "inputs": [],
      "name": "cancelOwnershipTransfer",
      "outputs": [],
      "stateMutability": "nonpayable",
      "type": "function"
    },
    {
      "inputs": [],
      "name": "cancelUSDCFeeUpdate",
      "outputs": [],
      "stateMutability": "nonpayable",
      "type": "function"
    },
    {
      "inputs": [],
      "name": "challengeCount",
      "outputs": [
        {
          "internalType": "uint256",
          "name": "",
          "type": "uint256"
        }
      ],
      "stateMutability": "view",
      "type": "function"
    },
    {
      "inputs": [
        {
          "internalType": "uint256",
          "name": "",
          "type": "uint256"
        }
      ],
      "name": "challenges",
      "outputs": [
        {
          "internalType": "address",
          "name": "staker",
          "type": "address"
        },
        {
          "internalType": "uint8",
          "name": "penaltyPercent",
          "type": "uint8"
        },
        {
          "internalType": "enum TouchGrass.PenaltyType",
          "name": "penaltyType",
          "type": "uint8"
        },
        {
          "internalType": "bool",
          "name": "isSuccess",
          "type": "bool"
        },
        {
          "internalType": "bool",
          "name": "isWithdrawn",
          "type": "bool"
        },
        {
          "internalType": "uint8",
          "name": "lockMultiplierSnapshot",
          "type": "uint8"
        },
        {
          "internalType": "uint32",
          "name": "gracePeriodSnapshot",
          "type": "uint32"
        },
        {
          "internalType": "bytes32",
          "name": "tokenId",
          "type": "bytes32"
        },
        {
          "internalType": "uint256",
          "name": "stakeAmount",
          "type": "uint256"
        },
        {
          "internalType": "uint256",
          "name": "duration",
          "type": "uint256"
        },
        {
          "internalType": "uint256",
          "name": "startTime",
          "type": "uint256"
        }
      ],
      "stateMutability": "view",
      "type": "function"
    },
    {
      "inputs": [],
      "name": "charityWallet",
      "outputs": [
        {
          "internalType": "address",
          "name": "",
          "type": "address"
        }
      ],
      "stateMutability": "view",
      "type": "function"
    },
    {
      "inputs": [
        {
          "internalType": "string",
          "name": "_symbol",
          "type": "string"
        }
      ],
      "name": "claimPendingWithdrawal",
      "outputs": [],
      "stateMutability": "nonpayable",
      "type": "function"
    },
    {
      "inputs": [
        {
          "internalType": "string",
          "name": "_symbol",
          "type": "string"
        },
        {
          "internalType": "uint256",
          "name": "_stakeAmount",
          "type": "uint256"
        },
        {
          "internalType": "uint256",
          "name": "_durationSeconds",
          "type": "uint256"
        },
        {
          "internalType": "enum TouchGrass.PenaltyType",
          "name": "_penaltyType",
          "type": "uint8"
        },
        {
          "internalType": "uint8",
          "name": "_penaltyPercent",
          "type": "uint8"
        }
      ],
      "name": "createChallenge",
      "outputs": [],
      "stateMutability": "payable",
      "type": "function"
    },
    {
      "inputs": [
        {
          "internalType": "string",
          "name": "_symbol",
          "type": "string"
        }
      ],
      "name": "disableFallbackPrice",
      "outputs": [],
      "stateMutability": "nonpayable",
      "type": "function"
    },
    {
      "inputs": [
        {
          "internalType": "string",
          "name": "_symbol",
          "type": "string"
        },
        {
          "internalType": "uint256",
          "name": "_fallbackPrice",
          "type": "uint256"
        }
      ],
      "name": "enableFallbackPrice",
      "outputs": [],
      "stateMutability": "nonpayable",
      "type": "function"
    },
    {
      "inputs": [],
      "name": "executeOwnershipRenunciation",
      "outputs": [],
      "stateMutability": "nonpayable",
      "type": "function"
    },
    {
      "inputs": [],
      "name": "executeUSDCFeeUpdate",
      "outputs": [],
      "stateMutability": "nonpayable",
      "type": "function"
    },
    {
      "inputs": [
        {
          "internalType": "address",
          "name": "_user",
          "type": "address"
        },
        {
          "internalType": "uint256",
          "name": "_startIndex",
          "type": "uint256"
        },
        {
          "internalType": "uint256",
          "name": "_count",
          "type": "uint256"
        }
      ],
      "name": "getAllPendingWithdrawals",
      "outputs": [
        {
          "internalType": "string[]",
          "name": "symbols",
          "type": "string[]"
        },
        {
          "internalType": "uint256[]",
          "name": "amounts",
          "type": "uint256[]"
        },
        {
          "internalType": "uint256",
          "name": "totalTokens",
          "type": "uint256"
        }
      ],
      "stateMutability": "view",
      "type": "function"
    },
    {
      "inputs": [],
      "name": "getAllSupportedTokens",
      "outputs": [
        {
          "internalType": "string[]",
          "name": "",
          "type": "string[]"
        }
      ],
      "stateMutability": "view",
      "type": "function"
    },
    {
      "inputs": [
        {
          "internalType": "uint256",
          "name": "_startIndex",
          "type": "uint256"
        },
        {
          "internalType": "uint256",
          "name": "_count",
          "type": "uint256"
        }
      ],
      "name": "getAllTokenPricing",
      "outputs": [
        {
          "internalType": "string[]",
          "name": "tokens",
          "type": "string[]"
        },
        {
          "internalType": "uint256[]",
          "name": "prices",
          "type": "uint256[]"
        },
        {
          "internalType": "uint256[]",
          "name": "fees",
          "type": "uint256[]"
        },
        {
          "internalType": "uint256[]",
          "name": "minStakes",
          "type": "uint256[]"
        },
        {
          "internalType": "uint256",
          "name": "totalTokens",
          "type": "uint256"
        }
      ],
      "stateMutability": "view",
      "type": "function"
    },
    {
      "inputs": [
        {
          "internalType": "uint256",
          "name": "_challengeId",
          "type": "uint256"
        }
      ],
      "name": "getChallengeLockedInfo",
      "outputs": [
        {
          "internalType": "address",
          "name": "staker",
          "type": "address"
        },
        {
          "internalType": "bytes32",
          "name": "tokenId",
          "type": "bytes32"
        },
        {
          "internalType": "string",
          "name": "tokenSymbol",
          "type": "string"
        },
        {
          "internalType": "uint256",
          "name": "stakeAmount",
          "type": "uint256"
        },
        {
          "internalType": "bool",
          "name": "isWithdrawn",
          "type": "bool"
        },
        {
          "internalType": "bool",
          "name": "isSuccess",
          "type": "bool"
        },
        {
          "internalType": "uint256",
          "name": "unlockTime",
          "type": "uint256"
        }
      ],
      "stateMutability": "view",
      "type": "function"
    },
    {
      "inputs": [
        {
          "internalType": "string",
          "name": "_symbol",
          "type": "string"
        },
        {
          "internalType": "address",
          "name": "_user",
          "type": "address"
        }
      ],
      "name": "getPendingWithdrawal",
      "outputs": [
        {
          "internalType": "uint256",
          "name": "amount",
          "type": "uint256"
        }
      ],
      "stateMutability": "view",
      "type": "function"
    },
    {
      "inputs": [],
      "name": "getRecoverableETH",
      "outputs": [
        {
          "internalType": "uint256",
          "name": "recoverableAmount",
          "type": "uint256"
        }
      ],
      "stateMutability": "view",
      "type": "function"
    },
    {
      "inputs": [
        {
          "internalType": "address",
          "name": "_tokenAddress",
          "type": "address"
        }
      ],
      "name": "getRecoverableTokensByAddress",
      "outputs": [
        {
          "internalType": "uint256",
          "name": "recoverableAmount",
          "type": "uint256"
        },
        {
          "internalType": "bool",
          "name": "isSupported",
          "type": "bool"
        },
        {
          "internalType": "uint256",
          "name": "lockedAmount",
          "type": "uint256"
        },
        {
          "internalType": "uint256",
          "name": "pendingAmount",
          "type": "uint256"
        }
      ],
      "stateMutability": "view",
      "type": "function"
    },
    {
      "inputs": [
        {
          "internalType": "string",
          "name": "_symbol",
          "type": "string"
        }
      ],
      "name": "getRecoverableTokensBySymbol",
      "outputs": [
        {
          "internalType": "uint256",
          "name": "recoverableAmount",
          "type": "uint256"
        }
      ],
      "stateMutability": "view",
      "type": "function"
    },
    {
      "inputs": [
        {
          "internalType": "string",
          "name": "_symbol",
          "type": "string"
        }
      ],
      "name": "getTokenPrice",
      "outputs": [
        {
          "internalType": "uint256",
          "name": "price",
          "type": "uint256"
        }
      ],
      "stateMutability": "view",
      "type": "function"
    },
    {
      "inputs": [
        {
          "internalType": "string",
          "name": "_symbol",
          "type": "string"
        }
      ],
      "name": "getTotalPendingWithdrawals",
      "outputs": [
        {
          "internalType": "uint256",
          "name": "total",
          "type": "uint256"
        }
      ],
      "stateMutability": "view",
      "type": "function"
    },
    {
      "inputs": [],
      "name": "owner",
      "outputs": [
        {
          "internalType": "address",
          "name": "",
          "type": "address"
        }
      ],
      "stateMutability": "view",
      "type": "function"
    },
    {
      "inputs": [],
      "name": "ownershipRenunciationInitiated",
      "outputs": [
        {
          "internalType": "bool",
          "name": "",
          "type": "bool"
        }
      ],
      "stateMutability": "view",
      "type": "function"
    },
    {
      "inputs": [],
      "name": "ownershipRenunciationInitiatedAt",
      "outputs": [
        {
          "internalType": "uint256",
          "name": "",
          "type": "uint256"
        }
      ],
      "stateMutability": "view",
      "type": "function"
    },
    {
      "inputs": [],
      "name": "ownershipTransferInitiatedAt",
      "outputs": [
        {
          "internalType": "uint256",
          "name": "",
          "type": "uint256"
        }
      ],
      "stateMutability": "view",
      "type": "function"
    },
    {
      "inputs": [],
      "name": "pause",
      "outputs": [],
      "stateMutability": "nonpayable",
      "type": "function"
    },
    {
      "inputs": [],
      "name": "paused",
      "outputs": [
        {
          "internalType": "bool",
          "name": "",
          "type": "bool"
        }
      ],
      "stateMutability": "view",
      "type": "function"
    },
    {
      "inputs": [],
      "name": "pendingOwner",
      "outputs": [
        {
          "internalType": "address",
          "name": "",
          "type": "address"
        }
      ],
      "stateMutability": "view",
      "type": "function"
    },
    {
      "inputs": [],
      "name": "pendingUSDCFeeUpdate",
      "outputs": [
        {
          "internalType": "uint256",
          "name": "newFee",
          "type": "uint256"
        },
        {
          "internalType": "uint256",
          "name": "effectiveTime",
          "type": "uint256"
        },
        {
          "internalType": "bool",
          "name": "isPending",
          "type": "bool"
        }
      ],
      "stateMutability": "view",
      "type": "function"
    },
    {
      "inputs": [
        {
          "internalType": "bytes32",
          "name": "",
          "type": "bytes32"
        },
        {
          "internalType": "address",
          "name": "",
          "type": "address"
        }
      ],
      "name": "pendingWithdrawals",
      "outputs": [
        {
          "internalType": "uint256",
          "name": "",
          "type": "uint256"
        }
      ],
      "stateMutability": "view",
      "type": "function"
    },
    {
      "inputs": [
        {
          "internalType": "address",
          "name": "_tokenAddress",
          "type": "address"
        },
        {
          "internalType": "address",
          "name": "_to",
          "type": "address"
        }
      ],
      "name": "recoverERC20ByAddress",
      "outputs": [],
      "stateMutability": "nonpayable",
      "type": "function"
    },
    {
      "inputs": [
        {
          "internalType": "string",
          "name": "_symbol",
          "type": "string"
        },
        {
          "internalType": "address",
          "name": "_to",
          "type": "address"
        }
      ],
      "name": "recoverERC20BySymbol",
      "outputs": [],
      "stateMutability": "nonpayable",
      "type": "function"
    },
    {
      "inputs": [
        {
          "internalType": "address payable",
          "name": "_to",
          "type": "address"
        }
      ],
      "name": "recoverETH",
      "outputs": [],
      "stateMutability": "nonpayable",
      "type": "function"
    },
    {
      "inputs": [
        {
          "internalType": "address",
          "name": "_multiSig",
          "type": "address"
        }
      ],
      "name": "removeMultiSigWhitelist",
      "outputs": [],
      "stateMutability": "nonpayable",
      "type": "function"
    },
    {
      "inputs": [
        {
          "internalType": "string",
          "name": "_symbol",
          "type": "string"
        }
      ],
      "name": "removeToken",
      "outputs": [],
      "stateMutability": "nonpayable",
      "type": "function"
    },
    {
      "inputs": [],
      "name": "renounceOwnership",
      "outputs": [],
      "stateMutability": "nonpayable",
      "type": "function"
    },
    {
      "inputs": [],
      "name": "renunciationTimeRemaining",
      "outputs": [
        {
          "internalType": "uint256",
          "name": "",
          "type": "uint256"
        }
      ],
      "stateMutability": "view",
      "type": "function"
    },
    {
      "inputs": [
        {
          "internalType": "uint256",
          "name": "_newUSDCFee",
          "type": "uint256"
        }
      ],
      "name": "scheduleUSDCFeeUpdate",
      "outputs": [],
      "stateMutability": "nonpayable",
      "type": "function"
    },
    {
      "inputs": [
        {
          "internalType": "address",
          "name": "_newCharity",
          "type": "address"
        }
      ],
      "name": "setCharityWallet",
      "outputs": [],
      "stateMutability": "nonpayable",
      "type": "function"
    },
    {
      "inputs": [
        {
          "internalType": "uint256",
          "name": "_newGracePeriod",
          "type": "uint256"
        }
      ],
      "name": "setGracePeriod",
      "outputs": [],
      "stateMutability": "nonpayable",
      "type": "function"
    },
    {
      "inputs": [
        {
          "internalType": "uint256",
          "name": "_newLockMultiplier",
          "type": "uint256"
        }
      ],
      "name": "setLockMultiplier",
      "outputs": [],
      "stateMutability": "nonpayable",
      "type": "function"
    },
    {
      "inputs": [
        {
          "internalType": "uint8",
          "name": "_newMinPenaltyPercentage",
          "type": "uint8"
        }
      ],
      "name": "setMinPenaltyPercentage",
      "outputs": [],
      "stateMutability": "nonpayable",
      "type": "function"
    },
    {
      "inputs": [
        {
          "internalType": "address",
          "name": "_newTreasury",
          "type": "address"
        }
      ],
      "name": "setTreasuryWallet",
      "outputs": [],
      "stateMutability": "nonpayable",
      "type": "function"
    },
    {
      "inputs": [
        {
          "internalType": "uint256",
          "name": "_newMinStake",
          "type": "uint256"
        }
      ],
      "name": "setUSDCMinStake",
      "outputs": [],
      "stateMutability": "nonpayable",
      "type": "function"
    },
    {
      "inputs": [
        {
          "internalType": "address",
          "name": "_newVerifier",
          "type": "address"
        }
      ],
      "name": "setVerifier",
      "outputs": [],
      "stateMutability": "nonpayable",
      "type": "function"
    },
    {
      "inputs": [
        {
          "internalType": "uint256",
          "name": "",
          "type": "uint256"
        }
      ],
      "name": "supportedTokenIds",
      "outputs": [
        {
          "internalType": "bytes32",
          "name": "",
          "type": "bytes32"
        }
      ],
      "stateMutability": "view",
      "type": "function"
    },
    {
      "inputs": [
        {
          "internalType": "uint256",
          "name": "_id",
          "type": "uint256"
        }
      ],
      "name": "sweepPenalty",
      "outputs": [],
      "stateMutability": "nonpayable",
      "type": "function"
    },
    {
      "inputs": [
        {
          "internalType": "bytes32",
          "name": "",
          "type": "bytes32"
        }
      ],
      "name": "tokenConfigs",
      "outputs": [
        {
          "internalType": "bool",
          "name": "isSupported",
          "type": "bool"
        },
        {
          "internalType": "address",
          "name": "tokenAddress",
          "type": "address"
        },
        {
          "internalType": "address",
          "name": "priceFeed",
          "type": "address"
        },
        {
          "internalType": "uint8",
          "name": "decimals",
          "type": "uint8"
        },
        {
          "internalType": "uint256",
          "name": "priceStalenessTolerance",
          "type": "uint256"
        },
        {
          "internalType": "bool",
          "name": "useFallbackPrice",
          "type": "bool"
        },
        {
          "internalType": "uint256",
          "name": "fallbackPrice",
          "type": "uint256"
        }
      ],
      "stateMutability": "view",
      "type": "function"
    },
    {
      "inputs": [
        {
          "internalType": "bytes32",
          "name": "",
          "type": "bytes32"
        }
      ],
      "name": "tokenSymbols",
      "outputs": [
        {
          "internalType": "string",
          "name": "",
          "type": "string"
        }
      ],
      "stateMutability": "view",
      "type": "function"
    },
    {
      "inputs": [
        {
          "internalType": "bytes32",
          "name": "",
          "type": "bytes32"
        }
      ],
      "name": "totalLockedByToken",
      "outputs": [
        {
          "internalType": "uint256",
          "name": "",
          "type": "uint256"
        }
      ],
      "stateMutability": "view",
      "type": "function"
    },
    {
      "inputs": [
        {
          "internalType": "bytes32",
          "name": "",
          "type": "bytes32"
        }
      ],
      "name": "totalPendingWithdrawals",
      "outputs": [
        {
          "internalType": "uint256",
          "name": "",
          "type": "uint256"
        }
      ],
      "stateMutability": "view",
      "type": "function"
    },
    {
      "inputs": [
        {
          "internalType": "address",
          "name": "newOwner",
          "type": "address"
        }
      ],
      "name": "transferOwnership",
      "outputs": [],
      "stateMutability": "nonpayable",
      "type": "function"
    },
    {
      "inputs": [],
      "name": "treasuryWallet",
      "outputs": [
        {
          "internalType": "address",
          "name": "",
          "type": "address"
        }
      ],
      "stateMutability": "view",
      "type": "function"
    },
    {
      "inputs": [
        {
          "internalType": "address",
          "name": "",
          "type": "address"
        }
      ],
      "name": "trustedMultiSigs",
      "outputs": [
        {
          "internalType": "bool",
          "name": "",
          "type": "bool"
        }
      ],
      "stateMutability": "view",
      "type": "function"
    },
    {
      "inputs": [
        {
          "internalType": "address",
          "name": "",
          "type": "address"
        }
      ],
      "name": "trustedRecipients",
      "outputs": [
        {
          "internalType": "bool",
          "name": "",
          "type": "bool"
        }
      ],
      "stateMutability": "view",
      "type": "function"
    },
    {
      "inputs": [],
      "name": "unpause",
      "outputs": [],
      "stateMutability": "nonpayable",
      "type": "function"
    },
    {
      "inputs": [
        {
          "internalType": "uint256",
          "name": "_newMinDuration",
          "type": "uint256"
        },
        {
          "internalType": "uint256",
          "name": "_newMaxDuration",
          "type": "uint256"
        }
      ],
      "name": "updateDurationBounds",
      "outputs": [],
      "stateMutability": "nonpayable",
      "type": "function"
    },
    {
      "inputs": [
        {
          "internalType": "string",
          "name": "_symbol",
          "type": "string"
        },
        {
          "internalType": "address",
          "name": "_newPriceFeed",
          "type": "address"
        }
      ],
      "name": "updatePriceFeed",
      "outputs": [],
      "stateMutability": "nonpayable",
      "type": "function"
    },
    {
      "inputs": [],
      "name": "usdcFee",
      "outputs": [
        {
          "internalType": "uint256",
          "name": "",
          "type": "uint256"
        }
      ],
      "stateMutability": "view",
      "type": "function"
    },
    {
      "inputs": [],
      "name": "usdcMinStake",
      "outputs": [
        {
          "internalType": "uint256",
          "name": "",
          "type": "uint256"
        }
      ],
      "stateMutability": "view",
      "type": "function"
    },
    {
      "inputs": [],
      "name": "verifier",
      "outputs": [
        {
          "internalType": "address",
          "name": "",
          "type": "address"
        }
      ],
      "stateMutability": "view",
      "type": "function"
    },
    {
      "inputs": [
        {
          "internalType": "string",
          "name": "_symbol",
          "type": "string"
        }
      ],
      "name": "verifyFundAccounting",
      "outputs": [
        {
          "internalType": "bool",
          "name": "isBalanced",
          "type": "bool"
        },
        {
          "internalType": "uint256",
          "name": "discrepancy",
          "type": "uint256"
        }
      ],
      "stateMutability": "view",
      "type": "function"
    },
    {
      "inputs": [
        {
          "internalType": "uint256",
          "name": "_id",
          "type": "uint256"
        }
      ],
      "name": "verifySuccess",
      "outputs": [],
      "stateMutability": "nonpayable",
      "type": "function"
    },
    {
      "inputs": [
        {
          "internalType": "address",
          "name": "_multiSig",
          "type": "address"
        }
      ],
      "name": "whitelistMultiSig",
      "outputs": [],
      "stateMutability": "nonpayable",
      "type": "function"
    },
    {
      "inputs": [
        {
          "internalType": "uint256",
          "name": "_id",
          "type": "uint256"
        },
        {
          "internalType": "uint256",
          "name": "_donationPercent",
          "type": "uint256"
        },
        {
          "internalType": "enum TouchGrass.PenaltyType",
          "name": "_donationTarget",
          "type": "uint8"
        }
      ],
      "name": "withdraw",
      "outputs": [],
      "stateMutability": "nonpayable",
      "type": "function"
    }
  ],
  "bytecode": "0x6080346200021357601f62005cf938819003918201601f1916830191906001600160401b0383118484101762000218578160a09285926040958652833981010312620002135762000050826200022e565b6200005e602084016200022e565b906200006c8385016200022e565b936080606082015191015191600090600182553315620001fb57600280546001600160a01b0319908116909155600180543381841681179092558851929992976001600160a01b03949092859283167f8be0079c531659141344cd1fd0a4f28419497f9722a3daafe3b4186f6b6457e08880a3169687158015620001f0575b8015620001e5575b620001d657508216958681148015620001ca575b8015620001be575b620001ad573381146200019c57918891889993601499959460095416176009558783600a541617600a55168091600b541617600b55815260086020528181209460ff1995600187825416179055815220600184825416179055600c55600d55603c6011556301e1338060125562093a8060135560058255601554161760155551615ab59081620002448239f35b875163f914ac3360e01b8152600490fd5b875163898cf5bd60e01b8152600490fd5b5082821687146200010f565b50828216811462000107565b63e6c4247b60e01b8152600490fd5b5083831615620000f3565b5083821615620000eb565b8551631e4fbdf760e01b815260048101839052602490fd5b600080fd5b634e487b7160e01b600052604160045260246000fd5b51906001600160a01b0382168203620002135756fe60c0604052600436101561001257600080fd5b60003560e01c80630107e47214613c835780630932a21414613be35780630b1001b414613aba5780631209589114613a7a578063134dfcd81461395a578063136f5cdd1461393c57806314926f971461391b57806315c109cc146138fe57806316b92646146138e057806317f0088d146136095780631ad6534a146135eb5780631eddfecb146135cc5780631f455922146133fa57806323452b9c1461332c57806329293774146133105780632b7ac3f3146132e75780632d63109f14612e1557806330563bd714612d3a5780633080f54014612ccf578063356c669314612c9b57806336227c6914612c605780633f4ba83a14612bee5780634626402b14612bc55780634661964914612ba75780634c53969014612b6c5780634d7e1c7514612b4e5780634e5e0e8014612b1757806352581af514612afb5780635350758f14612ac05780635437988d14612a22578063586213a814612a0457806359682444146129765780635c975abb146129505780635dbf66371461293457806363a9f22d146128e257806363b95fe61461288857806366f78e761461281c5780636f8225c8146127fe578063715018a61461277b57806372e20d30146127365780637433ae7a1461271857806379ba50971461265c5780637b167493146126125780637b208769146125e95780637ccf7c07146125ce5780637fe3ca36146125655780638456cb5914612503578063889952aa146124c857806389261bb21461248f5780638ad16bbf146124465780638b3e2afb146124235780638da5cb5b146123fa5780638f1d37761461233b578063926946d11461228b57806394b7c592146121a55780639a2830f7146120715780639c2544791461203c578063a018e5a014611ffd578063a2f0572514611fdf578063a49641e614611fa0578063a8602fea14611eb3578063b0b9151714611e97578063b1724b4614611e79578063b2bbf64714611ad4578063b6a6d17714611ab6578063be44d38d14611a6e578063c1a287e214611a50578063c24b58a414611a24578063c5b07ffa146117e1578063d09676a914611680578063d1ce999d1461163d578063d4a06c8f1461161f578063d9bd722a1461159f578063dc62d61414611562578063df4b8b061461153f578063e30c397814611512578063e3501156146114a1578063e738b2b5146113ff578063eb6d420b1461134c578063ec05386b14611251578063eea2d7dc1461119f578063efbcd303146110ce578063f0a9ac19146110b0578063f2e5f3c114611052578063f2f6596014610f99578063f2fde38b14610e79578063f56bca4b14610c9f578063f6a0edb114610c39578063f9fca4cf14610c1d578063fac97c1b14610bbc578063faf74ece14610b90578063fc12134b146105d95763ffa1cc251461041b57600080fd5b346105d45760203660031901126105d457600435600052601d602052604060002060405161044881613eb1565b81546001600160a01b03808216835260ff60a083901c811660208501529192604081019061047c60a886901c851683614229565b60608101848660b01c16151581526080820191858760b81c161515835263ffffffff60a0820197878160c01c16895260c81c1660c08201526001880154978860e083015260028101549561010083019687526004600383015492610120850193845201549261014081019384525116978960005260186020526105026040600020613f26565b96519785511515958551151597519560048710156105be57600261057c971491826105b4575b50816105aa575b5015610595579161054d6105579261055c9594835191511690614261565b9251905190614114565b614114565b935b6040519788978852602088015260e0604088015260e0870190613d0a565b936060860152608085015260a084015260c08301520390f35b50506105a49151905190614114565b9361055e565b905051153861052f565b5115915038610528565b634e487b7160e01b600052602160045260246000fd5b600080fd5b60a03660031901126105d4576001600160401b036004358181116105d457610605903690600401613da6565b90600460643510156105d4576084359160ff831683036105d4576106276140d0565b61062f6140af565b8015610b7e576040519360a0850190811185821017610b68576040526000845260208401916000835260408501906000825260608601926000845260808701916000835260405160208101906020825261069f816106916040820187876140f3565b03601f198101835282613f03565b5190208089526000526016602052604060002090604051906106c082613e7b565b82549160ff8316159081158152602081019360018060a01b039060081c16845260c0600460018701549660018060a01b038816604085015260ff606085019860a01c1688526002810154608085015260ff600382015416151560a08501520154910152610b5657838161073860ff9661073f94614b09565b8a52614bd0565b8552516001600160a01b031685525116905260243515610b44575160243510610b325760036064351480610b25575b610b1357601154604435108015610b06575b610af457606460ff841611610ae25760ff6015541660ff841610610ad05780516001600160a01b0316610a6457506107bb8151602435614114565b90813410610a52575180610a15575b5080341161098e575b508151600052601c60205260406000206107f06024358254614114565b90555b60135463ffffffff811161097c5760ff60145416925160ff6040519361081885613eb1565b33855216602084015261083060643560408501614229565b6000606084015260808301906000825260a0840194855263ffffffff60c085019316835260e0840190815261010084019060243582526101208501926044358452610140860194428652601e54600052601d60205260406000209760018060a01b0388511660018060a01b03198a54161789556108b460ff60208a0151168a614235565b60408801519260048410156105be576004988a5490606060ff60b01b910151151560b01b169160ff60b81b9051151560b81b169260ff60c01b905160c01b169363ffffffff60c81b905160c81b169460ff60a81b9060a81b1690600160a81b600160e81b0319161717171717865551600186015551600285015551600384015551910155610972601e546040516024358152817f4392aedf3bdc85e85ccf5c599cb7976a5b4f7b7189118379628127df3f40b10460203393a3614252565b601e556001600055005b60405163c516778760e01b8152600490fd5b610998903461416c565b600080808084335af16109a961413c565b506107d3578251600052601a60205260406000203360005260205260406000206109d4828254614114565b90558251600052601b60205260406000206109f0828254614114565b905582519060405190815260008051602061594083398151915260203392a3826107d3565b600b546000918291829182916001600160a01b03165af1610a3461413c565b5015610a4057836107ca565b604051634033e4e360e01b8152600490fd5b60405163500d4efb60e11b8152600490fd5b9034610abe579051600b549151610a9b926001600160a01b0392831692610a8e9291163384614179565b6024359030903390614179565b8151600052601c6020526040600020610ab76024358254614114565b90556107f3565b60405163078d696560e31b8152600490fd5b60405163895cc90360e01b8152600490fd5b604051630a1dcded60e31b8152600490fd5b604051637616640160e01b8152600490fd5b5060125460443511610780565b6040516307e07b3160e21b8152600490fd5b50606460ff84161061076e565b60405163de588d7360e01b8152600490fd5b604051634eba4d4960e11b8152600490fd5b604051633dd1b30560e01b8152600490fd5b634e487b7160e01b600052604160045260246000fd5b60405163b4fa3fb360e01b8152600490fd5b346105d45760203660031901126105d457600435600052601b6020526020604060002054604051908152f35b346105d457610691610bee610bd036613dff565b939160409391935192839160208301956020875260408401916140f3565b519020600052601a60205260406000209060018060a01b03166000526020526020604060002054604051908152f35b346105d45760003660031901126105d457602060405160038152f35b346105d45760203660031901126105d457610c52613de9565b610c5a6147aa565b6001600160a01b03166000818152600560205260408120805460ff191690557f88d7b4e47baac0d3da32ec23b674f5a638d583d1d651a4cecceb2fbaf123844f9080a2005b346105d4576020806003193601126105d4576004356001600160401b0381116105d457610691610cd6610cf7923690600401613da6565b9290610ce06140d0565b6040519283918683019587875260408401916140f3565b5190209081600052601a81526040600020336000528152604060002054908115610e675782600052601a815260406000203360005281526000604081205582600052601b81526040600020610d4d83825461416c565b90558260005260168152816040600020604051610d6981613e7b565b60c0600483549360ff85161515845260ff60018060a01b03809660081c169586898701526001830154908116604087015260a01c1660608501526002810154608085015260ff600382015416151560a085015201549101528015600014610e465750600080808093335af1610ddc61413c565b5015610e03576000805160206159e0833981519152905b6040519283523392a36001600055005b601b9083610e3394600052601a825260406000203360005282528360406000205560005252604060002054614114565b50604051630ae6942360e01b8152600490fd5b6000805160206159e08339815191529291610e6291339061458a565b610df3565b604051639121b84f60e01b8152600490fd5b346105d45760203660031901126105d457610e92613de9565b610e9a6147aa565b60ff60065416610f87576001600160a01b0381811691908215610f75576001541690818314610f63573b151580610f4a575b610f3857600480546001600160a01b031916831790554260038190556202a3008101908110610f225760207f2cf6fd9b9ab77c245c3a6f994fcdd0dcad5082c5c03c2121ba304c2741a16d1d91604051908152a3005b634e487b7160e01b600052601160045260246000fd5b604051630e927f5760e21b8152600490fd5b5081600052600560205260ff6040600020541615610ecc565b60405163622c96bd60e11b8152600490fd5b604051633a954ecd60e21b8152600490fd5b60405163347c4ee760e01b8152600490fd5b346105d45760203660031901126105d457600435610fb56147aa565b6201518080820290828204811483151715610f225781106110405762278d00811161102e5763ffffffff811161097c576303c267008181011061101c576013557f33d1191f5a3abfe19d468d51bb5ece97489f1277a912a5b5c65992fc279ad3d4600080a2005b60405163c139a61160e01b8152600490fd5b6040516370272fbb60e11b8152600490fd5b6040516363e53bfd60e01b8152600490fd5b346105d45760603660031901126105d4576110986110a6611081611074613de9565b604435906024359061466b565b919290604051948594606086526060860190613d4a565b90848203602086015261407b565b9060408301520390f35b346105d45760003660031901126105d4576020604051620186a08152f35b346105d45760003660031901126105d4576110e76147aa565b60065460ff81161561118d5760075462093a808101809111610f2257421061117b576001805460ff1990921660065560006007819055600280546001600160a01b031990811690915583169091556001600160a01b039091169081600080516020615a008339815191528280a37ff8df31144d9c2f0f6b59d69b8b98abd5459d07f2742c4df920b25aae33c64820600080a2005b604051635d94febb60e11b8152600490fd5b60405163341c92ef60e11b8152600490fd5b346105d45760003660031901126105d4576040516111bc81613e96565b600e548152600f546020820190815260ff60105416158015604084015261123f5751421061122d5760407f3e08cba9222b31bb7aac09f5dacaa0671e5c98fafd018a103e62aa35cc58714d91600c54905180600c556000600e556000600f55600060105582519182526020820152a1005b60405163813b023960e01b8152600490fd5b6040516319b2c6ef60e31b8152600490fd5b346105d45760203660031901126105d45760043561126d6140d0565b6009546001600160a01b0316330361133b5780600052601d6020526040600020805460ff8160b01c166113295760ff8160b81c16611317576112b86004830154600384015490614114565b6103848101809111610f225742116113055760ff60b01b1916600160b01b1790557f385ed28f1b8a63ba23626539ad487fed2882db462aa0abffca4fb5f39f6a4688600080a26001600055005b604051632ddeb06560e01b8152600490fd5b6040516374df98bf60e01b8152600490fd5b604051630e26cfd960e01b8152600490fd5b6040516282b42960e81b8152600490fd5b346105d45760203660031901126105d4576004356001600160401b0381116105d4576106916113826113a5923690600401613da6565b929061138c6147aa565b60405192839160208301956020875260408401916140f3565b51902080600052601660205260ff6040600020541615610b5657806000526016602052600360406000200160ff1981541690557f166ba91f2568f3b5f401c2d9e34cb29e8422613701d6024bbe60e627fa780b5c600080a2005b346105d45761069161142061141336613ffd565b939161138c9391936147aa565b5190209081600052601660205260ff6040600020541615610b5657801561148f5760207f8df6f90013e411f77a3760042c965962ef41e51850de75bbbeb0129b5311b017918360005260168252806004604060002060038101600160ff198254161790550155604051908152a2005b60405163f45e167b60e01b8152600490fd5b346105d4576114de6114ec6114fa6115086114c46114be36614065565b90614c87565b95926040979194975198899860a08a5260a08a0190613d4a565b9088820360208a015261407b565b90868203604088015261407b565b90848203606086015261407b565b9060808301520390f35b346105d45760003660031901126105d457602061152d61582f565b6040516001600160a01b039091168152f35b346105d45760003660031901126105d457602060ff600654166040519015158152f35b346105d45760203660031901126105d4576080611585611580613de9565b615269565b916040519384521515602084015260408301526060820152f35b346105d45760203660031901126105d457600435600052601660205260e06040600020805490600181015490600281015460ff60048160038501541693015493604051958281161515875260018060a01b03809160081c1660208801528116604087015260a01c1660608501526080840152151560a083015260c0820152f35b346105d45760003660031901126105d4576020604051620151808152f35b346105d45760003660031901126105d45760ff6006541680611667575b6020906040519015158152f35b5060075462093a808101809111610f225742101561165a565b346105d45760203660031901126105d45760043561169c6147aa565b80156117bd577d10c6f7a0b5ed8d36b4c7f34938583621fafc8b0079a2834d26fa3fcc9ea981116117cf57620f424080820291820403610f225780156117bd57620186a081106117ab57600c548015801561176e575b5081111561175657620151804201804211610f2257600080516020615900833981519152916040915b600183805161172981613e96565b848152836020820152015281600e5580600f55600160ff19601054161760105582519182526020820152a1005b6040600080516020615900833981519152914261171b565b6101f49081830291838304141715610f2257606461178d910482614114565b821161179957826116f2565b60405163464f806b60e01b8152600490fd5b604051636bf9536360e01b8152600490fd5b604051631d015f9d60e11b8152600490fd5b60405163a41abbbd60e01b8152600490fd5b346105d45760403660031901126105d4576117fa613de9565b611802613dd3565b61180a6147aa565b6118126140d0565b6001600160a01b038281168015611a1257818316938415611a125760009160405161183c81613ee8565b6000815293600090601754915b828110611958575b50508315905061186d57506118669450614f86565b6001600055005b93925050506040516370a0823160e01b81523060048201526020908181602481875afa90811561194c5760009161191f575b50801561190d5760406080926118e8836000805160206159808339815191529688600080516020615a60833981519152606087518581526000888201528589820152a28861458a565b815192835282015260076040820152662aa725a727aba760c91b6060820152a3611866565b604051635e4f582160e11b8152600490fd5b90508181813d8311611945575b6119368183613f03565b810103126105d457518561189f565b503d61192c565b6040513d6000823e3d90fd5b61196181613fcc565b9054600391821b1c90816000528560209160168352604060002060c060046040519261198c84613e7b565b8054948a60ff968781161515875260081c169586898701526001830154918c831660408801528160a093841c16606088015260028401546080880152830154161515908501520154910152146119ec5750506119e790614252565b611849565b93509550505060189194508360005252611a096040600020613f26565b92868080611851565b60405163e6c4247b60e01b8152600490fd5b346105d45760203660031901126105d457600435600052601c6020526020604060002054604051908152f35b346105d45760003660031901126105d4576020601354604051908152f35b346105d45760403660031901126105d457611a87613dd3565b600435600052601a60205260406000209060018060a01b03166000526020526020604060002054604051908152f35b346105d45760003660031901126105d4576020601154604051908152f35b346105d45760a03660031901126105d4576004356001600160401b0381116105d457611b04903690600401613da6565b611b0c613dd3565b604435929091906001600160a01b03841684036105d4576064359060ff821682036105d457611b396147aa565b604051602081019060208252611b57816106916040820188876140f3565b5190209182600052601660205260ff60406000205416611e67576001600160a01b03861615611a125760843515611e5557611b918661481f565b600460405191611ba083613e7b565b60018352611c84602084019160018060a01b03891683526040850160018060a01b038b16815260ff6060870192168252611c666080870191608435835260ff60a08901946000865260c08a0197600089528c6000526016602052611c1860406000209b5115158c9060ff801983541691151516179055565b518a54610100600160a81b03191660089190911b610100600160a81b0316178a55915160018a0180546001600160a01b0319166001600160a01b039290921691909117815591511690614235565b516002860155511515600385019060ff801983541691151516179055565b51910155601754600160401b811015610b6857611cc2611cab826001869401601755613fcc565b819391549060031b91821b91600019901b19161790565b90556017546000199590868101908111610f225783600052601f602052604060002055602080526040600020600160ff198254161790556018602052604060002060018060401b038511610b6857611d1a8154613e41565b601f8111611e0d575b50600096601f8611600114611d9857856000805160206159a083398151915295969798600091611d8d575b508760011b918860031b1c19161790555b60405160208082526001600160a01b03928316979092169590928392611d8892908401916140f3565b0390a4005b905084013589611d4e565b601f198616978260005260206000209160005b8a8110611df55750876000805160206159a08339815191529798999a10611ddd575b505050600186811b019055611d5f565b60f88960031b161c1990850135169055878080611dcd565b9192602060018192868a013581550194019201611dab565b816000526020600020601f870160051c81019160208810611e4b575b601f0160051c01905b818110611e3f5750611d23565b60008155600101611e32565b9091508190611e29565b6040516303ff3dd760e11b8152600490fd5b60405163c78e82ad60e01b8152600490fd5b346105d45760003660031901126105d4576020601254604051908152f35b346105d45760003660031901126105d4576020604051600f8152f35b346105d45760203660031901126105d457611ecc613de9565b611ed46147aa565b6001600160a01b03908116908115611a125780600a54168214611f8e5780600954168214611f8e5780600b541680600080516020615a40833981519152600080a26000526008602052604060002060ff199081815416905582600080516020615920833981519152600080a282600052600160406000209182541617905581600b549182167fa982575859d7ad2f390dc12b23f7dab8bbda047f9d0140ac68344b27bf34bfb4600080a36001600160a01b03191617600b55005b60405163898cf5bd60e01b8152600490fd5b346105d45760203660031901126105d4576001600160a01b03611fc1613de9565b166000526005602052602060ff604060002054166040519015158152f35b346105d45760003660031901126105d4576020601e54604051908152f35b346105d45760203660031901126105d4576001600160a01b0361201e613de9565b166000526008602052602060ff604060002054166040519015158152f35b346105d45760003660031901126105d45760ff6010541680612065576020906040519015158152f35b50600f5442101561165a565b346105d45761207f36614065565b906120886147aa565b603c8102818104603c1482151715610f22576201518090818402918483041484151715610f2257603c8110612193576303c267008211612181578181101561216f576213c6808402828104600f1483151715610f225782600f82040361215d576120f390421961416c565b821161214b576011556012557f049a6934bf12da797a1e19e9f70b578af0fdab9d72c2d4b8d82984a54c9e6400600080a27f5051341ab3f6d56c8295227b7476589d73ae29d5dfaff08dfc01f67f28a8a3e3600080a2005b60405163c869336b60e01b8152600490fd5b60405163e025822360e01b8152600490fd5b604051638b1d8b4b60e01b8152600490fd5b6040516301e61e0760e51b8152600490fd5b6040516336fa738b60e01b8152600490fd5b346105d4576121b336613dff565b906121bc6147aa565b6121c46140d0565b6001600160a01b039282841615611a12576040516020810190602082526121f3816106916040820187876140f3565b519020908160005260166020526040600020906040519161221383613e7b565b80549260c0600460ff86161593841584528a602085019760081c16875260ff60018201548c8116604087015260a01c1660608501526002810154608085015260ff600382015416151560a08501520154910152610b56578582511615611a125761186695612285925116933691614f4f565b91614f86565b346105d45760203660031901126105d4576004356122a76147aa565b6003811061232957600f8111612317576303c2670081810290806122cb8484614045565b036123055742914201011061230557806014557f91a5406c059a34c86623b7bf1eedf868a2c312dca12617c7cb6389a9b9970233600080a2005b604051635f27482360e11b8152600490fd5b6040516309261e9560e41b8152600490fd5b604051631035a3b560e21b8152600490fd5b346105d45760203660031901126105d457600435600052601d602052604060002080549060ff8260a81c1690600181015490600281015460046003830154920154926040519460018060a01b038716865260ff8760a01c16602087015260048110156105be576101609663ffffffff91604088015260ff8160b01c161515606088015260ff8160b81c161515608088015260ff8160c01c1660a088015260c81c1660c086015260e0850152610100840152610120830152610140820152f35b346105d45760003660031901126105d4576001546040516001600160a01b039091168152602090f35b346105d45760003660031901126105d457602061243e615851565b604051908152f35b346105d45760203660031901126105d4576004356001600160401b0381116105d45761248161247b6040923690600401613da6565b906156ba565b825191151582526020820152f35b346105d45760003660031901126105d45760206040517d10c6f7a0b5ed8d36b4c7f34938583621fafc8b0079a2834d26fa3fcc9ea98152f35b346105d45760203660031901126105d4576004356001600160401b0381116105d45761243e6124fd6020923690600401613da6565b9061511b565b346105d45760003660031901126105d45761251c6147aa565b6125246140af565b6002805460ff60a01b1916600160a01b1790556040513381527f62e78cea01bee320cd4e420270b5ea74000d11b0c9f74754ebdbfc544b05a25890602090a1005b346105d45760203660031901126105d45761257e613de9565b6125866147aa565b6001600160a01b03166000818152600560205260408120805460ff191660011790557f28b124bc885018cb01dc65331df0a825c10382ea21eabc26502af36ed436d8f39080a2005b346105d45760003660031901126105d457602061243e6150c8565b346105d45760003660031901126105d457600a546040516001600160a01b039091168152602090f35b346105d45760003660031901126105d4576004546001600160a01b0316151580612643576020906040519015158152f35b506003546202a3008101809111610f225742101561165a565b346105d45760003660031901126105d4576001600160a01b03338161267f61582f565b1614158061270a575b6126f8576003546202a3008101809111610f225742106126e65760018060a01b0319908160025416600255600154903383831617600155339116600080516020615a00833981519152600080a3600454166004556000600355600080f35b604051635999a10560e11b8152600490fd5b6040516303c25d1960e61b8152600490fd5b503381600454161415612688565b346105d45760003660031901126105d45760206040516202a3008152f35b346105d45761276a61277761274a36613ffd565b929161276461275c8383979497614b09565b958692614bd0565b93614114565b916040519384938461402f565b0390f35b346105d45760003660031901126105d4576127946147aa565b6004546001600160a01b03908116610f875760065460ff8116610f875760019060ff191617600655426007556001541662093a804201804211610f225760207fe25d30c0102dba87353d8ca0316de41b0a0e8dd7c3867da42d3b93929702ae1091604051908152a2005b346105d45760003660031901126105d4576020600754604051908152f35b346105d45760203660031901126105d4576004356001600160401b0381116105d45761069161285261286d923690600401613da6565b929060405192839160208301956020875260408401916140f3565b519020600052601b6020526020604060002054604051908152f35b346105d45760003660031901126105d4576128a16147aa565b60ff601054161561123f576000600e556000600f5560006010557ff01a470041f696cf98054d8f318e3313eaa908f515b9c966d66bdd700ebeb9de600080a1005b346105d45760003660031901126105d4576128fb6147aa565b60065460ff81161561118d5760018060a01b03600154169060ff19166006556000600755600080516020615960833981519152600080a2005b346105d45760003660031901126105d4576020604051603c8152f35b346105d45760003660031901126105d457602060ff60025460a01c166040519015158152f35b346105d45760203660031901126105d45760043560ff81168091036105d45761299d6147aa565b600581106129f257603281116129e0578060ff1960155416176015557fa0544df958eb64342ece2dbbaf5f7e3215c6b1cbad9ee36b2ad9375df23e0467600080a2005b60405163015599d760e51b8152600490fd5b60405163357b60db60e21b8152600490fd5b346105d45760003660031901126105d457602060405162093a808152f35b346105d45760203660031901126105d457612a3b613de9565b612a436147aa565b6001600160a01b03908116908115611a1257338214612aae5780600a54168214611f8e5780600b54168214611f8e57816009549182167f0243549a92b2412f7a3caf7a2e56d65b8821b91345363faa5f57195384065fcc600080a36001600160a01b03191617600955005b60405163f914ac3360e01b8152600490fd5b346105d45760203660031901126105d4576004356001600160401b0381116105d45761243e612af56020923690600401613da6565b906148d6565b346105d45760003660031901126105d457602060405160058152f35b346105d45760203660031901126105d4576004356017548110156105d457612b40602091613fcc565b90546040519160031b1c8152f35b346105d45760003660031901126105d4576020600d54604051908152f35b346105d45760203660031901126105d4576004356001600160401b0381116105d45761243e612ba16020923690600401613da6565b90614b09565b346105d45760003660031901126105d457602060405162278d008152f35b346105d45760003660031901126105d457600b546040516001600160a01b039091168152602090f35b346105d45760003660031901126105d457612c076147aa565b60025460ff8160a01c1615612c4e5760ff60a01b19166002556040513381527f5db9ee0a495bf2e6ff9c91a7834c1ba4fdd244a5e8aa4e537bd38aeae4b073aa90602090a1005b604051638dfc202b60e01b8152600490fd5b346105d45760203660031901126105d4576004356001600160401b0381116105d45761243e612c956020923690600401613da6565b90614bd0565b346105d45760003660031901126105d4576060600e54600f5460ff6010541690604051928352602083015215156040820152f35b346105d45760203660031901126105d457600435612ceb6147aa565b8015611e5557600d5490620f424080820291820403610f22577f3fac1af836e5e5cb34b3c3efbec585ce813fe5c16ed53a4ec34a8bbe31f8680d9181604092600d5582519182526020820152a1005b346105d45760203660031901126105d457612d53613de9565b612d5b6147aa565b6001600160a01b03908116908115611a125780600b54168214611f8e5780600954168214611f8e5780600a541680600080516020615a40833981519152600080a26000526008602052604060002060ff199081815416905582600080516020615920833981519152600080a282600052600160406000209182541617905581600a549182167fc20073d1c4443096c55d22a3812db7261aa6911634e1a0850f068d0c9923402d600080a36001600160a01b03191617600a55005b346105d45760403660031901126105d4576004356001600160401b038082116105d457366023830112156105d4578160040135116105d45760248101366024836004013560051b840101116105d457612e6c613dd3565b612e746147aa565b612e7c6140d0565b6001600160a01b03811615611a1257612e9883600401356145c4565b92612ea66040519485613f03565b6004810135808552601f19908190612ebd906145c4565b0160005b8181106132d057505060009360005b83600401358110612f7d5786861561190d57600180600055604051906020808301818452845180915260408401918060408360051b8701019601926000905b838210612f1c5786880387f35b90919293948380612f6c839a603f198b82030186528951612f4581516080808552840190613d0a565b91848201511515858201526040820151604082015260608092015191818403910152613d0a565b999701959493919091019101612f0f565b612f8c8185600401358461541e565b604051612fb681612faa6020958683019587875260408401916140f3565b03878101835282613f03565b519020806000526016825286604060002060ff60405191612fd683613e7b565b60048154918383161515855260018060a01b038360081c168886015283600182015460018060a01b0381166040880152606060805260a01c166060860152600281015460808601528360038060a05282015416151560a0860152015460c0840152161561327457808401516001600160a01b0316801515908161326a575b506131fe57808401516001600160a01b03166131c85750506130746153e8565b9060405161308181613ecd565b60a05181526208aa8960eb1b8482015282524790600052601c83526130b5604060002054601b855260406000205490614114565b80821115613191576130c69161416c565b6000808080848c5af16130d761413c565b501561315a576001828401526040808301829052519081526001600160a01b03881690600080516020615a20833981519152908490a25b613118838a614657565b526131238289614657565b505b61312f8289614657565b510151613145575b61314090614252565b612ed0565b9461315261314091614252565b959050613137565b5060405161316781613ecd565b6013815272115512081d1c985b9cd9995c8819985a5b1959606a1b8382015260805182015261310e565b505060405161319f81613ecd565b601281527109cde40e4cac6deeccae4c2c4d8ca408aa8960731b8382015260805182015261310e565b6131e3926131db868a600401358961541e565b92909161545f565b6131ed838a614657565b526131f88289614657565b50613125565b505050906131409161322d6132188388600401358761541e565b9190613224858d614657565b51923691614f4f565b905260805161323c838b614657565b51016d139bdd08184818dbdb9d1c9858dd60921b6040519261325d84613ecd565b600e845283015252614252565b90503b158c613054565b505050906131409161328e6132188388600401358761541e565b905260805161329d838b614657565b510172151bdad95b881b9bdd081cdd5c1c1bdc9d1959606a1b604051926132c384613ecd565b6013845283015252614252565b6020906132db6153e8565b82828a01015201612ec1565b346105d45760003660031901126105d4576009546040516001600160a01b039091168152602090f35b346105d45760003660031901126105d457602060405160328152f35b346105d45760003660031901126105d4576133456147aa565b6004546001600160a01b039081811690811580806133ed575b6133db571561339c575b505060065460ff811661337757005b60ff1916600655600060075560015416600080516020615960833981519152600080a2005b6001600160a01b031916600455600060038190557f48a87225523c5fd46bf3b7da3223e5525f77b8136a962695d701a24699bef8f39080a28180613368565b604051634e35843360e11b8152600490fd5b5060ff600654161561335e565b346105d4576020806003193601126105d4576004356001600160401b0381116105d45761342b903690600401613da6565b6134336147aa565b6040518381019084825261344f816106916040820186886140f3565b519020928360005280805260ff60406000205416156135ba57836000526016815260ff6040600020541615610b565783600052601c81526040600020546135a85783600052601b81526040600020546135a8578360005260168152604060002060ff1990818154169055601f8252604060002054936017549460001995868101908111610f2257808203613575575b505060175491821561355f57857f40fc64b980e88b51add22183817cd5475b98f00e59877f0d959e5c8ce860f6f59661355a94019061351c82613fcc565b909182549160031b1b1916905560175586600052601f84526000604081205583805260406000209081541690556040519383859485528401916140f3565b0390a2005b634e487b7160e01b600052603160045260246000fd5b61357e90613fcc565b90549060031b1c80613592611cab84613fcc565b9055600052601f845260406000205586806134de565b6040516321bd81c960e11b8152600490fd5b604051630cbdb7b360e41b8152600490fd5b346105d45760003660031901126105d45760206040516303c267008152f35b346105d45760003660031901126105d4576020601454604051908152f35b346105d45760603660031901126105d4576004356024359060443560048110156105d4576136356140d0565b6000828152601d60205260409020805490936001600160a01b0391828116330361133b5760ff8160b81c1661131757600486019081549061367c6003890192835490614114565b60ff8260b01c166000146137ea5750505050600160b81b60ff60b81b1986541617855560028501600181549601958654600052601c6020526136c4604060002091825461416c565b905554906000928161371b575b50506136dd925061416c565b918280613708575b50506040519182526000805160206159c083398151915260203393a36001600055005b613714913390546143ea565b82826136e5565b909250606483116137d8576000926001851494851590816137ca575b506137b85761374860649184614261565b04926105be576136dd93156137af57600b54165b82613768575b806136d1565b613774838288546143ea565b847f587e785f004641121655a324f02af272b5e9c825bf554a6ff5b9c563015eea21604051806137a633958883614274565b0390a385613762565b600a541661375c565b604051632cc10fe960e11b8152600490fd5b945050600093151588613737565b604051638639da7d60e01b8152600490fd5b9295509250925094939442116000146138ce5760a81c60ff1660048110156105be576002036138bd575482549160ff8360c01c16908261382d8382029384614045565b036138ab5754918201019081106138ab5742106135a857600160b81b9060ff60b81b191617815561388a6002820191600183549101908154600052601c60205261387d604060002091825461416c565b90555482549033906143ea565b54906040519182526000805160206159c083398151915260203393a3611866565b60405163549a019760e01b8152600490fd5b5050906138c99161428d565b611866565b60405163a237d35560e01b8152600490fd5b346105d45760003660031901126105d4576020600354604051908152f35b346105d45760003660031901126105d45760206040516101f48152f35b346105d45760003660031901126105d457602060ff60155416604051908152f35b346105d45760003660031901126105d4576020600c54604051908152f35b346105d45760203660031901126105d4576004356001600160a01b038116908190036105d4576139886147aa565b6139906140d0565b8015611a12574760405160208101906139ac8161069184614f31565b519020600052601c6020526139d1604060002054601b60205260406000205490614114565b8082118015613a60576000600080516020615a60833981519152613a066139f8858761416c565b60405191829187898461402f565b0390a21561190d57613a179161416c565b600080808084865af1613a2861413c565b5015613a4e576020600080516020615a2083398151915291604051908152a26001600055005b60405163a4b6690960e01b8152600490fd5b6000600080516020615a60833981519152613a06826139f8565b346105d45760203660031901126105d4576004356000526018602052612777613aa66040600020613f26565b604051918291602083526020830190613d0a565b346105d45760203660031901126105d457600435613ad66140d0565b80600052601d602052604060002090815460ff8160b81c166113175760ff8160b01c16613bd1576004830154906003840154613b128184614114565b421115613bbf5760ff8260a81c1660048110156105be57600214613bad576001600160a01b038281163314159390849081613b9e575b5061133b5783613b75575b505050613b63576118669161428d565b60405163478f84e760e01b8152600490fd5b613b94935063ffffffff91613b8991614114565b9160c81c1690614114565b4210838080613b53565b90506001541633141587613b48565b6040516375d3f2a760e11b8152600490fd5b604051630a8f83ff60e11b8152600490fd5b60405163067d2f5b60e01b8152600490fd5b346105d457610691613bf761141336613dff565b5190209081600052601660205260ff6040600020541615610b56576001600160a01b0381811691908215611a12577f970f8d5d7e6e516816144d4407b19d32456882e220b4f45b59e1e4ce50a0653a92613c5260409361481f565b6000858152601660209081529084902060010180546001600160a01b031981168417909155845193168352820152a2005b346105d45760003660031901126105d457601754613ca0816145db565b9060005b818110613cc1576040516020808252819061277790820186613d4a565b80613cce613d0592613fcc565b90549060031b1c6000526018602052613cea6040600020613f26565b613cf48286614657565b52613cff8185614657565b50614252565b613ca4565b919082519283825260005b848110613d36575050826000602080949584010152601f8019910116010190565b602081830181015184830182015201613d15565b908082519081815260208091019281808460051b8301019501936000915b848310613d785750505050505090565b9091929394958480613d96600193601f198682030187528a51613d0a565b9801930193019194939290613d68565b9181601f840112156105d4578235916001600160401b0383116105d457602083818601950101116105d457565b602435906001600160a01b03821682036105d457565b600435906001600160a01b03821682036105d457565b60406003198201126105d457600435906001600160401b0382116105d457613e2991600401613da6565b90916024356001600160a01b03811681036105d45790565b90600182811c92168015613e71575b6020831014613e5b57565b634e487b7160e01b600052602260045260246000fd5b91607f1691613e50565b60e081019081106001600160401b03821117610b6857604052565b606081019081106001600160401b03821117610b6857604052565b61016081019081106001600160401b03821117610b6857604052565b604081019081106001600160401b03821117610b6857604052565b602081019081106001600160401b03821117610b6857604052565b601f909101601f19168101906001600160401b03821190821017610b6857604052565b9060405191826000825492613f3a84613e41565b908184526001948581169081600014613fa95750600114613f66575b5050613f6492500383613f03565b565b9093915060005260209081600020936000915b818310613f91575050613f6493508201013880613f56565b85548884018501529485019487945091830191613f79565b915050613f6494506020925060ff191682840152151560051b8201013880613f56565b601754811015613fe757601760005260206000200190600090565b634e487b7160e01b600052603260045260246000fd5b60406003198201126105d457600435906001600160401b0382116105d45761402791600401613da6565b909160243590565b6040919493926060820195825260208201520152565b811561404f570490565b634e487b7160e01b600052601260045260246000fd5b60409060031901126105d4576004359060243590565b90815180825260208080930193019160005b82811061409b575050505090565b83518552938101939281019260010161408d565b60ff60025460a01c166140be57565b60405163d93c066560e01b8152600490fd5b6002600054146140e1576002600055565b604051633ee5aeb560e01b8152600490fd5b908060209392818452848401376000828201840152601f01601f1916010190565b91908201809211610f2257565b6001600160401b038111610b6857601f01601f191660200190565b3d15614167573d9061414d82614121565b9161415b6040519384613f03565b82523d6000602084013e565b606090565b91908203918211610f2257565b6040516323b872dd60e01b60208201526001600160a01b03928316602482015292909116604483015260648083019390935291815260a08101918183106001600160401b03841117610b6857613f64926040525b906000602091828151910182855af11561194c576000513d61422057506001600160a01b0381163b155b6141fe5750565b604051635274afe760e01b81526001600160a01b039091166004820152602490fd5b600114156141f7565b60048210156105be5752565b805460ff60a01b191660a09290921b60ff60a01b16919091179055565b6000198114610f225760010190565b81810292918115918404141715610f2257565b9081526001600160a01b03909116602082015260400190565b90600160b81b60ff60b81b19835416178255600282019182549260018201938454600052601c6020526142c6604060002091825461416c565b905554928154936142ea60646142e260ff8860a01c1684614261565b04809261416c565b9460a81c60ff16600060048210156143d6575091846000805160206159c08339815191529492846003602096146000146143ad575061dead5b81614365575b5050508580614349575b5050546040519485526001600160a01b031693a3565b61435e915460018060a01b03845416906143ea565b3885614333565b816143937f025552a005e45b02912def900b2c31382a6d3ad3542ae5dcf1b1f701db19d07e938387546143ea565b6143a260405192839283614274565b0390a2843880614329565b6001036143c557600b546001600160a01b0316614323565b600a546001600160a01b0316614323565b634e487b7160e01b81526021600452602490fd5b919060199283549260ff841661455d57600160ff19809516178555600091808352602090601682526040948585209086519161442583613e7b565b80549260ff84161515815260c0600460018060a01b03809660081c1693848985015260ff60018201548d8982169087015260a01c1660608501526002810154608085015260ff600382015416151560a085015201549101528015600014614547575016918285526008815260ff86862054166000146144ce57505082809281925af16144af61413c565b50156144be57505b8154169055565b51630db2c7f160e31b8152600490fd5b91939290948380808085896108fcf16144e561413c565b50156144f6575050505050506144b7565b8084876000805160206159408339815191529652601a85528181208782528552818120614524858254614114565b9055878152601b855220614539838254614114565b905551908152a38154169055565b93509394505050614558935061458a565b6144b7565b60405163b2a722f960e01b8152600490fd5b6001600160a01b039091168152602081019190915260400190565b6145bf613f6493926145b160405194859263a9059cbb60e01b60208501526024840161456f565b03601f198101845283613f03565b6141cd565b6001600160401b038111610b685760051b60200190565b906145e5826145c4565b6145f26040519182613f03565b8281528092614603601f19916145c4565b019060005b82811061461457505050565b806060602080938501015201614608565b9061462f826145c4565b61463c6040519182613f03565b828152809261464d601f19916145c4565b0190602036910137565b8051821015613fe75760209160051b010190565b929092821561479857606483116147865760175492839084861015614755576146a891614699879283614114565b9080821161474d575b5061416c565b6146b1816145db565b916146bb82614625565b9560005b8381106146cf5750505050929190565b806146e56146e06147489385614114565b613fcc565b90549060031b1c8060005260206018815260409161470583600020613f26565b61470f858b614657565b5261471a848a614657565b506000908152601a82528281206001600160a01b03881682529091522054614742828b614657565b52614252565b6146bf565b9050386146a2565b50505091506040519161476783613ee8565b600083526040519261477884613ee8565b600084526000368137929190565b604051637022f26f60e01b8152600490fd5b604051631a49577b60e11b8152600490fd5b6001546001600160a01b031633036147be57565b60405163118cdaa760e01b8152336004820152602490fd5b51906001600160501b03821682036105d457565b908160a09103126105d4576147fe816147d6565b9160208201519160408101519161481c6080606084015193016147d6565b90565b604051633fabe5a360e21b81529060a090829060049082906001600160a01b03165afa6000918161486c575b506148625760405163f45e167b60e01b8152600490fd5b6000121561148f57565b61488e91925060a03d811161489a575b6148868183613f03565b8101906147ea565b5050509050903861484b565b503d61487c565b60ff6011199116019060ff8211610f2257565b60ff166012039060ff8211610f2257565b60ff16604d8111610f2257600a0a90565b60409182516148f58161069160209586830195878752888401916140f3565b51902060009081526016825282812083519261491084613e7b565b815460ff811615948515815260018060a01b03809260081c168382015260018401549060ff88820192848116845260a01c1660608201526002850154966080820197885260ff6003870154169060a08301911515825260c06004809801549301928352614af95751614aed57505116855194633fabe5a360e21b865260a0868581855afa958615614ae3578596869787928892614ab9575b5087891315614aa9578215614aa9576001600160501b03908116911610614a99576149d3904261416c565b905110614a8957819086519384809263313ce56760e01b82525afa948515614a8057508294614a3b575b505050601260ff83161015614a2657614a20614a1b61481c936148b4565b6148c5565b90614261565b614a35614a1b61481c936148a1565b90614045565b908092939450813d8311614a79575b614a548183613f03565b81010312614a7557519060ff82168203614a725750903880806149fd565b80fd5b5080fd5b503d614a4a565b513d84823e3d90fd5b8551630cd5fa0760e11b81528390fd5b8751630cd5fa0760e11b81528590fd5b895163f45e167b60e01b81528790fd5b92505050614ad691965060a03d811161489a576148868183613f03565b92989390929150386149a8565b87513d87823e3d90fd5b96505050505050505190565b8851633dd1b30560e01b81528690fd5b906040918251602081019060208252614b298161069187820187876140f3565b51902060005260166020528260002092805193614b4585613e7b565b80549460c0600460ff881615938415845260018060a01b03809960081c16602085015260018101549889168685015260ff606085019960a01c1689526002810154608085015260ff600382015416151560a08501520154910152614bc0575061481c9291614bb2916148d6565b60ff600c549251169161588a565b51633dd1b30560e01b8152600490fd5b906040918251602081019060208252614bf08161069187820187876140f3565b51902060005260166020528260002092805193614c0c85613e7b565b80549460c0600460ff881615938415845260018060a01b03809960081c16602085015260018101549889168685015260ff606085019960a01c1689526002810154608085015260ff600382015416151560a08501520154910152614bc0575061481c9291614c79916148d6565b60ff600d549251169161588a565b811561479857606482116147865760175491829083831015614ee157614cb291614699849283614114565b91614cbc836145db565b93614cc684614625565b94614cd085614625565b94614cda81614625565b9460005b828110614cef575050509493929190565b614cfc6146e08284614114565b90549060031b1c9081600052601891602092808452604090614d2082600020613f26565b614d2a858a614657565b52614d358489614657565b5060009283528452614d48818320613f26565b90805192635350758f60e01b84526004938685820152602491878280614d7086820189613d0a565b0381305afa90918282614eaf575b5050614db8575050505050614db39150600080815b614d9d848c614657565b52614da8838c614657565b52614742828c614657565b614cde565b9382516304c5396960e41b81528782820152878180614dd986820189613d0a565b0381305afa908115614ea457908891600091614e74575b5091614e14829396865195869485946336227c6960e01b8652850152830190613d0a565b0381305afa918215614e6a5750600091614e34575b50614db39450614d93565b9192939482813d8311614e63575b614e4c8183613f03565b81010312614a72575090614db39392915138614e29565b503d614e42565b513d6000823e3d90fd5b9182813d8311614e9d575b614e898183613f03565b81010312614a725750518790614e14614df0565b503d614e7f565b84513d6000823e3d90fd5b909192508882813d8311614eda575b614ec88183613f03565b81010312614a72575051903880614d7e565b503d614ebe565b50505060405190614ef182613ee8565b60009081835260405193614f0485613ee8565b82855260405193614f1485613ee8565b83855260405193614f2485613ee8565b8085523681379493929190565b60609060208152600360208201526208aa8960eb1b60408201520190565b929192614f5b82614121565b91614f696040519384613f03565b8294818452818301116105d4578281602093846000960137010152565b9260018060a01b038094169260409485516370a0823160e01b815230600482015260209485826024818a5afa9182156150bd5760009261508e575b50600052601c8552614fe08760002054601b8752886000205490614114565b9081811187600082156150765750600080516020615a6083398151915261501761500a868661416c565b8c5191829188888461402f565b0390a215615065579161503f600080516020615980833981519152969594926150609461416c565b9361504b85828a61458a565b88805196879687528601521696830190613d0a565b0390a3565b8751635e4f582160e11b8152600490fd5b615017600080516020615a608339815191529161500a565b90918682813d83116150b6575b6150a58183613f03565b81010312614a725750519038614fc1565b503d61509b565b88513d6000823e3d90fd5b4760405160208101906150de8161069184614f31565b519020600052601c602052615103604060002054601b60205260406000205490614114565b808211156151145761481c9161416c565b5050600090565b604091825161513a8161069160209586830195878752888401916140f3565b51902090600092828452601682528084209281519361515885613e7b565b80549460ff8616159060c0600483159485845260ff60018060a01b03809b60081c169a8b8b87015260018301549081168a87015260a01c1660608501526002810154608085015260ff600382015416151560a0850152015491015290615261575b61525a57826024948351958680926370a0823160e01b82523060048301525afa93841561525057859461521b575b508452601c825280842054601b90925283205461520391614114565b90818111156152165761481c925061416c565b505090565b9093508281813d8311615249575b6152338183613f03565b810103126152455751926152036151e7565b8480fd5b503d615229565b82513d87823e3d90fd5b5050505090565b5083156151b9565b604080516370a0823160e01b815230600480830191909152909290916001600160a01b03918216916020918286602481875afa9586156153dd576000966153ae575b506017549360005b8581106152cd575050505050505090600090600090600090565b6152d681613fcc565b9054600391821b1c90816000526016875283878660002060c08c8951926152fc84613e7b565b8b81548160ff918281161515885260081c1680978701526001988d8a850154938416908801528160a093841c166060880152600284015460808801528301541615159085015201549101521461535c57505061535790614252565b6152b3565b95989750989550505090508195600052601c8552601b8160002054955260002054926153888486614114565b91828211156153a257509061539c9161416c565b93929190565b95505050600093929190565b90958382813d83116153d6575b6153c58183613f03565b81010312614a7257505194386152ab565b503d6153bb565b50513d6000823e3d90fd5b60405190608082016001600160401b03811183821017610b68576040526060808381815260006020820152600060408201520152565b9190811015613fe75760051b81013590601e19813603018212156105d45701803591906001600160401b0383116105d45760200182360381136105d4579190565b929093919361546c6153e8565b94615478368483614f4f565b865260209182018051604080516370a0823160e01b815230600482015290976001600160a01b0396939493928690839060249082908b165afa9182156156af57600092615680575b50600052601c85526154df8860002054601b8752896000205490614114565b90818111156156435760008989828a6155248b6155036106919c9b9a99859961416c565b9b8c938c5116965193849283019663a9059cbb60e01b88526024840161456f565b51925af161553061413c565b901561560a5785815180156000146155a15750600191508a015283888a01525b84890151615564575b505050505050505090565b856000805160206159808339815191529661559194511697898051978897885287015216978401916140f3565b0390a33880808080808080615559565b8290810103126105d45785015180151581036105d457156155cc576001858a015283888a0152615550565b50505050929050765472616e736665722072657475726e65642066616c736560481b915051916155fb83613ecd565b60178352820152606082015290565b505050505092905070151c985b9cd9995c881c995d995c9d1959607a1b9150519161563483613ecd565b60118352820152606082015290565b5050505050929050744e6f207265636f76657261626c6520746f6b656e7360581b9150519161567183613ecd565b60158352820152606082015290565b90918682813d83116156a8575b6156978183613f03565b81010312614a7257505190386154c0565b503d61568d565b89513d6000823e3d90fd5b919060409081516156db8161069160209788830195898752878401916140f3565b51902090600093828552601681528185208251906156f882613e7b565b80549160ff831615908115815260c060048683019460018060a01b03809760081c16865260ff60018201548881168b87015260a01c1660608501526002810154608085015260ff600382015416151560a0850152015491015261581e57511691826157ad5761577c925047935b8652601c8252601b81872054925285205490614114565b9080820361578c57505060019190565b818111156157a45761579f92935061416c565b600191565b61481c9161416c565b816024938251948580926370a0823160e01b82523060048301525afa80156158145786906157e1575b61577c935093615765565b508183813d831161580d575b6157f78183613f03565b810103126158095761577c92516157d6565b8580fd5b503d6157ed565b81513d88823e3d90fd5b8351633dd1b30560e01b8152600490fd5b6002546001600160a01b03908116908115615848575090565b90506004541690565b60ff60065416156158855760075462093a808101809111610f22578042101561587f5761481c90429061416c565b50600090565b600090565b91909164e8d4a5100090818102918183041481151715610f225768327cb2734119d3b7a9601e1b0290808204670de0b6b3a76400001490151715610f225761481c926158d591614045565b601260ff831610156158f057614a35614a1b61481c936148b4565b614a20614a1b61481c936148a156fe9b554b4a09efa18e2f36c9ccb218761ed612341710703f6ff2edf03947238c72d868c725f20c65ee0e4e29658caef2a516c5ac422857d6a3cd96b99792db2af6b7fe9634fea2ac2458084452e1e7857638ebaffb91d5b22d34d74a134801e9330835edca54b08506b1f74526581e529d0bdc609b380843d5bfee9fdef1f2c91b733a14d80f1fcb0833e90f69a6f8716c5a12586560defba943c66af96373049e528e5975397d163506e3a8ee02d8585bd27a404861f4b6b4b142b22c085868cecf7d23a3cbe4e8b36ff82fd1b05b1b17373dc7804b4ebbd6e2356716ef20237284396add8db3ebf4773bd540256f3a4357001e69305efcb1a95d565284fbdae48be0079c531659141344cd1fd0a4f28419497f9722a3daafe3b4186f6b6457e005af21d7340bf49fde03a32c3bcc785015c94acd83531fc6dfbfb93a24c364ca2225519bb0d4452c8f10be7e343f6afbd9cba6ca41410b1d7abdb148c5f7b7c56c4916d52fd6fd994184fad1112697ee8292a679db49ca66f12ac15bff60980ea26469706673582212201bfc8885f02c35b92646e933f977b952041c4e1de1f7a53871e4bd196d1d1ac264736f6c63430008140033",
  "linkReferences": {},
  "deployedLinkReferences": {}
}