{
  "_format": "hh-sol-artifact-1",
  "contractName": "TouchGrassViews",
  "sourceName": "contracts/TouchGrassViews.sol",
  "abi": [
    {
      "inputs": [
        {
          "internalType": "address",
          "name": "_touchGrass",
          "type": "address"
        }
      ],
      "stateMutability": "nonpayable",
      "type": "constructor"
    },
    {
      "inputs": [],
      "name": "CountTooLarge",
      "type": "error"
    },
    {
      "inputs": [],
      "name": "InvalidCount",
      "type": "error"
    },
    {
      "inputs": [],
      "name": "TokenNotSupported",
      "type": "error"
    },
    {
      "inputs": [
        {
          "internalType": "uint256",
          "name": "_startIndex",
          "type": "uint256"
        },
        {
          "internalType": "uint256",
          "name": "_count",
          "type": "uint256"
        }
      ],
      "name": "getAllRecoveryStatus",
      "outputs": [
        {
          "internalType": "string[]",
          "name": "symbols",
          "type": "string[]"
        },
        {
          "internalType": "address[]",
          "name": "addresses",
          "type": "address[]"
        },
        {
          "internalType": "uint256[]",
          "name": "contractBalances",
          "type": "uint256[]"
        },
        {
          "internalType": "uint256[]",
          "name": "lockedAmounts",
          "type": "uint256[]"
        },
        {
          "internalType": "uint256[]",
          "name": "pendingAmounts",
          "type": "uint256[]"
        },
        {
          "internalType": "uint256[]",
          "name": "recoverableAmounts",
          "type": "uint256[]"
        },
        {
          "internalType": "uint256",
          "name": "totalTokens",
          "type": "uint256"
        }
      ],
      "stateMutability": "view",
      "type": "function"
    },
    {
      "inputs": [],
      "name": "getGlobalProtectionSummary",
      "outputs": [
        {
          "components": [
            {
              "internalType": "uint256",
              "name": "totalContractValueUSD",
              "type": "uint256"
            },
            {
              "internalType": "uint256",
              "name": "totalLockedUSD",
              "type": "uint256"
            },
            {
              "internalType": "uint256",
              "name": "totalPendingUSD",
              "type": "uint256"
            },
            {
              "internalType": "uint256",
              "name": "totalProtectedUSD",
              "type": "uint256"
            },
            {
              "internalType": "uint256",
              "name": "totalRecoverableUSD",
              "type": "uint256"
            }
          ],
          "internalType": "struct TouchGrassViews.ProtectionSummary",
          "name": "summary",
          "type": "tuple"
        }
      ],
      "stateMutability": "view",
      "type": "function"
    },
    {
      "inputs": [
        {
          "internalType": "string",
          "name": "_symbol",
          "type": "string"
        }
      ],
      "name": "getTokenProtectionBreakdown",
      "outputs": [
        {
          "internalType": "uint256",
          "name": "contractBalance",
          "type": "uint256"
        },
        {
          "internalType": "uint256",
          "name": "lockedInChallenges",
          "type": "uint256"
        },
        {
          "internalType": "uint256",
          "name": "pendingAmount",
          "type": "uint256"
        },
        {
          "internalType": "uint256",
          "name": "protectedTotal",
          "type": "uint256"
        },
        {
          "internalType": "uint256",
          "name": "recoverable",
          "type": "uint256"
        }
      ],
      "stateMutability": "view",
      "type": "function"
    },
    {
      "inputs": [],
      "name": "hasRecoverableFunds",
      "outputs": [
        {
          "internalType": "bool",
          "name": "canRecover",
          "type": "bool"
        },
        {
          "internalType": "uint256",
          "name": "totalRecoverableUSD",
          "type": "uint256"
        }
      ],
      "stateMutability": "view",
      "type": "function"
    },
    {
      "inputs": [],
      "name": "touchGrass",
      "outputs": [
        {
          "internalType": "contract ITouchGrass",
          "name": "",
          "type": "address"
        }
      ],
      "stateMutability": "view",
      "type": "function"
    }
  ],
  "bytecode": "0x60a03461014457601f611e3038819003918201601f19168301916001600160401b038311848410176101495780849260209460405283398101031261014457516001600160a01b0381169081900361014457608052604051611cd09081610160823960805181818160df015281816101430152818161019e015281816101fa015281816102be0152818161032f01528181610391015281816103e80152818161043f015281816104a5015281816108b201528181610bf401528181610c5a01528181610cc701528181610d2e01528181610d9f01528181610e0201528181610e5901528181610ed301528181610f3901528181611136015281816112480152818161151401528181611671015281816116c10152818161172301528181611868015281816118c00152818161191701528181611993015281816119e50152611b8e0152f35b600080fd5b634e487b7160e01b600052604160045260246000fdfe608080604052600436101561001357600080fd5b60003560e01c9081630281d3d214611235575080630e144dfa14610bb25780631024d2c814610a975780635512df83146108075763a76a2ef71461005657600080fd5b346105925760003660031901126105925760405160a081016001600160401b038111828210176107f157604052600081526000602082015260006040820152600060608201526000608082015260405160208101906100c6816100b8846114c8565b03601f19810183528261130e565b519020604051633092d62960e21b8152600481018290527f00000000000000000000000000000000000000000000000000000000000000006001600160a01b0316803190602090839060249082905afa9182156105c2576000926107bd575b50604051637d7ba76760e11b815260048101939093526020836024817f00000000000000000000000000000000000000000000000000000000000000006001600160a01b03165afa9283156105c257600093610789575b50604051635350758f60e01b81526020818061019a600482016114c8565b03817f00000000000000000000000000000000000000000000000000000000000000006001600160a01b03165afa60009181610755575b506106ee575b5050505060005b604051629cbc1d60e71b815260048101829052906020826024817f00000000000000000000000000000000000000000000000000000000000000006001600160a01b03165afa600092816106ba575b506102a15760a0836102486020820151604083015190611356565b80606083015281519080821161028c575b50506080604051918051835260208101516020840152604081015160408401526060810151606084015201516080820152f35b610295916113ac565b60808201528280610259565b604051636cdeb91560e11b8152600481018390529160e0836024817f00000000000000000000000000000000000000000000000000000000000000006001600160a01b03165afa9081156105c2576000809460009361067c575b508061066a575b610318575b50506103139150611331565b6101de565b6040516370a0823160e01b81526001600160a01b037f000000000000000000000000000000000000000000000000000000000000000081166004830152909460209186916024918391165afa9384156105c257600094610636575b50604051633092d62960e21b815260048101829052906020826024817f00000000000000000000000000000000000000000000000000000000000000006001600160a01b03165afa9182156105c257600092610602575b50604051637d7ba76760e11b815260048101829052946020866024817f00000000000000000000000000000000000000000000000000000000000000006001600160a01b03165afa9586156105c2576000966105ce575b50604051631209589160e01b815260048101929092526000826024817f00000000000000000000000000000000000000000000000000000000000000006001600160a01b03165afa80156105c25760206104a191899460009161059f575b5060405180938192635350758f60e01b8352846004840152602483019061129a565b03817f00000000000000000000000000000000000000000000000000000000000000006001600160a01b03165afa60009181610561575b5096610313976104ec575b50505050610307565b61053d6105338361052081610547996105209961052c6105256105209b6105519f61051690611c89565b9d8e988992611c56565b611c69565b8251611356565b9052611c56565b60208b0151611356565b60208a0152611c56565b6040850151611356565b60408401523880848180806104e3565b935090506020833d602011610597575b8161057e6020938361130e565b8101031261059257915187926103136104d8565b600080fd5b3d9150610571565b6105bc91503d806000833e6105b4818361130e565b810190611433565b3861047f565b6040513d6000823e3d90fd5b9095506020813d6020116105fa575b816105ea6020938361130e565b8101031261059257519438610421565b3d91506105dd565b9091506020813d60201161062e575b8161061e6020938361130e565b81010312610592575190386103ca565b3d9150610611565b9093506020813d602011610662575b816106526020938361130e565b8101031261059257519238610373565b3d9150610645565b506001600160a01b0384161515610302565b919450506106a2915060e03d60e0116106b3575b61069a818361130e565b8101906113da565b5050509491929050919391386102fb565b503d610690565b9092506020813d6020116106e6575b816106d66020938361130e565b810103126105925751913861022d565b3d91506106c9565b6107479361073282610727816107189761072061073c98670de0b6b3a76400009a8b968792611c56565b048c51611356565b8b52611c56565b046020880151611356565b6020870152611c56565b046040830151611356565b6040820152388080806101d7565b9091506020813d602011610781575b816107716020938361130e565b81010312610592575190386101d1565b3d9150610764565b9092506020813d6020116107b5575b816107a56020938361130e565b810103126105925751913861017c565b3d9150610798565b9091506020813d6020116107e9575b816107d96020938361130e565b8101031261059257519038610125565b3d91506107cc565b634e487b7160e01b600052604160045260246000fd5b346105925760208060031936011261059257600435906001600160401b038083116105925736602384011215610592578260040135908111610592576024923684838301011161059257600091610891606060405183819489898401978a895282604086015201848401376000838284010152601f8019910116810103604081018452018261130e565b519020604051636cdeb91560e11b8152600481018290526001600160a01b037f00000000000000000000000000000000000000000000000000000000000000008116959294929160e08184818a5afa9081156105c257600090600092610a70575b5015610a5e57829184911680610a02575050508431935b604051633092d62960e21b81526004810182905290838284818a5afa9283156105c25784926000946109d1575b5060405180988193637d7ba76760e11b835260048301525afa9081156105c2576000916109a1575b60a0955061096c8282611356565b9283861161098f575b604051958652850152604084015260608301526080820152f35b935061099b83866113ac565b93610975565b90508185813d83116109ca575b6109b8818361130e565b810103126105925760a094519061095e565b503d6109ae565b8381949295503d83116109fb575b6109e9818361130e565b81010312610592578391519288610936565b503d6109df565b604051928380926370a0823160e01b82528a60048301525afa9081156105c257600091610a31575b5093610909565b90508281813d8311610a57575b610a48818361130e565b81010312610592575186610a2a565b503d610a3e565b604051633dd1b30560e01b8152600490fd5b9050610a8b915060e03d60e0116106b35761069a818361130e565b505050505090886108f2565b3461059257604036600319011261059257610ab66024356004356114e6565b936040969596939193519560e0870160e088528151809152610100808901908260051b8a0101916020809401916000905b8b838310610b8457935050505081038289015281808a51928381520199019160005b828110610b67575050505091610b41610b4f92610b3389610b5d97968a809c0360408c01526112bf565b9088820360608a01526112bf565b9086820360808801526112bf565b9084820360a08601526112bf565b9060c08301520390f35b83516001600160a01b03168b529981019992810192600101610b09565b9580610ba281976001949596979960ff19908203018652895161129a565b9697019493919091019101610ae7565b34610592576000366003190112610592576000806040516020810190610bdb816100b8846114c8565b519020604051633092d62960e21b8152600481018290527f00000000000000000000000000000000000000000000000000000000000000006001600160a01b03168031929190602090829060249082905afa9081156105c257600091611203575b50604051637d7ba76760e11b815260048101929092526020826024817f00000000000000000000000000000000000000000000000000000000000000006001600160a01b03165afa9081156105c2576000916111cd575b610c9d9250611356565b9081811161110f575b505060005b604051629cbc1d60e71b815260048101829052906020826024817f00000000000000000000000000000000000000000000000000000000000000006001600160a01b03165afa600092816110db575b50610d115760408385825191151582526020820152f35b604051636cdeb91560e11b8152600481018390529160e0836024817f00000000000000000000000000000000000000000000000000000000000000006001600160a01b03165afa9081156105c257600080946000936110ad575b508061109b575b610d88575b5050610d839150611331565b610cab565b6040516370a0823160e01b81526001600160a01b037f0000000000000000000000000000000000000000000000000000000000000000811660048301529394909360209185916024918391165afa9283156105c257600093611067575b50604051633092d62960e21b8152600481018290526020816024817f00000000000000000000000000000000000000000000000000000000000000006001600160a01b03165afa9081156105c257600091611035575b50604051637d7ba76760e11b815260048101839052906020826024817f00000000000000000000000000000000000000000000000000000000000000006001600160a01b03165afa9081156105c257600091610fff575b610e9c9250611356565b808411610ead575b50839250610d77565b604051631209589160e01b815260048101929092526001955091929091906000836024817f00000000000000000000000000000000000000000000000000000000000000006001600160a01b03165afa9283156105c257610f3593602091600091610fe4575b5060405180958192635350758f60e01b8352846004840152602483019061129a565b03817f00000000000000000000000000000000000000000000000000000000000000006001600160a01b03165afa60009381610fb0575b5015610ea45792610f9a610f94610d83969894610f8f610fa095610fa6986113ac565b611c56565b91611c89565b90611c69565b90611356565b9290848080610ea4565b9093506020813d602011610fdc575b81610fcc6020938361130e565b8101031261059257519288610f6c565b3d9150610fbf565b610ff991503d806000833e6105b4818361130e565b89610f13565b90506020823d60201161102d575b8161101a6020938361130e565b8101031261059257610e9c915190610e92565b3d915061100d565b90506020813d60201161105f575b816110506020938361130e565b81010312610592575187610e3b565b3d9150611043565b9092506020813d602011611093575b816110836020938361130e565b8101031261059257519186610de5565b3d9150611076565b506001600160a01b0384161515610d72565b919450506110ca915060e03d60e0116106b35761069a818361130e565b505050949192905091939187610d6b565b9092506020813d602011611107575b816110f76020938361130e565b8101031261059257519185610cfa565b3d91506110ea565b604051635350758f60e01b815260019350919060208380611132600482016114c8565b03817f00000000000000000000000000000000000000000000000000000000000000006001600160a01b03165afa60009381611199575b50611175575b50610ca6565b670de0b6b3a764000093945061118f9291610f8f916113ac565b049082808061116f565b9093506020813d6020116111c5575b816111b56020938361130e565b8101031261059257519286611169565b3d91506111a8565b90506020823d6020116111fb575b816111e86020938361130e565b8101031261059257610c9d915190610c93565b3d91506111db565b90506020813d60201161122d575b8161121e6020938361130e565b81010312610592575185610c3c565b3d9150611211565b34610592576000366003190112610592577f00000000000000000000000000000000000000000000000000000000000000006001600160a01b03168152602090f35b60005b83811061128a5750506000910152565b818101518382015260200161127a565b906020916112b381518092818552858086019101611277565b601f01601f1916010190565b90815180825260208080930193019160005b8281106112df575050505090565b8351855293810193928101926001016112d1565b602081019081106001600160401b038211176107f157604052565b601f909101601f19168101906001600160401b038211908210176107f157604052565b60001981146113405760010190565b634e487b7160e01b600052601160045260246000fd5b9190820180921161134057565b6001600160401b0381116107f15760051b60200190565b9061138482611363565b611391604051918261130e565b82815280926113a2601f1991611363565b0190602036910137565b9190820391821161134057565b5190811515820361059257565b51906001600160a01b038216820361059257565b908160e0910312610592576113ee816113b9565b916113fb602083016113c6565b91611408604082016113c6565b91606082015160ff81168103610592579160808101519160c061142d60a084016113b9565b92015190565b6020818303126105925780516001600160401b039182821161059257019082601f830112156105925781519081116107f1576040519261147d601f8301601f19166020018561130e565b818452602082840101116105925761149b9160208085019101611277565b90565b80518210156114b25760209160051b010190565b634e487b7160e01b600052603260045260246000fd5b60609060208152600360208201526208aa8960eb1b60408201520190565b918115611c445760648211611c3257604051629cbc1d60e71b815260006004820181905292906020816024817f00000000000000000000000000000000000000000000000000000000000000006001600160a01b03165afa9081611c03575b50611b73575b60018301809311611340578280851015611afa575061156a9084611356565b83838211611af2575b61157c916113ac565b61158581611363565b611592604051918261130e565b818152601f196115a183611363565b0160005b818110611ae157505080946115b98361137a565b946115c38461137a565b946115cd8561137a565b946115d78161137a565b946115e18261137a565b9460005b8381106115f25750505050565b6115fc8183611356565b8061184057506040516020810190611617816100b8846114c8565b519020604080519081018082116001600160401b03909111176107f15761166e838e83604060009501604052600381526208aa8960eb1b602082015261165d838a61149e565b52611668828961149e565b5061149e565b527f00000000000000000000000000000000000000000000000000000000000000006001600160a01b0316316116a4838d61149e565b52604051633092d62960e21b8152600481018290526020816024817f00000000000000000000000000000000000000000000000000000000000000006001600160a01b03165afa9081156105c25760009161180e575b50611705838c61149e565b52604051637d7ba76760e11b815260048101919091526020816024817f00000000000000000000000000000000000000000000000000000000000000006001600160a01b03165afa9081156105c2576000916117d7575b50906117c99161176c828b61149e565b528061178d61177b828d61149e565b51611786838d61149e565b5190611356565b8c81611799848361149e565b51116000906000146117ce57506117b9926117b39161149e565b516113ac565b6117c3828a61149e565b52611331565b6115e5565b925050506117b9565b906020823d602011611806575b816117f16020938361130e565b810103126118035750516117c961175c565b80fd5b3d91506117e4565b906020823d602011611838575b816118286020938361130e565b81010312611803575051386116fa565b3d915061181b565b600019810190811161134057604051629cbc1d60e71b815260048101919091526020816024817f00000000000000000000000000000000000000000000000000000000000000006001600160a01b03165afa9081156105c257600091611aaf575b50604051636cdeb91560e11b81526004810182905260e09081816024817f00000000000000000000000000000000000000000000000000000000000000006001600160a01b03165afa9182156105c257600092611a8b575b5050604051631209589160e01b8152600481018390526000816024817f00000000000000000000000000000000000000000000000000000000000000006001600160a01b03165afa80156105c2578e859161196193600091611a72575b5061165d838a61149e565b6001600160a01b0390911690819052806119d6575b50604051633092d62960e21b8152600481018290526020816024817f00000000000000000000000000000000000000000000000000000000000000006001600160a01b03165afa9081156105c25760009161180e5750611705838c61149e565b6040516370a0823160e01b81527f00000000000000000000000000000000000000000000000000000000000000006001600160a01b0316600482015290602090829060249082905afa9081156105c257600091611a40575b50611a39838d61149e565b5238611976565b906020823d602011611a6a575b81611a5a6020938361130e565b8101031261180357505138611a2e565b3d9150611a4d565b611a85913d8091833e6105b4818361130e565b38611956565b611aa19250803d106106b35761069a818361130e565b5050505050905038806118f9565b906020823d602011611ad9575b81611ac96020938361130e565b81010312611803575051386118a1565b3d9150611abc565b8060606020809386010152016115a5565b839150611573565b925050915060405190611b0c826112f3565b6000825260405192611b1d846112f3565b6000845260405192611b2e846112f3565b6000845260405192611b3f846112f3565b6000845260405192611b50846112f3565b6000845260405192611b61846112f3565b60008452600036813796959493929190565b604051629cbc1d60e71b8152600481018490526020816024817f00000000000000000000000000000000000000000000000000000000000000006001600160a01b03165afa9081611bd8575b501560000361154b5791611bd290611331565b91611b73565b602090813d8311611bfc575b611bee818361130e565b810103126105925738611bbf565b503d611be4565b602090813d8311611c2b575b611c19818361130e565b81010312611c275738611545565b8380fd5b503d611c0f565b604051637022f26f60e01b8152600490fd5b604051631a49577b60e11b8152600490fd5b8181029291811591840414171561134057565b8115611c73570490565b634e487b7160e01b600052601260045260246000fd5b60ff16604d811161134057600a0a9056fea2646970667358221220091c47e2f7462f02b7d4e1b0faa2ac63ac321ca6337bf3860b1bb86794b85bf764736f6c63430008140033",
  "linkReferences": {},
  "deployedLinkReferences": {}
}