{
  "_format": "hh-sol-artifact-1",
  "contractName": "TouchGrassViews",
  "sourceName": "contracts/TouchGrassViews.sol",
  "abi": [
    {
      "inputs": [
        {
          "internalType": "address",
          "name": "_touchGrass",
          "type": "address"
        }
      ],
      "stateMutability": "nonpayable",
      "type": "constructor"
    },
    {
      "inputs": [],
      "name": "CountTooLarge",
      "type": "error"
    },
    {
      "inputs": [],
      "name": "InvalidCount",
      "type": "error"
    },
    {
      "inputs": [],
      "name": "TokenNotSupported",
      "type": "error"
    },
    {
      "inputs": [
        {
          "internalType": "uint256",
          "name": "_startIndex",
          "type": "uint256"
        },
        {
          "internalType": "uint256",
          "name": "_count",
          "type": "uint256"
        }
      ],
      "name": "getAllRecoveryStatus",
      "outputs": [
        {
          "internalType": "string[]",
          "name": "symbols",
          "type": "string[]"
        },
        {
          "internalType": "address[]",
          "name": "addresses",
          "type": "address[]"
        },
        {
          "internalType": "uint256[]",
          "name": "contractBalances",
          "type": "uint256[]"
        },
        {
          "internalType": "uint256[]",
          "name": "lockedAmounts",
          "type": "uint256[]"
        },
        {
          "internalType": "uint256[]",
          "name": "pendingAmounts",
          "type": "uint256[]"
        },
        {
          "internalType": "uint256[]",
          "name": "recoverableAmounts",
          "type": "uint256[]"
        },
        {
          "internalType": "uint256",
          "name": "totalTokens",
          "type": "uint256"
        }
      ],
      "stateMutability": "view",
      "type": "function"
    },
    {
      "inputs": [],
      "name": "getGlobalProtectionSummary",
      "outputs": [
        {
          "components": [
            {
              "internalType": "uint256",
              "name": "totalContractValueUSD",
              "type": "uint256"
            },
            {
              "internalType": "uint256",
              "name": "totalLockedUSD",
              "type": "uint256"
            },
            {
              "internalType": "uint256",
              "name": "totalPendingUSD",
              "type": "uint256"
            },
            {
              "internalType": "uint256",
              "name": "totalProtectedUSD",
              "type": "uint256"
            },
            {
              "internalType": "uint256",
              "name": "totalRecoverableUSD",
              "type": "uint256"
            }
          ],
          "internalType": "struct TouchGrassViews.ProtectionSummary",
          "name": "summary",
          "type": "tuple"
        }
      ],
      "stateMutability": "view",
      "type": "function"
    },
    {
      "inputs": [
        {
          "internalType": "string",
          "name": "_symbol",
          "type": "string"
        }
      ],
      "name": "getTokenProtectionBreakdown",
      "outputs": [
        {
          "internalType": "uint256",
          "name": "contractBalance",
          "type": "uint256"
        },
        {
          "internalType": "uint256",
          "name": "lockedInChallenges",
          "type": "uint256"
        },
        {
          "internalType": "uint256",
          "name": "pendingAmount",
          "type": "uint256"
        },
        {
          "internalType": "uint256",
          "name": "protectedTotal",
          "type": "uint256"
        },
        {
          "internalType": "uint256",
          "name": "recoverable",
          "type": "uint256"
        }
      ],
      "stateMutability": "view",
      "type": "function"
    },
    {
      "inputs": [],
      "name": "hasRecoverableFunds",
      "outputs": [
        {
          "internalType": "bool",
          "name": "canRecover",
          "type": "bool"
        },
        {
          "internalType": "uint256",
          "name": "totalRecoverableUSD",
          "type": "uint256"
        }
      ],
      "stateMutability": "view",
      "type": "function"
    },
    {
      "inputs": [],
      "name": "touchGrass",
      "outputs": [
        {
          "internalType": "contract ITouchGrass",
          "name": "",
          "type": "address"
        }
      ],
      "stateMutability": "view",
      "type": "function"
    }
  ],
  "bytecode": "0x60a0346100c657601f61141d38819003918201601f19168301916001600160401b038311848410176100cb578084926020946040528339810103126100c657516001600160a01b038116908190036100c65760805260405161133b90816100e2823960805181818160e30152818161038101528181610725015281816108cb01528181610b2901528181610c8c01528181610cdc01528181610d3e01528181610e8601528181610edc01528181610f3201528181610fc001528181611012015261122e0152f35b600080fd5b634e487b7160e01b600052604160045260246000fdfe60a0604081815260048036101561001557600080fd5b60009260e08435811c9182630281d3d2146108b7575081630e144dfa146106e15781631024d2c8146105ac5781635512df83146102da575063a76a2ef71461005c57600080fd5b3461027f578260031936011261027f5781519160a083016001600160401b038111848210176102c75781528383526020908184019185835281850190868252606086019387855260808701958887528451838101906100cc816100be84610ad6565b03601f198101835282610982565b5190208551633092d62960e21b81528083018290527f00000000000000000000000000000000000000000000000000000000000000006001600160a01b031680319b90938683602481885afa92831561028a578293610294575b50885193637d7ba76760e11b8552818501528684602481885afa93841561028a57908791839561024f575b5061016e958a518080988194635350758f60e01b83528201610ad6565b03915afa9093848261021a575b5050918a939160a09c936101dc575b505050505061019c81518451906109ca565b8086528751908082116101ca575b505083519651875251908601525190840152516060830152516080820152f35b6101d391610a20565b865238806101aa565b6102058380926101fd9761020d97670de0b6b3a7640000998a9687926112f2565b0490526112f2565b0485526112f2565b048352863880808061018a565b909194508682813d8311610248575b6102338183610982565b8101031261024557505192818b61017b565b80fd5b503d610229565b82819392949596503d8311610283575b6102698183610982565b8101031261027f5751929190869061016e610151565b8280fd5b503d61025f565b89513d84823e3d90fd5b9092508681813d83116102c0575b6102ac8183610982565b810103126102bc57519138610126565b5080fd5b503d6102a2565b634e487b7160e01b855260418352602485fd5b9050346105a857602090816003193601126105a4578235936001600160401b03938486116104945736602387011215610494578581013594851161049457602495368787830101116105a0578795610362606085518381948c8b8401978c8952828b860152018484013781810183018d9052601f01601f191681010386810184520182610982565b5190208251636cdeb91560e11b81528281018290526001600160a01b037f000000000000000000000000000000000000000000000000000000000000000081169590919080828b818a5afa918215610596578b918c9361055f575b50501561054f578891879116806104e8575050508331965b8351633092d62960e21b81528381018390529286848381895afa9384156104de5790879392918b956104a9575b5085519687938492637d7ba76760e11b84528301525afa92831561049f578793610468575b5060a0965061043683826109ca565b93848711610456575b825196875286015284015260608301526080820152f35b94506104628487610a20565b9461043f565b9092508381813d8311610498575b6104808183610982565b810103126104945760a09650519138610427565b8680fd5b503d610476565b82513d89823e3d90fd5b8481959296503d83116104d7575b6104c18183610982565b810103126104d3578692519338610402565b8980fd5b503d6104b7565b85513d8c823e3d90fd5b8551928380926370a0823160e01b825289888301525afa908115610545578991610514575b50966103d5565b90508581813d831161053e575b61052b8183610982565b8101031261053a57513861050d565b8880fd5b503d610521565b84513d8b823e3d90fd5b8451633dd1b30560e01b81528490fd5b610582935080919250903d1061058f575b61057a8183610982565b810190610a53565b50505050509038806103bd565b503d610570565b86513d8d823e3d90fd5b8780fd5b8480fd5b8380fd5b8484843461027f578160031936011261027f576105cd906024359035610af4565b9590949660809492945198825198818a01918a528051809252610100808b01908360051b8c01019260208093019185905b8d8383106106995793505050508203818b015280808c5193848152019b01925b82811061067c57505050506106649261064889610672979694610656948b809d03908c015261091d565b9088820360608a015261091d565b90868203608088015261091d565b9084820360a086015261091d565b9060c08301520390f35b83516001600160a01b03168c529a81019a9281019260010161061e565b94808080986001949596979a9860ff199082030186528a516106c6815180928185528580860191016108fa565b601f80199101160101980192019201909291959493956105fe565b505082346102455780600319360112610245578091818451916020928381019061070e816100be84610ad6565b5190208651633092d62960e21b81528281018290527f00000000000000000000000000000000000000000000000000000000000000006001600160a01b0316938431929091908682602481895afa91821561087e578392610888575b50895190637d7ba76760e11b8252858201528681602481895afa90811561087e57839161084f575b5061079c916109ca565b928383116107b6575b505050505083519215158352820152f35b6107d994975085906001988a518080988194635350758f60e01b83528201610ad6565b03915afa9093848261081d575b50506107f4575b80806107a5565b670de0b6b3a7640000939450610813929161080e91610a20565b6112f2565b04908480806107ed565b909194508582813d8311610848575b6108368183610982565b810103126102455750519288806107e6565b503d61082c565b90508681813d8311610877575b6108668183610982565b8101031261027f575161079c610792565b503d61085c565b8a513d85823e3d90fd5b9091508681813d83116108b0575b6108a08183610982565b8101031261027f5751908a61076a565b503d610896565b8590346102bc57816003193601126102bc577f00000000000000000000000000000000000000000000000000000000000000006001600160a01b03168152602090f35b60005b83811061090d5750506000910152565b81810151838201526020016108fd565b90815180825260208080930193019160005b82811061093d575050505090565b83518552938101939281019260010161092f565b602081019081106001600160401b0382111761096c57604052565b634e487b7160e01b600052604160045260246000fd5b601f909101601f19168101906001600160401b0382119082101761096c57604052565b60001981146109b45760010190565b634e487b7160e01b600052601160045260246000fd5b919082018092116109b457565b6001600160401b03811161096c5760051b60200190565b906109f8826109d7565b610a056040519182610982565b8281528092610a16601f19916109d7565b0190602036910137565b919082039182116109b457565b51908115158203610a3a57565b600080fd5b51906001600160a01b0382168203610a3a57565b908160e0910312610a3a57610a6781610a2d565b91610a7460208301610a3f565b91610a8160408201610a3f565b91606082015160ff81168103610a3a579160808101519160c0610aa660a08401610a2d565b92015190565b8051821015610ac05760209160051b010190565b634e487b7160e01b600052603260045260246000fd5b60609060208152600360208201526208aa8960eb1b60408201520190565b919091600060805282156112e057606483116112ce57604051629cbc1d60e71b815260006004820181905293906020816024817f00000000000000000000000000000000000000000000000000000000000000006001600160a01b03165afa90816112a3575b50611213575b600184018094116109b457838083101561119e5750610b7f90826109ca565b81848211611196575b610b9191610a20565b90610b9b826109d7565b90610ba96040519283610982565b828252601f19610bb8846109d7565b0160005b8181106111855750508194610bd0846109ee565b608052610bdc846109ee565b94610be6856109ee565b94610bf0816109ee565b94610bfa826109ee565b9460005b838110610c0b5750505050565b610c1581836109ca565b80610e5d57506040516020810190610c30816100be84610ad6565b5190209060405180604081011060018060401b0360408301111761096c5760408101604052600381526208aa8960eb1b6020820152610c6f8286610aac565b52610c7a8185610aac565b506000610c8982608051610aac565b527f00000000000000000000000000000000000000000000000000000000000000006001600160a01b031631610cbf828d610aac565b52604051633092d62960e21b8152600481018390526020816024817f00000000000000000000000000000000000000000000000000000000000000006001600160a01b03165afa908115610e1f57600091610e2b575b50610d20828c610aac565b52604051637d7ba76760e11b815260048101929092526020826024817f00000000000000000000000000000000000000000000000000000000000000006001600160a01b03165afa8015610e1f57600090610deb575b610ddc9250610d85828b610aac565b5280610da6610d94828d610aac565b51610d9f838d610aac565b51906109ca565b8c81610db28483610aac565b511115610de157610dcc92610dc691610aac565b51610a20565b610dd6828a610aac565b526109a5565b610bfe565b5050506000610dcc565b506020823d602011610e17575b81610e0560209383610982565b81010312610a3a57610ddc9151610d76565b3d9150610df8565b6040513d6000823e3d90fd5b90506020813d602011610e55575b81610e4660209383610982565b81010312610a3a575138610d15565b3d9150610e39565b6000198101919082116109b457604051629cbc1d60e71b815260048101929092526020826024817f00000000000000000000000000000000000000000000000000000000000000006001600160a01b03165afa918215610e1f57600092611151575b50604051636cdeb91560e11b81526004810183905260e0816024817f00000000000000000000000000000000000000000000000000000000000000006001600160a01b03165afa908115610e1f5760009161112b575b50604051631209589160e01b8152600481018490526000816024817f00000000000000000000000000000000000000000000000000000000000000006001600160a01b03165afa908115610e1f5760009161109f575b50610f768387610aac565b52610f818286610aac565b50610f8e82608051610aac565b6001600160a01b039091169081905280611003575b50604051633092d62960e21b8152600481018390526020816024817f00000000000000000000000000000000000000000000000000000000000000006001600160a01b03165afa908115610e1f57600091610e2b5750610d20828c610aac565b6040516370a0823160e01b81527f00000000000000000000000000000000000000000000000000000000000000006001600160a01b0316600482015290602090829060249082905afa908115610e1f5760009161106d575b50611066828d610aac565b5238610fa3565b90506020813d602011611097575b8161108860209383610982565b81010312610a3a57513861105b565b3d915061107b565b3d9150816000823e6110b18282610982565b6020818381010312610a3a578051906001600160401b0390818311610a3a57838101601f848301011215610a3a578281015191821161096c5760405193611102601f8401601f191660200186610982565b8285528101602083858401010111610a3a576020611125938186019201016108fa565b38610f6b565b611144915060e03d60e01161058f5761057a8183610982565b5050505050905038610f15565b9091506020813d60201161117d575b8161116d60209383610982565b81010312610a3a57519038610ebf565b3d9150611160565b806060602080938701015201610bbc565b849150610b88565b93505050604051916111af83610951565b60008352604051926111c084610951565b60008452604051916111d183610951565b60008352604051936111e285610951565b60008552604051936111f385610951565b600085526040519361120485610951565b60008552966080529493929190565b604051629cbc1d60e71b8152600481018590526020816024817f00000000000000000000000000000000000000000000000000000000000000006001600160a01b03165afa9081611278575b5015600003610b605792611272906109a5565b92611213565b602090813d831161129c575b61128e8183610982565b81010312610a3a573861125f565b503d611284565b602090813d83116112c7575b6112b98183610982565b81010312610a3a5738610b5a565b503d6112af565b604051637022f26f60e01b8152600490fd5b604051631a49577b60e11b8152600490fd5b818102929181159184041417156109b45756fea2646970667358221220e58cfd79c8281b00ac8bdac85cfcc60e17897b5c1627b3cba285a531d360830864736f6c63430008140033",
  "linkReferences": {},
  "deployedLinkReferences": {}
}