{
  "_format": "hh-sol-artifact-1",
  "contractName": "MockERC20",
  "sourceName": "contracts/MockERC20.sol",
  "abi": [
    {
      "inputs": [
        {
          "internalType": "string",
          "name": "name",
          "type": "string"
        },
        {
          "internalType": "string",
          "name": "symbol",
          "type": "string"
        }
      ],
      "stateMutability": "nonpayable",
      "type": "constructor"
    },
    {
      "inputs": [
        {
          "internalType": "address",
          "name": "spender",
          "type": "address"
        },
        {
          "internalType": "uint256",
          "name": "allowance",
          "type": "uint256"
        },
        {
          "internalType": "uint256",
          "name": "needed",
          "type": "uint256"
        }
      ],
      "name": "ERC20InsufficientAllowance",
      "type": "error"
    },
    {
      "inputs": [
        {
          "internalType": "address",
          "name": "sender",
          "type": "address"
        },
        {
          "internalType": "uint256",
          "name": "balance",
          "type": "uint256"
        },
        {
          "internalType": "uint256",
          "name": "needed",
          "type": "uint256"
        }
      ],
      "name": "ERC20InsufficientBalance",
      "type": "error"
    },
    {
      "inputs": [
        {
          "internalType": "address",
          "name": "approver",
          "type": "address"
        }
      ],
      "name": "ERC20InvalidApprover",
      "type": "error"
    },
    {
      "inputs": [
        {
          "internalType": "address",
          "name": "receiver",
          "type": "address"
        }
      ],
      "name": "ERC20InvalidReceiver",
      "type": "error"
    },
    {
      "inputs": [
        {
          "internalType": "address",
          "name": "sender",
          "type": "address"
        }
      ],
      "name": "ERC20InvalidSender",
      "type": "error"
    },
    {
      "inputs": [
        {
          "internalType": "address",
          "name": "spender",
          "type": "address"
        }
      ],
      "name": "ERC20InvalidSpender",
      "type": "error"
    },
    {
      "anonymous": false,
      "inputs": [
        {
          "indexed": true,
          "internalType": "address",
          "name": "owner",
          "type": "address"
        },
        {
          "indexed": true,
          "internalType": "address",
          "name": "spender",
          "type": "address"
        },
        {
          "indexed": false,
          "internalType": "uint256",
          "name": "value",
          "type": "uint256"
        }
      ],
      "name": "Approval",
      "type": "event"
    },
    {
      "anonymous": false,
      "inputs": [
        {
          "indexed": true,
          "internalType": "address",
          "name": "from",
          "type": "address"
        },
        {
          "indexed": true,
          "internalType": "address",
          "name": "to",
          "type": "address"
        },
        {
          "indexed": false,
          "internalType": "uint256",
          "name": "value",
          "type": "uint256"
        }
      ],
      "name": "Transfer",
      "type": "event"
    },
    {
      "inputs": [
        {
          "internalType": "address",
          "name": "owner",
          "type": "address"
        },
        {
          "internalType": "address",
          "name": "spender",
          "type": "address"
        }
      ],
      "name": "allowance",
      "outputs": [
        {
          "internalType": "uint256",
          "name": "",
          "type": "uint256"
        }
      ],
      "stateMutability": "view",
      "type": "function"
    },
    {
      "inputs": [
        {
          "internalType": "address",
          "name": "spender",
          "type": "address"
        },
        {
          "internalType": "uint256",
          "name": "value",
          "type": "uint256"
        }
      ],
      "name": "approve",
      "outputs": [
        {
          "internalType": "bool",
          "name": "",
          "type": "bool"
        }
      ],
      "stateMutability": "nonpayable",
      "type": "function"
    },
    {
      "inputs": [
        {
          "internalType": "address",
          "name": "account",
          "type": "address"
        }
      ],
      "name": "balanceOf",
      "outputs": [
        {
          "internalType": "uint256",
          "name": "",
          "type": "uint256"
        }
      ],
      "stateMutability": "view",
      "type": "function"
    },
    {
      "inputs": [],
      "name": "decimals",
      "outputs": [
        {
          "internalType": "uint8",
          "name": "",
          "type": "uint8"
        }
      ],
      "stateMutability": "view",
      "type": "function"
    },
    {
      "inputs": [],
      "name": "faucet",
      "outputs": [],
      "stateMutability": "nonpayable",
      "type": "function"
    },
    {
      "inputs": [],
      "name": "name",
      "outputs": [
        {
          "internalType": "string",
          "name": "",
          "type": "string"
        }
      ],
      "stateMutability": "view",
      "type": "function"
    },
    {
      "inputs": [],
      "name": "symbol",
      "outputs": [
        {
          "internalType": "string",
          "name": "",
          "type": "string"
        }
      ],
      "stateMutability": "view",
      "type": "function"
    },
    {
      "inputs": [],
      "name": "totalSupply",
      "outputs": [
        {
          "internalType": "uint256",
          "name": "",
          "type": "uint256"
        }
      ],
      "stateMutability": "view",
      "type": "function"
    },
    {
      "inputs": [
        {
          "internalType": "address",
          "name": "to",
          "type": "address"
        },
        {
          "internalType": "uint256",
          "name": "value",
          "type": "uint256"
        }
      ],
      "name": "transfer",
      "outputs": [
        {
          "internalType": "bool",
          "name": "",
          "type": "bool"
        }
      ],
      "stateMutability": "nonpayable",
      "type": "function"
    },
    {
      "inputs": [
        {
          "internalType": "address",
          "name": "from",
          "type": "address"
        },
        {
          "internalType": "address",
          "name": "to",
          "type": "address"
        },
        {
          "internalType": "uint256",
          "name": "value",
          "type": "uint256"
        }
      ],
      "name": "transferFrom",
      "outputs": [
        {
          "internalType": "bool",
          "name": "",
          "type": "bool"
        }
      ],
      "stateMutability": "nonpayable",
      "type": "function"
    }
  ],
  "bytecode": "0x60406080815234620003a05762000b3d803803806200001e81620003a5565b92833981018282820312620003a05781516001600160401b039290838111620003a057826200004f918301620003cb565b9060209283820151858111620003a0576200006b9201620003cb565b928151818111620002a0576003908154906001948583811c9316801562000395575b878410146200037f578190601f9384811162000329575b508790848311600114620002c257600092620002b6575b505060001982851b1c191690851b1782555b8551928311620002a05760049586548581811c9116801562000295575b87821014620002805782811162000235575b5085918411600114620001ca57938394918492600095620001be575b50501b92600019911b1c19161782555b3315620001a75760025464e8d4a51000928382018092116200019257506000917fddf252ad1be2c89b69c2b068fc378daa952ba7f163c4a11628f55a4df523b3ef9160025533835282815284832084815401905584519384523393a3516106ff90816200043e8239f35b601190634e487b7160e01b6000525260246000fd5b506000602492519163ec442f0560e01b8352820152fd5b01519350388062000118565b9190601f198416928760005284876000209460005b89898383106200021d575050501062000202575b50505050811b01825562000128565b01519060f884600019921b161c1916905538808080620001f3565b868601518955909701969485019488935001620001df565b87600052866000208380870160051c82019289881062000276575b0160051c019086905b82811062000269575050620000fc565b6000815501869062000259565b9250819262000250565b602288634e487b7160e01b6000525260246000fd5b90607f1690620000ea565b634e487b7160e01b600052604160045260246000fd5b015190503880620000bb565b90879350601f1983169186600052896000209260005b8b828210620003125750508411620002f9575b505050811b018255620000cd565b015160001983871b60f8161c19169055388080620002eb565b8385015186558b97909501949384019301620002d8565b90915084600052876000208480850160051c8201928a861062000375575b918991869594930160051c01915b82811062000365575050620000a4565b6000815585945089910162000355565b9250819262000347565b634e487b7160e01b600052602260045260246000fd5b92607f16926200008d565b600080fd5b6040519190601f01601f191682016001600160401b03811183821017620002a057604052565b919080601f84011215620003a05782516001600160401b038111620002a05760209062000401601f8201601f19168301620003a5565b92818452828287010111620003a05760005b8181106200042957508260009394955001015290565b85810183015184820184015282016200041356fe608060408181526004908136101561001657600080fd5b600092833560e01c90816306fdde031461049f57508063095ea7b3146103f557806318160ddd146103d657806323b872dd146102ea578063313ce567146102ce57806370a082311461029757806395d89b4114610195578063a9059cbb14610164578063dd62ed3e146101175763de5f72fd1461009257600080fd5b3461011357826003193601126101135733156100fe57600254633b9aca00928382018092116100eb57506002553383528260205280832082815401905551908152816000805160206106aa83398151915260203393a380f35b634e487b7160e01b855260119052602484fd5b91602492519163ec442f0560e01b8352820152fd5b8280fd5b838234610160578060031936011261016057806020926101356105a3565b61013d6105be565b6001600160a01b0391821683526001865283832091168252845220549051908152f35b5080fd5b83823461016057806003193601126101605760209061018e6101846105a3565b60243590336105d4565b5160018152f35b50829034610160578160031936011261016057805190828454600181811c9080831692831561028d575b602093848410811461027a5783885290811561025e5750600114610226575b505050829003601f01601f19168201926001600160401b03841183851017610213575082918261020f92528261055a565b0390f35b634e487b7160e01b815260418552602490fd5b919250868652828620918387935b83851061024a57505050508301018580806101de565b805488860183015293019284908201610234565b60ff1916878501525050151560051b84010190508580806101de565b634e487b7160e01b895260228a52602489fd5b91607f16916101bf565b8382346101605760203660031901126101605760209181906001600160a01b036102bf6105a3565b16815280845220549051908152f35b8382346101605781600319360112610160576020905160068152f35b5091346103d35760603660031901126103d3576103056105a3565b61030d6105be565b916044359360018060a01b038316808352600160205286832033845260205286832054916000198310610349575b60208861018e8989896105d4565b8683106103b157811561039a5733156103835750825260016020908152868320338452815291869020908590039055829061018e3861033b565b8751634a1406b160e11b8152908101849052602490fd5b875163e602df0560e01b8152908101849052602490fd5b90506103cf868851938493637dc7a0d960e11b85523390850161068b565b0390fd5b80fd5b8382346101605781600319360112610160576020906002549051908152f35b50903461011357816003193601126101135761040f6105a3565b602435903315610488576001600160a01b031691821561047157508083602095338152600187528181208582528752205582519081527f8c5be1e5ebec7d5bd14f71427d1e84f3dd0314c0f7b2291e5b200ac8c7c3b925843392a35160018152f35b8351634a1406b160e11b8152908101859052602490fd5b835163e602df0560e01b8152808401869052602490fd5b905083913461011357826003193601126101135782600354600181811c90808316928315610550575b602093848410811461027a5783885290811561025e575060011461051757505050829003601f01601f19168201926001600160401b03841183851017610213575082918261020f92528261055a565b91925060038652828620918387935b83851061053c57505050508301018580806101de565b805488860183015293019284908201610526565b91607f16916104c8565b6020808252825181830181905290939260005b82811061058f57505060409293506000838284010152601f8019910116010190565b81810186015184820160400152850161056d565b600435906001600160a01b03821682036105b957565b600080fd5b602435906001600160a01b03821682036105b957565b916001600160a01b038084169283156106725716928315610659576000908382528160205260408220549083821061063c575091604082826000805160206106aa833981519152958760209652828652038282205586815220818154019055604051908152a3565b6103cf8460405193849363391434e360e21b85526004850161068b565b60405163ec442f0560e01b815260006004820152602490fd5b604051634b637e8f60e11b815260006004820152602490fd5b604091949392606082019560018060a01b031682526020820152015256feddf252ad1be2c89b69c2b068fc378daa952ba7f163c4a11628f55a4df523b3efa264697066735822122072f136d630384765372f7a5e710006e6b1eeceb508c6c2384ef9bed44b7377ca64736f6c63430008140033",
  "linkReferences": {},
  "deployedLinkReferences": {}
}