{
  "_format": "hh-sol-artifact-1",
  "contractName": "TouchGrass",
  "sourceName": "contracts/TouchGrass.sol",
  "abi": [
    {
      "inputs": [
        {
          "internalType": "address",
          "name": "_verifierAddress",
          "type": "address"
        },
        {
          "internalType": "address",
          "name": "_charityAddress",
          "type": "address"
        },
        {
          "internalType": "address",
          "name": "_treasuryAddress",
          "type": "address"
        },
        {
          "internalType": "uint256",
          "name": "_USDCFee",
          "type": "uint256"
        },
        {
          "internalType": "uint256",
          "name": "_USDCMinStake",
          "type": "uint256"
        }
      ],
      "stateMutability": "nonpayable",
      "type": "constructor"
    },
    {
      "inputs": [],
      "name": "BurnPercentLessThan100",
      "type": "error"
    },
    {
      "inputs": [],
      "name": "CannotRecoverLockedFunds",
      "type": "error"
    },
    {
      "inputs": [],
      "name": "CannotRecoverStakedTokens",
      "type": "error"
    },
    {
      "inputs": [],
      "name": "CannotSweepLock",
      "type": "error"
    },
    {
      "inputs": [],
      "name": "CannotSweepPartialPenalty",
      "type": "error"
    },
    {
      "inputs": [],
      "name": "ChallengeActive",
      "type": "error"
    },
    {
      "inputs": [],
      "name": "ChallengeAlreadySuccess",
      "type": "error"
    },
    {
      "inputs": [],
      "name": "ChallengeAlreadyWithdrawn",
      "type": "error"
    },
    {
      "inputs": [],
      "name": "ChallengeNotExpired",
      "type": "error"
    },
    {
      "inputs": [],
      "name": "ChallengeSuccessful",
      "type": "error"
    },
    {
      "inputs": [],
      "name": "CountTooLarge",
      "type": "error"
    },
    {
      "inputs": [],
      "name": "DuplicateAddresses",
      "type": "error"
    },
    {
      "inputs": [],
      "name": "DurationCausesTimestampOverflow",
      "type": "error"
    },
    {
      "inputs": [],
      "name": "DurationTooLarge",
      "type": "error"
    },
    {
      "inputs": [],
      "name": "EnforcedPause",
      "type": "error"
    },
    {
      "inputs": [],
      "name": "EthTransferFailed",
      "type": "error"
    },
    {
      "inputs": [],
      "name": "ExpectedPause",
      "type": "error"
    },
    {
      "inputs": [],
      "name": "FeeChangeTooLarge",
      "type": "error"
    },
    {
      "inputs": [],
      "name": "FeeTransferFailed",
      "type": "error"
    },
    {
      "inputs": [],
      "name": "FundsLocked",
      "type": "error"
    },
    {
      "inputs": [],
      "name": "GracePeriodActive",
      "type": "error"
    },
    {
      "inputs": [],
      "name": "GracePeriodCannotBeLessThanADay",
      "type": "error"
    },
    {
      "inputs": [],
      "name": "GracePeriodCausesOverflow",
      "type": "error"
    },
    {
      "inputs": [],
      "name": "GracePeriodTooLarge",
      "type": "error"
    },
    {
      "inputs": [],
      "name": "GracePeriodTooLong",
      "type": "error"
    },
    {
      "inputs": [],
      "name": "InsufficientEth",
      "type": "error"
    },
    {
      "inputs": [],
      "name": "InsufficientFee",
      "type": "error"
    },
    {
      "inputs": [],
      "name": "InsufficientPayment",
      "type": "error"
    },
    {
      "inputs": [],
      "name": "InvalidAddress",
      "type": "error"
    },
    {
      "inputs": [],
      "name": "InvalidCount",
      "type": "error"
    },
    {
      "inputs": [],
      "name": "InvalidDuration",
      "type": "error"
    },
    {
      "inputs": [],
      "name": "InvalidInput",
      "type": "error"
    },
    {
      "inputs": [],
      "name": "InvalidPayment",
      "type": "error"
    },
    {
      "inputs": [],
      "name": "InvalidPenaltyPercent",
      "type": "error"
    },
    {
      "inputs": [],
      "name": "InvalidPriceData",
      "type": "error"
    },
    {
      "inputs": [],
      "name": "InvalidStake",
      "type": "error"
    },
    {
      "inputs": [],
      "name": "InvalidTokenConfig",
      "type": "error"
    },
    {
      "inputs": [],
      "name": "InvalidVoluntaryDonationPercent",
      "type": "error"
    },
    {
      "inputs": [],
      "name": "InvalidVoluntaryDonationTarget",
      "type": "error"
    },
    {
      "inputs": [],
      "name": "LockMultiplierCausesOverflow",
      "type": "error"
    },
    {
      "inputs": [],
      "name": "LockMultiplierTooHigh",
      "type": "error"
    },
    {
      "inputs": [],
      "name": "LockMultiplierTooLow",
      "type": "error"
    },
    {
      "inputs": [],
      "name": "MaxDurationAboveAbsolute",
      "type": "error"
    },
    {
      "inputs": [],
      "name": "MaxDurationCausesOverflow",
      "type": "error"
    },
    {
      "inputs": [],
      "name": "MinDurationAboveMax",
      "type": "error"
    },
    {
      "inputs": [],
      "name": "MinDurationBelowAbsolute",
      "type": "error"
    },
    {
      "inputs": [],
      "name": "MinPenaltyPercentageHigherThan50",
      "type": "error"
    },
    {
      "inputs": [],
      "name": "MinPenaltyPercentageMustBeGreaterThan5",
      "type": "error"
    },
    {
      "inputs": [],
      "name": "NoPendingUpdate",
      "type": "error"
    },
    {
      "inputs": [],
      "name": "NoPendingWithdrawal",
      "type": "error"
    },
    {
      "inputs": [],
      "name": "NoTokensToRecover",
      "type": "error"
    },
    {
      "inputs": [],
      "name": "NoTransferPending",
      "type": "error"
    },
    {
      "inputs": [],
      "name": "OnlyPendingOwner",
      "type": "error"
    },
    {
      "inputs": [
        {
          "internalType": "address",
          "name": "owner",
          "type": "address"
        }
      ],
      "name": "OwnableInvalidOwner",
      "type": "error"
    },
    {
      "inputs": [
        {
          "internalType": "address",
          "name": "account",
          "type": "address"
        }
      ],
      "name": "OwnableUnauthorizedAccount",
      "type": "error"
    },
    {
      "inputs": [],
      "name": "OwnershipRenunciationInProgress",
      "type": "error"
    },
    {
      "inputs": [],
      "name": "OwnershipRenunciationNotInitiated",
      "type": "error"
    },
    {
      "inputs": [],
      "name": "PenaltyPercentLessThanMinimum",
      "type": "error"
    },
    {
      "inputs": [],
      "name": "PriceOracleNotSet",
      "type": "error"
    },
    {
      "inputs": [],
      "name": "RecoveryFailed",
      "type": "error"
    },
    {
      "inputs": [],
      "name": "ReentrancyGuardReentrantCall",
      "type": "error"
    },
    {
      "inputs": [],
      "name": "ReentrantTransfer",
      "type": "error"
    },
    {
      "inputs": [],
      "name": "RenunciationDelayNotMet",
      "type": "error"
    },
    {
      "inputs": [
        {
          "internalType": "address",
          "name": "token",
          "type": "address"
        }
      ],
      "name": "SafeERC20FailedOperation",
      "type": "error"
    },
    {
      "inputs": [],
      "name": "StakeBelowMinimum",
      "type": "error"
    },
    {
      "inputs": [],
      "name": "StalePrice",
      "type": "error"
    },
    {
      "inputs": [],
      "name": "TimeExpired",
      "type": "error"
    },
    {
      "inputs": [],
      "name": "TimestampOverflow",
      "type": "error"
    },
    {
      "inputs": [],
      "name": "TokenAlreadySupported",
      "type": "error"
    },
    {
      "inputs": [],
      "name": "TokenNotFound",
      "type": "error"
    },
    {
      "inputs": [],
      "name": "TokenNotSupported",
      "type": "error"
    },
    {
      "inputs": [],
      "name": "TokenTransferFailed",
      "type": "error"
    },
    {
      "inputs": [],
      "name": "TransferDelayNotMet",
      "type": "error"
    },
    {
      "inputs": [],
      "name": "TransferToContract",
      "type": "error"
    },
    {
      "inputs": [],
      "name": "TransferToCurrentOwner",
      "type": "error"
    },
    {
      "inputs": [],
      "name": "TransferToZeroAddress",
      "type": "error"
    },
    {
      "inputs": [],
      "name": "USDCFeeOverflow",
      "type": "error"
    },
    {
      "inputs": [],
      "name": "USDCFeeTooLow",
      "type": "error"
    },
    {
      "inputs": [],
      "name": "USDCFeeZero",
      "type": "error"
    },
    {
      "inputs": [],
      "name": "Unauthorized",
      "type": "error"
    },
    {
      "inputs": [],
      "name": "UpdateNotReady",
      "type": "error"
    },
    {
      "inputs": [],
      "name": "VerifierCannotBeOwner",
      "type": "error"
    },
    {
      "inputs": [],
      "name": "WithdrawalClaimFailed",
      "type": "error"
    },
    {
      "anonymous": false,
      "inputs": [
        {
          "indexed": false,
          "internalType": "uint256",
          "name": "oldMinStake",
          "type": "uint256"
        },
        {
          "indexed": false,
          "internalType": "uint256",
          "name": "newMinStake",
          "type": "uint256"
        }
      ],
      "name": "BaseUSDCMinStakeUpdated",
      "type": "event"
    },
    {
      "anonymous": false,
      "inputs": [
        {
          "indexed": true,
          "internalType": "uint256",
          "name": "id",
          "type": "uint256"
        },
        {
          "indexed": true,
          "internalType": "address",
          "name": "staker",
          "type": "address"
        },
        {
          "indexed": false,
          "internalType": "uint256",
          "name": "amount",
          "type": "uint256"
        }
      ],
      "name": "ChallengeCreated",
      "type": "event"
    },
    {
      "anonymous": false,
      "inputs": [
        {
          "indexed": true,
          "internalType": "uint256",
          "name": "id",
          "type": "uint256"
        }
      ],
      "name": "ChallengeSuccess",
      "type": "event"
    },
    {
      "anonymous": false,
      "inputs": [
        {
          "indexed": true,
          "internalType": "address",
          "name": "oldCharityWallet",
          "type": "address"
        },
        {
          "indexed": true,
          "internalType": "address",
          "name": "newCharityWallet",
          "type": "address"
        }
      ],
      "name": "CharityWalletUpdated",
      "type": "event"
    },
    {
      "anonymous": false,
      "inputs": [
        {
          "indexed": true,
          "internalType": "address",
          "name": "token",
          "type": "address"
        },
        {
          "indexed": true,
          "internalType": "address",
          "name": "recipient",
          "type": "address"
        },
        {
          "indexed": false,
          "internalType": "uint256",
          "name": "amount",
          "type": "uint256"
        },
        {
          "indexed": false,
          "internalType": "string",
          "name": "tokenSymbol",
          "type": "string"
        }
      ],
      "name": "ERC20Recovered",
      "type": "event"
    },
    {
      "anonymous": false,
      "inputs": [
        {
          "indexed": true,
          "internalType": "address",
          "name": "recipient",
          "type": "address"
        },
        {
          "indexed": false,
          "internalType": "uint256",
          "name": "amount",
          "type": "uint256"
        }
      ],
      "name": "ETHRecovered",
      "type": "event"
    },
    {
      "anonymous": false,
      "inputs": [
        {
          "indexed": true,
          "internalType": "bytes32",
          "name": "tokenId",
          "type": "bytes32"
        }
      ],
      "name": "FallbackPriceDisabled",
      "type": "event"
    },
    {
      "anonymous": false,
      "inputs": [
        {
          "indexed": true,
          "internalType": "bytes32",
          "name": "tokenId",
          "type": "bytes32"
        },
        {
          "indexed": false,
          "internalType": "uint256",
          "name": "price",
          "type": "uint256"
        }
      ],
      "name": "FallbackPriceEnabled",
      "type": "event"
    },
    {
      "anonymous": false,
      "inputs": [
        {
          "indexed": true,
          "internalType": "uint256",
          "name": "newGracePeriod",
          "type": "uint256"
        }
      ],
      "name": "GracePeriodUpdated",
      "type": "event"
    },
    {
      "anonymous": false,
      "inputs": [
        {
          "indexed": true,
          "internalType": "uint256",
          "name": "newLockMultiplier",
          "type": "uint256"
        }
      ],
      "name": "LockMultiplierUpdated",
      "type": "event"
    },
    {
      "anonymous": false,
      "inputs": [
        {
          "indexed": true,
          "internalType": "uint256",
          "name": "newMaxDuration",
          "type": "uint256"
        }
      ],
      "name": "MaxDurationUpdated",
      "type": "event"
    },
    {
      "anonymous": false,
      "inputs": [
        {
          "indexed": true,
          "internalType": "uint256",
          "name": "newMinDuration",
          "type": "uint256"
        }
      ],
      "name": "MinDurationUpdated",
      "type": "event"
    },
    {
      "anonymous": false,
      "inputs": [
        {
          "indexed": true,
          "internalType": "uint8",
          "name": "newMinPenaltyPercentage",
          "type": "uint8"
        }
      ],
      "name": "MinPenaltyPercentageUpdated",
      "type": "event"
    },
    {
      "anonymous": false,
      "inputs": [
        {
          "indexed": true,
          "internalType": "address",
          "name": "multiSig",
          "type": "address"
        }
      ],
      "name": "MultiSigRemovedFromWhitelist",
      "type": "event"
    },
    {
      "anonymous": false,
      "inputs": [
        {
          "indexed": true,
          "internalType": "address",
          "name": "multiSig",
          "type": "address"
        }
      ],
      "name": "MultiSigWhitelisted",
      "type": "event"
    },
    {
      "anonymous": false,
      "inputs": [
        {
          "indexed": true,
          "internalType": "address",
          "name": "previousOwner",
          "type": "address"
        }
      ],
      "name": "OwnershipRenounced",
      "type": "event"
    },
    {
      "anonymous": false,
      "inputs": [
        {
          "indexed": true,
          "internalType": "address",
          "name": "owner",
          "type": "address"
        }
      ],
      "name": "OwnershipRenunciationCancelled",
      "type": "event"
    },
    {
      "anonymous": false,
      "inputs": [
        {
          "indexed": true,
          "internalType": "address",
          "name": "owner",
          "type": "address"
        },
        {
          "indexed": false,
          "internalType": "uint256",
          "name": "effectiveTime",
          "type": "uint256"
        }
      ],
      "name": "OwnershipRenunciationScheduled",
      "type": "event"
    },
    {
      "anonymous": false,
      "inputs": [
        {
          "indexed": true,
          "internalType": "address",
          "name": "cancelledPendingOwner",
          "type": "address"
        }
      ],
      "name": "OwnershipTransferCancelled",
      "type": "event"
    },
    {
      "anonymous": false,
      "inputs": [
        {
          "indexed": true,
          "internalType": "address",
          "name": "currentOwner",
          "type": "address"
        },
        {
          "indexed": true,
          "internalType": "address",
          "name": "pendingOwner",
          "type": "address"
        },
        {
          "indexed": false,
          "internalType": "uint256",
          "name": "effectiveTime",
          "type": "uint256"
        }
      ],
      "name": "OwnershipTransferScheduled",
      "type": "event"
    },
    {
      "anonymous": false,
      "inputs": [
        {
          "indexed": true,
          "internalType": "address",
          "name": "previousOwner",
          "type": "address"
        },
        {
          "indexed": true,
          "internalType": "address",
          "name": "newOwner",
          "type": "address"
        }
      ],
      "name": "OwnershipTransferStarted",
      "type": "event"
    },
    {
      "anonymous": false,
      "inputs": [
        {
          "indexed": true,
          "internalType": "address",
          "name": "previousOwner",
          "type": "address"
        },
        {
          "indexed": true,
          "internalType": "address",
          "name": "newOwner",
          "type": "address"
        }
      ],
      "name": "OwnershipTransferred",
      "type": "event"
    },
    {
      "anonymous": false,
      "inputs": [
        {
          "indexed": false,
          "internalType": "address",
          "name": "account",
          "type": "address"
        }
      ],
      "name": "Paused",
      "type": "event"
    },
    {
      "anonymous": false,
      "inputs": [
        {
          "indexed": true,
          "internalType": "uint256",
          "name": "id",
          "type": "uint256"
        },
        {
          "indexed": false,
          "internalType": "uint256",
          "name": "penaltyAmount",
          "type": "uint256"
        },
        {
          "indexed": false,
          "internalType": "address",
          "name": "destination",
          "type": "address"
        }
      ],
      "name": "PenaltyExecuted",
      "type": "event"
    },
    {
      "anonymous": false,
      "inputs": [
        {
          "indexed": true,
          "internalType": "address",
          "name": "token",
          "type": "address"
        },
        {
          "indexed": false,
          "internalType": "uint256",
          "name": "contractBalance",
          "type": "uint256"
        },
        {
          "indexed": false,
          "internalType": "uint256",
          "name": "lockedAmount",
          "type": "uint256"
        },
        {
          "indexed": false,
          "internalType": "uint256",
          "name": "recoverable",
          "type": "uint256"
        }
      ],
      "name": "RecoveryAttempt",
      "type": "event"
    },
    {
      "anonymous": false,
      "inputs": [
        {
          "indexed": true,
          "internalType": "bytes32",
          "name": "tokenId",
          "type": "bytes32"
        },
        {
          "indexed": false,
          "internalType": "string",
          "name": "symbol",
          "type": "string"
        },
        {
          "indexed": true,
          "internalType": "address",
          "name": "tokenAddress",
          "type": "address"
        },
        {
          "indexed": true,
          "internalType": "address",
          "name": "priceFeed",
          "type": "address"
        }
      ],
      "name": "TokenAdded",
      "type": "event"
    },
    {
      "anonymous": false,
      "inputs": [
        {
          "indexed": true,
          "internalType": "bytes32",
          "name": "tokenId",
          "type": "bytes32"
        },
        {
          "indexed": false,
          "internalType": "address",
          "name": "oldFeed",
          "type": "address"
        },
        {
          "indexed": false,
          "internalType": "address",
          "name": "newFeed",
          "type": "address"
        }
      ],
      "name": "TokenPriceFeedUpdated",
      "type": "event"
    },
    {
      "anonymous": false,
      "inputs": [
        {
          "indexed": true,
          "internalType": "bytes32",
          "name": "tokenId",
          "type": "bytes32"
        },
        {
          "indexed": false,
          "internalType": "string",
          "name": "symbol",
          "type": "string"
        }
      ],
      "name": "TokenRemoved",
      "type": "event"
    },
    {
      "anonymous": false,
      "inputs": [
        {
          "indexed": true,
          "internalType": "address",
          "name": "user",
          "type": "address"
        },
        {
          "indexed": true,
          "internalType": "bytes32",
          "name": "tokenId",
          "type": "bytes32"
        },
        {
          "indexed": false,
          "internalType": "uint256",
          "name": "amount",
          "type": "uint256"
        }
      ],
      "name": "TransferFailed",
      "type": "event"
    },
    {
      "anonymous": false,
      "inputs": [
        {
          "indexed": true,
          "internalType": "address",
          "name": "oldTreasuryWallet",
          "type": "address"
        },
        {
          "indexed": true,
          "internalType": "address",
          "name": "newTreasuryWallet",
          "type": "address"
        }
      ],
      "name": "TreasuryWalletUpdated",
      "type": "event"
    },
    {
      "anonymous": false,
      "inputs": [
        {
          "indexed": true,
          "internalType": "address",
          "name": "recipient",
          "type": "address"
        }
      ],
      "name": "TrustedRecipientAdded",
      "type": "event"
    },
    {
      "anonymous": false,
      "inputs": [
        {
          "indexed": true,
          "internalType": "address",
          "name": "recipient",
          "type": "address"
        }
      ],
      "name": "TrustedRecipientRemoved",
      "type": "event"
    },
    {
      "anonymous": false,
      "inputs": [],
      "name": "USDCFeeUpdateCancelled",
      "type": "event"
    },
    {
      "anonymous": false,
      "inputs": [
        {
          "indexed": false,
          "internalType": "uint256",
          "name": "newFee",
          "type": "uint256"
        },
        {
          "indexed": false,
          "internalType": "uint256",
          "name": "effectiveTime",
          "type": "uint256"
        }
      ],
      "name": "USDCFeeUpdateScheduled",
      "type": "event"
    },
    {
      "anonymous": false,
      "inputs": [
        {
          "indexed": false,
          "internalType": "uint256",
          "name": "oldFee",
          "type": "uint256"
        },
        {
          "indexed": false,
          "internalType": "uint256",
          "name": "newFee",
          "type": "uint256"
        }
      ],
      "name": "USDCFeeUpdated",
      "type": "event"
    },
    {
      "anonymous": false,
      "inputs": [
        {
          "indexed": false,
          "internalType": "address",
          "name": "account",
          "type": "address"
        }
      ],
      "name": "Unpaused",
      "type": "event"
    },
    {
      "anonymous": false,
      "inputs": [
        {
          "indexed": true,
          "internalType": "address",
          "name": "oldVerifier",
          "type": "address"
        },
        {
          "indexed": true,
          "internalType": "address",
          "name": "newVerifier",
          "type": "address"
        }
      ],
      "name": "VerifierUpdated",
      "type": "event"
    },
    {
      "anonymous": false,
      "inputs": [
        {
          "indexed": true,
          "internalType": "uint256",
          "name": "id",
          "type": "uint256"
        },
        {
          "indexed": true,
          "internalType": "address",
          "name": "donor",
          "type": "address"
        },
        {
          "indexed": false,
          "internalType": "uint256",
          "name": "amount",
          "type": "uint256"
        },
        {
          "indexed": false,
          "internalType": "address",
          "name": "target",
          "type": "address"
        }
      ],
      "name": "VoluntaryDonation",
      "type": "event"
    },
    {
      "anonymous": false,
      "inputs": [
        {
          "indexed": true,
          "internalType": "address",
          "name": "user",
          "type": "address"
        },
        {
          "indexed": true,
          "internalType": "bytes32",
          "name": "tokenId",
          "type": "bytes32"
        },
        {
          "indexed": false,
          "internalType": "uint256",
          "name": "amount",
          "type": "uint256"
        }
      ],
      "name": "WithdrawalClaimed",
      "type": "event"
    },
    {
      "anonymous": false,
      "inputs": [
        {
          "indexed": true,
          "internalType": "uint256",
          "name": "id",
          "type": "uint256"
        },
        {
          "indexed": true,
          "internalType": "address",
          "name": "staker",
          "type": "address"
        },
        {
          "indexed": false,
          "internalType": "uint256",
          "name": "amount",
          "type": "uint256"
        }
      ],
      "name": "Withdrawn",
      "type": "event"
    },
    {
      "inputs": [],
      "name": "ABSOLUTE_MAX_DURATION",
      "outputs": [
        {
          "internalType": "uint256",
          "name": "",
          "type": "uint256"
        }
      ],
      "stateMutability": "view",
      "type": "function"
    },
    {
      "inputs": [],
      "name": "ABSOLUTE_MAX_MIN_PENALTY",
      "outputs": [
        {
          "internalType": "uint8",
          "name": "",
          "type": "uint8"
        }
      ],
      "stateMutability": "view",
      "type": "function"
    },
    {
      "inputs": [],
      "name": "ABSOLUTE_MIN_DURATION",
      "outputs": [
        {
          "internalType": "uint256",
          "name": "",
          "type": "uint256"
        }
      ],
      "stateMutability": "view",
      "type": "function"
    },
    {
      "inputs": [],
      "name": "ABSOLUTE_MIN_PENALTY",
      "outputs": [
        {
          "internalType": "uint8",
          "name": "",
          "type": "uint8"
        }
      ],
      "stateMutability": "view",
      "type": "function"
    },
    {
      "inputs": [],
      "name": "FEE_UPDATE_DELAY",
      "outputs": [
        {
          "internalType": "uint256",
          "name": "",
          "type": "uint256"
        }
      ],
      "stateMutability": "view",
      "type": "function"
    },
    {
      "inputs": [],
      "name": "GRACE_PERIOD",
      "outputs": [
        {
          "internalType": "uint256",
          "name": "",
          "type": "uint256"
        }
      ],
      "stateMutability": "view",
      "type": "function"
    },
    {
      "inputs": [],
      "name": "LOCK_MULTIPLIER",
      "outputs": [
        {
          "internalType": "uint256",
          "name": "",
          "type": "uint256"
        }
      ],
      "stateMutability": "view",
      "type": "function"
    },
    {
      "inputs": [],
      "name": "MAX_DURATION",
      "outputs": [
        {
          "internalType": "uint256",
          "name": "",
          "type": "uint256"
        }
      ],
      "stateMutability": "view",
      "type": "function"
    },
    {
      "inputs": [],
      "name": "MAX_FEE_CHANGE_PERCENT",
      "outputs": [
        {
          "internalType": "uint256",
          "name": "",
          "type": "uint256"
        }
      ],
      "stateMutability": "view",
      "type": "function"
    },
    {
      "inputs": [],
      "name": "MAX_GRACE_PERIOD",
      "outputs": [
        {
          "internalType": "uint256",
          "name": "",
          "type": "uint256"
        }
      ],
      "stateMutability": "view",
      "type": "function"
    },
    {
      "inputs": [],
      "name": "MAX_LOCK_MULTIPLIER",
      "outputs": [
        {
          "internalType": "uint256",
          "name": "",
          "type": "uint256"
        }
      ],
      "stateMutability": "view",
      "type": "function"
    },
    {
      "inputs": [],
      "name": "MAX_USDC_FEE_INPUT",
      "outputs": [
        {
          "internalType": "uint256",
          "name": "",
          "type": "uint256"
        }
      ],
      "stateMutability": "view",
      "type": "function"
    },
    {
      "inputs": [],
      "name": "MIN_DURATION",
      "outputs": [
        {
          "internalType": "uint256",
          "name": "",
          "type": "uint256"
        }
      ],
      "stateMutability": "view",
      "type": "function"
    },
    {
      "inputs": [],
      "name": "MIN_LOCK_MULTIPLIER",
      "outputs": [
        {
          "internalType": "uint256",
          "name": "",
          "type": "uint256"
        }
      ],
      "stateMutability": "view",
      "type": "function"
    },
    {
      "inputs": [],
      "name": "MIN_PENALTY_PERCENTAGE",
      "outputs": [
        {
          "internalType": "uint8",
          "name": "",
          "type": "uint8"
        }
      ],
      "stateMutability": "view",
      "type": "function"
    },
    {
      "inputs": [],
      "name": "MIN_USDC_FEE",
      "outputs": [
        {
          "internalType": "uint256",
          "name": "",
          "type": "uint256"
        }
      ],
      "stateMutability": "view",
      "type": "function"
    },
    {
      "inputs": [],
      "name": "OWNERSHIP_RENUNCIATION_DELAY",
      "outputs": [
        {
          "internalType": "uint256",
          "name": "",
          "type": "uint256"
        }
      ],
      "stateMutability": "view",
      "type": "function"
    },
    {
      "inputs": [],
      "name": "OWNERSHIP_TRANSFER_DELAY",
      "outputs": [
        {
          "internalType": "uint256",
          "name": "",
          "type": "uint256"
        }
      ],
      "stateMutability": "view",
      "type": "function"
    },
    {
      "inputs": [],
      "name": "acceptOwnership",
      "outputs": [],
      "stateMutability": "nonpayable",
      "type": "function"
    },
    {
      "inputs": [
        {
          "internalType": "string",
          "name": "_symbol",
          "type": "string"
        },
        {
          "internalType": "address",
          "name": "_tokenAddress",
          "type": "address"
        },
        {
          "internalType": "address",
          "name": "_priceFeed",
          "type": "address"
        },
        {
          "internalType": "uint8",
          "name": "_decimals",
          "type": "uint8"
        },
        {
          "internalType": "uint256",
          "name": "_priceStalenessTolerance",
          "type": "uint256"
        }
      ],
      "name": "addToken",
      "outputs": [],
      "stateMutability": "nonpayable",
      "type": "function"
    },
    {
      "inputs": [
        {
          "internalType": "string[]",
          "name": "_symbols",
          "type": "string[]"
        },
        {
          "internalType": "address",
          "name": "_to",
          "type": "address"
        }
      ],
      "name": "batchRecoverTokens",
      "outputs": [
        {
          "components": [
            {
              "internalType": "string",
              "name": "symbol",
              "type": "string"
            },
            {
              "internalType": "bool",
              "name": "success",
              "type": "bool"
            },
            {
              "internalType": "uint256",
              "name": "amount",
              "type": "uint256"
            },
            {
              "internalType": "string",
              "name": "errorReason",
              "type": "string"
            }
          ],
          "internalType": "struct TouchGrass.RecoveryResult[]",
          "name": "",
          "type": "tuple[]"
        }
      ],
      "stateMutability": "nonpayable",
      "type": "function"
    },
    {
      "inputs": [
        {
          "internalType": "string",
          "name": "_symbol",
          "type": "string"
        }
      ],
      "name": "calculateMinStake",
      "outputs": [
        {
          "internalType": "uint256",
          "name": "minStake",
          "type": "uint256"
        }
      ],
      "stateMutability": "view",
      "type": "function"
    },
    {
      "inputs": [
        {
          "internalType": "string",
          "name": "_symbol",
          "type": "string"
        },
        {
          "internalType": "uint256",
          "name": "_stakeAmount",
          "type": "uint256"
        }
      ],
      "name": "calculateRequiredPayment",
      "outputs": [
        {
          "internalType": "uint256",
          "name": "totalRequired",
          "type": "uint256"
        },
        {
          "internalType": "uint256",
          "name": "fee",
          "type": "uint256"
        },
        {
          "internalType": "uint256",
          "name": "minStake",
          "type": "uint256"
        }
      ],
      "stateMutability": "view",
      "type": "function"
    },
    {
      "inputs": [
        {
          "internalType": "string",
          "name": "_symbol",
          "type": "string"
        }
      ],
      "name": "calculateTokenFee",
      "outputs": [
        {
          "internalType": "uint256",
          "name": "fee",
          "type": "uint256"
        }
      ],
      "stateMutability": "view",
      "type": "function"
    },
    {
      "inputs": [],
      "name": "canAcceptOwnership",
      "outputs": [
        {
          "internalType": "bool",
          "name": "",
          "type": "bool"
        }
      ],
      "stateMutability": "view",
      "type": "function"
    },
    {
      "inputs": [],
      "name": "canExecuteRenunciation",
      "outputs": [
        {
          "internalType": "bool",
          "name": "",
          "type": "bool"
        }
      ],
      "stateMutability": "view",
      "type": "function"
    },
    {
      "inputs": [],
      "name": "canExecuteUSDCFeeUpdate",
      "outputs": [
        {
          "internalType": "bool",
          "name": "",
          "type": "bool"
        }
      ],
      "stateMutability": "view",
      "type": "function"
    },
    {
      "inputs": [],
      "name": "cancelOwnershipRenunciation",
      "outputs": [],
      "stateMutability": "nonpayable",
      "type": "function"
    },
    {
      "inputs": [],
      "name": "cancelOwnershipTransfer",
      "outputs": [],
      "stateMutability": "nonpayable",
      "type": "function"
    },
    {
      "inputs": [],
      "name": "cancelUSDCFeeUpdate",
      "outputs": [],
      "stateMutability": "nonpayable",
      "type": "function"
    },
    {
      "inputs": [],
      "name": "challengeCount",
      "outputs": [
        {
          "internalType": "uint256",
          "name": "",
          "type": "uint256"
        }
      ],
      "stateMutability": "view",
      "type": "function"
    },
    {
      "inputs": [
        {
          "internalType": "uint256",
          "name": "",
          "type": "uint256"
        }
      ],
      "name": "challenges",
      "outputs": [
        {
          "internalType": "address",
          "name": "staker",
          "type": "address"
        },
        {
          "internalType": "uint8",
          "name": "penaltyPercent",
          "type": "uint8"
        },
        {
          "internalType": "enum TouchGrass.PenaltyType",
          "name": "penaltyType",
          "type": "uint8"
        },
        {
          "internalType": "bool",
          "name": "isSuccess",
          "type": "bool"
        },
        {
          "internalType": "bool",
          "name": "isWithdrawn",
          "type": "bool"
        },
        {
          "internalType": "uint8",
          "name": "lockMultiplierSnapshot",
          "type": "uint8"
        },
        {
          "internalType": "uint32",
          "name": "gracePeriodSnapshot",
          "type": "uint32"
        },
        {
          "internalType": "bytes32",
          "name": "tokenId",
          "type": "bytes32"
        },
        {
          "internalType": "uint256",
          "name": "stakeAmount",
          "type": "uint256"
        },
        {
          "internalType": "uint256",
          "name": "duration",
          "type": "uint256"
        },
        {
          "internalType": "uint256",
          "name": "startTime",
          "type": "uint256"
        }
      ],
      "stateMutability": "view",
      "type": "function"
    },
    {
      "inputs": [],
      "name": "charityWallet",
      "outputs": [
        {
          "internalType": "address",
          "name": "",
          "type": "address"
        }
      ],
      "stateMutability": "view",
      "type": "function"
    },
    {
      "inputs": [
        {
          "internalType": "string",
          "name": "_symbol",
          "type": "string"
        }
      ],
      "name": "claimPendingWithdrawal",
      "outputs": [],
      "stateMutability": "nonpayable",
      "type": "function"
    },
    {
      "inputs": [
        {
          "internalType": "string",
          "name": "_symbol",
          "type": "string"
        },
        {
          "internalType": "uint256",
          "name": "_stakeAmount",
          "type": "uint256"
        },
        {
          "internalType": "uint256",
          "name": "_durationSeconds",
          "type": "uint256"
        },
        {
          "internalType": "enum TouchGrass.PenaltyType",
          "name": "_penaltyType",
          "type": "uint8"
        },
        {
          "internalType": "uint8",
          "name": "_penaltyPercent",
          "type": "uint8"
        }
      ],
      "name": "createChallenge",
      "outputs": [],
      "stateMutability": "payable",
      "type": "function"
    },
    {
      "inputs": [
        {
          "internalType": "string",
          "name": "_symbol",
          "type": "string"
        }
      ],
      "name": "disableFallbackPrice",
      "outputs": [],
      "stateMutability": "nonpayable",
      "type": "function"
    },
    {
      "inputs": [
        {
          "internalType": "string",
          "name": "_symbol",
          "type": "string"
        },
        {
          "internalType": "uint256",
          "name": "_fallbackPrice",
          "type": "uint256"
        }
      ],
      "name": "enableFallbackPrice",
      "outputs": [],
      "stateMutability": "nonpayable",
      "type": "function"
    },
    {
      "inputs": [],
      "name": "executeOwnershipRenunciation",
      "outputs": [],
      "stateMutability": "nonpayable",
      "type": "function"
    },
    {
      "inputs": [],
      "name": "executeUSDCFeeUpdate",
      "outputs": [],
      "stateMutability": "nonpayable",
      "type": "function"
    },
    {
      "inputs": [
        {
          "internalType": "address",
          "name": "_user",
          "type": "address"
        },
        {
          "internalType": "uint256",
          "name": "_startIndex",
          "type": "uint256"
        },
        {
          "internalType": "uint256",
          "name": "_count",
          "type": "uint256"
        }
      ],
      "name": "getAllPendingWithdrawals",
      "outputs": [
        {
          "internalType": "string[]",
          "name": "symbols",
          "type": "string[]"
        },
        {
          "internalType": "uint256[]",
          "name": "amounts",
          "type": "uint256[]"
        },
        {
          "internalType": "uint256",
          "name": "totalTokens",
          "type": "uint256"
        }
      ],
      "stateMutability": "view",
      "type": "function"
    },
    {
      "inputs": [
        {
          "internalType": "uint256",
          "name": "_startIndex",
          "type": "uint256"
        },
        {
          "internalType": "uint256",
          "name": "_count",
          "type": "uint256"
        }
      ],
      "name": "getAllRecoveryStatus",
      "outputs": [
        {
          "internalType": "string[]",
          "name": "symbols",
          "type": "string[]"
        },
        {
          "internalType": "address[]",
          "name": "addresses",
          "type": "address[]"
        },
        {
          "internalType": "uint256[]",
          "name": "contractBalances",
          "type": "uint256[]"
        },
        {
          "internalType": "uint256[]",
          "name": "lockedAmounts",
          "type": "uint256[]"
        },
        {
          "internalType": "uint256[]",
          "name": "pendingAmounts",
          "type": "uint256[]"
        },
        {
          "internalType": "uint256[]",
          "name": "recoverableAmounts",
          "type": "uint256[]"
        },
        {
          "internalType": "uint256",
          "name": "totalTokens",
          "type": "uint256"
        }
      ],
      "stateMutability": "view",
      "type": "function"
    },
    {
      "inputs": [],
      "name": "getAllSupportedTokens",
      "outputs": [
        {
          "internalType": "string[]",
          "name": "",
          "type": "string[]"
        }
      ],
      "stateMutability": "view",
      "type": "function"
    },
    {
      "inputs": [
        {
          "internalType": "uint256",
          "name": "_startIndex",
          "type": "uint256"
        },
        {
          "internalType": "uint256",
          "name": "_count",
          "type": "uint256"
        }
      ],
      "name": "getAllTokenPricing",
      "outputs": [
        {
          "internalType": "string[]",
          "name": "tokens",
          "type": "string[]"
        },
        {
          "internalType": "uint256[]",
          "name": "prices",
          "type": "uint256[]"
        },
        {
          "internalType": "uint256[]",
          "name": "fees",
          "type": "uint256[]"
        },
        {
          "internalType": "uint256[]",
          "name": "minStakes",
          "type": "uint256[]"
        },
        {
          "internalType": "uint256",
          "name": "totalTokens",
          "type": "uint256"
        }
      ],
      "stateMutability": "view",
      "type": "function"
    },
    {
      "inputs": [
        {
          "internalType": "uint256",
          "name": "_challengeId",
          "type": "uint256"
        }
      ],
      "name": "getChallengeLockedInfo",
      "outputs": [
        {
          "internalType": "address",
          "name": "staker",
          "type": "address"
        },
        {
          "internalType": "bytes32",
          "name": "tokenId",
          "type": "bytes32"
        },
        {
          "internalType": "string",
          "name": "tokenSymbol",
          "type": "string"
        },
        {
          "internalType": "uint256",
          "name": "stakeAmount",
          "type": "uint256"
        },
        {
          "internalType": "bool",
          "name": "isWithdrawn",
          "type": "bool"
        },
        {
          "internalType": "bool",
          "name": "isSuccess",
          "type": "bool"
        },
        {
          "internalType": "uint256",
          "name": "unlockTime",
          "type": "uint256"
        }
      ],
      "stateMutability": "view",
      "type": "function"
    },
    {
      "inputs": [],
      "name": "getGlobalProtectionSummary",
      "outputs": [
        {
          "internalType": "uint256",
          "name": "totalContractValueUSD",
          "type": "uint256"
        },
        {
          "internalType": "uint256",
          "name": "totalLockedUSD",
          "type": "uint256"
        },
        {
          "internalType": "uint256",
          "name": "totalPendingUSD",
          "type": "uint256"
        },
        {
          "internalType": "uint256",
          "name": "totalProtectedUSD",
          "type": "uint256"
        },
        {
          "internalType": "uint256",
          "name": "totalRecoverableUSD",
          "type": "uint256"
        }
      ],
      "stateMutability": "view",
      "type": "function"
    },
    {
      "inputs": [
        {
          "internalType": "string",
          "name": "_symbol",
          "type": "string"
        },
        {
          "internalType": "address",
          "name": "_user",
          "type": "address"
        }
      ],
      "name": "getPendingWithdrawal",
      "outputs": [
        {
          "internalType": "uint256",
          "name": "amount",
          "type": "uint256"
        }
      ],
      "stateMutability": "view",
      "type": "function"
    },
    {
      "inputs": [],
      "name": "getRecoverableETH",
      "outputs": [
        {
          "internalType": "uint256",
          "name": "recoverableAmount",
          "type": "uint256"
        }
      ],
      "stateMutability": "view",
      "type": "function"
    },
    {
      "inputs": [
        {
          "internalType": "address",
          "name": "_tokenAddress",
          "type": "address"
        }
      ],
      "name": "getRecoverableTokensByAddress",
      "outputs": [
        {
          "internalType": "uint256",
          "name": "recoverableAmount",
          "type": "uint256"
        },
        {
          "internalType": "bool",
          "name": "isSupported",
          "type": "bool"
        },
        {
          "internalType": "uint256",
          "name": "lockedAmount",
          "type": "uint256"
        },
        {
          "internalType": "uint256",
          "name": "pendingAmount",
          "type": "uint256"
        }
      ],
      "stateMutability": "view",
      "type": "function"
    },
    {
      "inputs": [
        {
          "internalType": "string",
          "name": "_symbol",
          "type": "string"
        }
      ],
      "name": "getRecoverableTokensBySymbol",
      "outputs": [
        {
          "internalType": "uint256",
          "name": "recoverableAmount",
          "type": "uint256"
        }
      ],
      "stateMutability": "view",
      "type": "function"
    },
    {
      "inputs": [
        {
          "internalType": "string",
          "name": "_symbol",
          "type": "string"
        }
      ],
      "name": "getTokenPrice",
      "outputs": [
        {
          "internalType": "uint256",
          "name": "price",
          "type": "uint256"
        }
      ],
      "stateMutability": "view",
      "type": "function"
    },
    {
      "inputs": [
        {
          "internalType": "string",
          "name": "_symbol",
          "type": "string"
        }
      ],
      "name": "getTokenProtectionBreakdown",
      "outputs": [
        {
          "internalType": "uint256",
          "name": "contractBalance",
          "type": "uint256"
        },
        {
          "internalType": "uint256",
          "name": "lockedInChallenges",
          "type": "uint256"
        },
        {
          "internalType": "uint256",
          "name": "pendingAmount",
          "type": "uint256"
        },
        {
          "internalType": "uint256",
          "name": "protectedTotal",
          "type": "uint256"
        },
        {
          "internalType": "uint256",
          "name": "recoverable",
          "type": "uint256"
        }
      ],
      "stateMutability": "view",
      "type": "function"
    },
    {
      "inputs": [
        {
          "internalType": "string",
          "name": "_symbol",
          "type": "string"
        }
      ],
      "name": "getTotalPendingWithdrawals",
      "outputs": [
        {
          "internalType": "uint256",
          "name": "total",
          "type": "uint256"
        }
      ],
      "stateMutability": "view",
      "type": "function"
    },
    {
      "inputs": [
        {
          "internalType": "uint256",
          "name": "_startIndex",
          "type": "uint256"
        },
        {
          "internalType": "uint256",
          "name": "_count",
          "type": "uint256"
        }
      ],
      "name": "hasRecoverableFunds",
      "outputs": [
        {
          "internalType": "bool",
          "name": "canRecover",
          "type": "bool"
        },
        {
          "internalType": "uint256",
          "name": "totalRecoverableUSD",
          "type": "uint256"
        },
        {
          "internalType": "uint256",
          "name": "totalTokens",
          "type": "uint256"
        }
      ],
      "stateMutability": "view",
      "type": "function"
    },
    {
      "inputs": [],
      "name": "owner",
      "outputs": [
        {
          "internalType": "address",
          "name": "",
          "type": "address"
        }
      ],
      "stateMutability": "view",
      "type": "function"
    },
    {
      "inputs": [],
      "name": "ownershipRenunciationInitiated",
      "outputs": [
        {
          "internalType": "bool",
          "name": "",
          "type": "bool"
        }
      ],
      "stateMutability": "view",
      "type": "function"
    },
    {
      "inputs": [],
      "name": "ownershipRenunciationInitiatedAt",
      "outputs": [
        {
          "internalType": "uint256",
          "name": "",
          "type": "uint256"
        }
      ],
      "stateMutability": "view",
      "type": "function"
    },
    {
      "inputs": [],
      "name": "ownershipTransferInitiatedAt",
      "outputs": [
        {
          "internalType": "uint256",
          "name": "",
          "type": "uint256"
        }
      ],
      "stateMutability": "view",
      "type": "function"
    },
    {
      "inputs": [],
      "name": "pause",
      "outputs": [],
      "stateMutability": "nonpayable",
      "type": "function"
    },
    {
      "inputs": [],
      "name": "paused",
      "outputs": [
        {
          "internalType": "bool",
          "name": "",
          "type": "bool"
        }
      ],
      "stateMutability": "view",
      "type": "function"
    },
    {
      "inputs": [],
      "name": "pendingOwner",
      "outputs": [
        {
          "internalType": "address",
          "name": "",
          "type": "address"
        }
      ],
      "stateMutability": "view",
      "type": "function"
    },
    {
      "inputs": [],
      "name": "pendingUSDCFeeUpdate",
      "outputs": [
        {
          "internalType": "uint256",
          "name": "newFee",
          "type": "uint256"
        },
        {
          "internalType": "uint256",
          "name": "effectiveTime",
          "type": "uint256"
        },
        {
          "internalType": "bool",
          "name": "isPending",
          "type": "bool"
        }
      ],
      "stateMutability": "view",
      "type": "function"
    },
    {
      "inputs": [
        {
          "internalType": "bytes32",
          "name": "",
          "type": "bytes32"
        },
        {
          "internalType": "address",
          "name": "",
          "type": "address"
        }
      ],
      "name": "pendingWithdrawals",
      "outputs": [
        {
          "internalType": "uint256",
          "name": "",
          "type": "uint256"
        }
      ],
      "stateMutability": "view",
      "type": "function"
    },
    {
      "inputs": [
        {
          "internalType": "address",
          "name": "_tokenAddress",
          "type": "address"
        },
        {
          "internalType": "address",
          "name": "_to",
          "type": "address"
        }
      ],
      "name": "recoverERC20ByAddress",
      "outputs": [],
      "stateMutability": "nonpayable",
      "type": "function"
    },
    {
      "inputs": [
        {
          "internalType": "string",
          "name": "_symbol",
          "type": "string"
        },
        {
          "internalType": "address",
          "name": "_to",
          "type": "address"
        }
      ],
      "name": "recoverERC20BySymbol",
      "outputs": [],
      "stateMutability": "nonpayable",
      "type": "function"
    },
    {
      "inputs": [
        {
          "internalType": "address payable",
          "name": "_to",
          "type": "address"
        }
      ],
      "name": "recoverETH",
      "outputs": [],
      "stateMutability": "nonpayable",
      "type": "function"
    },
    {
      "inputs": [
        {
          "internalType": "address",
          "name": "_multiSig",
          "type": "address"
        }
      ],
      "name": "removeMultiSigWhitelist",
      "outputs": [],
      "stateMutability": "nonpayable",
      "type": "function"
    },
    {
      "inputs": [
        {
          "internalType": "string",
          "name": "_symbol",
          "type": "string"
        }
      ],
      "name": "removeToken",
      "outputs": [],
      "stateMutability": "nonpayable",
      "type": "function"
    },
    {
      "inputs": [],
      "name": "renounceOwnership",
      "outputs": [],
      "stateMutability": "nonpayable",
      "type": "function"
    },
    {
      "inputs": [],
      "name": "renunciationTimeRemaining",
      "outputs": [
        {
          "internalType": "uint256",
          "name": "",
          "type": "uint256"
        }
      ],
      "stateMutability": "view",
      "type": "function"
    },
    {
      "inputs": [
        {
          "internalType": "uint256",
          "name": "_newUSDCFee",
          "type": "uint256"
        }
      ],
      "name": "scheduleUSDCFeeUpdate",
      "outputs": [],
      "stateMutability": "nonpayable",
      "type": "function"
    },
    {
      "inputs": [
        {
          "internalType": "address",
          "name": "_newCharity",
          "type": "address"
        }
      ],
      "name": "setCharityWallet",
      "outputs": [],
      "stateMutability": "nonpayable",
      "type": "function"
    },
    {
      "inputs": [
        {
          "internalType": "uint256",
          "name": "_newGracePeriod",
          "type": "uint256"
        }
      ],
      "name": "setGracePeriod",
      "outputs": [],
      "stateMutability": "nonpayable",
      "type": "function"
    },
    {
      "inputs": [
        {
          "internalType": "uint256",
          "name": "_newLockMultiplier",
          "type": "uint256"
        }
      ],
      "name": "setLockMultiplier",
      "outputs": [],
      "stateMutability": "nonpayable",
      "type": "function"
    },
    {
      "inputs": [
        {
          "internalType": "uint8",
          "name": "_newMinPenaltyPercentage",
          "type": "uint8"
        }
      ],
      "name": "setMinPenaltyPercentage",
      "outputs": [],
      "stateMutability": "nonpayable",
      "type": "function"
    },
    {
      "inputs": [
        {
          "internalType": "address",
          "name": "_newTreasury",
          "type": "address"
        }
      ],
      "name": "setTreasuryWallet",
      "outputs": [],
      "stateMutability": "nonpayable",
      "type": "function"
    },
    {
      "inputs": [
        {
          "internalType": "uint256",
          "name": "_newMinStake",
          "type": "uint256"
        }
      ],
      "name": "setUSDCMinStake",
      "outputs": [],
      "stateMutability": "nonpayable",
      "type": "function"
    },
    {
      "inputs": [
        {
          "internalType": "address",
          "name": "_newVerifier",
          "type": "address"
        }
      ],
      "name": "setVerifier",
      "outputs": [],
      "stateMutability": "nonpayable",
      "type": "function"
    },
    {
      "inputs": [
        {
          "internalType": "uint256",
          "name": "",
          "type": "uint256"
        }
      ],
      "name": "supportedTokenIds",
      "outputs": [
        {
          "internalType": "bytes32",
          "name": "",
          "type": "bytes32"
        }
      ],
      "stateMutability": "view",
      "type": "function"
    },
    {
      "inputs": [
        {
          "internalType": "uint256",
          "name": "_id",
          "type": "uint256"
        }
      ],
      "name": "sweepPenalty",
      "outputs": [],
      "stateMutability": "nonpayable",
      "type": "function"
    },
    {
      "inputs": [
        {
          "internalType": "bytes32",
          "name": "",
          "type": "bytes32"
        }
      ],
      "name": "tokenConfigs",
      "outputs": [
        {
          "internalType": "bool",
          "name": "isSupported",
          "type": "bool"
        },
        {
          "internalType": "address",
          "name": "tokenAddress",
          "type": "address"
        },
        {
          "internalType": "address",
          "name": "priceFeed",
          "type": "address"
        },
        {
          "internalType": "uint8",
          "name": "decimals",
          "type": "uint8"
        },
        {
          "internalType": "uint256",
          "name": "priceStalenessTolerance",
          "type": "uint256"
        },
        {
          "internalType": "bool",
          "name": "useFallbackPrice",
          "type": "bool"
        },
        {
          "internalType": "uint256",
          "name": "fallbackPrice",
          "type": "uint256"
        }
      ],
      "stateMutability": "view",
      "type": "function"
    },
    {
      "inputs": [
        {
          "internalType": "bytes32",
          "name": "",
          "type": "bytes32"
        }
      ],
      "name": "tokenSymbols",
      "outputs": [
        {
          "internalType": "string",
          "name": "",
          "type": "string"
        }
      ],
      "stateMutability": "view",
      "type": "function"
    },
    {
      "inputs": [
        {
          "internalType": "bytes32",
          "name": "",
          "type": "bytes32"
        }
      ],
      "name": "totalLockedByToken",
      "outputs": [
        {
          "internalType": "uint256",
          "name": "",
          "type": "uint256"
        }
      ],
      "stateMutability": "view",
      "type": "function"
    },
    {
      "inputs": [
        {
          "internalType": "bytes32",
          "name": "",
          "type": "bytes32"
        }
      ],
      "name": "totalPendingWithdrawals",
      "outputs": [
        {
          "internalType": "uint256",
          "name": "",
          "type": "uint256"
        }
      ],
      "stateMutability": "view",
      "type": "function"
    },
    {
      "inputs": [
        {
          "internalType": "address",
          "name": "newOwner",
          "type": "address"
        }
      ],
      "name": "transferOwnership",
      "outputs": [],
      "stateMutability": "nonpayable",
      "type": "function"
    },
    {
      "inputs": [],
      "name": "treasuryWallet",
      "outputs": [
        {
          "internalType": "address",
          "name": "",
          "type": "address"
        }
      ],
      "stateMutability": "view",
      "type": "function"
    },
    {
      "inputs": [
        {
          "internalType": "address",
          "name": "",
          "type": "address"
        }
      ],
      "name": "trustedMultiSigs",
      "outputs": [
        {
          "internalType": "bool",
          "name": "",
          "type": "bool"
        }
      ],
      "stateMutability": "view",
      "type": "function"
    },
    {
      "inputs": [
        {
          "internalType": "address",
          "name": "",
          "type": "address"
        }
      ],
      "name": "trustedRecipients",
      "outputs": [
        {
          "internalType": "bool",
          "name": "",
          "type": "bool"
        }
      ],
      "stateMutability": "view",
      "type": "function"
    },
    {
      "inputs": [],
      "name": "unpause",
      "outputs": [],
      "stateMutability": "nonpayable",
      "type": "function"
    },
    {
      "inputs": [
        {
          "internalType": "uint256",
          "name": "_newMinDuration",
          "type": "uint256"
        },
        {
          "internalType": "uint256",
          "name": "_newMaxDuration",
          "type": "uint256"
        }
      ],
      "name": "updateDurationBounds",
      "outputs": [],
      "stateMutability": "nonpayable",
      "type": "function"
    },
    {
      "inputs": [
        {
          "internalType": "string",
          "name": "_symbol",
          "type": "string"
        },
        {
          "internalType": "address",
          "name": "_newPriceFeed",
          "type": "address"
        }
      ],
      "name": "updatePriceFeed",
      "outputs": [],
      "stateMutability": "nonpayable",
      "type": "function"
    },
    {
      "inputs": [],
      "name": "usdcFee",
      "outputs": [
        {
          "internalType": "uint256",
          "name": "",
          "type": "uint256"
        }
      ],
      "stateMutability": "view",
      "type": "function"
    },
    {
      "inputs": [],
      "name": "usdcMinStake",
      "outputs": [
        {
          "internalType": "uint256",
          "name": "",
          "type": "uint256"
        }
      ],
      "stateMutability": "view",
      "type": "function"
    },
    {
      "inputs": [],
      "name": "verifier",
      "outputs": [
        {
          "internalType": "address",
          "name": "",
          "type": "address"
        }
      ],
      "stateMutability": "view",
      "type": "function"
    },
    {
      "inputs": [
        {
          "internalType": "string",
          "name": "_symbol",
          "type": "string"
        }
      ],
      "name": "verifyFundAccounting",
      "outputs": [
        {
          "internalType": "bool",
          "name": "isBalanced",
          "type": "bool"
        },
        {
          "internalType": "uint256",
          "name": "discrepancy",
          "type": "uint256"
        }
      ],
      "stateMutability": "view",
      "type": "function"
    },
    {
      "inputs": [
        {
          "internalType": "uint256",
          "name": "_id",
          "type": "uint256"
        }
      ],
      "name": "verifySuccess",
      "outputs": [],
      "stateMutability": "nonpayable",
      "type": "function"
    },
    {
      "inputs": [
        {
          "internalType": "address",
          "name": "_multiSig",
          "type": "address"
        }
      ],
      "name": "whitelistMultiSig",
      "outputs": [],
      "stateMutability": "nonpayable",
      "type": "function"
    },
    {
      "inputs": [
        {
          "internalType": "uint256",
          "name": "_id",
          "type": "uint256"
        },
        {
          "internalType": "uint256",
          "name": "_donationPercent",
          "type": "uint256"
        },
        {
          "internalType": "enum TouchGrass.PenaltyType",
          "name": "_donationTarget",
          "type": "uint8"
        }
      ],
      "name": "withdraw",
      "outputs": [],
      "stateMutability": "nonpayable",
      "type": "function"
    }
  ],
  "bytecode": "0x60806040523480156200001157600080fd5b506040516200ed9c3803806200ed9c83398181016040528101906200003791906200064b565b336001600081905550600073ffffffffffffffffffffffffffffffffffffffff168173ffffffffffffffffffffffffffffffffffffffff1603620000b55760006040517f1e4fbdf7000000000000000000000000000000000000000000000000000000008152600401620000ac9190620006e4565b60405180910390fd5b620000c681620004a760201b60201c565b50600073ffffffffffffffffffffffffffffffffffffffff168573ffffffffffffffffffffffffffffffffffffffff1614806200012f5750600073ffffffffffffffffffffffffffffffffffffffff168473ffffffffffffffffffffffffffffffffffffffff16145b80620001675750600073ffffffffffffffffffffffffffffffffffffffff168373ffffffffffffffffffffffffffffffffffffffff16145b156200019f576040517fe6c4247b00000000000000000000000000000000000000000000000000000000815260040160405180910390fd5b8373ffffffffffffffffffffffffffffffffffffffff168573ffffffffffffffffffffffffffffffffffffffff1614806200020557508273ffffffffffffffffffffffffffffffffffffffff168573ffffffffffffffffffffffffffffffffffffffff16145b806200023c57508273ffffffffffffffffffffffffffffffffffffffff168473ffffffffffffffffffffffffffffffffffffffff16145b1562000274576040517f898cf5bd00000000000000000000000000000000000000000000000000000000815260040160405180910390fd5b3373ffffffffffffffffffffffffffffffffffffffff168573ffffffffffffffffffffffffffffffffffffffff1603620002da576040517ff914ac3300000000000000000000000000000000000000000000000000000000815260040160405180910390fd5b84600960006101000a81548173ffffffffffffffffffffffffffffffffffffffff021916908373ffffffffffffffffffffffffffffffffffffffff16021790555083600a60006101000a81548173ffffffffffffffffffffffffffffffffffffffff021916908373ffffffffffffffffffffffffffffffffffffffff16021790555082600b60006101000a81548173ffffffffffffffffffffffffffffffffffffffff021916908373ffffffffffffffffffffffffffffffffffffffff1602179055506001600860008573ffffffffffffffffffffffffffffffffffffffff1673ffffffffffffffffffffffffffffffffffffffff16815260200190815260200160002060006101000a81548160ff0219169083151502179055506001600860008673ffffffffffffffffffffffffffffffffffffffff1673ffffffffffffffffffffffffffffffffffffffff16815260200190815260200160002060006101000a81548160ff02191690831515021790555081600c8190555080600d81905550603c6011819055506301e1338060128190555062093a8060138190555060056014819055506014601560006101000a81548160ff021916908360ff160217905550505050505062000701565b600260006101000a81549073ffffffffffffffffffffffffffffffffffffffff0219169055620004dd81620004e060201b60201c565b50565b6000600160009054906101000a900473ffffffffffffffffffffffffffffffffffffffff16905081600160006101000a81548173ffffffffffffffffffffffffffffffffffffffff021916908373ffffffffffffffffffffffffffffffffffffffff1602179055508173ffffffffffffffffffffffffffffffffffffffff168173ffffffffffffffffffffffffffffffffffffffff167f8be0079c531659141344cd1fd0a4f28419497f9722a3daafe3b4186f6b6457e060405160405180910390a35050565b600080fd5b600073ffffffffffffffffffffffffffffffffffffffff82169050919050565b6000620005d882620005ab565b9050919050565b620005ea81620005cb565b8114620005f657600080fd5b50565b6000815190506200060a81620005df565b92915050565b6000819050919050565b620006258162000610565b81146200063157600080fd5b50565b60008151905062000645816200061a565b92915050565b600080600080600060a086880312156200066a5762000669620005a6565b5b60006200067a88828901620005f9565b95505060206200068d88828901620005f9565b9450506040620006a088828901620005f9565b9350506060620006b38882890162000634565b9250506080620006c68882890162000634565b9150509295509295909350565b620006de81620005cb565b82525050565b6000602082019050620006fb6000830184620006d3565b92915050565b61e68b80620007116000396000f3fe60806040526004361061053e5760003560e01c80637fe3ca36116102bd578063c5b07ffa11610180578063eea2d7dc116100e7578063f56bca4b116100a0578063fac97c1b1161007a578063fac97c1b146115b8578063faf74ece146115f5578063fc12134b14611632578063ffa1cc251461164e5761053e565b8063f56bca4b1461153b578063f6a0edb114611564578063f9fca4cf1461158d5761053e565b8063eea2d7dc14611451578063efbcd30314611468578063f0a9ac191461147f578063f2e5f3c1146114aa578063f2f65960146114e9578063f2fde38b146115125761053e565b8063df4b8b0611610139578063df4b8b061461133f578063e30c39781461136a578063e350115614611395578063e738b2b5146113d6578063eb6d420b146113ff578063ec05386b146114285761053e565b8063c5b07ffa14611214578063d09676a91461123d578063d1ce999d14611266578063d4a06c8f14611291578063d9bd722a146112bc578063dc62d614146112ff5761053e565b8063a018e5a011610224578063b1724b46116101dd578063b1724b46146110f0578063b2bbf6471461111b578063b6a6d17714611144578063be44d38d1461116f578063c1a287e2146111ac578063c24b58a4146111d75761053e565b8063a018e5a014610fc8578063a2f0572514611005578063a49641e614611030578063a76a2ef71461106d578063a8602fea1461109c578063b0b91517146110c55761053e565b80638da5cb5b116102765780638da5cb5b14610eb05780638f1d377614610edb578063926946d114610f2257806394b7c59214610f4b5780639a2830f714610f745780639c25447914610f9d5761053e565b80637fe3ca3614610d9f5780638456cb5914610dc8578063889952aa14610ddf57806389261bb214610e1c5780638ad16bbf14610e475780638b3e2afb14610e855761053e565b80634626402b116104055780635dbf66371161036c57806372e20d301161032557806372e20d3014610c9d5780637433ae7a14610cdc57806379ba509714610d075780637b16749314610d1e5780637b20876914610d495780637ccf7c0714610d745761053e565b80635dbf663714610bc557806363a9f22d14610bf057806363b95fe614610c0757806366f78e7614610c1e5780636f8225c814610c5b578063715018a614610c865761053e565b80635350758f116103be5780635350758f14610a9f5780635437988d14610adc5780635512df8314610b05578063586213a814610b465780635968244414610b715780635c975abb14610b9a5761053e565b80634626402b1461097957806346619649146109a45780634c539690146109cf5780634d7e1c7514610a0c5780634e5e0e8014610a3757806352581af514610a745761053e565b80631eddfecb116104a95780632d63109f116104625780632d63109f1461086957806330563bd7146108a65780633080f540146108cf578063356c6693146108f857806336227c69146109255780633f4ba83a146109625761053e565b80631eddfecb146107695780631f4559221461079457806323452b9c146107bd57806327048deb146107d457806329293774146108135780632b7ac3f31461083e5761053e565b8063136f5cdd116104fb578063136f5cdd1461066957806314926f971461069457806315c109cc146106bf57806316b92646146106ea57806317f0088d146107155780631ad6534a1461073e5761053e565b80630107e472146105435780630932a2141461056e5780630b1001b4146105975780631024d2c8146105c05780631209589114610603578063134dfcd814610640575b600080fd5b34801561054f57600080fd5b50610558611691565b604051610565919061c9ac565b60405180910390f35b34801561057a57600080fd5b506105956004803603810190610590919061ca9b565b6117ed565b005b3480156105a357600080fd5b506105be60048036038101906105b9919061cb31565b6119bc565b005b3480156105cc57600080fd5b506105e760048036038101906105e2919061cb5e565b611cd6565b6040516105fa979695949392919061cd29565b60405180910390f35b34801561060f57600080fd5b5061062a6004803603810190610625919061cdf8565b612185565b604051610637919061ce6f565b60405180910390f35b34801561064c57600080fd5b506106676004803603810190610662919061cecf565b612225565b005b34801561067557600080fd5b5061067e6124c2565b60405161068b919061cefc565b60405180910390f35b3480156106a057600080fd5b506106a96124c8565b6040516106b6919061cf33565b60405180910390f35b3480156106cb57600080fd5b506106d46124db565b6040516106e1919061cefc565b60405180910390f35b3480156106f657600080fd5b506106ff6124e1565b60405161070c919061cefc565b60405180910390f35b34801561072157600080fd5b5061073c6004803603810190610737919061cf73565b6124e7565b005b34801561074a57600080fd5b50610753612671565b604051610760919061cefc565b60405180910390f35b34801561077557600080fd5b5061077e612677565b60405161078b919061cefc565b60405180910390f35b3480156107a057600080fd5b506107bb60048036038101906107b6919061cfc6565b61267f565b005b3480156107c957600080fd5b506107d2612968565b005b3480156107e057600080fd5b506107fb60048036038101906107f6919061cb5e565b612b84565b60405161080a9392919061d02e565b60405180910390f35b34801561081f57600080fd5b50610828612da5565b604051610835919061cf33565b60405180910390f35b34801561084a57600080fd5b50610853612daa565b604051610860919061d074565b60405180910390f35b34801561087557600080fd5b50610890600480360381019061088b919061d0e5565b612dd0565b60405161089d919061d280565b60405180910390f35b3480156108b257600080fd5b506108cd60048036038101906108c8919061d2a2565b6133bf565b005b3480156108db57600080fd5b506108f660048036038101906108f1919061cb31565b613775565b005b34801561090457600080fd5b5061090d613816565b60405161091c9392919061d2cf565b60405180910390f35b34801561093157600080fd5b5061094c6004803603810190610947919061cfc6565b61383b565b604051610959919061cefc565b60405180910390f35b34801561096e57600080fd5b50610977613a96565b005b34801561098557600080fd5b5061098e613aa8565b60405161099b919061d074565b60405180910390f35b3480156109b057600080fd5b506109b9613ace565b6040516109c6919061cefc565b60405180910390f35b3480156109db57600080fd5b506109f660048036038101906109f1919061cfc6565b613ad5565b604051610a03919061cefc565b60405180910390f35b348015610a1857600080fd5b50610a21613d30565b604051610a2e919061cefc565b60405180910390f35b348015610a4357600080fd5b50610a5e6004803603810190610a59919061cb31565b613d36565b604051610a6b919061d315565b60405180910390f35b348015610a8057600080fd5b50610a89613d5a565b604051610a96919061cf33565b60405180910390f35b348015610aab57600080fd5b50610ac66004803603810190610ac1919061cfc6565b613d5f565b604051610ad3919061cefc565b60405180910390f35b348015610ae857600080fd5b50610b036004803603810190610afe919061d2a2565b61418b565b005b348015610b1157600080fd5b50610b2c6004803603810190610b27919061cfc6565b61442c565b604051610b3d95949392919061d330565b60405180910390f35b348015610b5257600080fd5b50610b5b6146fd565b604051610b68919061cefc565b60405180910390f35b348015610b7d57600080fd5b50610b986004803603810190610b93919061d3af565b614704565b005b348015610ba657600080fd5b50610baf6147dc565b604051610bbc919061d3dc565b60405180910390f35b348015610bd157600080fd5b50610bda6147f3565b604051610be7919061cefc565b60405180910390f35b348015610bfc57600080fd5b50610c056147f8565b005b348015610c1357600080fd5b50610c1c6148bb565b005b348015610c2a57600080fd5b50610c456004803603810190610c40919061cfc6565b614963565b604051610c52919061cefc565b60405180910390f35b348015610c6757600080fd5b50610c706149ae565b604051610c7d919061cefc565b60405180910390f35b348015610c9257600080fd5b50610c9b6149b4565b005b348015610ca957600080fd5b50610cc46004803603810190610cbf919061d3f7565b614b12565b604051610cd39392919061d457565b60405180910390f35b348015610ce857600080fd5b50610cf1614b46565b604051610cfe919061cefc565b60405180910390f35b348015610d1357600080fd5b50610d1c614b4d565b005b348015610d2a57600080fd5b50610d33614ca2565b604051610d40919061d3dc565b60405180910390f35b348015610d5557600080fd5b50610d5e614d17565b604051610d6b919061d074565b60405180910390f35b348015610d8057600080fd5b50610d89614d3d565b604051610d96919061cefc565b60405180910390f35b348015610dab57600080fd5b50610dc66004803603810190610dc1919061d2a2565b614dd8565b005b348015610dd457600080fd5b50610ddd614e7e565b005b348015610deb57600080fd5b50610e066004803603810190610e01919061cfc6565b614e90565b604051610e13919061cefc565b60405180910390f35b348015610e2857600080fd5b50610e3161513e565b604051610e3e919061cefc565b60405180910390f35b348015610e5357600080fd5b50610e6e6004803603810190610e69919061cfc6565b615170565b604051610e7c92919061d48e565b60405180910390f35b348015610e9157600080fd5b50610e9a615477565b604051610ea7919061cefc565b60405180910390f35b348015610ebc57600080fd5b50610ec56154cf565b604051610ed2919061d074565b60405180910390f35b348015610ee757600080fd5b50610f026004803603810190610efd919061cb31565b6154f9565b604051610f199b9a9998979695949392919061d54d565b60405180910390f35b348015610f2e57600080fd5b50610f496004803603810190610f44919061cb31565b6155c4565b005b348015610f5757600080fd5b50610f726004803603810190610f6d919061ca9b565b61571d565b005b348015610f8057600080fd5b50610f9b6004803603810190610f96919061cb5e565b6159fd565b005b348015610fa957600080fd5b50610fb2615c15565b604051610fbf919061d3dc565b60405180910390f35b348015610fd457600080fd5b50610fef6004803603810190610fea919061d2a2565b615c40565b604051610ffc919061d3dc565b60405180910390f35b34801561101157600080fd5b5061101a615c60565b604051611027919061cefc565b60405180910390f35b34801561103c57600080fd5b506110576004803603810190611052919061d2a2565b615c66565b604051611064919061d3dc565b60405180910390f35b34801561107957600080fd5b50611082615c86565b60405161109395949392919061d330565b60405180910390f35b3480156110a857600080fd5b506110c360048036038101906110be919061d2a2565b615d1e565b005b3480156110d157600080fd5b506110da6160d4565b6040516110e7919061cefc565b60405180910390f35b3480156110fc57600080fd5b506111056160d9565b604051611112919061cefc565b60405180910390f35b34801561112757600080fd5b50611142600480360381019061113d919061d5f8565b6160df565b005b34801561115057600080fd5b506111596164b2565b604051611166919061cefc565b60405180910390f35b34801561117b57600080fd5b506111966004803603810190611191919061d692565b6164b8565b6040516111a3919061cefc565b60405180910390f35b3480156111b857600080fd5b506111c16164dd565b6040516111ce919061cefc565b60405180910390f35b3480156111e357600080fd5b506111fe60048036038101906111f9919061cdf8565b6164e3565b60405161120b919061cefc565b60405180910390f35b34801561122057600080fd5b5061123b6004803603810190611236919061d6d2565b6164fb565b005b34801561124957600080fd5b50611264600480360381019061125f919061cb31565b616884565b005b34801561127257600080fd5b5061127b616ae7565b604051611288919061d3dc565b60405180910390f35b34801561129d57600080fd5b506112a6616b1a565b6040516112b3919061cefc565b60405180910390f35b3480156112c857600080fd5b506112e360048036038101906112de919061cdf8565b616b21565b6040516112f6979695949392919061d712565b60405180910390f35b34801561130b57600080fd5b506113266004803603810190611321919061d2a2565b616bca565b604051611336949392919061d781565b60405180910390f35b34801561134b57600080fd5b50611354616e8f565b604051611361919061d3dc565b60405180910390f35b34801561137657600080fd5b5061137f616ea2565b60405161138c919061d074565b60405180910390f35b3480156113a157600080fd5b506113bc60048036038101906113b7919061cb5e565b616f13565b6040516113cd95949392919061d7c6565b60405180910390f35b3480156113e257600080fd5b506113fd60048036038101906113f8919061d3f7565b617121565b005b34801561140b57600080fd5b506114266004803603810190611421919061cfc6565b617272565b005b34801561143457600080fd5b5061144f600480360381019061144a919061cb31565b617362565b005b34801561145d57600080fd5b5061146661754a565b005b34801561147457600080fd5b5061147d61767f565b005b34801561148b57600080fd5b50611494617796565b6040516114a1919061cefc565b60405180910390f35b3480156114b657600080fd5b506114d160048036038101906114cc919061d835565b61779d565b6040516114e09392919061d888565b60405180910390f35b3480156114f557600080fd5b50611510600480360381019061150b919061cb31565b617b19565b005b34801561151e57600080fd5b506115396004803603810190611534919061d2a2565b617c70565b005b34801561154757600080fd5b50611562600480360381019061155d919061cfc6565b617eec565b005b34801561157057600080fd5b5061158b6004803603810190611586919061d2a2565b618353565b005b34801561159957600080fd5b506115a26183f9565b6040516115af919061cefc565b60405180910390f35b3480156115c457600080fd5b506115df60048036038101906115da919061ca9b565b6183fe565b6040516115ec919061cefc565b60405180910390f35b34801561160157600080fd5b5061161c6004803603810190611617919061cdf8565b618487565b604051611629919061cefc565b60405180910390f35b61164c6004803603810190611647919061d8cd565b61849f565b005b34801561165a57600080fd5b506116756004803603810190611670919061cb31565b6186ad565b604051611688979695949392919061d967565b60405180910390f35b6060600060178054905067ffffffffffffffff8111156116b4576116b361d9dd565b5b6040519080825280602002602001820160405280156116e757816020015b60608152602001906001900390816116d25790505b50905060005b6017805490508110156117e55760186000601783815481106117125761171161da0c565b5b9060005260206000200154815260200190815260200160002080546117369061da6a565b80601f01602080910402602001604051908101604052809291908181526020018280546117629061da6a565b80156117af5780601f10611784576101008083540402835291602001916117af565b820191906000526020600020905b81548152906001019060200180831161179257829003601f168201915b50505050508282815181106117c7576117c661da0c565b5b602002602001018190525080806117dd9061daca565b9150506116ed565b508091505090565b6117f56189a7565b6000838360405160200161180a92919061db4e565b6040516020818303038152906040528051906020012090506016600082815260200190815260200160002060000160009054906101000a900460ff1661187c576040517f3dd1b30500000000000000000000000000000000000000000000000000000000815260040160405180910390fd5b600073ffffffffffffffffffffffffffffffffffffffff168273ffffffffffffffffffffffffffffffffffffffff16036118e2576040517fe6c4247b00000000000000000000000000000000000000000000000000000000815260040160405180910390fd5b6118eb82618a2e565b60006016600083815260200190815260200160002060010160009054906101000a900473ffffffffffffffffffffffffffffffffffffffff169050826016600084815260200190815260200160002060010160006101000a81548173ffffffffffffffffffffffffffffffffffffffff021916908373ffffffffffffffffffffffffffffffffffffffff160217905550817f970f8d5d7e6e516816144d4407b19d32456882e220b4f45b59e1e4ce50a0653a82856040516119ad92919061db72565b60405180910390a25050505050565b6119c4618b14565b6000601d600083815260200190815260200160002090508060000160179054906101000a900460ff1615611a24576040517f74df98bf00000000000000000000000000000000000000000000000000000000815260040160405180910390fd5b8060000160169054906101000a900460ff1615611a6d576040517f067d2f5b00000000000000000000000000000000000000000000000000000000815260040160405180910390fd5b80600301548160040154611a81919061db9b565b4211611ab9576040517f151f07fe00000000000000000000000000000000000000000000000000000000815260040160405180910390fd5b60026003811115611acd57611acc61d4b7565b5b8160000160159054906101000a900460ff166003811115611af157611af061d4b7565b5b03611b28576040517feba7e54e00000000000000000000000000000000000000000000000000000000815260040160405180910390fd5b8060000160009054906101000a900473ffffffffffffffffffffffffffffffffffffffff1673ffffffffffffffffffffffffffffffffffffffff163373ffffffffffffffffffffffffffffffffffffffff1614158015611bbb5750611b8b6154cf565b73ffffffffffffffffffffffffffffffffffffffff163373ffffffffffffffffffffffffffffffffffffffff1614155b15611bf2576040517f82b4290000000000000000000000000000000000000000000000000000000000815260040160405180910390fd5b8060000160009054906101000a900473ffffffffffffffffffffffffffffffffffffffff1673ffffffffffffffffffffffffffffffffffffffff163373ffffffffffffffffffffffffffffffffffffffff1614158015611c8957508060000160199054906101000a900463ffffffff1663ffffffff1681600301548260040154611c7c919061db9b565b611c86919061db9b565b42105b15611cc0576040517f478f84e700000000000000000000000000000000000000000000000000000000815260040160405180910390fd5b611cca8183618b5a565b50611cd3618dd1565b50565b6060806060806060806000808803611d1a576040517f3492aef600000000000000000000000000000000000000000000000000000000815260040160405180910390fd5b6064881115611d55576040517f7022f26f00000000000000000000000000000000000000000000000000000000815260040160405180910390fd5b60006001601780549050611d69919061db9b565b9050809150808a10611f4857600067ffffffffffffffff811115611d9057611d8f61d9dd565b5b604051908082528060200260200182016040528015611dc357816020015b6060815260200190600190039081611dae5790505b50600067ffffffffffffffff811115611ddf57611dde61d9dd565b5b604051908082528060200260200182016040528015611e0d5781602001602082028036833780820191505090505b50600067ffffffffffffffff811115611e2957611e2861d9dd565b5b604051908082528060200260200182016040528015611e575781602001602082028036833780820191505090505b50600067ffffffffffffffff811115611e7357611e7261d9dd565b5b604051908082528060200260200182016040528015611ea15781602001602082028036833780820191505090505b50600067ffffffffffffffff811115611ebd57611ebc61d9dd565b5b604051908082528060200260200182016040528015611eeb5781602001602082028036833780820191505090505b50600067ffffffffffffffff811115611f0757611f0661d9dd565b5b604051908082528060200260200182016040528015611f355781602001602082028036833780820191505090505b5097509750975097509750975050612179565b6000898b611f56919061db9b565b905081811115611f64578190505b60008b82611f72919061dbcf565b90508067ffffffffffffffff811115611f8e57611f8d61d9dd565b5b604051908082528060200260200182016040528015611fc157816020015b6060815260200190600190039081611fac5790505b5099508067ffffffffffffffff811115611fde57611fdd61d9dd565b5b60405190808252806020026020018201604052801561200c5781602001602082028036833780820191505090505b5098508067ffffffffffffffff8111156120295761202861d9dd565b5b6040519080825280602002602001820160405280156120575781602001602082028036833780820191505090505b5097508067ffffffffffffffff8111156120745761207361d9dd565b5b6040519080825280602002602001820160405280156120a25781602001602082028036833780820191505090505b5096508067ffffffffffffffff8111156120bf576120be61d9dd565b5b6040519080825280602002602001820160405280156120ed5781602001602082028036833780820191505090505b5095508067ffffffffffffffff81111561210a5761210961d9dd565b5b6040519080825280602002602001820160405280156121385781602001602082028036833780820191505090505b50945060005b8181101561217457612161818e612155919061db9b565b8c8c8c8c8c8c88618ddb565b808061216c9061daca565b91505061213e565b505050505b92959891949750929550565b601860205280600052604060002060009150905080546121a49061da6a565b80601f01602080910402602001604051908101604052809291908181526020018280546121d09061da6a565b801561221d5780601f106121f25761010080835404028352916020019161221d565b820191906000526020600020905b81548152906001019060200180831161220057829003601f168201915b505050505081565b61222d6189a7565b612235618b14565b600073ffffffffffffffffffffffffffffffffffffffff168173ffffffffffffffffffffffffffffffffffffffff160361229b576040517fe6c4247b00000000000000000000000000000000000000000000000000000000815260040160405180910390fd5b600047905060006040516020016122b19061dc4f565b6040516020818303038152906040528051906020012090506000601c60008381526020019081526020016000205490506000601b600084815260200190815260200160002054905060008183612307919061db9b565b9050600073ffffffffffffffffffffffffffffffffffffffff167f6c4916d52fd6fd994184fad1112697ee8292a679db49ca66f12ac15bff60980e868384891161235257600061235f565b848961235e919061dbcf565b5b60405161236e9392919061d457565b60405180910390a28085116123af576040517fbc9eb04200000000000000000000000000000000000000000000000000000000815260040160405180910390fd5b600081866123bd919061dbcf565b905060008773ffffffffffffffffffffffffffffffffffffffff16826040516123e59061dca0565b60006040518083038185875af1925050503d8060008114612422576040519150601f19603f3d011682016040523d82523d6000602084013e612427565b606091505b5050905080612462576040517fa4b6690900000000000000000000000000000000000000000000000000000000815260040160405180910390fd5b8773ffffffffffffffffffffffffffffffffffffffff167f05af21d7340bf49fde03a32c3bcc785015c94acd83531fc6dfbfb93a24c364ca836040516124a8919061cefc565b60405180910390a2505050505050506124bf618dd1565b50565b600c5481565b601560009054906101000a900460ff1681565b6101f481565b60035481565b6124ef618b14565b6000601d600085815260200190815260200160002090508060000160009054906101000a900473ffffffffffffffffffffffffffffffffffffffff1673ffffffffffffffffffffffffffffffffffffffff163373ffffffffffffffffffffffffffffffffffffffff161461258f576040517f82b4290000000000000000000000000000000000000000000000000000000000815260040160405180910390fd5b8060000160179054906101000a900460ff16156125d8576040517f74df98bf00000000000000000000000000000000000000000000000000000000815260040160405180910390fd5b6000816003015482600401546125ee919061db9b565b421190508160000160169054906101000a900460ff161561261a5761261582868686619070565b612662565b801561262f5761262a8286619321565b612661565b6040517fa237d35500000000000000000000000000000000000000000000000000000000815260040160405180910390fd5b5b505061266c618dd1565b505050565b60145481565b6303c2670081565b6126876189a7565b6000828260405160200161269c92919061db4e565b6040516020818303038152906040528051906020012090506020600082815260200190815260200160002060009054906101000a900460ff1661270b576040517fcbdb7b3000000000000000000000000000000000000000000000000000000000815260040160405180910390fd5b6016600082815260200190815260200160002060000160009054906101000a900460ff16612765576040517f3dd1b30500000000000000000000000000000000000000000000000000000000815260040160405180910390fd5b6000601c60008381526020019081526020016000205411156127b3576040517f437b039200000000000000000000000000000000000000000000000000000000815260040160405180910390fd5b6000601b6000838152602001908152602001600020541115612801576040517f437b039200000000000000000000000000000000000000000000000000000000815260040160405180910390fd5b60006016600083815260200190815260200160002060000160006101000a81548160ff0219169083151502179055506000601f60008381526020019081526020016000205490506000600160178054905061285c919061dbcf565b90508082146128c55760006017828154811061287b5761287a61da0c565b5b90600052602060002001549050806017848154811061289d5761289c61da0c565b5b906000526020600020018190555082601f600083815260200190815260200160002081905550505b60178054806128d7576128d661dcb5565b5b60019003818190600052602060002001600090559055601f6000848152602001908152602001600020600090556020600084815260200190815260200160002060006101000a81549060ff0219169055827f40fc64b980e88b51add22183817cd5475b98f00e59877f0d959e5c8ce860f6f5868660405161295992919061db4e565b60405180910390a25050505050565b6129706189a7565b600073ffffffffffffffffffffffffffffffffffffffff16600460009054906101000a900473ffffffffffffffffffffffffffffffffffffffff1673ffffffffffffffffffffffffffffffffffffffff161480156129db5750600660009054906101000a900460ff16155b15612a12576040517f9c6b086600000000000000000000000000000000000000000000000000000000815260040160405180910390fd5b600073ffffffffffffffffffffffffffffffffffffffff16600460009054906101000a900473ffffffffffffffffffffffffffffffffffffffff1673ffffffffffffffffffffffffffffffffffffffff1614612aff576000600460009054906101000a900473ffffffffffffffffffffffffffffffffffffffff169050600460006101000a81549073ffffffffffffffffffffffffffffffffffffffff02191690556003600090558073ffffffffffffffffffffffffffffffffffffffff167f48a87225523c5fd46bf3b7da3223e5525f77b8136a962695d701a24699bef8f360405160405180910390a2505b600660009054906101000a900460ff1615612b82576000600660006101000a81548160ff0219169083151502179055506000600781905550612b3f6154cf565b73ffffffffffffffffffffffffffffffffffffffff167f0835edca54b08506b1f74526581e529d0bdc609b380843d5bfee9fdef1f2c91b60405160405180910390a25b565b6000806000808403612bc2576040517f3492aef600000000000000000000000000000000000000000000000000000000815260040160405180910390fd5b6064841115612bfd576040517f7022f26f00000000000000000000000000000000000000000000000000000000815260040160405180910390fd5b60006017805490509050809150808610612c1e576000809350935050612d9e565b60008587612c2c919061db9b565b905081811115612c3a578190505b6000604051602001612c4b9061dc4f565b60405160208183030381529060405280519060200120905060004790506000601c60008481526020019081526020016000205490506000601b600085815260200190815260200160002054905060008183612ca6919061db9b565b905080841115612d6a57600199503073ffffffffffffffffffffffffffffffffffffffff16635350758f6040518163ffffffff1660e01b8152600401612ceb9061dc4f565b602060405180830381865afa925050508015612d2557506040513d601f19601f82011682018060405250810190612d22919061dcf9565b60015b15612d695760008286612d38919061dbcf565b9050670de0b6b3a76400008282612d4f919061dd26565b612d59919061dd97565b8b612d64919061db9b565b9a5050505b5b600080612d778e89619532565b915091508b80612d845750815b9b50808b612d92919061db9b565b9a505050505050505050505b9250925092565b603281565b600960009054906101000a900473ffffffffffffffffffffffffffffffffffffffff1681565b6060612dda6189a7565b612de2618b14565b600073ffffffffffffffffffffffffffffffffffffffff168273ffffffffffffffffffffffffffffffffffffffff1603612e48576040517fe6c4247b00000000000000000000000000000000000000000000000000000000815260040160405180910390fd5b60008484905067ffffffffffffffff811115612e6757612e6661d9dd565b5b604051908082528060200260200182016040528015612ea057816020015b612e8d61c750565b815260200190600190039081612e855790505b5090506000805b86869050811015613370576000878783818110612ec757612ec661da0c565b5b9050602002810190612ed9919061ddd7565b604051602001612eea92919061db4e565b6040516020818303038152906040528051906020012090506000601660008381526020019081526020016000206040518060e00160405290816000820160009054906101000a900460ff161515151581526020016000820160019054906101000a900473ffffffffffffffffffffffffffffffffffffffff1673ffffffffffffffffffffffffffffffffffffffff1673ffffffffffffffffffffffffffffffffffffffff1681526020016001820160009054906101000a900473ffffffffffffffffffffffffffffffffffffffff1673ffffffffffffffffffffffffffffffffffffffff1673ffffffffffffffffffffffffffffffffffffffff1681526020016001820160149054906101000a900460ff1660ff1660ff168152602001600282015481526020016003820160009054906101000a900460ff1615151515815260200160048201548152505090508060000151613129578888848181106130535761305261da0c565b5b9050602002810190613065919061ddd7565b8080601f016020809104026020016040519081016040528093929190818152602001838380828437600081840152601f19601f820116905080830192505050505050508584815181106130bb576130ba61da0c565b5b6020026020010151600001819052506040518060400160405280601381526020017f546f6b656e206e6f7420737570706f72746564000000000000000000000000008152508584815181106131135761311261da0c565b5b602002602001015160600181905250505061335d565b600073ffffffffffffffffffffffffffffffffffffffff16816020015173ffffffffffffffffffffffffffffffffffffffff161415801561318557506000816020015173ffffffffffffffffffffffffffffffffffffffff163b145b156132735788888481811061319d5761319c61da0c565b5b90506020028101906131af919061ddd7565b8080601f016020809104026020016040519081016040528093929190818152602001838380828437600081840152601f19601f820116905080830192505050505050508584815181106132055761320461da0c565b5b6020026020010151600001819052506040518060400160405280600e81526020017f4e6f74206120636f6e747261637400000000000000000000000000000000000081525085848151811061325d5761325c61da0c565b5b602002602001015160600181905250505061335d565b600073ffffffffffffffffffffffffffffffffffffffff16816020015173ffffffffffffffffffffffffffffffffffffffff16036132d8576132b582886197fa565b8584815181106132c8576132c761da0c565b5b6020026020010181905250613327565b61330882828b8b878181106132f0576132ef61da0c565b5b9050602002810190613302919061ddd7565b8b619a0c565b85848151811061331b5761331a61da0c565b5b60200260200101819052505b84838151811061333a5761333961da0c565b5b6020026020010151602001511561335a5783806133569061daca565b9450505b50505b80806133689061daca565b915050612ea7565b50600081036133ab576040517fbc9eb04200000000000000000000000000000000000000000000000000000000815260040160405180910390fd5b81925050506133b8618dd1565b9392505050565b6133c76189a7565b600073ffffffffffffffffffffffffffffffffffffffff168173ffffffffffffffffffffffffffffffffffffffff160361342d576040517fe6c4247b00000000000000000000000000000000000000000000000000000000815260040160405180910390fd5b600b60009054906101000a900473ffffffffffffffffffffffffffffffffffffffff1673ffffffffffffffffffffffffffffffffffffffff168173ffffffffffffffffffffffffffffffffffffffff16036134b4576040517f898cf5bd00000000000000000000000000000000000000000000000000000000815260040160405180910390fd5b600960009054906101000a900473ffffffffffffffffffffffffffffffffffffffff1673ffffffffffffffffffffffffffffffffffffffff168173ffffffffffffffffffffffffffffffffffffffff160361353b576040517f898cf5bd00000000000000000000000000000000000000000000000000000000815260040160405180910390fd5b600a60009054906101000a900473ffffffffffffffffffffffffffffffffffffffff1673ffffffffffffffffffffffffffffffffffffffff167f2225519bb0d4452c8f10be7e343f6afbd9cba6ca41410b1d7abdb148c5f7b7c560405160405180910390a2600060086000600a60009054906101000a900473ffffffffffffffffffffffffffffffffffffffff1673ffffffffffffffffffffffffffffffffffffffff1673ffffffffffffffffffffffffffffffffffffffff16815260200190815260200160002060006101000a81548160ff0219169083151502179055508073ffffffffffffffffffffffffffffffffffffffff167fd868c725f20c65ee0e4e29658caef2a516c5ac422857d6a3cd96b99792db2af660405160405180910390a26001600860008373ffffffffffffffffffffffffffffffffffffffff1673ffffffffffffffffffffffffffffffffffffffff16815260200190815260200160002060006101000a81548160ff0219169083151502179055508073ffffffffffffffffffffffffffffffffffffffff16600a60009054906101000a900473ffffffffffffffffffffffffffffffffffffffff1673ffffffffffffffffffffffffffffffffffffffff167fc20073d1c4443096c55d22a3812db7261aa6911634e1a0850f068d0c9923402d60405160405180910390a380600a60006101000a81548173ffffffffffffffffffffffffffffffffffffffff021916908373ffffffffffffffffffffffffffffffffffffffff16021790555050565b61377d6189a7565b600081036137b7576040517f07fe7bae00000000000000000000000000000000000000000000000000000000815260040160405180910390fd5b6000600d5490506000620f4240836137cf919061dd26565b905080600d819055507f3fac1af836e5e5cb34b3c3efbec585ce813fe5c16ed53a4ec34a8bbe31f8680d828260405161380992919061de3a565b60405180910390a1505050565b600e8060000154908060010154908060020160009054906101000a900460ff16905083565b600080838360405160200161385192919061db4e565b6040516020818303038152906040528051906020012090506000601660008381526020019081526020016000206040518060e00160405290816000820160009054906101000a900460ff161515151581526020016000820160019054906101000a900473ffffffffffffffffffffffffffffffffffffffff1673ffffffffffffffffffffffffffffffffffffffff1673ffffffffffffffffffffffffffffffffffffffff1681526020016001820160009054906101000a900473ffffffffffffffffffffffffffffffffffffffff1673ffffffffffffffffffffffffffffffffffffffff1673ffffffffffffffffffffffffffffffffffffffff1681526020016001820160149054906101000a900460ff1660ff1660ff168152602001600282015481526020016003820160009054906101000a900460ff16151515158152602001600482015481525050905080600001516139d9576040517f3dd1b30500000000000000000000000000000000000000000000000000000000815260040160405180910390fd5b60006139e58686613d5f565b9050600064e8d4a51000600d546139fc919061dd26565b9050600082670de0b6b3a764000083613a15919061dd26565b613a1f919061dd97565b90506012846060015160ff161015613a605783606001516012613a42919061de63565b600a613a4e919061dfcb565b81613a59919061dd97565b9550613a8b565b60128460600151613a71919061de63565b600a613a7d919061dfcb565b81613a88919061dd26565b95505b505050505092915050565b613a9e6189a7565b613aa6619de1565b565b600b60009054906101000a900473ffffffffffffffffffffffffffffffffffffffff1681565b62278d0081565b6000808383604051602001613aeb92919061db4e565b6040516020818303038152906040528051906020012090506000601660008381526020019081526020016000206040518060e00160405290816000820160009054906101000a900460ff161515151581526020016000820160019054906101000a900473ffffffffffffffffffffffffffffffffffffffff1673ffffffffffffffffffffffffffffffffffffffff1673ffffffffffffffffffffffffffffffffffffffff1681526020016001820160009054906101000a900473ffffffffffffffffffffffffffffffffffffffff1673ffffffffffffffffffffffffffffffffffffffff1673ffffffffffffffffffffffffffffffffffffffff1681526020016001820160149054906101000a900460ff1660ff1660ff168152602001600282015481526020016003820160009054906101000a900460ff1615151515815260200160048201548152505090508060000151613c73576040517f3dd1b30500000000000000000000000000000000000000000000000000000000815260040160405180910390fd5b6000613c7f8686613d5f565b9050600064e8d4a51000600c54613c96919061dd26565b9050600082670de0b6b3a764000083613caf919061dd26565b613cb9919061dd97565b90506012846060015160ff161015613cfa5783606001516012613cdc919061de63565b600a613ce8919061dfcb565b81613cf3919061dd97565b9550613d25565b60128460600151613d0b919061de63565b600a613d17919061dfcb565b81613d22919061dd26565b95505b505050505092915050565b600d5481565b60178181548110613d4657600080fd5b906000526020600020016000915090505481565b600581565b6000808383604051602001613d7592919061db4e565b6040516020818303038152906040528051906020012090506000601660008381526020019081526020016000206040518060e00160405290816000820160009054906101000a900460ff161515151581526020016000820160019054906101000a900473ffffffffffffffffffffffffffffffffffffffff1673ffffffffffffffffffffffffffffffffffffffff1673ffffffffffffffffffffffffffffffffffffffff1681526020016001820160009054906101000a900473ffffffffffffffffffffffffffffffffffffffff1673ffffffffffffffffffffffffffffffffffffffff1673ffffffffffffffffffffffffffffffffffffffff1681526020016001820160149054906101000a900460ff1660ff1660ff168152602001600282015481526020016003820160009054906101000a900460ff1615151515815260200160048201548152505090508060000151613efd576040517f3dd1b30500000000000000000000000000000000000000000000000000000000815260040160405180910390fd5b8060a0015115613f15578060c0015192505050614185565b6000816040015190506000806000808473ffffffffffffffffffffffffffffffffffffffff1663feaf968c6040518163ffffffff1660e01b815260040160a060405180830381865afa158015613f6f573d6000803e3d6000fd5b505050506040513d601f19601f82011682018060405250810190613f93919061e08e565b94509450509350935060008313613fd6576040517ff45e167b00000000000000000000000000000000000000000000000000000000815260040160405180910390fd5b60008203614010576040517ff45e167b00000000000000000000000000000000000000000000000000000000815260040160405180910390fd5b8369ffffffffffffffffffff168169ffffffffffffffffffff161015614062576040517f19abf40e00000000000000000000000000000000000000000000000000000000815260040160405180910390fd5b85608001518242614073919061dbcf565b11156140ab576040517f19abf40e00000000000000000000000000000000000000000000000000000000815260040160405180910390fd5b60008573ffffffffffffffffffffffffffffffffffffffff1663313ce5676040518163ffffffff1660e01b8152600401602060405180830381865afa1580156140f8573d6000803e3d6000fd5b505050506040513d601f19601f8201168201806040525081019061411c919061e11e565b905060128160ff16101561415557806012614137919061de63565b600a614143919061dfcb565b8461414e919061dd26565b985061417c565b601281614162919061de63565b600a61416e919061dfcb565b84614179919061dd97565b98505b50505050505050505b92915050565b6141936189a7565b600073ffffffffffffffffffffffffffffffffffffffff168173ffffffffffffffffffffffffffffffffffffffff16036141f9576040517fe6c4247b00000000000000000000000000000000000000000000000000000000815260040160405180910390fd5b3373ffffffffffffffffffffffffffffffffffffffff168173ffffffffffffffffffffffffffffffffffffffff160361425e576040517ff914ac3300000000000000000000000000000000000000000000000000000000815260040160405180910390fd5b600a60009054906101000a900473ffffffffffffffffffffffffffffffffffffffff1673ffffffffffffffffffffffffffffffffffffffff168173ffffffffffffffffffffffffffffffffffffffff16036142e5576040517f898cf5bd00000000000000000000000000000000000000000000000000000000815260040160405180910390fd5b600b60009054906101000a900473ffffffffffffffffffffffffffffffffffffffff1673ffffffffffffffffffffffffffffffffffffffff168173ffffffffffffffffffffffffffffffffffffffff160361436c576040517f898cf5bd00000000000000000000000000000000000000000000000000000000815260040160405180910390fd5b8073ffffffffffffffffffffffffffffffffffffffff16600960009054906101000a900473ffffffffffffffffffffffffffffffffffffffff1673ffffffffffffffffffffffffffffffffffffffff167f0243549a92b2412f7a3caf7a2e56d65b8821b91345363faa5f57195384065fcc60405160405180910390a380600960006101000a81548173ffffffffffffffffffffffffffffffffffffffff021916908373ffffffffffffffffffffffffffffffffffffffff16021790555050565b600080600080600080878760405160200161444892919061db4e565b6040516020818303038152906040528051906020012090506000601660008381526020019081526020016000206040518060e00160405290816000820160009054906101000a900460ff161515151581526020016000820160019054906101000a900473ffffffffffffffffffffffffffffffffffffffff1673ffffffffffffffffffffffffffffffffffffffff1673ffffffffffffffffffffffffffffffffffffffff1681526020016001820160009054906101000a900473ffffffffffffffffffffffffffffffffffffffff1673ffffffffffffffffffffffffffffffffffffffff1673ffffffffffffffffffffffffffffffffffffffff1681526020016001820160149054906101000a900460ff1660ff1660ff168152602001600282015481526020016003820160009054906101000a900460ff16151515158152602001600482015481525050905080600001516145d0576040517f3dd1b30500000000000000000000000000000000000000000000000000000000815260040160405180910390fd5b600073ffffffffffffffffffffffffffffffffffffffff16816020015173ffffffffffffffffffffffffffffffffffffffff160361461057479650614697565b6000816020015190508073ffffffffffffffffffffffffffffffffffffffff166370a08231306040518263ffffffff1660e01b8152600401614652919061d074565b602060405180830381865afa15801561466f573d6000803e3d6000fd5b505050506040513d601f19601f82011682018060405250810190614693919061dcf9565b9750505b601c6000838152602001908152602001600020549550601b600083815260200190815260200160002054945084866146cf919061db9b565b9350838711156146ec5783876146e5919061dbcf565b92506146f1565b600092505b50509295509295909350565b62093a8081565b61470c6189a7565b600560ff168160ff16101561474d576040517fd5ed836c00000000000000000000000000000000000000000000000000000000815260040160405180910390fd5b603260ff168160ff16111561478e576040517f2ab33ae000000000000000000000000000000000000000000000000000000000815260040160405180910390fd5b80601560006101000a81548160ff021916908360ff1602179055508060ff167fa0544df958eb64342ece2dbbaf5f7e3215c6b1cbad9ee36b2ad9375df23e046760405160405180910390a250565b6000600260149054906101000a900460ff16905090565b603c81565b6148006189a7565b600660009054906101000a900460ff16614846576040517f683925de00000000000000000000000000000000000000000000000000000000815260040160405180910390fd5b60006148506154cf565b90506000600660006101000a81548160ff02191690831515021790555060006007819055508073ffffffffffffffffffffffffffffffffffffffff167f0835edca54b08506b1f74526581e529d0bdc609b380843d5bfee9fdef1f2c91b60405160405180910390a250565b6148c36189a7565b600e60020160009054906101000a900460ff1661490c576040517fcd96377800000000000000000000000000000000000000000000000000000000815260040160405180910390fd5b600e60008082016000905560018201600090556002820160006101000a81549060ff021916905550507ff01a470041f696cf98054d8f318e3313eaa908f515b9c966d66bdd700ebeb9de60405160405180910390a1565b600080838360405160200161497992919061db4e565b604051602081830303815290604052805190602001209050601b60008281526020019081526020016000205491505092915050565b60075481565b6149bc6189a7565b600073ffffffffffffffffffffffffffffffffffffffff16600460009054906101000a900473ffffffffffffffffffffffffffffffffffffffff1673ffffffffffffffffffffffffffffffffffffffff1614614a44576040517f347c4ee700000000000000000000000000000000000000000000000000000000815260040160405180910390fd5b600660009054906101000a900460ff1615614a8b576040517f347c4ee700000000000000000000000000000000000000000000000000000000815260040160405180910390fd5b6001600660006101000a81548160ff02191690831515021790555042600781905550614ab56154cf565b73ffffffffffffffffffffffffffffffffffffffff167fe25d30c0102dba87353d8ca0316de41b0a0e8dd7c3867da42d3b93929702ae1062093a8042614afb919061db9b565b604051614b08919061cefc565b60405180910390a2565b6000806000614b218686613ad5565b9150614b2d868661383b565b90508184614b3b919061db9b565b925093509350939050565b6202a30081565b6000614b57619e44565b90508073ffffffffffffffffffffffffffffffffffffffff16614b78616ea2565b73ffffffffffffffffffffffffffffffffffffffff1614158015614bea57508073ffffffffffffffffffffffffffffffffffffffff16600460009054906101000a900473ffffffffffffffffffffffffffffffffffffffff1673ffffffffffffffffffffffffffffffffffffffff1614155b15614c21576040517ff097464000000000000000000000000000000000000000000000000000000000815260040160405180910390fd5b6202a300600354614c32919061db9b565b421015614c6b576040517fb333420a00000000000000000000000000000000000000000000000000000000815260040160405180910390fd5b614c7481619e4c565b600460006101000a81549073ffffffffffffffffffffffffffffffffffffffff021916905560036000905550565b60008073ffffffffffffffffffffffffffffffffffffffff16600460009054906101000a900473ffffffffffffffffffffffffffffffffffffffff1673ffffffffffffffffffffffffffffffffffffffff1614158015614d1257506202a300600354614d0e919061db9b565b4210155b905090565b600a60009054906101000a900473ffffffffffffffffffffffffffffffffffffffff1681565b6000804790506000604051602001614d549061dc4f565b6040516020818303038152906040528051906020012090506000601c60008381526020019081526020016000205490506000601b600084815260200190815260200160002054905060008183614daa919061db9b565b9050808511614dc157600095505050505050614dd5565b8085614dcd919061dbcf565b955050505050505b90565b614de06189a7565b6001600560008373ffffffffffffffffffffffffffffffffffffffff1673ffffffffffffffffffffffffffffffffffffffff16815260200190815260200160002060006101000a81548160ff0219169083151502179055508073ffffffffffffffffffffffffffffffffffffffff167f28b124bc885018cb01dc65331df0a825c10382ea21eabc26502af36ed436d8f360405160405180910390a250565b614e866189a7565b614e8e619e7d565b565b6000808383604051602001614ea692919061db4e565b6040516020818303038152906040528051906020012090506000601660008381526020019081526020016000206040518060e00160405290816000820160009054906101000a900460ff161515151581526020016000820160019054906101000a900473ffffffffffffffffffffffffffffffffffffffff1673ffffffffffffffffffffffffffffffffffffffff1673ffffffffffffffffffffffffffffffffffffffff1681526020016001820160009054906101000a900473ffffffffffffffffffffffffffffffffffffffff1673ffffffffffffffffffffffffffffffffffffffff1673ffffffffffffffffffffffffffffffffffffffff1681526020016001820160149054906101000a900460ff1660ff1660ff168152602001600282015481526020016003820160009054906101000a900460ff161515151581526020016004820154815250509050806000015115806150345750600073ffffffffffffffffffffffffffffffffffffffff16816020015173ffffffffffffffffffffffffffffffffffffffff16145b1561504457600092505050615138565b60008160200151905060008173ffffffffffffffffffffffffffffffffffffffff166370a08231306040518263ffffffff1660e01b8152600401615088919061d074565b602060405180830381865afa1580156150a5573d6000803e3d6000fd5b505050506040513d601f19601f820116820180604052508101906150c9919061dcf9565b90506000601c60008681526020019081526020016000205490506000601b600087815260200190815260200160002054905060008183615109919061db9b565b9050808411615122576000975050505050505050615138565b808461512e919061dbcf565b9750505050505050505b92915050565b620f42407fffffffffffffffffffffffffffffffffffffffffffffffffffffffffffffffff61516d919061dd97565b81565b6000806000848460405160200161518892919061db4e565b6040516020818303038152906040528051906020012090506000601660008381526020019081526020016000206040518060e00160405290816000820160009054906101000a900460ff161515151581526020016000820160019054906101000a900473ffffffffffffffffffffffffffffffffffffffff1673ffffffffffffffffffffffffffffffffffffffff1673ffffffffffffffffffffffffffffffffffffffff1681526020016001820160009054906101000a900473ffffffffffffffffffffffffffffffffffffffff1673ffffffffffffffffffffffffffffffffffffffff1673ffffffffffffffffffffffffffffffffffffffff1681526020016001820160149054906101000a900460ff1660ff1660ff168152602001600282015481526020016003820160009054906101000a900460ff1615151515815260200160048201548152505090508060000151615310576040517f3dd1b30500000000000000000000000000000000000000000000000000000000815260040160405180910390fd5b60008073ffffffffffffffffffffffffffffffffffffffff16826020015173ffffffffffffffffffffffffffffffffffffffff1603615351574790506153d8565b6000826020015190508073ffffffffffffffffffffffffffffffffffffffff166370a08231306040518263ffffffff1660e01b8152600401615393919061d074565b602060405180830381865afa1580156153b0573d6000803e3d6000fd5b505050506040513d601f19601f820116820180604052508101906153d4919061dcf9565b9150505b6000601c60008581526020019081526020016000205490506000601b600086815260200190815260200160002054905060008183615416919061db9b565b9050808403615432576001600097509750505050505050615470565b808411156154575760018185615448919061dbcf565b97509750505050505050615470565b60008482615465919061dbcf565b975097505050505050505b9250929050565b6000600660009054906101000a900460ff1661549657600090506154cc565b600062093a806007546154a9919061db9b565b90508042106154bc5760009150506154cc565b42816154c8919061dbcf565b9150505b90565b6000600160009054906101000a900473ffffffffffffffffffffffffffffffffffffffff16905090565b601d6020528060005260406000206000915090508060000160009054906101000a900473ffffffffffffffffffffffffffffffffffffffff16908060000160149054906101000a900460ff16908060000160159054906101000a900460ff16908060000160169054906101000a900460ff16908060000160179054906101000a900460ff16908060000160189054906101000a900460ff16908060000160199054906101000a900463ffffffff1690806001015490806002015490806003015490806004015490508b565b6155cc6189a7565b6003811015615607576040517f40d68ed400000000000000000000000000000000000000000000000000000000815260040160405180910390fd5b600f811115615642576040517f9261e95000000000000000000000000000000000000000000000000000000000815260040160405180910390fd5b60006303c2670090506000828202905081838261565f919061dd97565b14615696576040517fbe4e904600000000000000000000000000000000000000000000000000000000815260040160405180910390fd5b6000836303c26700026303c267004201019050428110156156e3576040517fbe4e904600000000000000000000000000000000000000000000000000000000815260040160405180910390fd5b5082601481905550827f91a5406c059a34c86623b7bf1eedf868a2c312dca12617c7cb6389a9b997023360405160405180910390a2505050565b6157256189a7565b61572d618b14565b600073ffffffffffffffffffffffffffffffffffffffff168173ffffffffffffffffffffffffffffffffffffffff1603615793576040517fe6c4247b00000000000000000000000000000000000000000000000000000000815260040160405180910390fd5b600083836040516020016157a892919061db4e565b6040516020818303038152906040528051906020012090506000601660008381526020019081526020016000206040518060e00160405290816000820160009054906101000a900460ff161515151581526020016000820160019054906101000a900473ffffffffffffffffffffffffffffffffffffffff1673ffffffffffffffffffffffffffffffffffffffff1673ffffffffffffffffffffffffffffffffffffffff1681526020016001820160009054906101000a900473ffffffffffffffffffffffffffffffffffffffff1673ffffffffffffffffffffffffffffffffffffffff1673ffffffffffffffffffffffffffffffffffffffff1681526020016001820160149054906101000a900460ff1660ff1660ff168152602001600282015481526020016003820160009054906101000a900460ff1615151515815260200160048201548152505090508060000151615930576040517f3dd1b30500000000000000000000000000000000000000000000000000000000815260040160405180910390fd5b600073ffffffffffffffffffffffffffffffffffffffff16816020015173ffffffffffffffffffffffffffffffffffffffff160361599a576040517fe6c4247b00000000000000000000000000000000000000000000000000000000815260040160405180910390fd5b6159ee81602001518387878080601f016020809104026020016040519081016040528093929190818152602001838380828437600081840152601f19601f8201169050808301925050505050505086619ee0565b50506159f8618dd1565b505050565b615a056189a7565b6000603c83615a14919061dd26565b905060006201518083615a27919061dd26565b9050603c821015615a64576040517f36fa738b00000000000000000000000000000000000000000000000000000000815260040160405180910390fd5b6303c26700811115615aa2576040517f3cc3c0e000000000000000000000000000000000000000000000000000000000815260040160405180910390fd5b808210615adb576040517f8b1d8b4b00000000000000000000000000000000000000000000000000000000815260040160405180910390fd5b6000600f82615aea919061dd26565b905081600f8281615afe57615afd61dd68565b5b0414615b36576040517fe025822300000000000000000000000000000000000000000000000000000000815260040160405180910390fd5b80427fffffffffffffffffffffffffffffffffffffffffffffffffffffffffffffffff615b63919061dbcf565b615b6d919061dbcf565b821115615ba6576040517fc869336b00000000000000000000000000000000000000000000000000000000815260040160405180910390fd5b8260118190555081601281905550847f049a6934bf12da797a1e19e9f70b578af0fdab9d72c2d4b8d82984a54c9e640060405160405180910390a2837f5051341ab3f6d56c8295227b7476589d73ae29d5dfaff08dfc01f67f28a8a3e360405160405180910390a25050505050565b6000600e60020160009054906101000a900460ff168015615c3b5750600e600101544210155b905090565b60086020528060005260406000206000915054906101000a900460ff1681565b601e5481565b60056020528060005260406000206000915054906101000a900460ff1681565b600080600080600080615c9761a0f6565b90508060000151955080602001519450806040015193506000615cb861a253565b9050806000015187615cca919061db9b565b9650806020015186615cdc919061db9b565b9550806040015185615cee919061db9b565b94508486615cfc919061db9b565b935083871115615d15578387615d12919061dbcf565b92505b50509091929394565b615d266189a7565b600073ffffffffffffffffffffffffffffffffffffffff168173ffffffffffffffffffffffffffffffffffffffff1603615d8c576040517fe6c4247b00000000000000000000000000000000000000000000000000000000815260040160405180910390fd5b600a60009054906101000a900473ffffffffffffffffffffffffffffffffffffffff1673ffffffffffffffffffffffffffffffffffffffff168173ffffffffffffffffffffffffffffffffffffffff1603615e13576040517f898cf5bd00000000000000000000000000000000000000000000000000000000815260040160405180910390fd5b600960009054906101000a900473ffffffffffffffffffffffffffffffffffffffff1673ffffffffffffffffffffffffffffffffffffffff168173ffffffffffffffffffffffffffffffffffffffff1603615e9a576040517f898cf5bd00000000000000000000000000000000000000000000000000000000815260040160405180910390fd5b600b60009054906101000a900473ffffffffffffffffffffffffffffffffffffffff1673ffffffffffffffffffffffffffffffffffffffff167f2225519bb0d4452c8f10be7e343f6afbd9cba6ca41410b1d7abdb148c5f7b7c560405160405180910390a2600060086000600b60009054906101000a900473ffffffffffffffffffffffffffffffffffffffff1673ffffffffffffffffffffffffffffffffffffffff1673ffffffffffffffffffffffffffffffffffffffff16815260200190815260200160002060006101000a81548160ff0219169083151502179055508073ffffffffffffffffffffffffffffffffffffffff167fd868c725f20c65ee0e4e29658caef2a516c5ac422857d6a3cd96b99792db2af660405160405180910390a26001600860008373ffffffffffffffffffffffffffffffffffffffff1673ffffffffffffffffffffffffffffffffffffffff16815260200190815260200160002060006101000a81548160ff0219169083151502179055508073ffffffffffffffffffffffffffffffffffffffff16600b60009054906101000a900473ffffffffffffffffffffffffffffffffffffffff1673ffffffffffffffffffffffffffffffffffffffff167fa982575859d7ad2f390dc12b23f7dab8bbda047f9d0140ac68344b27bf34bfb460405160405180910390a380600b60006101000a81548173ffffffffffffffffffffffffffffffffffffffff021916908373ffffffffffffffffffffffffffffffffffffffff16021790555050565b600f81565b60125481565b6160e76189a7565b600086866040516020016160fc92919061db4e565b6040516020818303038152906040528051906020012090506016600082815260200190815260200160002060000160009054906101000a900460ff161561616f576040517fc78e82ad00000000000000000000000000000000000000000000000000000000815260040160405180910390fd5b600073ffffffffffffffffffffffffffffffffffffffff168473ffffffffffffffffffffffffffffffffffffffff16036161d5576040517fe6c4247b00000000000000000000000000000000000000000000000000000000815260040160405180910390fd5b6000820361620f576040517f07fe7bae00000000000000000000000000000000000000000000000000000000815260040160405180910390fd5b61621884618a2e565b6040518060e001604052806001151581526020018673ffffffffffffffffffffffffffffffffffffffff1681526020018573ffffffffffffffffffffffffffffffffffffffff1681526020018460ff16815260200183815260200160001515815260200160008152506016600083815260200190815260200160002060008201518160000160006101000a81548160ff02191690831515021790555060208201518160000160016101000a81548173ffffffffffffffffffffffffffffffffffffffff021916908373ffffffffffffffffffffffffffffffffffffffff16021790555060408201518160010160006101000a81548173ffffffffffffffffffffffffffffffffffffffff021916908373ffffffffffffffffffffffffffffffffffffffff16021790555060608201518160010160146101000a81548160ff021916908360ff1602179055506080820151816002015560a08201518160030160006101000a81548160ff02191690831515021790555060c082015181600401559050506017819080600181540180825580915050600190039060005260206000200160009091909190915055600060016017805490506163d7919061dbcf565b905080601f60008481526020019081526020016000208190555060016020600084815260200190815260200160002060006101000a81548160ff021916908315150217905550878760186000858152602001908152602001600020918261643f92919061e302565b508473ffffffffffffffffffffffffffffffffffffffff168673ffffffffffffffffffffffffffffffffffffffff16837f528e5975397d163506e3a8ee02d8585bd27a404861f4b6b4b142b22c085868ce8b8b6040516164a092919061db4e565b60405180910390a45050505050505050565b60115481565b601a602052816000526040600020602052806000526040600020600091509150505481565b60135481565b601c6020528060005260406000206000915090505481565b6165036189a7565b61650b618b14565b600073ffffffffffffffffffffffffffffffffffffffff168273ffffffffffffffffffffffffffffffffffffffff1603616571576040517fe6c4247b00000000000000000000000000000000000000000000000000000000815260040160405180910390fd5b600073ffffffffffffffffffffffffffffffffffffffff168173ffffffffffffffffffffffffffffffffffffffff16036165d7576040517fe6c4247b00000000000000000000000000000000000000000000000000000000815260040160405180910390fd5b60008060001b9050600060405180602001604052806000815250905060005b60178054905081101561684f576000601782815481106166195761661861da0c565b5b906000526020600020015490506000601660008381526020019081526020016000206040518060e00160405290816000820160009054906101000a900460ff161515151581526020016000820160019054906101000a900473ffffffffffffffffffffffffffffffffffffffff1673ffffffffffffffffffffffffffffffffffffffff1673ffffffffffffffffffffffffffffffffffffffff1681526020016001820160009054906101000a900473ffffffffffffffffffffffffffffffffffffffff1673ffffffffffffffffffffffffffffffffffffffff1673ffffffffffffffffffffffffffffffffffffffff1681526020016001820160149054906101000a900460ff1660ff1660ff168152602001600282015481526020016003820160009054906101000a900460ff1615151515815260200160048201548152505090508673ffffffffffffffffffffffffffffffffffffffff16816020015173ffffffffffffffffffffffffffffffffffffffff160361683a578194506018600083815260200190815260200160002080546167b39061da6a565b80601f01602080910402602001604051908101604052809291908181526020018280546167df9061da6a565b801561682c5780601f106168015761010080835404028352916020019161682c565b820191906000526020600020905b81548152906001019060200180831161680f57829003601f168201915b50505050509350505061684f565b505080806168479061daca565b9150506165f6565b506000801b821461686b5761686684838386619ee0565b616876565b616875848461a305565b5b5050616880618dd1565b5050565b61688c6189a7565b600081036168c6576040517f3a02bf3a00000000000000000000000000000000000000000000000000000000815260040160405180910390fd5b620f42407fffffffffffffffffffffffffffffffffffffffffffffffffffffffffffffffff6168f5919061dd97565b81111561692e576040517fa41abbbd00000000000000000000000000000000000000000000000000000000815260040160405180910390fd5b6000620f42408261693f919061dd26565b90506000810361697b576040517f3a02bf3a00000000000000000000000000000000000000000000000000000000815260040160405180910390fd5b620186a08110156169b8576040517f6bf9536300000000000000000000000000000000000000000000000000000000815260040160405180910390fd5b6000600c541115616a2c57600060646101f4600c546169d7919061dd26565b6169e1919061dd97565b905080600c546169f1919061db9b565b821115616a2a576040517f464f806b00000000000000000000000000000000000000000000000000000000815260040160405180910390fd5b505b6000600c54821115616a4e576201518042616a47919061db9b565b9050616a52565b4290505b604051806060016040528083815260200182815260200160011515815250600e600082015181600001556020820151816001015560408201518160020160006101000a81548160ff0219169083151502179055509050507f9b554b4a09efa18e2f36c9ccb218761ed612341710703f6ff2edf03947238c728282604051616ada92919061de3a565b60405180910390a1505050565b6000600660009054906101000a900460ff168015616b15575062093a80600754616b11919061db9b565b4210155b905090565b6201518081565b60166020528060005260406000206000915090508060000160009054906101000a900460ff16908060000160019054906101000a900473ffffffffffffffffffffffffffffffffffffffff16908060010160009054906101000a900473ffffffffffffffffffffffffffffffffffffffff16908060010160149054906101000a900460ff16908060020154908060030160009054906101000a900460ff16908060040154905087565b600080600080600085905060008173ffffffffffffffffffffffffffffffffffffffff166370a08231306040518263ffffffff1660e01b8152600401616c10919061d074565b602060405180830381865afa158015616c2d573d6000803e3d6000fd5b505050506040513d601f19601f82011682018060405250810190616c51919061dcf9565b905060005b601780549050811015616e7657600060178281548110616c7957616c7861da0c565b5b906000526020600020015490506000601660008381526020019081526020016000206040518060e00160405290816000820160009054906101000a900460ff161515151581526020016000820160019054906101000a900473ffffffffffffffffffffffffffffffffffffffff1673ffffffffffffffffffffffffffffffffffffffff1673ffffffffffffffffffffffffffffffffffffffff1681526020016001820160009054906101000a900473ffffffffffffffffffffffffffffffffffffffff1673ffffffffffffffffffffffffffffffffffffffff1673ffffffffffffffffffffffffffffffffffffffff1681526020016001820160149054906101000a900460ff1660ff1660ff168152602001600282015481526020016003820160009054906101000a900460ff1615151515815260200160048201548152505090508973ffffffffffffffffffffffffffffffffffffffff16816020015173ffffffffffffffffffffffffffffffffffffffff1603616e615760019750601c6000838152602001908152602001600020549650601b600083815260200190815260200160002054955060008688616e30919061db9b565b9050808511616e485760009950505050505050616e88565b8085616e54919061dbcf565b9950505050505050616e88565b50508080616e6e9061daca565b915050616c56565b50806000806000955095509550955050505b9193509193565b600660009054906101000a900460ff1681565b600080616ead61a4ab565b9050600073ffffffffffffffffffffffffffffffffffffffff168173ffffffffffffffffffffffffffffffffffffffff1603616f0b57600460009054906101000a900473ffffffffffffffffffffffffffffffffffffffff16616f0d565b805b91505090565b6060806060806000808603616f54576040517f3492aef600000000000000000000000000000000000000000000000000000000815260040160405180910390fd5b6064861115616f8f576040517f7022f26f00000000000000000000000000000000000000000000000000000000815260040160405180910390fd5b600060178054905090508091508088106170de57600067ffffffffffffffff811115616fbe57616fbd61d9dd565b5b604051908082528060200260200182016040528015616ff157816020015b6060815260200190600190039081616fdc5790505b50600067ffffffffffffffff81111561700d5761700c61d9dd565b5b60405190808252806020026020018201604052801561703b5781602001602082028036833780820191505090505b50600067ffffffffffffffff8111156170575761705661d9dd565b5b6040519080825280602002602001820160405280156170855781602001602082028036833780820191505090505b50600067ffffffffffffffff8111156170a1576170a061d9dd565b5b6040519080825280602002602001820160405280156170cf5781602001602082028036833780820191505090505b50955095509550955050617117565b600087896170ec919061db9b565b9050818111156170fa578190505b617104898261a4d5565b809750819850829950839a505050505050505b9295509295909350565b6171296189a7565b6000838360405160200161713e92919061db4e565b6040516020818303038152906040528051906020012090506016600082815260200190815260200160002060000160009054906101000a900460ff166171b0576040517f3dd1b30500000000000000000000000000000000000000000000000000000000815260040160405180910390fd5b600082036171ea576040517ff45e167b00000000000000000000000000000000000000000000000000000000815260040160405180910390fd5b60016016600083815260200190815260200160002060030160006101000a81548160ff021916908315150217905550816016600083815260200190815260200160002060040181905550807f8df6f90013e411f77a3760042c965962ef41e51850de75bbbeb0129b5311b01783604051617264919061cefc565b60405180910390a250505050565b61727a6189a7565b6000828260405160200161728f92919061db4e565b6040516020818303038152906040528051906020012090506016600082815260200190815260200160002060000160009054906101000a900460ff16617301576040517f3dd1b30500000000000000000000000000000000000000000000000000000000815260040160405180910390fd5b60006016600083815260200190815260200160002060030160006101000a81548160ff021916908315150217905550807f166ba91f2568f3b5f401c2d9e34cb29e8422613701d6024bbe60e627fa780b5c60405160405180910390a2505050565b61736a618b14565b600960009054906101000a900473ffffffffffffffffffffffffffffffffffffffff1673ffffffffffffffffffffffffffffffffffffffff163373ffffffffffffffffffffffffffffffffffffffff16146173f1576040517f82b4290000000000000000000000000000000000000000000000000000000000815260040160405180910390fd5b6000601d600083815260200190815260200160002090508060000160169054906101000a900460ff1615617451576040517f0e26cfd900000000000000000000000000000000000000000000000000000000815260040160405180910390fd5b8060000160179054906101000a900460ff161561749a576040517f74df98bf00000000000000000000000000000000000000000000000000000000815260040160405180910390fd5b610384816003015482600401546174b1919061db9b565b6174bb919061db9b565b4211156174f4576040517f2ddeb06500000000000000000000000000000000000000000000000000000000815260040160405180910390fd5b60018160000160166101000a81548160ff021916908315150217905550817f385ed28f1b8a63ba23626539ad487fed2882db462aa0abffca4fb5f39f6a468860405160405180910390a250617547618dd1565b50565b6000600e60405180606001604052908160008201548152602001600182015481526020016002820160009054906101000a900460ff161515151581525050905080604001516175c5576040517fcd96377800000000000000000000000000000000000000000000000000000000815260040160405180910390fd5b8060200151421015617603576040517f813b023900000000000000000000000000000000000000000000000000000000815260040160405180910390fd5b6000600c5490508160000151600c81905550600e60008082016000905560018201600090556002820160006101000a81549060ff021916905550507f3e08cba9222b31bb7aac09f5dacaa0671e5c98fafd018a103e62aa35cc58714d81836000015160405161767392919061de3a565b60405180910390a15050565b6176876189a7565b600660009054906101000a900460ff166176cd576040517f683925de00000000000000000000000000000000000000000000000000000000815260040160405180910390fd5b62093a806007546176de919061db9b565b421015617717576040517fbb29fd7600000000000000000000000000000000000000000000000000000000815260040160405180910390fd5b60006177216154cf565b90506000600660006101000a81548160ff02191690831515021790555060006007819055506177506000619e4c565b8073ffffffffffffffffffffffffffffffffffffffff167ff8df31144d9c2f0f6b59d69b8b98abd5459d07f2742c4df920b25aae33c6482060405160405180910390a250565b620186a081565b60608060008084036177db576040517f3492aef600000000000000000000000000000000000000000000000000000000815260040160405180910390fd5b6064841115617816576040517f7022f26f00000000000000000000000000000000000000000000000000000000815260040160405180910390fd5b600060178054905090508091508086106178cd57600067ffffffffffffffff8111156178455761784461d9dd565b5b60405190808252806020026020018201604052801561787857816020015b60608152602001906001900390816178635790505b50600067ffffffffffffffff8111156178945761789361d9dd565b5b6040519080825280602002602001820160405280156178c25781602001602082028036833780820191505090505b509350935050617b10565b600085876178db919061db9b565b9050818111156178e9578190505b600087826178f7919061dbcf565b90508067ffffffffffffffff8111156179135761791261d9dd565b5b60405190808252806020026020018201604052801561794657816020015b60608152602001906001900390816179315790505b5095508067ffffffffffffffff8111156179635761796261d9dd565b5b6040519080825280602002602001820160405280156179915781602001602082028036833780820191505090505b50945060005b81811015617b0b5760006017828b6179af919061db9b565b815481106179c0576179bf61da0c565b5b906000526020600020015490506018600082815260200190815260200160002080546179eb9061da6a565b80601f0160208091040260200160405190810160405280929190818152602001828054617a179061da6a565b8015617a645780601f10617a3957610100808354040283529160200191617a64565b820191906000526020600020905b815481529060010190602001808311617a4757829003601f168201915b5050505050888381518110617a7c57617a7b61da0c565b5b6020026020010181905250601a600082815260200190815260200160002060008c73ffffffffffffffffffffffffffffffffffffffff1673ffffffffffffffffffffffffffffffffffffffff16815260200190815260200160002054878381518110617aeb57617aea61da0c565b5b602002602001018181525050508080617b039061daca565b915050617997565b505050505b93509350939050565b617b216189a7565b60006201518082617b32919061dd26565b905062015180811015617b71576040517f63e53bfd00000000000000000000000000000000000000000000000000000000815260040160405180910390fd5b62278d00811115617bae576040517fe04e5f7600000000000000000000000000000000000000000000000000000000815260040160405180910390fd5b63ffffffff8016811115617bee576040517fc516778700000000000000000000000000000000000000000000000000000000815260040160405180910390fd5b6000816303c267000190506303c26700811015617c37576040517fc139a61100000000000000000000000000000000000000000000000000000000815260040160405180910390fd5b5080601381905550817f33d1191f5a3abfe19d468d51bb5ece97489f1277a912a5b5c65992fc279ad3d460405160405180910390a25050565b617c786189a7565b600660009054906101000a900460ff1615617cbf576040517f347c4ee700000000000000000000000000000000000000000000000000000000815260040160405180910390fd5b600073ffffffffffffffffffffffffffffffffffffffff168173ffffffffffffffffffffffffffffffffffffffff1603617d25576040517fea553b3400000000000000000000000000000000000000000000000000000000815260040160405180910390fd5b617d2d6154cf565b73ffffffffffffffffffffffffffffffffffffffff168173ffffffffffffffffffffffffffffffffffffffff1603617d91576040517fc4592d7a00000000000000000000000000000000000000000000000000000000815260040160405180910390fd5b617d9a8161a794565b8015617df05750600560008273ffffffffffffffffffffffffffffffffffffffff1673ffffffffffffffffffffffffffffffffffffffff16815260200190815260200160002060009054906101000a900460ff16155b15617e27576040517f3a49fd5c00000000000000000000000000000000000000000000000000000000815260040160405180910390fd5b80600460006101000a81548173ffffffffffffffffffffffffffffffffffffffff021916908373ffffffffffffffffffffffffffffffffffffffff160217905550426003819055508073ffffffffffffffffffffffffffffffffffffffff16617e8e6154cf565b73ffffffffffffffffffffffffffffffffffffffff167f2cf6fd9b9ab77c245c3a6f994fcdd0dcad5082c5c03c2121ba304c2741a16d1d6202a30042617ed4919061db9b565b604051617ee1919061cefc565b60405180910390a350565b617ef4618b14565b60008282604051602001617f0992919061db4e565b6040516020818303038152906040528051906020012090506000601a600083815260200190815260200160002060003373ffffffffffffffffffffffffffffffffffffffff1673ffffffffffffffffffffffffffffffffffffffff16815260200190815260200160002054905060008103617fb0576040517f9121b84f00000000000000000000000000000000000000000000000000000000815260040160405180910390fd5b6000601a600084815260200190815260200160002060003373ffffffffffffffffffffffffffffffffffffffff1673ffffffffffffffffffffffffffffffffffffffff1681526020019081526020016000208190555080601b60008481526020019081526020016000206000828254618029919061dbcf565b925050819055506000601660008481526020019081526020016000206040518060e00160405290816000820160009054906101000a900460ff161515151581526020016000820160019054906101000a900473ffffffffffffffffffffffffffffffffffffffff1673ffffffffffffffffffffffffffffffffffffffff1673ffffffffffffffffffffffffffffffffffffffff1681526020016001820160009054906101000a900473ffffffffffffffffffffffffffffffffffffffff1673ffffffffffffffffffffffffffffffffffffffff1673ffffffffffffffffffffffffffffffffffffffff1681526020016001820160149054906101000a900460ff1660ff1660ff168152602001600282015481526020016003820160009054906101000a900460ff161515151581526020016004820154815250509050600073ffffffffffffffffffffffffffffffffffffffff16816020015173ffffffffffffffffffffffffffffffffffffffff16036182c55760003373ffffffffffffffffffffffffffffffffffffffff16836040516181c39061dca0565b60006040518083038185875af1925050503d8060008114618200576040519150601f19603f3d011682016040523d82523d6000602084013e618205565b606091505b50509050806182bf5782601a600086815260200190815260200160002060003373ffffffffffffffffffffffffffffffffffffffff1673ffffffffffffffffffffffffffffffffffffffff1681526020019081526020016000208190555082601b60008681526020019081526020016000206000828254618286919061db9b565b925050819055506040517f0ae6942300000000000000000000000000000000000000000000000000000000815260040160405180910390fd5b506182f5565b6182f43383836020015173ffffffffffffffffffffffffffffffffffffffff1661a7b79092919063ffffffff16565b5b823373ffffffffffffffffffffffffffffffffffffffff167f84396add8db3ebf4773bd540256f3a4357001e69305efcb1a95d565284fbdae48460405161833c919061cefc565b60405180910390a350505061834f618dd1565b5050565b61835b6189a7565b6000600560008373ffffffffffffffffffffffffffffffffffffffff1673ffffffffffffffffffffffffffffffffffffffff16815260200190815260200160002060006101000a81548160ff0219169083151502179055508073ffffffffffffffffffffffffffffffffffffffff167f88d7b4e47baac0d3da32ec23b674f5a638d583d1d651a4cecceb2fbaf123844f60405160405180910390a250565b600381565b600080848460405160200161841492919061db4e565b604051602081830303815290604052805190602001209050601a600082815260200190815260200160002060008473ffffffffffffffffffffffffffffffffffffffff1673ffffffffffffffffffffffffffffffffffffffff168152602001908152602001600020549150509392505050565b601b6020528060005260406000206000915090505481565b6184a7618b14565b6184af61a836565b600086869050036184ec576040517fb4fa3fb300000000000000000000000000000000000000000000000000000000815260040160405180910390fd5b60006184f987878761a877565b905060038081111561850e5761850d61d4b7565b5b8360038111156185215761852061d4b7565b5b148015618531575060648260ff16105b15618568576040517f1f81ecc400000000000000000000000000000000000000000000000000000000815260040160405180910390fd5b601154841080618579575060125484115b156185b0576040517f7616640100000000000000000000000000000000000000000000000000000000815260040160405180910390fd5b60648260ff1611156185ee576040517f50ee6f6800000000000000000000000000000000000000000000000000000000815260040160405180910390fd5b601560009054906101000a900460ff1660ff168260ff16101561863d576040517f895cc90300000000000000000000000000000000000000000000000000000000815260040160405180910390fd5b600073ffffffffffffffffffffffffffffffffffffffff16816060015173ffffffffffffffffffffffffffffffffffffffff16036186845761867f818661ab1d565b61868f565b61868e818661adef565b5b61869c818686868661aee6565b506186a5618dd1565b505050505050565b60008060606000806000806000601d60008a8152602001908152602001600020604051806101600160405290816000820160009054906101000a900473ffffffffffffffffffffffffffffffffffffffff1673ffffffffffffffffffffffffffffffffffffffff1673ffffffffffffffffffffffffffffffffffffffff1681526020016000820160149054906101000a900460ff1660ff1660ff1681526020016000820160159054906101000a900460ff1660038111156187715761877061d4b7565b5b60038111156187835761878261d4b7565b5b81526020016000820160169054906101000a900460ff161515151581526020016000820160179054906101000a900460ff161515151581526020016000820160189054906101000a900460ff1660ff1660ff1681526020016000820160199054906101000a900463ffffffff1663ffffffff1663ffffffff1681526020016001820154815260200160028201548152602001600382015481526020016004820154815250509050806000015197508060e001519650601860008260e001518152602001908152602001600020805461885a9061da6a565b80601f01602080910402602001604051908101604052809291908181526020018280546188869061da6a565b80156188d35780601f106188a8576101008083540402835291602001916188d3565b820191906000526020600020905b8154815290600101906020018083116188b657829003601f168201915b5050505050955080610100015194508060800151935080606001519250600260038111156189045761890361d4b7565b5b8160400151600381111561891b5761891a61d4b7565b5b14801561892a57508060800151155b801561893857508060600151155b156189825760008160a0015160ff16826101200151618957919061dd26565b905080826101200151836101400151618970919061db9b565b61897a919061db9b565b92505061899b565b806101200151816101400151618998919061db9b565b91505b50919395979092949650565b6189af619e44565b73ffffffffffffffffffffffffffffffffffffffff166189cd6154cf565b73ffffffffffffffffffffffffffffffffffffffff1614618a2c576189f0619e44565b6040517f118cdaa7000000000000000000000000000000000000000000000000000000008152600401618a23919061d074565b60405180910390fd5b565b60008190508073ffffffffffffffffffffffffffffffffffffffff1663feaf968c6040518163ffffffff1660e01b815260040160a060405180830381865afa925050508015618a9b57506040513d601f19601f82011682018060405250810190618a98919061e08e565b60015b618ad1576040517ff45e167b00000000000000000000000000000000000000000000000000000000815260040160405180910390fd5b60008413618b0b576040517ff45e167b00000000000000000000000000000000000000000000000000000000815260040160405180910390fd5b50505050505050565b600260005403618b50576040517f3ee5aeb500000000000000000000000000000000000000000000000000000000815260040160405180910390fd5b6002600081905550565b60018260000160176101000a81548160ff0219169083151502179055508160020154601c6000846001015481526020019081526020016000206000828254618ba2919061dbcf565b92505081905550600060648360000160149054906101000a900460ff1660ff168460020154618bd1919061dd26565b618bdb919061dd97565b90506000818460020154618bef919061dbcf565b90506000600380811115618c0657618c0561d4b7565b5b8560000160159054906101000a900460ff166003811115618c2a57618c2961d4b7565b5b03618c395761dead9050618cc7565b60016003811115618c4d57618c4c61d4b7565b5b8560000160159054906101000a900460ff166003811115618c7157618c7061d4b7565b5b03618ca057600b60009054906101000a900473ffffffffffffffffffffffffffffffffffffffff169050618cc6565b600a60009054906101000a900473ffffffffffffffffffffffffffffffffffffffff1690505b5b6000831115618d1a57618cdf8560010154828561b189565b837f025552a005e45b02912def900b2c31382a6d3ad3542ae5dcf1b1f701db19d07e8483604051618d1192919061e3d2565b60405180910390a25b6000821115618d5757618d5685600101548660000160009054906101000a900473ffffffffffffffffffffffffffffffffffffffff168461b189565b5b8460000160009054906101000a900473ffffffffffffffffffffffffffffffffffffffff1673ffffffffffffffffffffffffffffffffffffffff16847fcf7d23a3cbe4e8b36ff82fd1b05b1b17373dc7804b4ebbd6e2356716ef20237284604051618dc2919061cefc565b60405180910390a35050505050565b6001600081905550565b60008803618f28576000618ded61b63f565b90506040518060400160405280600381526020017f4554480000000000000000000000000000000000000000000000000000000000815250888381518110618e3857618e3761da0c565b5b60200260200101819052506000878381518110618e5857618e5761da0c565b5b602002602001019073ffffffffffffffffffffffffffffffffffffffff16908173ffffffffffffffffffffffffffffffffffffffff16815250508060000151868381518110618eaa57618ea961da0c565b5b6020026020010181815250508060200151858381518110618ece57618ecd61da0c565b5b6020026020010181815250508060400151848381518110618ef257618ef161da0c565b5b6020026020010181815250508060600151838381518110618f1657618f1561da0c565b5b60200260200101818152505050619066565b6000618f5d601760018b618f3c919061dbcf565b81548110618f4d57618f4c61da0c565b5b906000526020600020015461b6f7565b90508060000151888381518110618f7757618f7661da0c565b5b60200260200101819052508060200151878381518110618f9a57618f9961da0c565b5b602002602001019073ffffffffffffffffffffffffffffffffffffffff16908173ffffffffffffffffffffffffffffffffffffffff16815250508060400151868381518110618fec57618feb61da0c565b5b60200260200101818152505080606001518583815181106190105761900f61da0c565b5b60200260200101818152505080608001518483815181106190345761903361da0c565b5b6020026020010181815250508060a001518383815181106190585761905761da0c565b5b602002602001018181525050505b5050505050505050565b60018460000160176101000a81548160ff0219169083151502179055508360020154601c60008660010154815260200190815260200160002060008282546190b8919061dbcf565b925050819055506000846002015490506000808411156192a057606484111561910d576040517f8639da7d00000000000000000000000000000000000000000000000000000000815260040160405180910390fd5b600160038111156191215761912061d4b7565b5b8360038111156191345761913361d4b7565b5b141580156191675750600060038111156191515761915061d4b7565b5b8360038111156191645761916361d4b7565b5b14155b1561919e576040517f59821fd200000000000000000000000000000000000000000000000000000000815260040160405180910390fd5b606484836191ac919061dd26565b6191b6919061dd97565b90506000600160038111156191ce576191cd61d4b7565b5b8460038111156191e1576191e061d4b7565b5b1461920e57600a60009054906101000a900473ffffffffffffffffffffffffffffffffffffffff16619232565b600b60009054906101000a900473ffffffffffffffffffffffffffffffffffffffff165b9050600082111561929e5761924c8760010154828461b189565b3373ffffffffffffffffffffffffffffffffffffffff16867f587e785f004641121655a324f02af272b5e9c825bf554a6ff5b9c563015eea21848460405161929592919061e3d2565b60405180910390a35b505b600081836192ae919061dbcf565b905060008111156192c9576192c88760010154338361b189565b5b3373ffffffffffffffffffffffffffffffffffffffff16867fcf7d23a3cbe4e8b36ff82fd1b05b1b17373dc7804b4ebbd6e2356716ef20237283604051619310919061cefc565b60405180910390a350505050505050565b600260038111156193355761933461d4b7565b5b8260000160159054906101000a900460ff1660038111156193595761935861d4b7565b5b036195235760008260000160189054906101000a900460ff1660ff16836003015402905082600301548360000160189054906101000a900460ff1660ff1682816193a6576193a561dd68565b5b04146193de576040517f549a019700000000000000000000000000000000000000000000000000000000815260040160405180910390fd5b6000818460030154856004015401019050836004015481101561942d576040517f549a019700000000000000000000000000000000000000000000000000000000815260040160405180910390fd5b80421015619467576040517f437b039200000000000000000000000000000000000000000000000000000000815260040160405180910390fd5b60018460000160176101000a81548160ff0219169083151502179055508360020154601c60008660010154815260200190815260200160002060008282546194af919061dbcf565b925050819055506194c9846001015433866002015461b189565b3373ffffffffffffffffffffffffffffffffffffffff16837fcf7d23a3cbe4e8b36ff82fd1b05b1b17373dc7804b4ebbd6e2356716ef2023728660020154604051619514919061cefc565b60405180910390a3505061952e565b61952d8282618b5a565b5b5050565b60008060008484619543919061dbcf565b905060005b818110156197f157600060178288619560919061db9b565b815481106195715761957061da0c565b5b9060005260206000200154905060006195898261ba59565b905060008111156195ab576001955080856195a4919061db9b565b94506197dc565b6000601660008481526020019081526020016000206040518060e00160405290816000820160009054906101000a900460ff161515151581526020016000820160019054906101000a900473ffffffffffffffffffffffffffffffffffffffff1673ffffffffffffffffffffffffffffffffffffffff1673ffffffffffffffffffffffffffffffffffffffff1681526020016001820160009054906101000a900473ffffffffffffffffffffffffffffffffffffffff1673ffffffffffffffffffffffffffffffffffffffff1673ffffffffffffffffffffffffffffffffffffffff1681526020016001820160149054906101000a900460ff1660ff1660ff168152602001600282015481526020016003820160009054906101000a900460ff161515151581526020016004820154815250509050600073ffffffffffffffffffffffffffffffffffffffff16816020015173ffffffffffffffffffffffffffffffffffffffff16146197da576000816020015173ffffffffffffffffffffffffffffffffffffffff166370a08231306040518263ffffffff1660e01b8152600401619757919061d074565b602060405180830381865afa158015619774573d6000803e3d6000fd5b505050506040513d601f19601f82011682018060405250810190619798919061dcf9565b9050601b600085815260200190815260200160002054601c6000868152602001908152602001600020546197cc919061db9b565b8111156197d857600197505b505b505b505080806197e99061daca565b915050619548565b50509250929050565b61980261c750565b6040518060400160405280600381526020017f4554480000000000000000000000000000000000000000000000000000000000815250816000018190525060004790506000601c60008681526020019081526020016000205490506000601b600087815260200190815260200160002054905060008183619883919061db9b565b9050808411156199c3576000818561989b919061dbcf565b905060008773ffffffffffffffffffffffffffffffffffffffff16826040516198c39061dca0565b60006040518083038185875af1925050503d8060008114619900576040519150601f19603f3d011682016040523d82523d6000602084013e619905565b606091505b50509050801561997d576001876020019015159081151581525050818760400181815250508773ffffffffffffffffffffffffffffffffffffffff167f05af21d7340bf49fde03a32c3bcc785015c94acd83531fc6dfbfb93a24c364ca83604051619970919061cefc565b60405180910390a26199bc565b6040518060400160405280601381526020017f455448207472616e73666572206661696c65640000000000000000000000000081525087606001819052505b5050619a02565b6040518060400160405280601281526020017f4e6f207265636f76657261626c6520455448000000000000000000000000000081525085606001819052505b5050505092915050565b619a1461c750565b83838080601f016020809104026020016040519081016040528093929190818152602001838380828437600081840152601f19601f820116905080830192505050505050508160000181905250600080866020015173ffffffffffffffffffffffffffffffffffffffff166370a08231306040518263ffffffff1660e01b8152600401619aa1919061d074565b602060405180830381865afa158015619abe573d6000803e3d6000fd5b505050506040513d601f19601f82011682018060405250810190619ae2919061dcf9565b90506000601b60008a815260200190815260200160002054601c60008b815260200190815260200160002054619b18919061db9b565b9050808211619b67576040518060400160405280601581526020017f4e6f207265636f76657261626c6520746f6b656e7300000000000000000000008152508460600181905250505050619dd8565b8082619b73919061dbcf565b92505050600080876020015173ffffffffffffffffffffffffffffffffffffffff1663a9059cbb60e01b8685604051602401619bb092919061e3fb565b604051602081830303815290604052907bffffffffffffffffffffffffffffffffffffffffffffffffffffffff19166020820180517bffffffffffffffffffffffffffffffffffffffffffffffffffffffff8381831617835250505050604051619c1a919061e460565b6000604051808303816000865af19150503d8060008114619c57576040519150601f19603f3d011682016040523d82523d6000602084013e619c5c565b606091505b509150915081619cac576040518060400160405280601181526020017f5472616e736665722072657665727465640000000000000000000000000000008152508460600181905250505050619dd8565b6000815103619cd557600184602001901515908115158152505082846040018181525050619d5c565b600081806020019051810190619ceb919061e4a3565b90508015619d1357600185602001901515908115158152505083856040018181525050619d5a565b6040518060400160405280601781526020017f5472616e736665722072657475726e65642066616c7365000000000000000000815250856060018190525050505050619dd8565b505b5050816020015115619dd6578273ffffffffffffffffffffffffffffffffffffffff16866020015173ffffffffffffffffffffffffffffffffffffffff167f733a14d80f1fcb0833e90f69a6f8716c5a12586560defba943c66af96373049e838888604051619dcd9392919061e4d0565b60405180910390a35b505b95945050505050565b619de961be6f565b6000600260146101000a81548160ff0219169083151502179055507f5db9ee0a495bf2e6ff9c91a7834c1ba4fdd244a5e8aa4e537bd38aeae4b073aa619e2d619e44565b604051619e3a919061d074565b60405180910390a1565b600033905090565b600260006101000a81549073ffffffffffffffffffffffffffffffffffffffff0219169055619e7a8161beaf565b50565b619e8561a836565b6001600260146101000a81548160ff0219169083151502179055507f62e78cea01bee320cd4e420270b5ea74000d11b0c9f74754ebdbfc544b05a258619ec9619e44565b604051619ed6919061d074565b60405180910390a1565b600084905060008173ffffffffffffffffffffffffffffffffffffffff166370a08231306040518263ffffffff1660e01b8152600401619f20919061d074565b602060405180830381865afa158015619f3d573d6000803e3d6000fd5b505050506040513d601f19601f82011682018060405250810190619f61919061dcf9565b90506000601c60008781526020019081526020016000205490506000601b600088815260200190815260200160002054905060008183619fa1919061db9b565b90508873ffffffffffffffffffffffffffffffffffffffff167f6c4916d52fd6fd994184fad1112697ee8292a679db49ca66f12ac15bff60980e8583848811619feb576000619ff8565b8488619ff7919061dbcf565b5b60405161a0079392919061d457565b60405180910390a280841161a048576040517fbc9eb04200000000000000000000000000000000000000000000000000000000815260040160405180910390fd5b6000818561a056919061dbcf565b905061a08387828873ffffffffffffffffffffffffffffffffffffffff1661a7b79092919063ffffffff16565b8673ffffffffffffffffffffffffffffffffffffffff168a73ffffffffffffffffffffffffffffffffffffffff167f733a14d80f1fcb0833e90f69a6f8716c5a12586560defba943c66af96373049e838b60405161a0e292919061e502565b60405180910390a350505050505050505050565b61a0fe61c77a565b600060405160200161a10f9061dc4f565b60405160208183030381529060405280519060200120905060004790506000601c60008481526020019081526020016000205490506000601b60008581526020019081526020016000205490503073ffffffffffffffffffffffffffffffffffffffff16635350758f6040518163ffffffff1660e01b815260040161a1939061dc4f565b602060405180830381865afa92505050801561a1cd57506040513d601f19601f8201168201806040525081019061a1ca919061dcf9565b60015b1561a24c57670de0b6b3a7640000818561a1e7919061dd26565b61a1f1919061dd97565b866000018181525050670de0b6b3a7640000818461a20f919061dd26565b61a219919061dd97565b866020018181525050670de0b6b3a7640000818361a237919061dd26565b61a241919061dd97565b866040018181525050505b5050505090565b61a25b61c77a565b60005b60178054905081101561a30157600061a2946017838154811061a2845761a28361da0c565b5b906000526020600020015461bf75565b905080600001518360000181815161a2ac919061db9b565b9150818152505080602001518360200181815161a2c9919061db9b565b9150818152505080604001518360400181815161a2e6919061db9b565b9150818152505050808061a2f99061daca565b91505061a25e565b5090565b600082905060008173ffffffffffffffffffffffffffffffffffffffff166370a08231306040518263ffffffff1660e01b815260040161a345919061d074565b602060405180830381865afa15801561a362573d6000803e3d6000fd5b505050506040513d601f19601f8201168201806040525081019061a386919061dcf9565b90506000810361a3c2576040517fbc9eb04200000000000000000000000000000000000000000000000000000000815260040160405180910390fd5b8373ffffffffffffffffffffffffffffffffffffffff167f6c4916d52fd6fd994184fad1112697ee8292a679db49ca66f12ac15bff60980e8260008460405161a40d9392919061e56d565b60405180910390a261a44083828473ffffffffffffffffffffffffffffffffffffffff1661a7b79092919063ffffffff16565b8273ffffffffffffffffffffffffffffffffffffffff168473ffffffffffffffffffffffffffffffffffffffff167f733a14d80f1fcb0833e90f69a6f8716c5a12586560defba943c66af96373049e8360405161a49d919061e5f0565b60405180910390a350505050565b6000600260009054906101000a900473ffffffffffffffffffffffffffffffffffffffff16905090565b6060806060806000868661a4e9919061dbcf565b90508067ffffffffffffffff81111561a5055761a50461d9dd565b5b60405190808252806020026020018201604052801561a53857816020015b606081526020019060019003908161a5235790505b5094508067ffffffffffffffff81111561a5555761a55461d9dd565b5b60405190808252806020026020018201604052801561a5835781602001602082028036833780820191505090505b5093508067ffffffffffffffff81111561a5a05761a59f61d9dd565b5b60405190808252806020026020018201604052801561a5ce5781602001602082028036833780820191505090505b5092508067ffffffffffffffff81111561a5eb5761a5ea61d9dd565b5b60405190808252806020026020018201604052801561a6195781602001602082028036833780820191505090505b50915060005b8181101561a7895760006017828a61a637919061db9b565b8154811061a6485761a64761da0c565b5b9060005260206000200154905060186000828152602001908152602001600020805461a6739061da6a565b80601f016020809104026020016040519081016040528092919081815260200182805461a69f9061da6a565b801561a6ec5780601f1061a6c15761010080835404028352916020019161a6ec565b820191906000526020600020905b81548152906001019060200180831161a6cf57829003601f168201915b505050505087838151811061a7045761a70361da0c565b5b602002602001018190525061a7188161c3fb565b88858151811061a72b5761a72a61da0c565b5b6020026020010188868151811061a7455761a74461da0c565b5b6020026020010188878151811061a75f5761a75e61da0c565b5b6020026020010183815250838152508381525050505050808061a7819061daca565b91505061a61f565b505092959194509250565b6000808273ffffffffffffffffffffffffffffffffffffffff163b119050919050565b61a831838473ffffffffffffffffffffffffffffffffffffffff1663a9059cbb858560405160240161a7ea92919061e3fb565b604051602081830303815290604052915060e01b6020820180517bffffffffffffffffffffffffffffffffffffffffffffffffffffffff838183161783525050505061c62c565b505050565b61a83e6147dc565b1561a875576040517fd93c066500000000000000000000000000000000000000000000000000000000815260040160405180910390fd5b565b61a87f61c79b565b838360405160200161a89292919061db4e565b60405160208183030381529060405280519060200120816000018181525050600060166000836000015181526020019081526020016000206040518060e00160405290816000820160009054906101000a900460ff161515151581526020016000820160019054906101000a900473ffffffffffffffffffffffffffffffffffffffff1673ffffffffffffffffffffffffffffffffffffffff1673ffffffffffffffffffffffffffffffffffffffff1681526020016001820160009054906101000a900473ffffffffffffffffffffffffffffffffffffffff1673ffffffffffffffffffffffffffffffffffffffff1673ffffffffffffffffffffffffffffffffffffffff1681526020016001820160149054906101000a900460ff1660ff1660ff168152602001600282015481526020016003820160009054906101000a900460ff161515151581526020016004820154815250509050806000015161aa25576040517f3dd1b30500000000000000000000000000000000000000000000000000000000815260040160405180910390fd5b61aa2f8585613ad5565b82602001818152505061aa42858561383b565b8260400181815250508060200151826060019073ffffffffffffffffffffffffffffffffffffffff16908173ffffffffffffffffffffffffffffffffffffffff16815250508060600151826080019060ff16908160ff16815250506000830361aad7576040517f9d749a9200000000000000000000000000000000000000000000000000000000815260040160405180910390fd5b816040015183101561ab15576040517fde588d7300000000000000000000000000000000000000000000000000000000815260040160405180910390fd5b509392505050565b600082602001518261ab2f919061db9b565b90508034101561ab6b576040517fa01a9df600000000000000000000000000000000000000000000000000000000815260040160405180910390fd5b60008360200151111561ac43576000600b60009054906101000a900473ffffffffffffffffffffffffffffffffffffffff1673ffffffffffffffffffffffffffffffffffffffff16846020015160405161abc49061dca0565b60006040518083038185875af1925050503d806000811461ac01576040519150601f19603f3d011682016040523d82523d6000602084013e61ac06565b606091505b505090508061ac41576040517f4033e4e300000000000000000000000000000000000000000000000000000000815260040160405180910390fd5b505b8034111561adbc576000813461ac59919061dbcf565b905060003373ffffffffffffffffffffffffffffffffffffffff168260405161ac819061dca0565b60006040518083038185875af1925050503d806000811461acbe576040519150601f19603f3d011682016040523d82523d6000602084013e61acc3565b606091505b505090508061adb95781601a60008760000151815260200190815260200160002060003373ffffffffffffffffffffffffffffffffffffffff1673ffffffffffffffffffffffffffffffffffffffff168152602001908152602001600020600082825461ad30919061db9b565b9250508190555081601b600087600001518152602001908152602001600020600082825461ad5e919061db9b565b9250508190555084600001513373ffffffffffffffffffffffffffffffffffffffff167fb7fe9634fea2ac2458084452e1e7857638ebaffb91d5b22d34d74a134801e9338460405161adb0919061cefc565b60405180910390a35b50505b81601c600085600001518152602001908152602001600020600082825461ade3919061db9b565b92505081905550505050565b600034111561ae2a576040517f3c6b4b2800000000000000000000000000000000000000000000000000000000815260040160405180910390fd5b60008260600151905061ae8633600b60009054906101000a900473ffffffffffffffffffffffffffffffffffffffff1685602001518473ffffffffffffffffffffffffffffffffffffffff1661c6ce909392919063ffffffff16565b61aeb33330848473ffffffffffffffffffffffffffffffffffffffff1661c6ce909392919063ffffffff16565b81601c600085600001518152602001908152602001600020600082825461aeda919061db9b565b92505081905550505050565b63ffffffff8016601354111561af28576040517fc516778700000000000000000000000000000000000000000000000000000000815260040160405180910390fd5b6040518061016001604052803373ffffffffffffffffffffffffffffffffffffffff1681526020018260ff16815260200183600381111561af6c5761af6b61d4b7565b5b815260200160001515815260200160001515815260200160145460ff16815260200160135463ffffffff1681526020018660000151815260200185815260200184815260200142815250601d6000601e54815260200190815260200160002060008201518160000160006101000a81548173ffffffffffffffffffffffffffffffffffffffff021916908373ffffffffffffffffffffffffffffffffffffffff16021790555060208201518160000160146101000a81548160ff021916908360ff16021790555060408201518160000160156101000a81548160ff0219169083600381111561b05e5761b05d61d4b7565b5b021790555060608201518160000160166101000a81548160ff02191690831515021790555060808201518160000160176101000a81548160ff02191690831515021790555060a08201518160000160186101000a81548160ff021916908360ff16021790555060c08201518160000160196101000a81548163ffffffff021916908363ffffffff16021790555060e082015181600101556101008201518160020155610120820151816003015561014082015181600401559050503373ffffffffffffffffffffffffffffffffffffffff16601e547f4392aedf3bdc85e85ccf5c599cb7976a5b4f7b7189118379628127df3f40b1048660405161b162919061cefc565b60405180910390a3601e600081548092919061b17d9061daca565b91905055505050505050565b601960009054906101000a900460ff161561b1d0576040517fb2a722f900000000000000000000000000000000000000000000000000000000815260040160405180910390fd5b6001601960006101000a81548160ff0219169083151502179055506000601660008581526020019081526020016000206040518060e00160405290816000820160009054906101000a900460ff161515151581526020016000820160019054906101000a900473ffffffffffffffffffffffffffffffffffffffff1673ffffffffffffffffffffffffffffffffffffffff1673ffffffffffffffffffffffffffffffffffffffff1681526020016001820160009054906101000a900473ffffffffffffffffffffffffffffffffffffffff1673ffffffffffffffffffffffffffffffffffffffff1673ffffffffffffffffffffffffffffffffffffffff1681526020016001820160149054906101000a900460ff1660ff1660ff168152602001600282015481526020016003820160009054906101000a900460ff161515151581526020016004820154815250509050600073ffffffffffffffffffffffffffffffffffffffff16816020015173ffffffffffffffffffffffffffffffffffffffff160361b5ed57600860008473ffffffffffffffffffffffffffffffffffffffff1673ffffffffffffffffffffffffffffffffffffffff16815260200190815260200160002060009054906101000a900460ff161561b46e5760008373ffffffffffffffffffffffffffffffffffffffff168360405161b3d09061dca0565b60006040518083038185875af1925050503d806000811461b40d576040519150601f19603f3d011682016040523d82523d6000602084013e61b412565b606091505b505090508061b468576000601960006101000a81548160ff0219169083151502179055506040517f6d963f8800000000000000000000000000000000000000000000000000000000815260040160405180910390fd5b5061b5e8565b60008373ffffffffffffffffffffffffffffffffffffffff16836108fc9060405161b4989061dca0565b600060405180830381858888f193505050503d806000811461b4d6576040519150601f19603f3d011682016040523d82523d6000602084013e61b4db565b606091505b505090508061b5e65782601a600087815260200190815260200160002060008673ffffffffffffffffffffffffffffffffffffffff1673ffffffffffffffffffffffffffffffffffffffff168152602001908152602001600020600082825461b544919061db9b565b9250508190555082601b6000878152602001908152602001600020600082825461b56e919061db9b565b92505081905550848473ffffffffffffffffffffffffffffffffffffffff167fb7fe9634fea2ac2458084452e1e7857638ebaffb91d5b22d34d74a134801e9338560405161b5bc919061cefc565b60405180910390a36000601960006101000a81548160ff021916908315150217905550505061b63a565b505b61b61d565b61b61c8383836020015173ffffffffffffffffffffffffffffffffffffffff1661a7b79092919063ffffffff16565b5b6000601960006101000a81548160ff021916908315150217905550505b505050565b61b64761c7e6565b600060405160200161b6589061dc4f565b60405160208183030381529060405280519060200120905047826000018181525050601c600082815260200190815260200160002054826020018181525050601b60008281526020019081526020016000205482604001818152505060008260400151836020015161b6ca919061db9b565b9050808360000151111561b6f25780836000015161b6e8919061dbcf565b8360600181815250505b505090565b61b6ff61c80e565b6000601660008481526020019081526020016000206040518060e00160405290816000820160009054906101000a900460ff161515151581526020016000820160019054906101000a900473ffffffffffffffffffffffffffffffffffffffff1673ffffffffffffffffffffffffffffffffffffffff1673ffffffffffffffffffffffffffffffffffffffff1681526020016001820160009054906101000a900473ffffffffffffffffffffffffffffffffffffffff1673ffffffffffffffffffffffffffffffffffffffff1673ffffffffffffffffffffffffffffffffffffffff1681526020016001820160149054906101000a900460ff1660ff1660ff168152602001600282015481526020016003820160009054906101000a900460ff16151515158152602001600482015481525050905060186000848152602001908152602001600020805461b8529061da6a565b80601f016020809104026020016040519081016040528092919081815260200182805461b87e9061da6a565b801561b8cb5780601f1061b8a05761010080835404028352916020019161b8cb565b820191906000526020600020905b81548152906001019060200180831161b8ae57829003601f168201915b505050505082600001819052508060200151826020019073ffffffffffffffffffffffffffffffffffffffff16908173ffffffffffffffffffffffffffffffffffffffff1681525050600073ffffffffffffffffffffffffffffffffffffffff16826020015173ffffffffffffffffffffffffffffffffffffffff161461b9d457816020015173ffffffffffffffffffffffffffffffffffffffff166370a08231306040518263ffffffff1660e01b815260040161b989919061d074565b602060405180830381865afa15801561b9a6573d6000803e3d6000fd5b505050506040513d601f19601f8201168201806040525081019061b9ca919061dcf9565b8260400181815250505b601c600084815260200190815260200160002054826060018181525050601b60008481526020019081526020016000205482608001818152505060008260800151836060015161ba24919061db9b565b90508083604001511161ba3857600061ba49565b80836040015161ba48919061dbcf565b5b8360a00181815250505050919050565b600080601660008481526020019081526020016000206040518060e00160405290816000820160009054906101000a900460ff161515151581526020016000820160019054906101000a900473ffffffffffffffffffffffffffffffffffffffff1673ffffffffffffffffffffffffffffffffffffffff1673ffffffffffffffffffffffffffffffffffffffff1681526020016001820160009054906101000a900473ffffffffffffffffffffffffffffffffffffffff1673ffffffffffffffffffffffffffffffffffffffff1673ffffffffffffffffffffffffffffffffffffffff1681526020016001820160149054906101000a900460ff1660ff1660ff168152602001600282015481526020016003820160009054906101000a900460ff161515151581526020016004820154815250509050600073ffffffffffffffffffffffffffffffffffffffff16816020015173ffffffffffffffffffffffffffffffffffffffff160361bbd157600091505061be6a565b60008160200151905060008173ffffffffffffffffffffffffffffffffffffffff166370a08231306040518263ffffffff1660e01b815260040161bc15919061d074565b602060405180830381865afa15801561bc32573d6000803e3d6000fd5b505050506040513d601f19601f8201168201806040525081019061bc56919061dcf9565b90506000601c60008781526020019081526020016000205490506000601b60008881526020019081526020016000205490506000818361bc96919061db9b565b90508084111561be63576000818561bcae919061dbcf565b90506000601860008b8152602001908152602001600020805461bcd09061da6a565b80601f016020809104026020016040519081016040528092919081815260200182805461bcfc9061da6a565b801561bd495780601f1061bd1e5761010080835404028352916020019161bd49565b820191906000526020600020905b81548152906001019060200180831161bd2c57829003601f168201915b505050505090503073ffffffffffffffffffffffffffffffffffffffff16635350758f826040518263ffffffff1660e01b815260040161bd89919061ce6f565b602060405180830381865afa92505050801561bdc357506040513d601f19601f8201168201806040525081019061bdc0919061dcf9565b60015b61bdd0576000985061be60565b600060128a6060015160ff16101561be11578960600151601261bdf3919061de63565b600a61bdff919061dfcb565b8461be0a919061dd26565b905061be3c565b60128a6060015161be22919061de63565b600a61be2e919061dfcb565b8461be39919061dd97565b90505b670de0b6b3a7640000828261be51919061dd26565b61be5b919061dd97565b9a5050505b50505b5050505050505b919050565b61be776147dc565b61bead576040517f8dfc202b00000000000000000000000000000000000000000000000000000000815260040160405180910390fd5b565b6000600160009054906101000a900473ffffffffffffffffffffffffffffffffffffffff16905081600160006101000a81548173ffffffffffffffffffffffffffffffffffffffff021916908373ffffffffffffffffffffffffffffffffffffffff1602179055508173ffffffffffffffffffffffffffffffffffffffff168173ffffffffffffffffffffffffffffffffffffffff167f8be0079c531659141344cd1fd0a4f28419497f9722a3daafe3b4186f6b6457e060405160405180910390a35050565b61bf7d61c77a565b6000601660008481526020019081526020016000206040518060e00160405290816000820160009054906101000a900460ff161515151581526020016000820160019054906101000a900473ffffffffffffffffffffffffffffffffffffffff1673ffffffffffffffffffffffffffffffffffffffff1673ffffffffffffffffffffffffffffffffffffffff1681526020016001820160009054906101000a900473ffffffffffffffffffffffffffffffffffffffff1673ffffffffffffffffffffffffffffffffffffffff1673ffffffffffffffffffffffffffffffffffffffff1681526020016001820160149054906101000a900460ff1660ff1660ff168152602001600282015481526020016003820160009054906101000a900460ff161515151581526020016004820154815250509050600073ffffffffffffffffffffffffffffffffffffffff16816020015173ffffffffffffffffffffffffffffffffffffffff160361c0f0575061c3f6565b60008160200151905060008173ffffffffffffffffffffffffffffffffffffffff166370a08231306040518263ffffffff1660e01b815260040161c134919061d074565b602060405180830381865afa15801561c151573d6000803e3d6000fd5b505050506040513d601f19601f8201168201806040525081019061c175919061dcf9565b90506000601c60008781526020019081526020016000205490506000601b6000888152602001908152602001600020549050600060186000898152602001908152602001600020805461c1c79061da6a565b80601f016020809104026020016040519081016040528092919081815260200182805461c1f39061da6a565b801561c2405780601f1061c2155761010080835404028352916020019161c240565b820191906000526020600020905b81548152906001019060200180831161c22357829003601f168201915b505050505090503073ffffffffffffffffffffffffffffffffffffffff16635350758f826040518263ffffffff1660e01b815260040161c280919061ce6f565b602060405180830381865afa92505050801561c2ba57506040513d601f19601f8201168201806040525081019061c2b7919061dcf9565b60015b1561c3ef57600080600060128a6060015160ff16101561c3255760008a60600151601261c2e7919061de63565b600a61c2f3919061dfcb565b9050808961c301919061dd26565b9350808861c30f919061dd26565b9250808761c31d919061dd26565b91505061c372565b600060128b6060015161c338919061de63565b600a61c344919061dfcb565b9050808961c352919061dd97565b9350808861c360919061dd97565b9250808761c36e919061dd97565b9150505b670de0b6b3a7640000848461c387919061dd26565b61c391919061dd97565b8b6000018181525050670de0b6b3a7640000848361c3af919061dd26565b61c3b9919061dd97565b8b6020018181525050670de0b6b3a7640000848261c3d7919061dd26565b61c3e1919061dd97565b8b6040018181525050505050505b5050505050505b919050565b60008060008060186000868152602001908152602001600020805461c41f9061da6a565b80601f016020809104026020016040519081016040528092919081815260200182805461c44b9061da6a565b801561c4985780601f1061c46d5761010080835404028352916020019161c498565b820191906000526020600020905b81548152906001019060200180831161c47b57829003601f168201915b505050505090503073ffffffffffffffffffffffffffffffffffffffff16635350758f826040518263ffffffff1660e01b815260040161c4d8919061ce6f565b602060405180830381865afa92505050801561c51257506040513d601f19601f8201168201806040525081019061c50f919061dcf9565b60015b61c5275760009350600092506000915061c624565b8094503073ffffffffffffffffffffffffffffffffffffffff16634c539690836040518263ffffffff1660e01b815260040161c563919061ce6f565b602060405180830381865afa15801561c580573d6000803e3d6000fd5b505050506040513d601f19601f8201168201806040525081019061c5a4919061dcf9565b93503073ffffffffffffffffffffffffffffffffffffffff166336227c69836040518263ffffffff1660e01b815260040161c5df919061ce6f565b602060405180830381865afa15801561c5fc573d6000803e3d6000fd5b505050506040513d601f19601f8201168201806040525081019061c620919061dcf9565b9250505b509193909250565b600080602060008451602086016000885af18061c64f576040513d6000823e3d81fd5b3d92506000519150506000821461c66a57600181141561c686565b60008473ffffffffffffffffffffffffffffffffffffffff163b145b1561c6c857836040517f5274afe700000000000000000000000000000000000000000000000000000000815260040161c6bf919061d074565b60405180910390fd5b50505050565b61c74a848573ffffffffffffffffffffffffffffffffffffffff166323b872dd86868660405160240161c7039392919061e61e565b604051602081830303815290604052915060e01b6020820180517bffffffffffffffffffffffffffffffffffffffffffffffffffffffff838183161783525050505061c62c565b50505050565b60405180608001604052806060815260200160001515815260200160008152602001606081525090565b60405180606001604052806000815260200160008152602001600081525090565b6040518060a00160405280600080191681526020016000815260200160008152602001600073ffffffffffffffffffffffffffffffffffffffff168152602001600060ff1681525090565b6040518060800160405280600081526020016000815260200160008152602001600081525090565b6040518060c0016040528060608152602001600073ffffffffffffffffffffffffffffffffffffffff168152602001600081526020016000815260200160008152602001600081525090565b600081519050919050565b600082825260208201905092915050565b6000819050602082019050919050565b600081519050919050565b600082825260208201905092915050565b60005b8381101561c8c057808201518184015260208101905061c8a5565b60008484015250505050565b6000601f19601f8301169050919050565b600061c8e88261c886565b61c8f2818561c891565b935061c90281856020860161c8a2565b61c90b8161c8cc565b840191505092915050565b600061c922838361c8dd565b905092915050565b6000602082019050919050565b600061c9428261c85a565b61c94c818561c865565b93508360208202850161c95e8561c876565b8060005b8581101561c99a578484038952815161c97b858261c916565b945061c9868361c92a565b925060208a0199505060018101905061c962565b50829750879550505050505092915050565b6000602082019050818103600083015261c9c6818461c937565b905092915050565b600080fd5b600080fd5b600080fd5b600080fd5b600080fd5b60008083601f84011261c9fd5761c9fc61c9d8565b5b8235905067ffffffffffffffff81111561ca1a5761ca1961c9dd565b5b60208301915083600182028301111561ca365761ca3561c9e2565b5b9250929050565b600073ffffffffffffffffffffffffffffffffffffffff82169050919050565b600061ca688261ca3d565b9050919050565b61ca788161ca5d565b811461ca8357600080fd5b50565b60008135905061ca958161ca6f565b92915050565b60008060006040848603121561cab45761cab361c9ce565b5b600084013567ffffffffffffffff81111561cad25761cad161c9d3565b5b61cade8682870161c9e7565b9350935050602061caf18682870161ca86565b9150509250925092565b6000819050919050565b61cb0e8161cafb565b811461cb1957600080fd5b50565b60008135905061cb2b8161cb05565b92915050565b60006020828403121561cb475761cb4661c9ce565b5b600061cb558482850161cb1c565b91505092915050565b6000806040838503121561cb755761cb7461c9ce565b5b600061cb838582860161cb1c565b925050602061cb948582860161cb1c565b9150509250929050565b600081519050919050565b600082825260208201905092915050565b6000819050602082019050919050565b61cbd38161ca5d565b82525050565b600061cbe5838361cbca565b60208301905092915050565b6000602082019050919050565b600061cc098261cb9e565b61cc13818561cba9565b935061cc1e8361cbba565b8060005b8381101561cc4f57815161cc36888261cbd9565b975061cc418361cbf1565b92505060018101905061cc22565b5085935050505092915050565b600081519050919050565b600082825260208201905092915050565b6000819050602082019050919050565b61cc918161cafb565b82525050565b600061cca3838361cc88565b60208301905092915050565b6000602082019050919050565b600061ccc78261cc5c565b61ccd1818561cc67565b935061ccdc8361cc78565b8060005b8381101561cd0d57815161ccf4888261cc97565b975061ccff8361ccaf565b92505060018101905061cce0565b5085935050505092915050565b61cd238161cafb565b82525050565b600060e082019050818103600083015261cd43818a61c937565b9050818103602083015261cd57818961cbfe565b9050818103604083015261cd6b818861ccbc565b9050818103606083015261cd7f818761ccbc565b9050818103608083015261cd93818661ccbc565b905081810360a083015261cda7818561ccbc565b905061cdb660c083018461cd1a565b98975050505050505050565b6000819050919050565b61cdd58161cdc2565b811461cde057600080fd5b50565b60008135905061cdf28161cdcc565b92915050565b60006020828403121561ce0e5761ce0d61c9ce565b5b600061ce1c8482850161cde3565b91505092915050565b600082825260208201905092915050565b600061ce418261c886565b61ce4b818561ce25565b935061ce5b81856020860161c8a2565b61ce648161c8cc565b840191505092915050565b6000602082019050818103600083015261ce89818461ce36565b905092915050565b600061ce9c8261ca3d565b9050919050565b61ceac8161ce91565b811461ceb757600080fd5b50565b60008135905061cec98161cea3565b92915050565b60006020828403121561cee55761cee461c9ce565b5b600061cef38482850161ceba565b91505092915050565b600060208201905061cf11600083018461cd1a565b92915050565b600060ff82169050919050565b61cf2d8161cf17565b82525050565b600060208201905061cf48600083018461cf24565b92915050565b6004811061cf5b57600080fd5b50565b60008135905061cf6d8161cf4e565b92915050565b60008060006060848603121561cf8c5761cf8b61c9ce565b5b600061cf9a8682870161cb1c565b935050602061cfab8682870161cb1c565b925050604061cfbc8682870161cf5e565b9150509250925092565b6000806020838503121561cfdd5761cfdc61c9ce565b5b600083013567ffffffffffffffff81111561cffb5761cffa61c9d3565b5b61d0078582860161c9e7565b92509250509250929050565b60008115159050919050565b61d0288161d013565b82525050565b600060608201905061d043600083018661d01f565b61d050602083018561cd1a565b61d05d604083018461cd1a565b949350505050565b61d06e8161ca5d565b82525050565b600060208201905061d089600083018461d065565b92915050565b60008083601f84011261d0a55761d0a461c9d8565b5b8235905067ffffffffffffffff81111561d0c25761d0c161c9dd565b5b60208301915083602082028301111561d0de5761d0dd61c9e2565b5b9250929050565b60008060006040848603121561d0fe5761d0fd61c9ce565b5b600084013567ffffffffffffffff81111561d11c5761d11b61c9d3565b5b61d1288682870161d08f565b9350935050602061d13b8682870161ca86565b9150509250925092565b600081519050919050565b600082825260208201905092915050565b6000819050602082019050919050565b61d17a8161d013565b82525050565b6000608083016000830151848203600086015261d19d828261c8dd565b915050602083015161d1b2602086018261d171565b50604083015161d1c5604086018261cc88565b506060830151848203606086015261d1dd828261c8dd565b9150508091505092915050565b600061d1f6838361d180565b905092915050565b6000602082019050919050565b600061d2168261d145565b61d220818561d150565b93508360208202850161d2328561d161565b8060005b8581101561d26e578484038952815161d24f858261d1ea565b945061d25a8361d1fe565b925060208a0199505060018101905061d236565b50829750879550505050505092915050565b6000602082019050818103600083015261d29a818461d20b565b905092915050565b60006020828403121561d2b85761d2b761c9ce565b5b600061d2c68482850161ca86565b91505092915050565b600060608201905061d2e4600083018661cd1a565b61d2f1602083018561cd1a565b61d2fe604083018461d01f565b949350505050565b61d30f8161cdc2565b82525050565b600060208201905061d32a600083018461d306565b92915050565b600060a08201905061d345600083018861cd1a565b61d352602083018761cd1a565b61d35f604083018661cd1a565b61d36c606083018561cd1a565b61d379608083018461cd1a565b9695505050505050565b61d38c8161cf17565b811461d39757600080fd5b50565b60008135905061d3a98161d383565b92915050565b60006020828403121561d3c55761d3c461c9ce565b5b600061d3d38482850161d39a565b91505092915050565b600060208201905061d3f1600083018461d01f565b92915050565b60008060006040848603121561d4105761d40f61c9ce565b5b600084013567ffffffffffffffff81111561d42e5761d42d61c9d3565b5b61d43a8682870161c9e7565b9350935050602061d44d8682870161cb1c565b9150509250925092565b600060608201905061d46c600083018661cd1a565b61d479602083018561cd1a565b61d486604083018461cd1a565b949350505050565b600060408201905061d4a3600083018561d01f565b61d4b0602083018461cd1a565b9392505050565b7f4e487b7100000000000000000000000000000000000000000000000000000000600052602160045260246000fd5b6004811061d4f75761d4f661d4b7565b5b50565b600081905061d5088261d4e6565b919050565b600061d5188261d4fa565b9050919050565b61d5288161d50d565b82525050565b600063ffffffff82169050919050565b61d5478161d52e565b82525050565b60006101608201905061d563600083018e61d065565b61d570602083018d61cf24565b61d57d604083018c61d51f565b61d58a606083018b61d01f565b61d597608083018a61d01f565b61d5a460a083018961cf24565b61d5b160c083018861d53e565b61d5be60e083018761d306565b61d5cc61010083018661cd1a565b61d5da61012083018561cd1a565b61d5e861014083018461cd1a565b9c9b505050505050505050505050565b60008060008060008060a0878903121561d6155761d61461c9ce565b5b600087013567ffffffffffffffff81111561d6335761d63261c9d3565b5b61d63f89828a0161c9e7565b9650965050602061d65289828a0161ca86565b945050604061d66389828a0161ca86565b935050606061d67489828a0161d39a565b925050608061d68589828a0161cb1c565b9150509295509295509295565b6000806040838503121561d6a95761d6a861c9ce565b5b600061d6b78582860161cde3565b925050602061d6c88582860161ca86565b9150509250929050565b6000806040838503121561d6e95761d6e861c9ce565b5b600061d6f78582860161ca86565b925050602061d7088582860161ca86565b9150509250929050565b600060e08201905061d727600083018a61d01f565b61d734602083018961d065565b61d741604083018861d065565b61d74e606083018761cf24565b61d75b608083018661cd1a565b61d76860a083018561d01f565b61d77560c083018461cd1a565b98975050505050505050565b600060808201905061d796600083018761cd1a565b61d7a3602083018661d01f565b61d7b0604083018561cd1a565b61d7bd606083018461cd1a565b95945050505050565b600060a082019050818103600083015261d7e0818861c937565b9050818103602083015261d7f4818761ccbc565b9050818103604083015261d808818661ccbc565b9050818103606083015261d81c818561ccbc565b905061d82b608083018461cd1a565b9695505050505050565b60008060006060848603121561d84e5761d84d61c9ce565b5b600061d85c8682870161ca86565b935050602061d86d8682870161cb1c565b925050604061d87e8682870161cb1c565b9150509250925092565b6000606082019050818103600083015261d8a2818661c937565b9050818103602083015261d8b6818561ccbc565b905061d8c5604083018461cd1a565b949350505050565b60008060008060008060a0878903121561d8ea5761d8e961c9ce565b5b600087013567ffffffffffffffff81111561d9085761d90761c9d3565b5b61d91489828a0161c9e7565b9650965050602061d92789828a0161cb1c565b945050604061d93889828a0161cb1c565b935050606061d94989828a0161cf5e565b925050608061d95a89828a0161d39a565b9150509295509295509295565b600060e08201905061d97c600083018a61d065565b61d989602083018961d306565b818103604083015261d99b818861ce36565b905061d9aa606083018761cd1a565b61d9b7608083018661d01f565b61d9c460a083018561d01f565b61d9d160c083018461cd1a565b98975050505050505050565b7f4e487b7100000000000000000000000000000000000000000000000000000000600052604160045260246000fd5b7f4e487b7100000000000000000000000000000000000000000000000000000000600052603260045260246000fd5b7f4e487b7100000000000000000000000000000000000000000000000000000000600052602260045260246000fd5b6000600282049050600182168061da8257607f821691505b60208210810361da955761da9461da3b565b5b50919050565b7f4e487b7100000000000000000000000000000000000000000000000000000000600052601160045260246000fd5b600061dad58261cafb565b91507fffffffffffffffffffffffffffffffffffffffffffffffffffffffffffffffff820361db075761db0661da9b565b5b600182019050919050565b82818337600083830152505050565b600061db2d838561ce25565b935061db3a83858461db12565b61db438361c8cc565b840190509392505050565b6000602082019050818103600083015261db6981848661db21565b90509392505050565b600060408201905061db87600083018561d065565b61db94602083018461d065565b9392505050565b600061dba68261cafb565b915061dbb18361cafb565b925082820190508082111561dbc95761dbc861da9b565b5b92915050565b600061dbda8261cafb565b915061dbe58361cafb565b925082820390508181111561dbfd5761dbfc61da9b565b5b92915050565b7f4554480000000000000000000000000000000000000000000000000000000000600082015250565b600061dc3960038361ce25565b915061dc448261dc03565b602082019050919050565b6000602082019050818103600083015261dc688161dc2c565b9050919050565b600081905092915050565b50565b600061dc8a60008361dc6f565b915061dc958261dc7a565b600082019050919050565b600061dcab8261dc7d565b9150819050919050565b7f4e487b7100000000000000000000000000000000000000000000000000000000600052603160045260246000fd5b60008151905061dcf38161cb05565b92915050565b60006020828403121561dd0f5761dd0e61c9ce565b5b600061dd1d8482850161dce4565b91505092915050565b600061dd318261cafb565b915061dd3c8361cafb565b925082820261dd4a8161cafb565b9150828204841483151761dd615761dd6061da9b565b5b5092915050565b7f4e487b7100000000000000000000000000000000000000000000000000000000600052601260045260246000fd5b600061dda28261cafb565b915061ddad8361cafb565b92508261ddbd5761ddbc61dd68565b5b828204905092915050565b600080fd5b600080fd5b600080fd5b6000808335600160200384360303811261ddf45761ddf361ddc8565b5b80840192508235915067ffffffffffffffff82111561de165761de1561ddcd565b5b60208301925060018202360383131561de325761de3161ddd2565b5b509250929050565b600060408201905061de4f600083018561cd1a565b61de5c602083018461cd1a565b9392505050565b600061de6e8261cf17565b915061de798361cf17565b9250828203905060ff81111561de925761de9161da9b565b5b92915050565b60008160011c9050919050565b6000808291508390505b600185111561deef5780860481111561decb5761deca61da9b565b5b600185161561deda5780820291505b808102905061dee88561de98565b945061deaf565b94509492505050565b60008261df08576001905061dfc4565b8161df16576000905061dfc4565b816001811461df2c576002811461df365761df65565b600191505061dfc4565b60ff84111561df485761df4761da9b565b5b8360020a91508482111561df5f5761df5e61da9b565b5b5061dfc4565b5060208310610133831016604e8410600b841016171561df9a5782820a90508381111561df955761df9461da9b565b5b61dfc4565b61dfa7848484600161dea5565b9250905081840481111561dfbe5761dfbd61da9b565b5b81810290505b9392505050565b600061dfd68261cafb565b915061dfe18361cf17565b925061e00e7fffffffffffffffffffffffffffffffffffffffffffffffffffffffffffffffff848461def8565b905092915050565b600069ffffffffffffffffffff82169050919050565b61e0358161e016565b811461e04057600080fd5b50565b60008151905061e0528161e02c565b92915050565b6000819050919050565b61e06b8161e058565b811461e07657600080fd5b50565b60008151905061e0888161e062565b92915050565b600080600080600060a0868803121561e0aa5761e0a961c9ce565b5b600061e0b88882890161e043565b955050602061e0c98882890161e079565b945050604061e0da8882890161dce4565b935050606061e0eb8882890161dce4565b925050608061e0fc8882890161e043565b9150509295509295909350565b60008151905061e1188161d383565b92915050565b60006020828403121561e1345761e13361c9ce565b5b600061e1428482850161e109565b91505092915050565b600082905092915050565b60008190508160005260206000209050919050565b60006020601f8301049050919050565b600082821b905092915050565b60006008830261e1b87fffffffffffffffffffffffffffffffffffffffffffffffffffffffffffffffff8261e17b565b61e1c2868361e17b565b95508019841693508086168417925050509392505050565b6000819050919050565b600061e1ff61e1fa61e1f58461cafb565b61e1da565b61cafb565b9050919050565b6000819050919050565b61e2198361e1e4565b61e22d61e2258261e206565b84845461e188565b825550505050565b600090565b61e24261e235565b61e24d81848461e210565b505050565b5b8181101561e2715761e26660008261e23a565b60018101905061e253565b5050565b601f82111561e2b65761e2878161e156565b61e2908461e16b565b8101602085101561e29f578190505b61e2b361e2ab8561e16b565b83018261e252565b50505b505050565b600082821c905092915050565b600061e2d96000198460080261e2bb565b1980831691505092915050565b600061e2f2838361e2c8565b9150826002028217905092915050565b61e30c838361e14b565b67ffffffffffffffff81111561e3255761e32461d9dd565b5b61e32f825461da6a565b61e33a82828561e275565b6000601f83116001811461e369576000841561e357578287013590505b61e361858261e2e6565b86555061e3c9565b601f19841661e3778661e156565b60005b8281101561e39f5784890135825560018201915060208501945060208101905061e37a565b8683101561e3bc578489013561e3b8601f89168261e2c8565b8355505b6001600288020188555050505b50505050505050565b600060408201905061e3e7600083018561cd1a565b61e3f4602083018461d065565b9392505050565b600060408201905061e410600083018561d065565b61e41d602083018461cd1a565b9392505050565b600081519050919050565b600061e43a8261e424565b61e444818561dc6f565b935061e45481856020860161c8a2565b80840191505092915050565b600061e46c828461e42f565b915081905092915050565b61e4808161d013565b811461e48b57600080fd5b50565b60008151905061e49d8161e477565b92915050565b60006020828403121561e4b95761e4b861c9ce565b5b600061e4c78482850161e48e565b91505092915050565b600060408201905061e4e5600083018661cd1a565b818103602083015261e4f881848661db21565b9050949350505050565b600060408201905061e517600083018561cd1a565b818103602083015261e529818461ce36565b90509392505050565b6000819050919050565b600061e55761e55261e54d8461e532565b61e1da565b61cafb565b9050919050565b61e5678161e53c565b82525050565b600060608201905061e582600083018661cd1a565b61e58f602083018561e55e565b61e59c604083018461cd1a565b949350505050565b7f554e4b4e4f574e00000000000000000000000000000000000000000000000000600082015250565b600061e5da60078361ce25565b915061e5e58261e5a4565b602082019050919050565b600060408201905061e605600083018461cd1a565b818103602083015261e6168161e5cd565b905092915050565b600060608201905061e633600083018661d065565b61e640602083018561d065565b61e64d604083018461cd1a565b94935050505056fea2646970667358221220e0455c83e8ba623df4a509e609f1ec3484213587dc75f2188aa5d0c5c533f72764736f6c63430008140033",
  "linkReferences": {},
  "deployedLinkReferences": {}
}